:020000040800F2
:10000000580D0020D5440008C1060008C3060008AA
:10001000C7060008CB060008CF0600080000000055
:10002000000000000000000000000000D3060008EF
:10003000D506000800000000D7060008D906000811
:10004000EF440008EF440008EF440008EF440008C4
:10005000EF440008EF440008EF440008EF440008B4
:10006000EF440008EF440008EF440008EF440008A4
:10007000EF440008EF440008EF440008EF44000894
:10008000EF440008EF440008EF440008EF44000884
:10009000EF440008EF440008EF440008EF44000874
:1000A000EF440008EF440008EF440008EF44000864
:1000B000EF440008EF440008956B0008EF44000887
:1000C000EF440008EF440008EF440008EF44000844
:1000D000EF4400084B440008EF440008C53E000808
:1000E000EF440008EF440008EF440008EF44000824
:1000F000EF440008EF440008EF440008EF44000814
:10010000EF440008EF440008EF440008EF44000803
:10011000EF440008EF440008EF440008393E0008AF
:10012000EF440008EF440008EF440008EF440008E3
:1001300000F002F800F0B0F80AA090E8000C824449
:100140008344AAF10107DA4501D100F0A5F8AFF226
:10015000090EBAE80F0013F0010F18BFFB1A43F0A5
:100160000103184788A70000A8A700000A444FF021
:10017000000C10F8013B13F0070408BF10F8014B06
:100180001D1108BF10F8015B641E05D010F8016B4B
:10019000641E01F8016BF9D113F0080F1EBF10F8AF
:1001A000014BAD1C0C1B09D16D1E58BF01F801CBD2
:1001B000FAD505E014F8016B01F8016B6D1EF9D555
:1001C0009142D6D37047000000230024002500266A
:1001D000103A28BF78C1FBD8520728BF30C148BFAA
:1001E0000B6070476E2907F0EA84702907F0498395
:1001F000662908F0E186652908F0DE86672908F09F
:10020000DB866129AFF3008003681B0A28BF41F039
:100210008001692907F0BA82642907F0B78275293D
:1002200007F0B4826F2907F0E285782907F015837B
:10023000E92907F07D85E42907F07A85F52907F09B
:100240007785EF2907F0DF85F82907F01483036825
:10025000DB0928BF41F08001632907F0EC84732992
:1002600007F0F184E32908F03780F32908F03C8097
:10027000002070471FB508F08DF804000020002111
:1002800008F046FD401C60600020002108F02AFDB7
:10029000E0601FBD10B510BD08F04EF81146FFF725
:1002A000E9FF00F03EF808F02BF903B4FFF7F2FF86
:1002B00003BC04F06FF800001CB503F032FF012806
:1002C0000AD1ADA010210B46C822CDE900108C2127
:1002D0001E2003F072FD09E0AAA010210B46C822DF
:1002E000CDE900108C211E2003F067FD1CBD1CB55C
:1002F000A748006850B1A7A010210B467822CDE98D
:1003000000108C21104603F058FD09E0A5A0102133
:100310000B467822CDE900108C21104603F04DFDEC
:100320001CBD88B000260025002703F0C9FF4FF44C
:10033000A06004F0EFF84FF4E13004F03AF800F078
:10034000BDFA00F0E1FA00F0ADFF9A48416848209C
:1003500088474FF478409849088098A010210B46B0
:10036000C822CDE900101E21084603F026FD99A001
:1003700010210B46C822CDE9001032211E2003F0C7
:100380001CFD9AA010210B46C822CDE90010462181
:100390001E2003F012FD4FF47A7003F0CEFF1AE036
:1003A00096A010210B46C822CDE900105A211E202C
:1003B00003F003FD4FF4FA7003F0BFFF93A0102188
:1003C0000B46C822CDE900105A211E2003F0F5FC8F
:1003D000642003F0B2FF03F033FE0028E0D18FA0C9
:1003E00010210B46D222CDE900105A211E2003F025
:1003F000E4FC91A010210B46C822CDE900106E212B
:100400001E2003F0DAFC91A010210B46C822CDE992
:100410000010A0211E2003F0D0FC8EA010210B465E
:10042000C822CDE90010B4211E2003F0C6FC1F2015
:1004300061490880FFF740FF642003F07EFF002041
:100440008749088097E0002000F078FA0446022CE3
:100450001AD103F066FE0446FF2C2AD00CB9012005
:1004600000E0002004461CB97EA003F099FE02E0E3
:100470007FA003F095FEFFF71FFF80A003F090FE22
:10048000C82003F05AFF14E0012C0FD10EB901204F
:1004900000E00020064666B94FF6FF70B023F02258
:1004A000A0210090462003F02EFA02E00A2003F07B
:1004B00044FFB8F1320F24D1BEB12A4672A103A87D
:1004C00007F0FEF803A810210B46C822CDE9001062
:1004D000A021462003F071FC29466BA003F080FDAB
:1004E000681CC5B2632D00DD0025FFF700FF4FF04B
:1004F00000086A48006808B9012000E00020674948
:1005000008605748008800F4004080B34FF6FF7041
:100510004FF4A073F022C82100901E2003F0F3F9DD
:100520004F480088C7B200205D49C855092F01D047
:10053000082F0FD15BA15A4807F092FA10B900209A
:100540005B4908605BA1564807F08AFA10B90120A0
:1005500057490860524810217723D122CDE9001075
:10056000C8211E2003F029FC00203D49088008F125
:10057000010000F0FF0866E7524F4C453A4D6173A9
:1005800074657200524F4C453A536C617665200099
:100590003C0121425354413A436F6E6E656374656A
:1005A000642000005354413A446973636F6E6E6572
:1005B000637400007800002016000020414C49457B
:1005C0004E54454B2053544D33324631205E5F5ECE
:1005D000000000004843303520424C5545544F4FF1
:1005E000544820434F4D20544553540041544F4DDF
:1005F00040414C49454E54454B00000041544B2D61
:1006000048433035204572726F722100506C65612D
:10061000736520436865636B212121004B45593187
:100620003A524F4C45204B4559303A53454E442F92
:1006300053544F500000000041544B2D4843303577
:10064000205374616E6462792100000053656E640A
:100650003A000000526563656976653A0000000063
:100660001A00002041542B524F4C453D30000000F1
:1006700041542B524F4C453D3100000041542B5208
:100680004553455400000000414C49454E54454BEC
:1006900020484330352025640D0A00009481214212
:1006A0007A0100202B4C454431204F4E00000000C1
:1006B000940123422B4C454431204F464600000014
:1006C000704700BFFEE700BFFEE700BFFEE700BFC8
:1006D000FEE7704770477047704700000CB5002078
:1006E000019000906C48006840F480306A490860CE
:1006F00000BF6948006800F4003000900198401C79
:100700000190009818B90198B0F5A06FF1D1624836
:10071000006800F4003010B10120009001E00020DA
:1007200000900098012843D15C48006840F0100018
:100730005A4908600846006820F00300086008462F
:10074000006840F002000860534840685249486021
:100750000846406848600846406840F48060486049
:100760000846406820F47C1048600846406840F421
:10077000E81048600846006840F08070086000BFDC
:100780004548006800F000700028F9D042484068F1
:1007900020F00300404948600846406840F00200ED
:1007A000486000BF3C48406800F00C000828F9D1C0
:1007B0000CBD10B5FFF792FF10BD10B536480068AC
:1007C00040F0010034490860084640683449084058
:1007D0003149486008460068324908402E4908609F
:1007E0000846006820F4802008600846406820F42D
:1007F000FE0048604FF41F008860FFF7DAFF4FF0FB
:1008000000602949086010BD10B5002100200022B9
:10081000214B5B6803F00C0121B1042906D00829A3
:1008200028D107E0214B224C236027E01F4B204CAE
:10083000236023E0184B5B6803F47010164B5B6871
:1008400003F48032022303EB904022B9194B434357
:10085000174C23600DE0104B5B6803F4003323B1A9
:10086000144B4343124C236003E0104B4343104CA2
:10087000236003E00D4B0E4C236000BF00BF064B0E
:100880005B68C3F303130C4CE15C094B1B68CB4062
:10089000074C236010BD0000001002400020024001
:1008A0000000FFF8FFFFF6FE08ED00E000127A00FE
:1008B0000000002000093D000400002008B50121CF
:1008C000482004F0B7FC2020ADF8000010208DF87F
:1008D000030003208DF802006946094804F0EEF990
:1008E0002021074804F097FA2020ADF8000069465F
:1008F000044804F0E3F92021024804F08CFA08BD12
:10090000000C01400018014008B50121442004F00A
:1009100091FC1C20ADF8000048208DF803006946CA
:10092000354804F0CBF90120ADF8000028208DF8FF
:1009300003006946314804F0C1F908BD10B504460A
:1009400014B101202E4908702D480078002837D0B6
:100950001021294804F045FA78B10821264804F00E
:1009600040FA50B10421244804F03BFA28B1012197
:10097000224804F036FA012822D10A2003F0DDFCD7
:1009800000201F49087010211B4804F02AFA08B9FA
:10099000012010BD0821184804F023FA08B90220EC
:1009A000F7E70421144804F01CFA08B90320F0E723
:1009B0000121124804F015FA01281BD10420E8E7B0
:1009C00010210D4804F00DFA012813D108210A481E
:1009D00004F007FA01280DD10421074804F001FAB8
:1009E000012807D10121054804F0FBF910B90120C5
:1009F000034908700020CCE70018014000080140BE
:100A000014000020FE4908807047FD49891C0880B9
:100A1000704708B5FA48801C00880090BDF80000B7
:100A200008BDF74A1080921C1180704710B504462B
:100A30002046FFF7E7FF052003F05BFCFFF7E9FF27
:100A400010BDF0480089EE4908807047EC49891CC8
:100A50000880704730B5014601F01F04C1F345130B
:100A6000CA0AE50205EB43151544A8B230BD00BF24
:100A7000011EA0F10102D0B2FAD1704700B50246C2
:100A80000B46E048808841F66311884247D1DD4833
:100A90008079A8B9DB480088401E801A82B2D94903
:100AA0004889FFF7AFFF0020FFF7AFFF0020FFF7F7
:100AB000ACFF1012FFF7A9FFD0B2FFF7A6FF16E0B8
:100AC000D0494889FFF79EFF1012FFF79EFFD0B272
:100AD000FFF79BFFCB490988491EC1F30F20FFF7A1
:100AE00094FFC8490978491EC8B2FFF78EFFC5496F
:100AF0008889FFF787FF1812FFF787FFD8B2FFF743
:100B000084FFC0494988491EC1F30F20FFF77DFFCC
:100B1000BC498978491EC8B2FFF777FF3AE0B94867
:100B2000808845F21051884220D1B6494889FFF7A4
:100B300069FF1012FFF769FFB2494989491C88B261
:100B4000FFF760FFD0B2FFF760FFAE498889FFF77B
:100B500059FF1812FFF759FFAA498989491C88B221
:100B6000FFF750FFD8B2FFF750FF13E0A5494889BF
:100B7000FFF748FF1012FFF748FFD0B2FFF745FF1D
:100B8000A0498889FFF73EFF1812FFF73EFFD8B251
:100B9000FFF73BFF00BD2DE9F04105460E469948A1
:100BA0000088A84203DD97484088B04202DC00205C
:100BB000BDE8F08131462846FFF760FF9148808804
:100BC00045F21051884204D14FF43850FFF71AFF14
:100BD00002E02E20FFF716FFFFF71BFF04468948AF
:100BE000808841F66311884201D12046E0E7FFF793
:100BF00010FF0446FFF70DFF8046E7B24FF6FF7087
:100C000000EA0727E012C002B91240EA411040EAA8
:100C1000E820CDE700B57B48808845F21051884236
:100C200004D14FF42450FFF7EDFE02E02920FFF736
:100C3000E9FE00BD00B57348808845F21051884236
:100C400004D14FF42050FFF7DDFE02E02820FFF72B
:100C5000D9FE00BD70B5044600230026694880799E
:100C6000012805D16748808841F66311884208D180
:100C700064488079F0B96348808841F663118842FE
:100C800018D1082C15D2DFE804F00406080A0C0E6F
:100C9000101206240DE007240BE0042409E00524CB
:100CA00007E0012405E0002403E0032401E002241E
:100CB00000BF00BF082C1CD2DFE804F00406090CBA
:100CC0000F12151800BF14E043F0800311E043F049
:100CD00040030EE043F0C0030BE043F0200308E0C4
:100CE00043F0600305E043F0A00302E043F0E003BB
:100CF00000BF00BF4348808845F21051884202D1AE
:100D00004FF4585600E036263E48808849F241317B
:100D1000884205D03B48808847F28971884201D1DA
:100D200043F0080319463046FFF77BFE35488088BC
:100D300041F6631188421DD003F0200068B13148AC
:100D4000008830494988884214DA2E48058840884E
:100D50002C490880084645800CE02A48008829492B
:100D60004988884206DD274805884088254908804B
:100D7000084645802348808845F21051884257D163
:100D800020494889FFF73EFE0020FFF73EFE1D493F
:100D90004989491C88B2FFF735FE0020FFF735FE70
:100DA00018494989891C88B2FFF72CFE1549098822
:100DB000491EC1F30F20FFF728FE12494989C91CBB
:100DC00088B2FFF71FFE0F490978491EC8B2FFF726
:100DD0001CFE0C498889FFF715FE0020FFF715FE61
:100DE00008498989491C88B2FFF70CFE0020FFF7EB
:100DF0000CFE04498989891C88B2FFF703FE03E0D1
:100E0000FE07006C6C010020FE494988491EC1F3B1
:100E10000F20FFF7FAFDFB498989C91C88B2FFF74B
:100E2000F1FDF8498978491EC8B2FFF7EEFD2DE0C3
:100E3000F4494889FFF7E6FD0020FFF7E6FD0020B2
:100E4000FFF7E3FDEF490988491EC1F30F20FFF7C3
:100E5000DCFDEC490978491EC8B2FFF7D6FDE94927
:100E60008889FFF7CFFD0020FFF7CFFD0020FFF7B7
:100E7000CCFDE4494988491EC1F30F20FFF7C5FDA9
:100E8000E0498978491EC8B2FFF7BFFD70BD30B593
:100E900004460D4629462046FFF7F0FDFFF7D1FD39
:100EA000D9480088D949088030BD10B503460C46A2
:100EB000D448808845F21051884220D1D1494889D0
:100EC000FFF7A0FD1812FFF7A0FDCE494989491C84
:100ED00088B2FFF797FDD8B2FFF797FDC949888917
:100EE000FFF790FD2012FFF790FDC6498989491C44
:100EF00088B2FFF787FDE0B2FFF787FD42E0C14807
:100F0000808841F66311884228D1BE48807920B993
:100F1000BC480088401EC01A83B2BA494889FFF70E
:100F200071FD1812FFF771FDD8B2FFF76EFD1812B0
:100F3000FFF76BFDD8B2FFF768FDB2498889FFF76C
:100F400061FD2012FFF761FDE0B2FFF75EFD2012A8
:100F5000FFF75BFDE0B2FFF758FD13E0A9494889B0
:100F6000FFF750FD1812FFF750FDD8B2FFF74DFD07
:100F7000A4498889FFF746FD2012FFF746FDE0B23D
:100F8000FFF743FD9F480089A049891E0880881CFF
:100F9000028010BD2DE9F0470446BE20FFF732FD68
:100FA0000520FFF732FD204607F0F5FE07464FF01B
:100FB0006632974B07F002FF054607F0BFFE1FFAA7
:100FC00080F94846FFF721FD0120FFF71EFDFF20B5
:100FD000FFF71BFD0020FFF718FD0020FFF715FDB0
:100FE000BDE8F08710B5044686488471002C45D1D1
:100FF000F020844908804FF4A0704880084680881B
:1010000045F21051884210D14FF430507D4908818B
:101010004FF4285048814FF42C5088814FF4F070E1
:1010200008804FF4487048801AE07648808841F67E
:10103000631188420DD12C20724908812B204881F0
:101040002A2088814FF4F07008804FF4487048805F
:1010500006E02C206B4908812A2048812B208881BA
:101060006848808845F2103188424CD14FF4A07016
:10107000644908804FF4F070488044E04FF4A07059
:1010800060490880F02048800846808845F2105169
:10109000884210D14FF430505A4908814FF42850FB
:1010A00048814FF42C5088814FF4487008804FF4E9
:1010B000F07048801AE05348808841F663118842F6
:1010C0000DD12C204F4908812A2048812B2088816E
:1010D0004FF4487008804FF4F070488006E02C20F0
:1010E000484908812A2048812B20888145488088EA
:1010F00045F21031884206D14FF4F0704149088022
:101100004FF4A07048800020FFF7A4FD10BDF0B59B
:1011100004460D46A018401E86B2E818401E87B24D
:101120003848808841F66311884231D1354880794A
:1011300001282DD033480088801A001B84B2E8189B
:10114000401E83B22F494889FFF75CFC2012FFF74D
:101150005CFCE0B2FFF759FCA118491EC1F30F2057
:10116000FFF753FCA118491EC8B2FFF74EFC2549F2
:101170008889FFF747FC2812FFF747FCE8B2FFF722
:1011800044FC1812FFF741FCD8B2FFF73EFC73E0B5
:101190001C48808845F2105188424DD11949488930
:1011A000FFF730FC2012FFF730FC16494989491C33
:1011B00088B2FFF727FCE0B2FFF727FC1149498905
:1011C000891C88B2FFF71EFC3012FFF71EFC0D4988
:1011D0004989C91C88B2FFF715FCF0B2FFF715FC6E
:1011E00008498889FFF70EFC2812FFF70EFC054915
:1011F0008989491C88B2FFF705FCE8B2FFF705FCB6
:10120000004907E06C010020160000200008006C77
:10121000666604408989891C88B2FFF7F3FB38129F
:10122000FFF7F3FBFE498989C91C88B2FFF7EAFB87
:10123000F8B2FFF7EAFB1FE0F9494889FFF7E2FB44
:101240002012FFF7E2FBE0B2FFF7DFFB3012FFF7FF
:10125000DCFBF0B2FFF7D9FBF1498889FFF7D2FB3D
:101260002812FFF7D2FBE8B2FFF7CFFB3812FFF7E7
:10127000CCFBF8B2FFF7C9FBF0BD70B50446002601
:10128000E74805884088454300210846FFF7F6FBFC
:10129000FFF7D7FB00BF02E0E2480480761CAE42B5
:1012A000FAD370BD00B59FB00121080203F0B5FF6D
:1012B00001214FF4B47003F0BDFF0120ADF87800B8
:1012C00010208DF87B0003208DF87A001EA9D648E7
:1012D00003F0F4FC4CF23370ADF8780018208DF870
:1012E0007B0003208DF87A001EA9D04803F0E6FCAD
:1012F0004FF68070ADF8780018208DF87B00032041
:101300008DF87A001EA9CA4803F0D8FC41F201000A
:10131000ADF8780018208DF87B0003208DF87A0056
:101320001EA9C44803F0CAFC0120089000200990BF
:101330000F200A9000200B900C900D900E900190C1
:1013400002900320039000200490059006900790DF
:1013500006200F9000201090119010201290002075
:10136000139015901490169017904FF48050189089
:10137000002019904FF480401A9000201B9008A87C
:101380001C9001A81D900FA803F07EF901210620F2
:1013900003F0E2FA322002F0D0FFD320FFF732FB55
:1013A000FFF737FB9E498880FFF733FB9C49888015
:1013B000FFF72FFB9A498880084680884FF6FF7117
:1013C00001EA002096498880FFF723FB9449898829
:1013D0000843934988800846808849F24131884211
:1013E0007ED00420FFF70EFBFFF713FB8C498880AB
:1013F000FFF70FFB8A498880FFF70BFB884988803D
:10140000084680884FF6FF7101EA002084498880F1
:10141000FFF7FFFA82498988084381498880084696
:10142000808848F25251884203D147F289707C4942
:1014300088807B48808847F2897188427AD0D4209E
:10144000FFF7E0FAFFF7E5FA75498880FFF7E1FA60
:1014500073498880FFF7DDFA7149888008468088E3
:101460004FF6FF7101EA00206D498880FFF7D1FA3D
:101470006B49898808436A4988800846808845F214
:101480001031884256D04FF45A40FFF7BBFAFFF7AD
:10149000C0FA634988804FF45B40FFF7B3FAFFF767
:1014A000B8FA5F498880084680884FF6FF7101EAE4
:1014B00000205B4988804FF45C40FFF7A3FAFFF7F8
:1014C000A8FA574989880843554988800846808882
:1014D000B0F5004F02D145F210508880504800E02E
:1014E00028E0808845F21051884223D0A120FFF7E0
:1014F00089FAFFF78EFA4A498880FFF78AFA484945
:101500008880084680884FF6FF7101EA0020444930
:101510008880FFF77EFA42498988084340498880DD
:101520000846808845F26171884203D141F6631014
:101530003B4988803A4881883FA006F0B5F8384892
:10154000808849F2413188427ED1CF20FFF75AFA94
:101550000020FFF75AFAC120FFF757FA3020FFF7B3
:1015600054FAED20FFF74EFA6420FFF74EFA0320FD
:10157000FFF74BFA1220FFF748FA8120FFF745FAF0
:10158000E820FFF73FFA8520FFF73FFA1020FFF72A
:101590003CFA7A20FFF739FACB20FFF733FA3920EB
:1015A000FFF733FA2C20FFF730FA0020FFF72DFA6F
:1015B0003420FFF72AFA0220FFF727FAF720FFF777
:1015C00021FA2020FFF721FAEA20FFF71BFA00207A
:1015D000FFF71BFA0020FFF718FAC020FFF712FAF6
:1015E0001B20FFF712FAC120FFF70CFA0120FFF7CA
:1015F0000CFAC520FFF706FA3020FFF706FA302074
:10160000FFF703FAC720FFF7FDF9B720FFF7FDF951
:101610003620FFF7F7F94820FFF7F7F93A2014E0F2
:101620006C0100200008006C000C01400014014017
:101630000018014000200140204C43442049443A16
:1016400025780D0A00000000ABE0FFF7DBF955201C
:10165000FFF7DBF9B120FFF7D5F90020FFF7D5F947
:101660001A20FFF7D2F9B620FFF7CCF90A20FFF7CE
:10167000CCF9A220FFF7C9F9F220FFF7C3F9002047
:10168000FFF7C3F92620FFF7BDF90120FFF7BDF9E9
:10169000E020FFF7B7F90F20FFF7B7F92A20FFF78F
:1016A000B4F92820FFF7B1F90820FFF7AEF90E20B2
:1016B000FFF7ABF90820FFF7A8F95420FFF7A5F9C9
:1016C000A920FFF7A2F94320FFF79FF90A20FFF7AF
:1016D0009CF90F20FFF799F90020FFF796F90020F9
:1016E000FFF793F90020FFF790F90020FFF78DF93D
:1016F000E120FFF787F90020FFF787F91520FFF7B2
:1017000084F91720FFF781F90720FFF77EF91120F0
:10171000FFF77BF90620FFF778F92B20FFF775F923
:101720005620FFF772F93C20FFF76FF90520FFF70D
:101730006CF91020FFF769F90F20FFF766F93F20D9
:10174000FFF763F93F20FFF760F90F20FFF75DF91E
:101750002B20FFF757F90020FFF757F90020FFF77C
:1017600054F90120FFF751F93F20FFF74EF92A20E5
:10177000FFF748F90020FFF748F90020FFF745F987
:101780000020FFF742F9EF20FFF73FF91120FFF7A4
:1017900039F9782002F0D1FD2920FFF733F902F062
:1017A000A6B8FE48808847F2897188427ED1112010
:1017B000FFF728F9782002F0C0FD3620FFF722F964
:1017C0000020FFF722F93A20FFF71CF90520FFF768
:1017D0001CF9B220FFF716F90C20FFF716F90C20C0
:1017E000FFF713F90020FFF710F93320FFF70DF989
:1017F0003320FFF70AF9B720FFF704F93520FFF788
:1018000004F9BB20FFF7FEF83220FFF7FEF8C020F6
:10181000FFF7F8F80C20FFF7F8F8C220FFF7F2F80E
:101820000120FFF7F2F8C320FFF7ECF81020FFF7D4
:10183000ECF8C420FFF7E6F82020FFF7E6F8C62012
:10184000FFF7E0F80F20FFF7E0F8D020FFF7DAF815
:10185000A420FFF7DAF8A120FFF7D7F8E020FFF780
:10186000D1F8D020FFF7D1F80020FFF7CEF8022002
:10187000FFF7CBF80720FFF7C8F80A20FFF7C5F8F5
:101880002820FFF7C2F83220FFF7BFF84420FFF707
:10189000BCF84220FFF7B9F80620FFF7B6F80E2093
:1018A000FFF7B3F81220FFF7B0F800E054E014207F
:1018B000FFF7ABF81720FFF7A8F8E120FFF7A2F831
:1018C000D020FFF7A2F80020FFF79FF80220FFF7D3
:1018D0009CF80720FFF799F80A20FFF796F82820D0
:1018E000FFF793F83120FFF790F85420FFF78DF8B9
:1018F0004720FFF78AF80E20FFF787F81C20FFF734
:1019000084F81720FFF781F81B20FFF77EF81E20D0
:10191000FFF77BF82A20FFF775F80020FFF775F82E
:101920000020FFF772F80020FFF76FF8EF20FFF7B5
:101930006CF82B20FFF766F80020FFF766F8002010
:10194000FFF763F80120FFF760F83F20FFF75DF82D
:101950002920FFF757F822E79048808845F2103198
:10196000884240F07C87ED20FFF74CF80120FFF71C
:101970004CF8FE20FFF749F8EE20FFF743F8DE2091
:10198000FFF743F82120FFF740F8F120FFF73AF87E
:101990000120FFF73AF8DF20FFF734F81020FFF7B7
:1019A00034F8C420FFF72EF88F20FFF72EF8C6205A
:1019B000FFF728F80020FFF728F8E220FFF725F8C6
:1019C000E220FFF722F8E220FFF71FF8BF20FFF721
:1019D00019F8AA20FFF719F8B020FFF713F80D2027
:1019E000FFF713F80020FFF710F80D20FFF70DF8B0
:1019F0000020FFF70AF81120FFF707F80020FFF793
:101A000004F81920FFF701F80020FEF7FEFF21205F
:101A1000FEF7FBFF0020FEF7F8FF2D20FEF7F5FF95
:101A20000020FEF7F2FF3D20FEF7EFFF0020FEF75B
:101A3000ECFF5D20FEF7E9FF0020FEF7E6FF5D20EA
:101A4000FEF7E3FF0020FEF7E0FFB120FEF7DAFF2C
:101A50008020FEF7DAFF0020FEF7D7FF8B20FEF78D
:101A6000D4FF0020FEF7D1FF9620FEF7CEFF002026
:101A7000FEF7CBFFB220FEF7C5FF0020FEF7C5FF43
:101A80000020FEF7C2FF0220FEF7BFFF0020FEF796
:101A9000BCFF0320FEF7B9FF0020FEF7B6FFB3201E
:101AA000FEF7B0FF0020FEF7B0FF0020FEF7ADFF0D
:101AB0000020FEF7AAFF0020FEF7A7FF0020FEF798
:101AC000A4FF0020FEF7A1FF0020FEF79EFF0020EC
:101AD000FEF79BFF0020FEF798FF0020FEF795FF22
:101AE0000020FEF792FF0020FEF78FFF0020FEF798
:101AF0008CFF0020FEF789FF0020FEF786FF002004
:101B0000FEF783FF0020FEF780FF0020FEF77DFF39
:101B10000020FEF77AFF0020FEF777FF0020FEF797
:101B200074FF0020FEF771FF0020FEF76EFF00201B
:101B3000FEF76BFFB420FEF765FF8B20FEF765FF15
:101B40000020FEF762FF9620FEF75FFF0020FEF701
:101B50005CFFA120FEF759FF0020FEF756FFB520DD
:101B6000FEF750FF0220FEF750FF0020FEF74DFF6A
:101B70000320FEF74AFF0020FEF747FF0420FEF790
:101B800044FF0020FEF741FFB620FEF73BFF002098
:101B9000FEF73BFF0020FEF738FF01E06C0100205C
:101BA000B720FEF72FFF0020FEF72FFF0020FEF7E3
:101BB0002CFF3F20FEF729FF0020FEF726FF5E20C6
:101BC000FEF723FF0020FEF720FF6420FEF71DFF35
:101BD0000020FEF71AFF8C20FEF717FF0020FEF70B
:101BE00014FFAC20FEF711FF0020FEF70EFFDC20F3
:101BF000FEF70BFF0020FEF708FF7020FEF705FF41
:101C00000020FEF702FF9020FEF7FFFE0020FEF707
:101C1000FCFEEB20FEF7F9FE0020FEF7F6FEDC20CE
:101C2000FEF7F3FE0020FEF7F0FEB820FEF7EAFE16
:101C30000020FEF7EAFE0020FEF7E7FE0020FEF798
:101C4000E4FE0020FEF7E1FE0020FEF7DEFE0020AD
:101C5000FEF7DBFE0020FEF7D8FE0020FEF7D5FEE3
:101C6000BA20FEF7CFFE2420FEF7CFFE0020FEF7BD
:101C7000CCFE0020FEF7C9FE0020FEF7C6FEC12004
:101C8000FEF7C0FE2020FEF7C0FE0020FEF7BDFEDE
:101C90005420FEF7BAFE0020FEF7B7FEFF20FEF745
:101CA000B4FE0020FEF7B1FEC220FEF7ABFE0A2014
:101CB000FEF7ABFE0020FEF7A8FE0420FEF7A5FE0F
:101CC0000020FEF7A2FEC320FEF79CFE3C20FEF79C
:101CD0009CFE0020FEF799FE3A20FEF796FE0020BB
:101CE000FEF793FE3920FEF790FE0020FEF78DFEF2
:101CF0003720FEF78AFE0020FEF787FE3C20FEF725
:101D000084FE0020FEF781FE3620FEF77EFE0020D6
:101D1000FEF77BFE3220FEF778FE0020FEF775FE10
:101D20002F20FEF772FE0020FEF76FFE2C20FEF73C
:101D30006CFE0020FEF769FE2920FEF766FE0020FB
:101D4000FEF763FE2620FEF760FE0020FEF75DFE34
:101D50002420FEF75AFE0020FEF757FE2420FEF74F
:101D600054FE0020FEF751FE2320FEF74EFE002019
:101D7000FEF74BFE3C20FEF748FE0020FEF745FE36
:101D80003620FEF742FE0020FEF73FFE3220FEF72F
:101D90003CFE0020FEF739FE2F20FEF736FE002025
:101DA000FEF733FE2C20FEF730FE0020FEF72DFE5E
:101DB0002920FEF72AFE0020FEF727FE2620FEF748
:101DC00024FE0020FEF721FE2420FEF71EFE002048
:101DD000FEF71BFE2420FEF718FE0020FEF715FE7E
:101DE0002320FEF712FE0020FEF70FFEC420FEF7B0
:101DF00009FE6220FEF709FE0020FEF706FE052020
:101E0000FEF703FE0020FEF700FE8420FEF7FDFD36
:101E10000020FEF7FAFDF020FEF7F7FD0020FEF7A8
:101E2000F4FD1820FEF7F1FD0020FEF7EEFDA420E2
:101E3000FEF7EBFD0020FEF7E8FD1820FEF7E5FDBC
:101E40000020FEF7E2FD5020FEF7DFFD0020FEF748
:101E5000DCFD0C20FEF7D9FD0020FEF7D6FD172093
:101E6000FEF7D3FD0020FEF7D0FD9520FEF7CDFD57
:101E70000020FEF7CAFDF320FEF7C7FD0020FEF7A5
:101E8000C4FDE620FEF7C1FD0020FEF7BEFDC52023
:101E9000FEF7B8FD3220FEF7B8FD0020FEF7B5FDD5
:101EA0004420FEF7B2FD0020FEF7AFFD6520FEF7EF
:101EB000ACFD0020FEF7A9FD7620FEF7A6FD002070
:101EC000FEF7A3FD8820FEF7A0FD0020FEF79DFD94
:101ED000C620FEF797FD2020FEF797FD0020FEF7B5
:101EE00094FD1720FEF791FD0020FEF78EFD0120E6
:101EF000FEF78BFD0020FEF788FDC720FEF782FD70
:101F00000020FEF782FD0020FEF77FFD0020FEF797
:101F10007CFD0020FEF779FDC820FEF773FD002050
:101F2000FEF773FD0020FEF770FD0020FEF76DFD4B
:101F30000020FEF76AFDC920FEF764FD0020FEF7D1
:101F400064FD0020FEF761FD0020FEF75EFD00202D
:101F5000FEF75BFD0020FEF758FD0020FEF755FD63
:101F60000020FEF752FD0020FEF74FFD0020FEF797
:101F70004CFD0020FEF749FD0020FEF746FD002045
:101F8000FEF743FD0020FEF740FD0020FEF73DFD7B
:101F90000020FEF73AFD0020FEF737FDE020FEF7B7
:101FA00031FD1620FEF731FD0020FEF72EFD1C202E
:101FB000FEF72BFD0020FEF728FD2120FEF725FD72
:101FC0000020FEF722FD3620FEF71FFD0020FEF761
:101FD0001CFD4620FEF719FD0020FEF716FD5220DD
:101FE000FEF713FD0020FEF710FD6420FEF70DFD47
:101FF0000020FEF70AFD7A20FEF707FD0020FEF71D
:1020000004FD8B20FEF701FD0020FEF7FEFC992069
:10201000FEF7FBFC0020FEF7F8FCA820FEF7F5FC1D
:102020000020FEF7F2FCB920FEF7EFFC0020FEF7DF
:10203000ECFCC420FEF7E9FC0020FEF7E6FCCA2019
:10204000FEF7E3FC0020FEF7E0FCD220FEF7DDFC0B
:102050000020FEF7DAFCD920FEF7D7FC0020FEF7BF
:10206000D4FCE020FEF7D1FC0020FEF7CEFCF320EC
:10207000FEF7CBFC0020FEF7C8FCE120FEF7C2FC17
:102080001620FEF7C2FC0020FEF7BFFC1C20FEF766
:10209000BCFC0020FEF7B9FC2220FEF7B6FC0020B5
:1020A000FEF7B3FC3620FEF7B0FC0020FEF7ADFCD7
:1020B0004520FEF7AAFC0020FEF7A7FC5220FEF701
:1020C000A4FC0020FEF7A1FC6420FEF79EFC00208B
:1020D000FEF79BFC7A20FEF798FC0020FEF795FCAB
:1020E0008B20FEF792FC0020FEF78FFC9920FEF774
:1020F0008CFC0020FEF789FCA820FEF786FC00205F
:10210000FEF783FCB920FEF780FC0020FEF77DFC83
:10211000C420FEF77AFC0020FEF777FCCA20FEF709
:1021200074FC0020FEF771FCD220FEF76EFC00204C
:10213000FEF76BFCD820FEF768FC0020FEF765FC7C
:10214000E020FEF762FC0020FEF75FFCF320FEF7C4
:102150005CFC0020FEF759FCE220FEF753FC052052
:10216000FEF753FC0020FEF750FC0B20FEF74DFC61
:102170000020FEF74AFC1B20FEF747FC0020FEF77C
:1021800044FC3420FEF741FC0020FEF73EFC4420D6
:10219000FEF73BFC0020FEF738FC4F20FEF735FC35
:1021A0000020FEF732FC6120FEF72FFC0020FEF736
:1021B0002CFC7920FEF729FC0020FEF726FC882065
:1021C000FEF723FC0020FEF720FC9720FEF71DFC05
:1021D0000020FEF71AFCA620FEF717FC0020FEF7F1
:1021E00014FCB720FEF711FC0020FEF70EFCC22005
:1021F000FEF70BFC0020FEF708FCC720FEF705FCED
:102200000020FEF702FCD120FEF7FFFB0020FEF7C6
:10221000FCFBD620FEF7F9FB0020FEF7F6FBDD20E5
:10222000FEF7F3FB0020FEF7F0FBF320FEF7EDFBDB
:102230000020FEF7EAFBE320FEF7E4FB0520FEF7B3
:10224000E4FB0020FEF7E1FB0A20FEF7DEFB0020A6
:10225000FEF7DBFB1C20FEF7D8FB0020FEF7D5FBCA
:102260003320FEF7D2FB0020FEF7CFFB4420FEF721
:10227000CCFB0020FEF7C9FB5020FEF7C6FB002078
:10228000FEF7C3FB6220FEF7C0FB0020FEF7BDFB9C
:102290007820FEF7BAFB0020FEF7B7FB8820FEF798
:1022A000B4FB0020FEF7B1FB9720FEF7AEFB002049
:1022B000FEF7ABFBA620FEF7A8FB0020FEF7A5FB70
:1022C000B720FEF7A2FB0020FEF79FFBC220FEF71F
:1022D0009CFB0020FEF799FBC720FEF796FB002031
:1022E000FEF793FBD120FEF790FB0020FEF78DFB5D
:1022F000D520FEF78AFB0020FEF787FBDD20FEF7E6
:1023000084FB0020FEF781FBF320FEF77EFB00201C
:10231000FEF77BFBE420FEF775FB0120FEF775FB63
:102320000020FEF772FB0120FEF76FFB0020FEF796
:102330006CFB0220FEF769FB0020FEF766FB2A20FB
:10234000FEF763FB0020FEF760FB3C20FEF75DFB21
:102350000020FEF75AFB4B20FEF757FB0020FEF74C
:1023600054FB5D20FEF751FB0020FEF74EFB74206E
:10237000FEF74BFB0020FEF748FB8420FEF745FBF1
:102380000020FEF742FB9320FEF73FFB0020FEF704
:102390003CFBA220FEF739FB0020FEF736FBB32002
:1023A000FEF733FB0020FEF730FBBE20FEF72DFBCF
:1023B0000020FEF72AFBC420FEF727FB0020FEF7D3
:1023C00024FBCD20FEF721FB0020FEF71EFBD320CF
:1023D000FEF71BFB0020FEF718FBDD20FEF715FBC8
:1023E0000020FEF712FBF320FEF70FFB0020FEF7A4
:1023F0000CFBE520FEF706FB0020FEF706FB0020A5
:10240000FEF703FB0020FEF700FB0020FEF7FDFABD
:102410000220FEF7FAFA0020FEF7F7FA2920FEF76D
:10242000F4FA0020FEF7F1FA3C20FEF7EEFA002065
:10243000FEF7EBFA4B20FEF7E8FA0020FEF7E5FA8C
:102440005D20FEF7E2FA0020FEF7DFFA7420FEF7C7
:10245000DCFA0020FEF7D9FA8420FEF7D6FA002035
:10246000FEF7D3FA9320FEF7D0FA0020FEF7CDFA5C
:10247000A220FEF7CAFA0020FEF7C7FAB320FEF743
:10248000C4FA0020FEF7C1FABE20FEF7BEFA002013
:10249000FEF7BBFAC420FEF7B8FA0020FEF7B5FA43
:1024A000CD20FEF7B2FA0020FEF7AFFAD320FEF7F8
:1024B000ACFA0020FEF7A9FADC20FEF7A6FA00200D
:1024C000FEF7A3FAF320FEF7A0FA0020FEF79DFA2C
:1024D000E620FEF797FA1120FEF797FA0020FEF7A4
:1024E00094FA3420FEF791FA0020FEF78EFA562077
:1024F000FEF78BFA0020FEF788FA7620FEF785FAC1
:102500000020FEF782FA7720FEF77FFA0020FEF720
:102510007CFA6620FEF779FA0020FEF776FA88202A
:10252000FEF773FA0020FEF770FA9920FEF76DFAB5
:102530000020FEF76AFABB20FEF767FA0020FEF7DC
:1025400064FA9920FEF761FA0020FEF75EFA662031
:10255000FEF75BFA0020FEF758FA5520FEF755FA11
:102560000020FEF752FA5520FEF74FFA0020FEF742
:102570004CFA4520FEF749FA0020FEF746FA4320C0
:10258000FEF743FA0020FEF740FA4420FEF73DFA3A
:102590000020FEF73AFAE720FEF734FA3220FEF781
:1025A00034FA0020FEF731FA5520FEF72EFA00200B
:1025B000FEF72BFA7620FEF728FA0020FEF725FA20
:1025C0006620FEF722FA0020FEF71FFA6720FEF7CA
:1025D0001CFA0020FEF719FA6720FEF716FA002011
:1025E000FEF713FA8720FEF710FA0020FEF70DFA27
:1025F0009920FEF70AFA0020FEF707FABB20FEF743
:1026000004FA0020FEF701FA9920FEF7FEF90020F7
:10261000FEF7FBF97720FEF7F8F90020FEF7F5F951
:102620004420FEF7F2F90020FEF7EFF95620FEF7FE
:10263000ECF90020FEF7E9F92320FEF7E6F9002087
:10264000FEF7E3F93320FEF7E0F90020FEF7DDF9AD
:102650004520FEF7DAF90020FEF7D7F9E820FEF76B
:10266000D1F90020FEF7D1F90020FEF7CEF999202C
:10267000FEF7CBF90020FEF7C8F98720FEF7C5F971
:102680000020FEF7C2F98820FEF7BFF90020FEF710
:10269000BCF97720FEF7B9F90020FEF7B6F96620FD
:1026A000FEF7B3F90020FEF7B0F98820FEF7ADF988
:1026B0000020FEF7AAF9AA20FEF7A7F90020FEF7EE
:1026C000A4F9BB20FEF7A1F90020FEF79EF999209E
:1026D000FEF79BF90020FEF798F96620FEF795F9C2
:1026E0000020FEF792F95520FEF78FF90020FEF743
:1026F0008CF95520FEF789F90020FEF786F9442071
:10270000FEF783F90020FEF780F94420FEF77DF9FB
:102710000020FEF77AF95520FEF777F90020FEF742
:1027200074F9E920FEF76EF9AA20FEF76EF9002091
:10273000FEF76BF90020FEF768F90020FEF765F957
:102740000020FEF75FF9AA20FEF75FF9CF20FEF721
:1027500059F90020FEF759F90020FEF756F900203C
:10276000FEF753F90020FEF750F90020FEF74DF96F
:102770000020FEF74AF90020FEF747F90020FEF797
:1027800044F90020FEF741F90020FEF73EF9002051
:10279000FEF73BF90020FEF738F90020FEF735F987
:1027A0000020FEF732F90020FEF72FF90020FEF797
:1027B0002CF90020FEF729F9F020FEF723F900207C
:1027C000FEF723F95020FEF720F90020FEF71DF94F
:1027D0000020FEF71AF90020FEF717F9F320FEF7A4
:1027E00011F90020FEF711F9F920FEF70BF9062088
:1027F000FEF70BF91020FEF708F92920FEF705F97E
:102800000020FEF702F93A20FEF7FCF85520FEF70B
:10281000FCF81120FEF7F6F8642001F08EFD292067
:10282000FEF7F0F83520FEF7EDF80020FEF7EDF8A2
:102830005120FEF7E7F8FF20FEF7E7F85320FEF7F8
:10284000E1F82C20FEF7E1F85520FEF7DBF88220B6
:10285000FEF7DBF82C20FEF7D5F801F048B8FE486B
:10286000808845F2105188427ED155214FF4704046
:10287000FEF7D7F8AA214FF20100FEF7D2F8522155
:102880004FF20200FEF7CDF808214FF20300FEF7E9
:10289000C8F801214FF20400FEF7C3F80D214FF4F0
:1028A0003040FEF7BEF80D214BF20100FEF7B9F8FB
:1028B0000D214BF20200FEF7B4F834214FF43640FC
:1028C000FEF7AFF834214BF20160FEF7AAF834218D
:1028D0004BF20260FEF7A5F80D214FF43140FEF7F0
:1028E000A0F80D214BF20110FEF79BF80D214BF2E1
:1028F0000210FEF796F834214FF43740FEF791F8B6
:1029000034214BF20170FEF78CF834214BF2027047
:10291000FEF787F800214FF43240FEF782F80021DD
:102920004BF20120FEF77DF800214BF20220FEF76A
:1029300078F824214FF43840FEF773F824214BF641
:102940000100FEF76EF824214BF60200FEF769F84D
:1029500001214FF43F40FEF764F80F214FF433405C
:10296000FEF75FF80F2100E0FEE34BF20130FEF7C7
:1029700058F80F214BF20230FEF753F834214FF490
:102980003940FEF74EF834214BF60110FEF749F8B6
:1029900034214BF60210FEF744F808214FF435407D
:1029A000FEF73FF808214BF20150FEF73AF80821F4
:1029B0004BF20250FEF735F803214FF44240FEF788
:1029C00030F824214FF43A40FEF72BF824214BF63F
:1029D0000120FEF726F824214BF60220FEF721F80D
:1029E00000214FF43C40FEF71CF878214BF60140E3
:1029F000FEF717F800214BF60240FEF712F800210F
:102A00004FF43D40FEF70DF878214BF60150FEF7EC
:102A100008F800214BF60250FEF703F800214FF4AE
:102A20003E40FDF7FEFF64214BF60160FDF7F9FF24
:102A300000214FF45140FDF7F4FF33214DF2011016
:102A4000FDF7EFFF00214DF20210FDF7EAFF342100
:102A50004DF20310FDF7E5FF00214DF20410FDF7E4
:102A6000E0FF3A214DF20510FDF7DBFF00214DF2AA
:102A70000610FDF7D6FF4A214DF20710FDF7D1FFF2
:102A800000214DF20810FDF7CCFF5C214DF209103A
:102A9000FDF7C7FF00214DF20A10FDF7C2FF8121AB
:102AA0004DF20B10FDF7BDFF00214DF20C10FDF7AC
:102AB000B8FFA6214DF20D10FDF7B3FF00214DF236
:102AC0000E10FDF7AEFFE5214DF20F10FDF7A9FF47
:102AD00001214DF21010FDF7A4FF13214DF211104A
:102AE000FDF79FFF01214DF21210FDF79AFF5421CF
:102AF0004DF21310FDF795FF01214DF21410FDF773
:102B000090FF82214DF21510FDF78BFF01214DF250
:102B10001610FDF786FFCA214DF21710FDF781FF51
:102B200002214DF21810FDF77CFF00214DF2191023
:102B3000FDF777FF02214DF21A10FDF772FF012118
:102B40004DF21B10FDF76DFF02214DF21C10FDF739
:102B500068FF34214DF21D10FDF763FF02214DF295
:102B60001E10FDF75EFF67214DF21F10FDF759FFA4
:102B700002214DF22010FDF754FF84214DF2211067
:102B8000FDF74FFF02214DF22210FDF74AFFA4216D
:102B90004DF22310FDF745FF02214DF22410FDF701
:102BA00040FFB7214DF22510FDF73BFF02214DF20A
:102BB0002610FDF736FFCF214DF22710FDF731FF2C
:102BC00002214DF22810FDF72CFFDE214DF22910D5
:102BD000FDF727FF02214DF22A10FDF722FFF22117
:102BE0004DF22B10FDF71DFF02214DF22C10FDF7C9
:102BF00018FFFE214DF22D10FDF713FF03214DF2BA
:102C00002E10FDF70EFF10214DF22F10FDF709FFDA
:102C100003214DF23010FDF704FF33214DF2311046
:102C2000FDF7FFFE03214DF23210FDF7FAFE6D2194
:102C30004DF23310FDF7F5FE00214FF45240FDF741
:102C4000F0FE33214DF20120FDF7EBFE00214DF2A5
:102C50000220FDF7E6FE01E06C01002034214DF278
:102C60000320FDF7DEFE00214DF20420FDF7D9FE22
:102C70003A214DF20520FDF7D4FE00214DF2062049
:102C8000FDF7CFFE4A214DF20720FDF7CAFE0021D5
:102C90004DF20820FDF7C5FE5C214DF20920FDF73D
:102CA000C0FE00214DF20A20FDF7BBFE81214DF24E
:102CB0000B20FDF7B6FE00214DF20C20FDF7B1FE12
:102CC000A6214DF20D20FDF7ACFE00214DF20E20A5
:102CD000FDF7A7FEE5214DF20F20FDF7A2FE012131
:102CE0004DF21020FDF79DFE13214DF21120FDF74E
:102CF00098FE01214DF21220FDF793FE54214DF272
:102D00001320FDF78EFE01214DF21420FDF789FE00
:102D100082214DF21520FDF784FE01214DF216208F
:102D2000FDF77FFECA214DF21720FDF77AFE022142
:102D30004DF21820FDF775FE00214DF21920FDF728
:102D400070FE02214DF21A20FDF76BFE01214DF2BB
:102D50001B20FDF766FE02214DF21C20FDF761FEEF
:102D600034214DF21D20FDF75CFE02214DF21E20A4
:102D7000FDF757FE67214DF21F20FDF752FE02219D
:102D80004DF22020FDF74DFE84214DF22120FDF76C
:102D900048FE02214DF22220FDF743FEA4214DF210
:102DA0002320FDF73EFE02214DF22420FDF739FEDF
:102DB000B7214DF22520FDF734FE02214DF22620E9
:102DC000FDF72FFECF214DF22720FDF72AFE02212D
:102DD0004DF22820FDF725FEDE214DF22920FDF7DA
:102DE00020FE02214DF22A20FDF71BFEF2214DF2BA
:102DF0002B20FDF716FE02214DF22C20FDF711FECF
:102E0000FE214DF22D20FDF70CFE03214DF22E2068
:102E1000FDF707FE10214DF22F20FDF702FE0321E2
:102E20004DF23020FDF7FDFD33214DF23120FDF74D
:102E3000F8FD03214DF23220FDF7F3FD6D214DF237
:102E40003320FDF7EEFD00214FF45340FDF7E9FD7F
:102E500033214DF20130FDF7E4FD00214DF2023047
:102E6000FDF7DFFD34214DF20330FDF7DAFD0021DF
:102E70004DF20430FDF7D5FD3A214DF20530FDF756
:102E8000D0FD00214DF20630FDF7CBFD4A214DF279
:102E90000730FDF7C6FD00214DF20830FDF7C1FDFA
:102EA0005C214DF20930FDF7BCFD00214DF20A30E6
:102EB000FDF7B7FD81214DF20B30FDF7B2FD00218A
:102EC0004DF20C30FDF7ADFDA6214DF20D30FDF7B2
:102ED000A8FD00214DF20E30FDF7A3FDE5214DF2D6
:102EE0000F30FDF79EFD01214DF21030FDF799FDE9
:102EF00013214DF21130FDF794FD01214DF21230F6
:102F0000FDF78FFD54214DF21330FDF78AFD0121AD
:102F10004DF21430FDF785FD82214DF21530FDF79D
:102F200080FD01214DF21630FDF77BFDCA214DF2E7
:102F30001730FDF776FD02214DF21830FDF771FDD7
:102F400000214DF21930FDF76CFD02214DF21A30CF
:102F5000FDF767FD01214DF21B30FDF762FD0221F7
:102F60004DF21C30FDF75DFD34214DF21D30FDF7B3
:102F700058FD02214DF21E30FDF753FD67214DF241
:102F80001F30FDF74EFD02214DF22030FDF749FDC7
:102F900084214DF22130FDF744FD02214DF2223013
:102FA000FDF73FFDA4214DF22330FDF73AFD02214C
:102FB0004DF22430FDF735FDB7214DF22530FDF7F8
:102FC00030FD02214DF22630FDF72BFDCF214DF2D1
:102FD0002730FDF726FD02214DF22830FDF721FDB7
:102FE000DE214DF22930FDF71CFD02214DF22A3081
:102FF000FDF717FDF2214DF22B30FDF712FD0221F6
:103000004DF22C30FDF70DFDFE214DF22D30FDF778
:1030100008FD03214DF22E30FDF703FD10214DF286
:103020002F30FDF7FEFC03214DF23030FDF7F9FCA7
:1030300033214DF23130FDF7F4FC03214DF23230F3
:10304000FDF7EFFC6D214DF23330FDF7EAFC002176
:103050004FF45440FDF7E5FC33214DF20140FDF7FC
:10306000E0FC00214DF20240FDF7DBFC34214DF283
:103070000340FDF7D6FC00214DF20440FDF7D1FCE2
:103080003A214DF20540FDF7CCFC00214DF20640FF
:10309000FDF7C7FC4A214DF20740FDF7C2FC0021B5
:1030A0004DF20840FDF7BDFC5C214DF20940FDF7F3
:1030B000B8FC00214DF20A40FDF7B3FC81214DF22E
:1030C0000B40FDF7AEFC00214DF20C40FDF7A9FCD2
:1030D000A6214DF20D40FDF7A4FC00214DF20E405B
:1030E000FDF79FFCE5214DF20F40FDF79AFC012111
:1030F0004DF21040FDF795FC13214DF21140FDF704
:1031000090FC01214DF21240FDF78BFC54214DF251
:103110001340FDF786FC01214DF21440FDF781FCC0
:1031200082214DF21540FDF77CFC01214DF2164045
:10313000FDF777FCCA214DF21740FDF772FC022122
:103140004DF21840FDF76DFC00214DF21940FDF7DE
:1031500068FC02214DF21A40FDF763FC01214DF29B
:103160001B40FDF75EFC00E003E302214DF21C4032
:10317000FDF757FC34214DF21D40FDF752FC0221B2
:103180004DF21E40FDF74DFC67214DF21F40FDF74B
:1031900048FC02214DF22040FDF743FC84214DF212
:1031A0002140FDF73EFC02214DF22240FDF739FCA3
:1031B000A4214DF22340FDF734FC02214DF22440BE
:1031C000FDF72FFCB7214DF22540FDF72AFC022127
:1031D0004DF22640FDF725FCCF214DF22740FDF7AB
:1031E00020FC02214DF22840FDF71BFCDE214DF2B0
:1031F0002940FDF716FC02214DF22A40FDF711FC93
:10320000F2214DF22B40FDF70CFC02214DF22C4037
:10321000FDF707FCFE214DF22D40FDF702FC0321D6
:103220004DF22E40FDF7FDFB10214DF22F40FDF732
:10323000F8FB03214DF23040FDF7F3FB33214DF253
:103240003140FDF7EEFB03214DF23240FDF7E9FB83
:103250006D214DF23340FDF7E4FB00214FF4554062
:10326000FDF7DFFB33214DF20150FDF7DAFB0021C2
:103270004DF20250FDF7D5FB34214DF20350FDF71E
:10328000D0FB00214DF20450FDF7CBFB3A214DF26B
:103290000550FDF7C6FB00214DF20650FDF7C1FBBE
:1032A0004A214DF20750FDF7BCFB00214DF20850BA
:1032B000FDF7B7FB5C214DF20950FDF7B2FB002191
:1032C0004DF20A50FDF7ADFB81214DF20B50FDF799
:1032D000A8FB00214DF20C50FDF7A3FBA6214DF2F7
:1032E0000D50FDF79EFB00214DF20E50FDF799FBAE
:1032F000E5214DF20F50FDF794FB01214DF21050E6
:10330000FDF78FFB13214DF21150FDF78AFB0121D0
:103310004DF21250FDF785FB54214DF21350FDF78D
:1033200080FB01214DF21450FDF77BFB82214DF211
:103330001550FDF776FB01214DF21650FDF771FB9C
:10334000CA214DF21750FDF76CFB02214DF21850C7
:10335000FDF767FB00214DF21950FDF762FB0221DA
:103360004DF21A50FDF75DFB01214DF21B50FDF7A8
:1033700058FB02214DF21C50FDF753FB34214DF256
:103380001D50FDF74EFB02214DF21E50FDF749FB8B
:1033900067214DF21F50FDF744FB02214DF22050F2
:1033A000FDF73FFB84214DF22150FDF73AFB02214E
:1033B0004DF22250FDF735FBA4214DF22350FDF7CD
:1033C00030FB02214DF22450FDF72BFBB7214DF2CB
:1033D0002550FDF726FB02214DF22650FDF721FB7B
:1033E000CF214DF22750FDF71CFB02214DF2285052
:1033F000FDF717FBDE214DF22950FDF712FB0221EC
:103400004DF22A50FDF70DFBF2214DF22B50FDF746
:1034100008FB02214DF22C50FDF703FBFE214DF27B
:103420002D50FDF7FEFA03214DF22E50FDF7F9FA6B
:1034300010214DF22F50FDF7F4FA03214DF23050D8
:10344000FDF7EFFA33214DF23150FDF7EAFA03218F
:103450004DF23250FDF7E5FA6D214DF23350FDF794
:10346000E0FA00214FF45640FDF7DBFA33214DF22C
:103470000160FDF7D6FA00214DF20260FDF7D1FAA6
:1034800034214DF20360FDF7CCFA00214DF20460C7
:10349000FDF7C7FA3A214DF20560FDF7C2FA0021A7
:1034A0004DF20660FDF7BDFA4A214DF20760FDF7C7
:1034B000B8FA00214DF20860FDF7B3FA5C214DF235
:1034C0000960FDF7AEFA00214DF20A60FDF7A9FA96
:1034D00081214DF20B60FDF7A4FA00214DF20C6042
:1034E000FDF79FFAA6214DF20D60FDF79AFA002133
:1034F0004DF20E60FDF795FAE5214DF20F60FDF7F4
:1035000090FA01214DF21060FDF78BFA13214DF274
:103510001160FDF786FA01214DF21260FDF781FA84
:1035200054214DF21360FDF77CFA01214DF2146035
:10353000FDF777FA82214DF21560FDF772FA01214D
:103540004DF21660FDF76DFACA214DF21760FDF7D6
:1035500068FA02214DF21860FDF763FA00214DF27E
:103560001960FDF75EFA02214DF21A60FDF759FA73
:1035700001214DF21B60FDF754FA02214DF21C604F
:10358000FDF74FFA34214DF21D60FDF74AFA022192
:103590004DF21E60FDF745FA67214DF21F60FDF701
:1035A00040FA02214DF22060FDF73BFA84214DF2F2
:1035B0002160FDF736FA02214DF22260FDF731FA63
:1035C000A4214DF22360FDF72CFA02214DF2246074
:1035D000FDF727FAB7214DF22560FDF722FA022107
:1035E0004DF22660FDF71DFACF214DF22760FDF761
:1035F00018FA02214DF22860FDF713FADE214DF290
:103600002960FDF70EFA02214DF22A60FDF709FA52
:10361000F2214DF22B60FDF704FA02214DF22C60ED
:10362000FDF7FFF9FE214DF22D60FDF7FAF90321B8
:103630004DF22E60FDF7F5F910214DF22F60FDF7E8
:10364000F0F903214DF23060FDF7EBF933214DF233
:103650003160FDF7E6F903214DF23260FDF7E1F943
:103660006D214DF23360FDF7DCF955214FF47040C8
:10367000FDF7D7F9AA214FF20100FDF7D2F9522147
:103680004FF20200FDF7CDF908214FF20300FDF7DC
:10369000C8F900214FF20400FDF7C3F9CC214FF423
:1036A0003140FDF7BEF900214BF20110FDF7B9F9E9
:1036B00005214FF43640FDF7B4F970214FF437403F
:1036C000FDF7AFF970214BF20170FDF7AAF9012166
:1036D0004FF43840FDF7A5F903214BF60100FDF743
:1036E000A0F903214BF60200FDF79BF903214BF6ED
:1036F0000300FDF796F902214FF43C40FDF791F9E4
:1037000000214BF60140FDF78CF900214BF60240F9
:10371000FDF787F9D0214FF44940FDF782F90221E6
:103720004CF60110FDF77DF950214CF60210FDF723
:1037300078F950214CF60310FDF773F950214CF63F
:103740000410FDF76EF900214FF45450FDF769F9AC
:1037500055214FF46850FDF764F94FF48850FDF798
:1037600051F9782000F0C5FD4FF42450FDF74AF9D7
:10377000BDE0FE48808841F663118842F8D1E2201E
:10378000FDF740F91D20FDF740F90220FDF73DF956
:103790000420FDF73AF9642000F0ABFDE020FDF7CE
:1037A00031F90120FDF731F90A2000F0C6FDE020D3
:1037B000FDF728F90320FDF728F90C2000F0BDFDE6
:1037C0000120FDF71FF90A2000F0B7FDE620FDF704
:1037D00019F92F20FDF719F9FF20FDF716F9FF2041
:1037E000FDF713F9B020FDF70DF92020FDF70DF9D5
:1037F0000020FDF70AF90320FDF707F940F21F301A
:10380000FDF703F90120FDF700F940F2DF10FDF7A5
:10381000FCF80020FDF7F9F8B420FDF7F3F80420D8
:10382000FDF7F3F840F21F40FDF7EFF80020FDF739
:10383000ECF82E20FDF7E9F80020FDF7E6F800206F
:10384000FDF7E3F80020FDF7E0F80020FDF7DDF8D4
:10385000B620FDF7D7F80220FDF7D7F84FF4037034
:10386000FDF7D3F80020FDF7D0F81720FDF7CDF8CD
:103870001520FDF7CAF80020FDF7C7F80020FDF776
:10388000C4F8F020FDF7BEF80320FDF7BEF82920AC
:10389000FDF7B8F8D020FDF7B5F80020FDF7B5F832
:1038A000BE20FDF7AFF80520FDF7AFF8FE20FDF7CD
:1038B000ACF80120FDF7A9F80020FDF7A6F80020DC
:1038C000FDF7A3F80020FDF7A0F8B820FDF79AF85F
:1038D0000320FDF79AF80120FDF797F8BA20FDF7CD
:1038E00091F80120FDF791F86420FDF753FB0020CB
:1038F000FDF778FB01209E4908604FF6FF70FDF749
:10390000BCFC1FB000BD2DE9F04F05460E46174622
:103910009846DDF824A04FF0000B781B401C1FFADE
:1039200080FB344613E021462846FDF7A7F8FDF753
:1039300088F84FF0000906E08E48A0F800A009F1D1
:1039400001001FFA80F9D945F6DB601C84B24445BA
:10395000E9DDBDE8F08F2DE9F84F07460D469046AA
:103960009946DDF828B0A8EB0700401C1FFA80FA42
:10397000A9EB0500401C80B20090002414E0281937
:1039800081B23846FDF77AF8FDF75BF8002607E0CC
:1039900004FB0A603BF8100076490880701C86B270
:1039A0005645F5DB601C84B200988442E7DBBDE835
:1039B000F88F2DE9FF4F84B081468A46002003909E
:1039C00002900698A0EB09050798A0EB0A06CDF82F
:1039D0000490CDF800A0002D01DD012705E00DB910
:1039E000002702E04FF0FF376D42002E02DD4FF05E
:1039F000010806E016B94FF0000802E04FF0FF386A
:103A00007642B54201DD2C4600E034464FF0000B13
:103A100021E0009A91B2019A90B2FDF738FA03982A
:103A2000284403900298304402900398A04205DD98
:103A30000398001B03900198384401900298A0421B
:103A400005DD0298001B02900098404400900BF1A5
:103A500001001FFA80FB601C8345DADD08B0BDE879
:103A6000F08FF0B504460D4616461F462B463246EB
:103A700029462046FFF79DFF3B4622462946204621
:103A8000FFF797FF3B46324639462046FFF791FF46
:103A90003B46324629463046FFF78BFFF0BD2DE905
:103AA000F04306460F469046002445460320A0EB0F
:103AB00048093CE07A1B91B2321990B2FDF7E7F960
:103AC0003A1B91B2721990B2FDF7E1F93A1991B22D
:103AD000721990B2FDF7DBF97A1991B2321990B2EE
:103AE000FDF7D5F97A1991B2321B90B2FDF7CFF9F3
:103AF0003A1991B2721B90B2FDF7C9F97A1B91B2D3
:103B0000321B90B2FDF7C3F93A1B91B2721B90B20F
:103B1000FDF7BDF9641CB9F1000F03DAA000801DA8
:103B2000814404E0601B80000A3081446D1EAC4279
:103B3000C0DDBDE8F0832DE9F84F80460E461746FC
:103B40001C46B3462046E31704EB5373DB102146B3
:103B50004FEAE47C04EB5C7C4FEAEC0CA4EBCC0C6D
:103B6000BCF1000F08D04FF0010C07E06C01002001
:103B7000808121420008006C4FF0000C6344224613
:103B800004EBD27C4FEA6C0C03FB0CF3DBB200932A
:103B9000A7F12000C7B2002556E00C2C07D107EB97
:103BA00047009F4901EB800010F8059013E0102CAE
:103BB00005D19C4800EB071010F805900BE0182C7D
:103BC00007D107EBC700984901EB800010F805907A
:103BD00001E0BDE8F88F4FF0000A2FE009F0800007
:103BE00030B19248028831464046FDF75EF907E061
:103BF0000A9828B98E48028831464046FDF755F9A3
:103C00004FEA49604FEA1069701C86B289484088C3
:103C1000B04200DCDDE7A6EB0B00A0420AD15E4615
:103C200008F101001FFA80F882480088404500DC56
:103C3000CFE706E00AF1010000F0FF0ABAF1080F31
:103C4000CCDB00BF681CC5B200988542A5DB00BF75
:103C5000BFE710B50246012000E050430B1EA1F162
:103C60000104E1B2F9D110BD2DE9FF4F81B0074643
:103C700091461E460E9D4FF0000A002439E0301B8D
:103C8000401EC1B20A20FFF7E4FFB9FBF0F00A21A1
:103C9000B0FBF1F201FB1208BAF1000F16D1701E51
:103CA000A04213DDB8F1000F0ED10020AB4605EBAA
:103CB000DB71491001FB0471009088B22B46202271
:103CC0000299FFF738FF12E04FF0010A0020AB46DF
:103CD00005EBDB71491001FB0471009088B208F11B
:103CE0003001CAB22B460299FFF725FF00BF601CC6
:103CF000C4B2B442C3DB05B0BDE8F08F2DE9FF4F7D
:103D000082B0064692461F46DDE90F48002001902A
:103D100000254DE0781B401EC1B20A20FFF799FF35
:103D2000BAFBF0F00A21B0FBF1F201FB1209019895
:103D300050BB781EA84227DDB9F1000F22D108F050
:103D4000800078B108F00100A34604EBDB71491054
:103D500001FB0561009088B2234630220399FFF7EA
:103D6000EAFE0EE008F00100A34604EBDB71491007
:103D700001FB0561009088B2234620220399FFF7DA
:103D8000DAFE13E00120019008F00100A34604EBE5
:103D9000DB71491001FB0561009088B209F1300127
:103DA000CAB223460399FFF7C6FE00BF681CC5B21E
:103DB000BD42AFDB06B0BDE8F08F2DE9F847044601
:103DC0000D4690469946DDE9096704F0FF0A08EBC5
:103DD00004001FFA80F809EB05001FFA80F916E0CD
:103DE000444502DB5446A81985B24D4500DB14E07A
:103DF000002000903A78334629462046FFF79BFE84
:103E0000304606EBD07104EB61018CB27F1C387830
:103E10007E2802DC38782028E2DA00BFBDE8F88787
:103E2000BC8F000830940008209A0008160000207B
:103E3000180000206C01002010B501211F4802F07D
:103E40005AFB68B11E48008840F400401C490880B5
:103E500001211A4802F060FB0021184802F082F8A4
:103E600010BD7FB505460C460121202001F0EFF979
:103E7000ADF80450ADF800400020ADF80600ADF8F4
:103E8000020069460D4801F011FD012211460B4860
:103E900002F083F80121094802F064F837208DF818
:103EA0000C0000208DF80D0002208DF80E0001207E
:103EB0008DF80F0003A800F032FB7FBD0014004016
:103EC0001A00002010B540F22551574801F0D6FBEA
:103ED000F8B1554801F052FBC4B25448008800F4D0
:103EE0000040B0B951480088B0F5167F12DA0021C1
:103EF0004F4802F0CBFA4D48008818B901214C48D0
:103F000002F030F849490888411C484A1180494963
:103F10000C5405E04548008840F4004043490880BF
:103F200010BD10B586B004460121082001F082F9C9
:103F30000121880401F08BF93B4801F0DFF94FF4CF
:103F40008060ADF8100003208DF8120018208DF865
:103F5000130004A9384800F0B1FE4FF40060ADF83A
:103F6000100004208DF8130004A9334800F0A6FEC9
:103F700000940020ADF80400ADF80600ADF808008C
:103F8000ADF80C000C20ADF80A006946264801F097
:103F9000F8F90121244801F080FA012240F225516C
:103FA000214801F086FA27208DF8140002208DF8B0
:103FB000150003208DF8160001208DF8170005A8C4
:103FC00000F0ADFA41F61F416320FFF74AFF0020E1
:103FD000164908800021164801F0C4FF06B010BD44
:103FE0000FB438B505A800901448009A049903F05E
:103FF00049FB00200090114803F012FD85B2002417
:104000000DE000BF4021084801F022FB0028F9D054
:104010000A48015D044801F0ADFA601C84B2AC426C
:10402000EFDB38BC5DF814FB004800401A000020AC
:10403000001400407A010020000C0140D20300204F
:10404000F8B50A2601250121042001F0F3F8E80360
:10405000ADF8000048208DF8030003208DF8020021
:104060006946884800F02AFE1020ADF800008DF85F
:10407000030003208DF802006946824800F01EFE0E
:104080001021804800F0C7FE01217F4800F0E7FEC4
:1040900001207E4908607E49C1F83C014FF416506A
:1040A000FFF73FFF33E00120784908600A2000F065
:1040B00044F978A0FFF794FF00207549C1F89001FA
:1040C00000240AE07548008800F4004000B106E0D2
:1040D000052000F032F9601CC4B20A2CF2DB00BFEC
:1040E0006E48008800F4004088B16C480088C5B272
:1040F00000206A490880042D09D1694800784F28BA
:1041000005D1674840784B2801D1002504E0301ED6
:10411000A6F10101CEB2C6D100BF06B901252846DD
:10412000F8BD70B50F2631E00120584908600A201B
:1041300000F003F95BA0FFF753FF00250AE00A2017
:1041400000F0FBF85548008800F4004000B103E09F
:10415000681CC5B2142DF2DB00BF00204B4908607B
:104160004E48008800F4004080B14C480088C4B23A
:1041700000204A4908800D2C08D1494800782B2896
:1041800004D1474880793038C4B204E0301EA6F12B
:104190000101CEB2C8D100BF06B9FF24204670BDD0
:1041A0002DE9F04105460F2730E00120374908602E
:1041B0000A2000F0C2F829463DA0FFF711FF0020B9
:1041C0003349C1F8900100260AE03448008800F421
:1041D000004000B106E0052000F0AFF8701CC6B248
:1041E000142EF2DB00BF2D48008800F4004068B1B7
:1041F0002A480088C4B2002028490880042C05D130
:10420000274800784F2801D1002404E0381EA7F188
:104210000101CFB2C9D100BF07B9FF242046BDE8D4
:10422000F08170B504460120184908600A2000F0AA
:1042300084F821461EA0FFF7D3FE00260AE01748A7
:10424000008800F4004000B106E00A2000F075F894
:10425000701CC6B2322EF2DB00BF00200B49086092
:104260000E48008800F4004050B10C480088C5B2E8
:1042700000200A4908800A4948550FA003F014FAA3
:1042800070BD000000080140000230009001214292
:104290000000214241540D0A000000001A000020D5
:1042A0007A01002041542B524F4C453F0D0A00002B
:1042B00025730D0A000000000D0A257300000000A0
:1042C00010B56FF0040000F074F92E4800682E4914
:1042D000B0FBF1F02D4908700846007800EB400172
:1042E000C1EBC0104FF6FF7101EAC00028490880F9
:1042F00010BD0146254A12784A434FF0E0235A6127
:1043000000229A611A46126942F001021A6100BF46
:104310004FF0E022106900F001021AB100F480327F
:10432000002AF5D04FF0E022126922F001024FF08E
:10433000E0231A6100229A6170470146144A1288EC
:104340004A434FF0E0235A6100229A611A461269EB
:1043500042F001021A6100BF4FF0E022106900F044
:1043600001021AB100F48032002AF5D04FF0E022A9
:10437000126922F001024FF0E0231A6100229A61D3
:10438000704700000000002000127A001C0000208E
:104390001E000020014600BF704700BF494A128836
:1043A00002F04002002AF9D0C2B2464B1B1D1A800F
:1043B000704710B586B00446012144F2040000F0B5
:1043C00039FF4FF40070ADF8140003208DF816008B
:1043D00018208DF8170005A93B4800F06FFC4FF43A
:1043E0008060ADF8140004208DF8170005A9364848
:1043F00000F064FC25208DF8000003208DF80100FA
:104400008DF8020001208DF80300684600F087F85F
:1044100001940020ADF80800ADF80A00ADF80C00DA
:10442000ADF810000C20ADF80E0001A9254800F0F1
:10443000A8FF012240F22551224801F03AF801215B
:10444000204801F02AF806B010BD10B540F2255101
:104450001C4801F013F910B31A4801F08FF8C4B2E8
:104460001A48008800F40040C8B91848008800F4D1
:10447000804060B10A2C03D000201449088020E05D
:104480001248008840F400401049088019E00D2CC3
:1044900006D10E48008840F480400C49088010E0A6
:1044A0000A480088C0F30D0009490C5407480088E9
:1044B000401C0649088008460088C72801DD002006
:1044C000088010BD00380140000801402400002091
:1044D0002A0600200948804709480047FEE7FEE712
:1044E000FEE7FEE7FEE7FEE7FEE7FEE7FEE7FEE7A4
:1044F00004480549054A064B70470000BB07000801
:104500003101000858070020580D002058090020EC
:104510005809002031490143314A1160704770B594
:10452000002100230F22C47804B32D4C246804F426
:10453000E064C4F5E064210AC1F10403CA40447890
:1045400004FA03F18478144021430901254C0678CC
:10455000A155047804F01F050124AC4005786D11C5
:10456000AD0005F1E025C5F8004109E0047804F04C
:104570001F050124AC401C4D0678761145F82640F5
:1045800070BD1A4A0A400243154B1B1F1A60704740
:1045900039B1134A121D12680243114B1B1D1A60D8
:1045A00006E00F4A121D126882430D4B1B1D1A6054
:1045B0007047042808D14FF0E021096941F0040157
:1045C0004FF0E022116107E04FF0E021096921F08E
:1045D00004014FF0E0221161704700000000FA056D
:1045E0000CED00E000E400E080E100E080FFFF1F50
:1045F00030B943F2DB028100A1F1C0410A6005E05D
:1046000043F2D2028100A1F1C0410A606FF0704212
:10461000411C8900A1F1C0410A608100A1F1C041A3
:10462000C1F80421704710280AD118214FF0204208
:104630001166402151664FF0FC319166D16610E061
:104640001821F74A116040214FF02042C2F884102F
:104650004FF0FC31F24A083211604FF02042C2F8AC
:104660008C1070471820EE492031086000200906A0
:10467000C1F8A4004FF0FC30E94928310860091D59
:104680000860091D08607047D0E901121143C26833
:104690001143026911434269114382691143C2699E
:1046A0001143026A1143426A1143826A1143C26A8A
:1046B0001143026B114302689200A2F1C0421160E3
:1046C000816808290BD101688900A1F1C0410968FE
:1046D00041F0400201688900A1F1C0410A60416BCC
:1046E0000968426B526841EA0211426B926841EAE2
:1046F0000221426B928941EA0241426B128A41EAED
:104700000251426B127D41EA0261426B9269114390
:104710000268521C9200A2F1C0421160C16AB1F558
:10472000804F1BD1816B0968826B526841EA02118C
:10473000826B926841EA0221826B128A41EA02513D
:10474000826B127D41EA0261826B926911430268B9
:104750009200A2F1C042C2F8041107E06FF070426B
:1047600001688900A1F1C041C1F80421704730B54A
:10477000002100220023446844F0080485682C438B
:10478000C5682C4305692C43456944EA452485697D
:1047900044EA4531C4692468C5696D6844EA052462
:1047A000C5692D8944EA0544C5692D7B44EA056243
:1047B000046A2468056A6D6844EA0524056A2D893F
:1047C00044EA0544056A2D7B44EA05630468102C1D
:1047D00005D14FF020442166A266E36608E0904CC4
:1047E00021604FF02044C4F888208D4C0C342360A5
:1047F00030BD016841F01001426841EA42218268FF
:1048000041EA4231864A20321160C1680968C268B3
:10481000526841EA0221C268128941EA0241C26833
:10482000127B41EA02617E4A2832116001690968FF
:104830000269526841EA02210269128941EA024191
:104840000269127B41EA0261754A2C3211604169AA
:1048500009684269526841EA02214269128941EAC3
:1048600002414269127B41EA02614FF02042C2F8E4
:10487000B010704700210160022141600021816079
:10488000C160016141618161C16101624FF4805188
:104890004162490081620021C16201630F21426BC4
:1048A0001160426B5160FF21426B91600F21426B9E
:1048B000D160426B1161426B51610021426B916189
:1048C0000F21826B1160826B5160FF21826B9160BE
:1048D0000F21826BD160826B1161826B516100216B
:1048E000826B9161704710210160002141608160FD
:1048F000C160016141618161FC21C2691160C269CD
:104900005160C2699160C269D160026A1160026A35
:104910005160026A9160026AD160704700210160B3
:1049200041608160FC21C2681160C2685160C26848
:104930009160C268D16002691160026951600269C8
:1049400091600269D16042691160426951604269B7
:1049500091604269D160704751B18200A2F1C042BA
:10496000126842F001038200A2F1C042136009E024
:104970008200A2F1C04212682A4B1A408300A3F1C0
:10498000C0431A60704799B1102808D14FF02042F7
:10499000126E42F004024FF020431A661DE0204AD6
:1049A000126842F004024FF02043C3F8802014E064
:1049B000102809D14FF02042126E1A4BDB1E1A400C
:1049C0004FF020431A6608E0154A1268154BDB1EAB
:1049D0001A404FF02043C3F88020704748B1104977
:1049E0002031096841F004014FF02042C2F8A010C4
:1049F00009E00B49203109680A4AD21E11404FF0E4
:104A00002042C2F8A0107047B9B110280CD14FF065
:104A10002042126E42F040024FF020431A661FE01F
:104A2000800000A0FEFF0F00724A126842F04002B0
:104A30004FF02043C3F8802012E0102808D14FF037
:104A40002042126E6C4B1A404FF020431A6607E06A
:104A5000684A1268684B1A404FF02043C3F8802020
:104A6000704701460020102903D14FF02042506FBB
:104A700002E0604A14321068704710B5F2B1102895
:104A800007D14FF020435B6E0B434FF02044636629
:104A900032E0B0F5807F08D1564B1B1D1B680B43DD
:104AA0004FF02044C4F8843026E0524B24331B6876
:104AB0000B434FF02044C4F8A4301DE0102807D168
:104AC0004FF020435B6E8B434FF02044636613E04E
:104AD000B0F5807F08D1474B1B1D1B688B434FF0FF
:104AE0002044C4F8843007E0424B24331B688B43D6
:104AF0004FF02044C4F8A43010BD10B50246002089
:104B00000023102A03D14FF02044636E09E0B2F570
:104B1000807F03D1374C241D236802E0354C2434B8
:104B2000236803EA01040CB1012000E0002010BD5D
:104B3000102807D14FF02042526E8A434FF0204395
:104B40005A6613E0B0F5807F08D12A4A121D126818
:104B50008A434FF02043C3F8842007E0254A2432DB
:104B600012688A434FF02043C3F8A420704770B501
:104B700002460020002300240025102A03D14FF014
:104B80002046736E09E0B2F5807F03D1194E361DC1
:104B9000336802E0174E2436336803EA010403EA5F
:104BA000D10514B10DB1012000E0002070BD102826
:104BB00008D14FF02042526E22EAD1024FF020433A
:104BC0005A6615E0B0F5807F09D10A4A121D1268B5
:104BD00022EAD1024FF02043C3F8842008E0054ABE
:104BE0002432126822EAD1024FF02043C3F8A420F5
:104BF00070470000800000A0BFFF0F0010B5044602
:104C0000CC48844208D10121042000F02DFB002172
:104C1000042000F029FB46E0C748844208D1012166
:104C2000082000F021FB0021082000F01DFB3AE0E5
:104C3000C248844208D10121102000F015FB002158
:104C4000102000F011FB2EE0BD48844208D1012164
:104C5000202000F009FB0021202000F005FB22E0CD
:104C6000B848844208D10121402000F0FDFA00211B
:104C7000402000F0F9FA16E0B348844208D101213F
:104C8000802000F0F1FA0021802000F0EDFA0AE027
:104C9000AE48844207D10121801500F0E5FA0021D9
:104CA000A01500F0E1FA10BD10B50121084600F092
:104CB000DBFA0021012000F0D7FA10BD2DE9F04108
:104CC000024600250026002000230024002791F83A
:104CD00003C00CF00F0591F803C00CF0100CBCF1F0
:104CE000000F03D091F802C04CEA050591F800C00E
:104CF000BCF1000F31D0146800202BE04FF0010C04
:104D00000CFA00F3B1F800C00CEA03069E4220D171
:104D100083004FF00F0C0CFA03F7BC4305FA03FCB9
:104D20004CEA040491F803C0BCF1280F06D14FF0FF
:104D3000010C0CFA00FCC2F814C00AE091F803C0A0
:104D4000BCF1480F05D14FF0010C0CFA00FCC2F881
:104D500010C0401C0828D1D31460B1F800C0BCF1C9
:104D6000FF0F34DD546800202EE000F1080C4FF0F6
:104D7000010808FA0CF3B1F800C00CEA03069E42E1
:104D800021D183004FF00F0C0CFA03F7BC4305FA56
:104D900003FC4CEA040491F803C0BCF1280F05D1D0
:104DA00000F1080C08FA0CF8C2F8148091F803C05E
:104DB000BCF1480F07D100F1080C4FF0010808FAC8
:104DC0000CF8C2F81080401C0828CED35460BDE80F
:104DD000F0814FF6FF710180022181700421C170C2
:104DE00070470246002093680B400BB1012000E0A1
:104DF000002070470146886880B270470246002054
:104E0000D3680B400BB1012000E000207047014641
:104E1000C86880B2704701617047416170470AB14C
:104E2000016100E041617047C16070474FF480321A
:104E30000A438261816182618269826970470246A8
:104E40000020434B18684FF68073184040EA021068
:104E500008433F4B186070473E49C8617047F0B542
:104E60000A46002300240021002500F00046B6F188
:104E7000004F02D1364EF16901E0354E7168C0F342
:104E8000034583B200F44016B6F5401F08D121F067
:104E900070612F4E766826F070662D4F7E6012E0AE
:104EA00000F48016B6F5801F06D1032606FA05F435
:104EB000A14341F0706106E0460D360103FA06F6A3
:104EC000B14341F0706122B1460D360103FA06F696
:104ED000314300F00046B6F1004F02D11C4EF161A3
:104EE00001E01B4E7160F0BD30B500228B071C0F36
:104EF0000F2303FA04F2164B08338C1053F82430B6
:104F00009343134C08348D1044F8253023468C10FD
:104F100053F824308C07240F00FA04F423430C4C7C
:104F200008348D1044F8253030BD0A49DC31086062
:104F30007047000000080140000C014000100140D3
:104F40000014014000180140001C014000200140F5
:104F50000000014000002042DF48006840F00100EE
:104F6000DD49086008464068DC490840DA49486085
:104F700008460068DA490840D749086008460068D2
:104F800020F4802008600846406820F4FE00486055
:104F90004FF41F0088607047CF49096821F48031C1
:104FA000CD4A11601146096821F480211160B0F5E5
:104FB000803F03D0B0F5802F0ED106E0C6490968C6
:104FC00041F48031C44A116007E0C349096841F4E3
:104FD000A021C14A116000E000BF00BF704710B5BA
:104FE00001460022002300204A11012A02D1BA4CB6
:104FF000236806E0022A02D1B74C236A01E0B64CCE
:10500000636A01F01F02012494401C400CB101208E
:1050100000E0002010BD38B50020009000240025DD
:1050200000BF3120FFF7DBFF05460098401C0090D1
:105030000098B0F5A06F01D0002DF2D03120FFF71D
:10504000CEFF08B1012400E00024204638BD01460F
:105050000020A14A106820F0F80040EAC10010606A
:105060007047A04908607047024600209A4B586874
:1050700020F47C1042EA01031843974B58607047B4
:1050800098490866704701460020934A506820F00E
:1050900003000843506070478F48406800F00C00E0
:1050A0007047014600208C4A506820F0F000084309
:1050B0005060704701460020874A506820F4E06045
:1050C00008435060704701460020834A506820F42E
:1050D000605040EAC1005060704729B17E4A527A60
:1050E00002437D4B5A7204E07B4A527A82437A4BE8
:1050F0005A7270477B49D8310860704701460020DA
:10510000754A506820F440400843506070470021C1
:10511000714A20321170704A82F82010012802D0A2
:1051200004280AD104E001216B4A2032117005E005
:105130000521694A2032117000E000BF00BF7047AE
:105140006949086070476449096A0143624A11620B
:105150007047654944390860704730B50021002226
:10516000002400235C4D6D6805F00C0121B1042979
:1051700005D0082923D105E05C4D056022E05B4D98
:1051800005601FE0544D6D6805F47012524D6D6856
:1051900005F48034022505EB92421CB9544D554369
:1051A00005600BE04C4D6D6805F400351DB1504DA8
:1051B0005543056002E04D4D5543056002E04B4DFF
:1051C000056000BF00BF444D6D6805F0F00109099E
:1051D000484D6B5C0568DD4045603F4D6D6805F4EA
:1051E000E061090A434D6B5C4568DD4085603A4DDE
:1051F0006D6805F46051C90A3E4D6B5C4568DD4041
:10520000C560354D6D6805F44041890B3A4D6B5CC6
:10521000C568B5FBF3F5056130BD29B12E4A526969
:1052200002432D4B5A6104E02B4A526982432A4BB8
:105230005A61704729B1284A92690243264B9A6104
:1052400004E0254A92698243234B9A61704729B151
:10525000214AD2690243204BDA6104E01E4AD26936
:1052600082431D4BDA61704729B11B4AD268024361
:10527000194BDA6004E0184AD2688243164BDA60B0
:10528000704729B1144A12690243134B1A6104E0B2
:10529000114A12698243104B1A6170471249403912
:1052A000086070470F49C86470470B49C871704760
:1052B0000948406A40F080700749486270470146DB
:1052C0000020054A92680A400AB1012000E000204F
:1052D0007047014988727047001002400000FFF8D3
:1052E000FFFFF6FE000042428004424200127A00B4
:1052F00000093D00260000203600002010B50446BD
:10530000FB48844209D101218803FFF7ADFF00214A
:105310004FF48040FFF7A8FF32E0F648844209D1FD
:1053200001214804FFF7ADFF00214FF40030FFF7E3
:10533000A8FF25E0F048844209D101218804FFF745
:10534000A0FF00214FF48020FFF79BFF18E0EB48FF
:10535000844209D10121C804FFF793FF00214FF4D3
:105360000020FFF78EFF0BE0E548844208D10121C1
:105370000805FFF786FF00214FF48010FFF781FF3B
:1053800010BD2DE9F04786B005460E460024A24622
:1053900000BFA1460027B08900B100BF2F462C8A6C
:1053A0004CF6FF700440F08804432C82AC894EF622
:1053B000F3100440B08831890843718908430443DD
:1053C000AC81AC8A4FF6FF400440B0890443AC8204
:1053D00001A8FFF7C2FEC648874202D1DDF810A03F
:1053E00001E0DDF80CA0A88900F4004040B10AEB10
:1053F000CA0000EB0A1031684900B0FBF1F807E081
:105400000AEBCA0000EB0A1031688900B0FBF1F822
:105410006420B8FBF0F004012009642101FB10892D
:10542000A88900F4004040B1322000EBC900B0FB75
:10543000F1F000F00700044308E0322000EB09100F
:105440006421B0FBF1F000F00F0004432C8106B0A2
:10545000BDE8F0874FF41651016000218180C180C2
:1054600001810C21418100218181704710B50246E4
:105470000020108A4FF2FF0318400B884C8823430A
:105480008C882343CC8823431843108210BD00210D
:10549000018041808180C180704721B1828942F4BE
:1054A0000052828104E082894DF6FF731A408281A6
:1054B0007047F0B50346002400260025002040F682
:1054C0006A17B94200D100BF1846C1F3421401F077
:1054D0001F06012707FA06F5012C01D10C3004E064
:1054E000022C01D1103000E014301AB107682F43AC
:1054F000076002E00768AF430760F0BD1AB1838A16
:105500000B43838202E0838A8B4383827047028A43
:105510004FF6F0731A400282028A0A4302827047F1
:1055200082894FF2FF731A40828182890A43828105
:10553000704721B1828942F00202828104E08289AF
:105540004FF6FD731A4082817047028A4FF6DF736F
:105550001A400282028A0A430282704721B1028AFB
:1055600042F48042028204E0028A4BF6FF731A4042
:1055700002827047C1F30802828070470146888822
:10558000C0F308007047818941F0010181817047B3
:10559000028BD2B20283028B42EA0122028370475D
:1055A000028B02F47F420283028B0A43028370471C
:1055B00021B1828A42F02002828204E0828A4FF680
:1055C000DF731A408282704721B1828A42F0100252
:1055D000828204E0828A4FF6EF731A40828270471B
:1055E00021B1828A42F00802828204E0828A4FF668
:1055F000F7731A408282704721B1828942F40042D7
:10560000828103E08289C2F30E028281704721B158
:10561000828A42F40062828204E0828A4FF2FF733F
:105620001A4082827047828A4FF6FB731A40828248
:10563000828A0A438282704721B1828A42F0020242
:10564000828204E0828A4FF6FD731A40828270479C
:1056500002460020B1F5007F00D100BF13880B4047
:105660000BB1012000E00020704701F40072B2F598
:10567000007F00D100BFCA430280704770B5024668
:10568000002400230025002040F66A16B14200D114
:1056900000BFC1F3421501F01F03012606FA03F310
:1056A000012D02D19689334006E0022D02D1168ADF
:1056B000334001E0968A33400C12012606FA04F4C6
:1056C0001688344013B10CB1012000E0002070BDF9
:1056D00010B50022002340F66A14A14200D100BF99
:1056E0000A1201249440A3B2DC43048010BD0000E0
:1056F000003801400044004000480040004C004099
:105700000050004010B50446FE48844208D10121F3
:10571000C014FFF7A9FD0021E014FFF7A5FDC4E0C8
:10572000B4F1804F08D101210846FFF7AAFD0021FE
:105730000120FFF7A6FDB8E0F348844208D101211B
:105740000220FFF79EFD00210220FFF79AFDACE04A
:10575000EE48844208D101210420FFF792FD002188
:105760000420FFF78EFDA0E0E948844208D1012122
:105770000820FFF786FD00210820FFF782FD94E056
:10578000E448844208D101211020FFF77AFD00216E
:105790001020FFF776FD88E0DF48844208D1012120
:1057A0002020FFF76EFD00212020FFF76AFD7CE03E
:1057B000DA48844208D101214014FFF755FD002149
:1057C0006014FFF751FD70E0D548844209D10121F2
:1057D000C804FFF749FD00214FF40020FFF744FD06
:1057E00063E0D048844209D101210805FFF73CFD60
:1057F00000214FF48010FFF737FD56E0CA4884427D
:1058000009D101214805FFF72FFD00214FF40010B9
:10581000FFF72AFD49E0C548844208D10121402014
:10582000FFF72FFD00214020FFF72BFD3DE0C04892
:10583000844208D101218020FFF723FD0021802030
:10584000FFF71FFD31E0BB48844208D101218015DC
:10585000FFF717FD0021A015FFF713FD25E0B6485F
:10586000844209D101210804FFF7FEFC00214FF416
:105870008030FFF7F9FC18E0B048844209D10121DB
:105880004804FFF7F1FC00214FF40030FFF7ECFC77
:105890000BE0AB48844208D101218804FFF7E4FC07
:1058A00000214FF48020FFF7DFFC10BD00220288AA
:1058B000944B98420ED0994B98420BD0B0F1804F48
:1058C00008D0914B984205D0904B984202D0904B13
:1058D000984204D14FF68F731A404B881A438D4B70
:1058E000984207D08C4B984204D04FF6FF431A40A1
:1058F000CB881A4302808B8883850B880385814B74
:1059000098420BD0854B984208D08B4B984205D0DB
:105910008A4B984202D08A4B984201D10B7A038677
:1059200001238382704770B5002400220023058C78
:105930004FF6FE7635400584028C8388048B4FF643
:105940008F752C40B51E2C400D882C43751E2A40A7
:105950000D892A434D882A436A4DA8420BD06F4DCA
:10596000A84208D0744DA84205D0744DA84202D078
:10597000734DA84213D14FF6F7752A404D892A433B
:105980004FF6FB752A408D882A434FF6FF652B4062
:105990004FF6FF552B408D892B43CD892B438380B8
:1059A0000483CD888586028470BD70B500240022F2
:1059B0000023058C4FF6EF7635400584028C8388F2
:1059C000048B48F6FF752C404FF6FF452C400D88A0
:1059D0004FF6FF7606EA05252C434FF6DF752A4081
:1059E0000D8906EA05152A434D8806EA05152A435E
:1059F000444DA84202D0494DA8421DD14FF67F75B3
:105A00002A404D894FF6FF7606EA05152A434FF6E0
:105A1000BF752A408D8806EA05152A434FF6FF35E3
:105A20002B404FF2FF752B408D8906EA85052B43ED
:105A3000CD8906EA85052B4383800483CD880587BD
:105A4000028470BD70B5002400220023058C4FF63F
:105A5000FF6635400584028C8388848B4FF68F75F2
:105A60002C404FF6FC752C400D882C434FF6FF550B
:105A70002A400D894FF6FF7606EA05252A434D8810
:105A800006EA05252A431F4DA84202D0234DA8420D
:105A90001DD14FF2FF752A404D894FF6FF7606EA79
:105AA00005252A434FF6FF352A408D8806EA05254D
:105AB0002A434EF6FF752B404DF6FF752B408D891E
:105AC00006EA05152B43CD8906EA05152B4383808D
:105AD0008483CD888587028470BD70B50022002341
