:020000040800F2
:1000000090B0002079020008E12F0008B50B00082D
:10001000DF2F00088908000899350008000000005B
:10002000000000000000000000000000E1010008E6
:10003000250A00080000000025020008F931000828
:10004000930200089302000893020008930200083C
:10005000930200089302000893020008930200082C
:10006000930200089302000893020008930200081C
:10007000930200089302000893020008930200080C
:1000800093020008930200089302000893020008FC
:1000900093020008930200089302000893020008EC
:1000A00093020008930200089302000893020008DC
:1000B000930200085D3200089302000893020008D2
:1000C00093020008930200089302000893020008BC
:1000D00093020008CD330008930200089302000841
:1000E000930200089302000893020008930200089C
:1000F000930200089302000893020008930200088C
:10010000930200089302000893020008930200087B
:10011000930200089302000893020008930200086B
:10012000930200089302000893020008930200085B
:1001300000F002F800F045F80AA090E8000C8244B4
:100140008344AAF10107DA4501D100F03AF8AFF291
:10015000090EBAE80F0013F0010F18BFFB1A43F0A5
:10016000010318473470000054700000103A24BF97
:1001700078C878C1FAD8520724BF30C830C144BF0C
:1001800004680C607047000000230024002500264E
:10019000103A28BF78C1FBD8520728BF30C148BFEA
:1001A0000B607047642900F00781782900F04081D6
:1001B000732900F0A682002070471FB51FBD10B53F
:1001C00010BD00F012FB1146FFF7F7FF03F04CFAE9
:1001D00000F030FB03B4FFF7F2FF03BC03F0DDF9DE
:1001E000224B19680868B0E8F00F80F30988BFF364
:1001F0006F8F4FF0000080F311884EF00D0E7047A6
:100200000000000006480068006880F3088862B6B5
:1002100061B6BFF34F8FBFF36F8F00DF00BF00BF2A
:1002200008ED00E0EFF30980BFF36F8F0F4B1A6802
:1002300020E9F00F106008B54FF0500080F31188EE
:10024000BFF34F8FBFF36F8F04F012FC4FF000002D
:1002500080F31188BDE8084019680868B0E8F00F1D
:1002600080F30988BFF36F8F704700BF70000020D4
:10027000EFF30580704700000948804709480047B0
:10028000FEE7FEE7FEE7FEE7FEE7FEE7FEE7FEE746
:10029000FEE7FEE704480549054A064B70470000A3
:1002A0000D3200083101000890AA002090B0002013
:1002B00090AC002090AC0020704700000FB40449BF
:1002C00010B503AA029800F021FA10BC5DF814FBE7
:1002D0003C0000200FB41CB5074B06AA7B446946BE
:1002E0000090059800F0E3F90020694600F0F2F96B
:1002F0001CBC5DF814FB0000F50300002DE9F04183
:100300000E460446002020622046E168884730B34C
:10031000252805D0D4E901219047206A401CF2E746
:10032000E168204600278847050018D0A5F1410064
:10033000192802D820354FF4006732462946204656
:100340002760FFF72FFF40B1012804D0F61D26F0EB
:1003500007060836D8E7361DD6E72846DAE7206ACA
:10036000BDE8F08170B50C460546012A05D0287815
:10037000800600D5EA69002302E0012305E05B1C4A
:10038000934202D2E05C0028F9D1A869E618C01AAD
:10039000A861286A184428622846AFF3008004E068
:1003A000D5E9012114F8010B9047B442F8D328464F
:1003B000AFF3008070BD00002DE9F0410646002437
:1003C00010687529314616A510D0AFF300800028BB
:1003D00002DA404213A507E031688A0701D512A569
:1003E00002E0490704D511A5012401E0AFF3008024
:1003F00000210A2206F1240709E0B0FBF2FCB0FB61
:10040000F2F302FB1C00303078541846491C0028D7
:10041000F3D123462A463046BDE8F04100F0E8B863
:10042000000000002D0000002B0000002000000054
:1004300070B504460D4621461068AFF30080218850
:10044000090502D50F4A7A4402E00E4A7A440E3278
:10045000002104F1240305E000F00F060009965D79
:100460005E54491C0028F7D120780023000704D5EA
:10047000702D02D009B1022311322046BDE8704030
:1004800000F0B6B8266D0000032A40F2308010F06C
:10049000030C00F0158011F8013BBCF1020F62441F
:1004A00098BF11F801CB00F8013B38BF11F8013BB0
:1004B000A2F1040298BF00F801CB38BF00F8013B5D
:1004C00011F0030300F03481083AC0F0088051F8BD
:1004D000043B083A51F804CBA0E80810F5E7121DD8
:1004E0005CBF51F8043B40F8043BAFF30080D207F7
:1004F00024BF11F8013B11F801CB48BF11F8012BC3
:1005000024BF00F8013B00F801CB48BF00F8012BE5
:10051000704702F0FF0343EA032242EA024200F07E
:1005200002B84FF000020429C0F0128010F0030C52
:1005300000F03281CCF1040CBCF1020F18BF00F8BE
:10054000012BA8BF20F8022BA1EB0C0100F024B96D
:100550005FEAC17C24BF00F8012B00F8012B48BFE3
:1005600000F8012B704700004FF0013C50F8042BBD
:1005700051F8043B9A4221D1A2EB0C03934313EAB6
:10058000CC1317D150F8042B51F8043B9A4215D1E3
:10059000A2EB0C03934313EACC130BD150F8042BBA
:1005A00051F8043B9A4209D1A2EB0C03934313EA9E
:1005B000CC13DBD04FF00000704700BFD01A01BA57
:1005C000B1FA81F101F0180122FA01F0CB40C1F13A
:1005D0002001DBB2C0B2C01A2CFA01F3D11A914348
:1005E00011EAC311E6D170477047704770477047F2
:1005F0002DE9F0470D4699469246044600F124083D
:100600000168880604D5E06921F01001216000E04E
:100610000120A84201DD471B00E00027A1697A19EB
:1006200002EB0900081AA0612078C00602D4204617
:10063000AFF30080002608E0D4E901211AF8060093
:100640009047206A401C761C20624E45F4DB2078DF
:10065000C0060AD52046AFF3008006E0D4E90121A8
:1006600030209047206A401C2062381EA7F1010705
:10067000F4DC07E0D4E9012118F805009047206A6E
:10068000401C2062281EA5F10105F3DC2046AFF3D3
:1006900000802078000602D50220BDE8F087012006
:1006A000FBE7000001694A1C02610878704700B549
:1006B0008FB0CDE901310021059105497944CDE99B
:1006C000031011466846FFF719FE0FB000BD000089
:1006D000E5FFFFFF0A6802F8010B0A60704710B5DA
:1006E000436913B1AFF3008001E0FFF73BFE012047
:1006F00010BD127800F124010A7000224A70012214
:10070000EDE711684FF0FF32E9E70000074B70B5E5
:100710000D467B44FFF7CBFF0446284600F061F806
:1007200010B14FF0FF3070BD204670BD3B2F000070
:1007300010B5203AC0F00B80B1E81850203AA0E87C
:100740001850B1E81850A0E81850BFF4F5AF5FEAB0
:10075000027C24BFB1E81850A0E8185044BF18C963
:1007600018C0BDE810405FEA827C24BF51F8043B0A
:1007700040F8043B08BF7047D20728BF31F8023B5E
:1007800048BF11F8012B28BF20F8023B48BF00F8F2
:10079000012B70474FF0000200B513469446964671
:1007A000203922BFA0E80C50A0E80C50B1F1200184
:1007B000BFF4F7AF090728BFA0E80C5048BF0CC032
:1007C0005DF804EB890028BF40F8042B08BF704790
:1007D00048BF20F8022B11F0804F18BF00F8012B02
:1007E0007047007B00F080007047754600F02CF8E1
:1007F000AE4605006946534620F00700854618B00E
:1008000020B5FFF747FDBDE820404FF000064FF050
:1008100000074FF000084FF0000B21F00701AC4635
:10082000ACE8C009ACE8C009ACE8C009ACE8C00954
:100830008D46704710B50446AFF300802046BDE8F2
:100840001040FFF7C7BC0000004870472CAA0020EA
:1008500038B50121082002F019FC4FF48074ADF87E
:10086000004010208DF803000320064D8DF8020093
:100870006946284600F04CF92146284600F096F9D2
:1008800038BD0000000C0140FEE7000070B50546D1
:10089000FF240EA1FFF768FE78B10EA12846FFF7EE
:1008A00063FE60B10DA12846FFF75EFE48B10DA1C1
:1008B0002846FFF759FE30B106E0012404E0022487
:1008C00002E0032400E00424204670BD4C4544317E
:1008D0004F4E00004C4544314F464600424545507E
:1008E0004F4E0000424545504F4646000348002207
:1008F000026042604721312002F0CABC280000207B
:100900001CB5002536491F20DFF8D890DFF8D8B095
:10091000DFF8D88008804FF0010A2E463448C068BE
:10092000002856D000235A1E194604F07DF90546CA
:100930000128F3D198F800400020611C02F0CAFFA2
:1009400007462C4A2CA1FFF7C5FC3E5521463846E8
:1009500002F036FB3846FFF799FF0446FF282AD0FD
:100960004FF6FF7000906E23D2225A210A2000F029
:100970000BFA1020CDE900070346C8225A210A20AD
:1009800002F0BAFA39461DA0FFF798FC012C06D0F8
:10099000022C07D0032C08D0042C0FD108E0C9F892
:1009A00094610BE0C9F894A108E0CBF8A0A105E0A0
:1009B000CBF8A06102E014A0FFF780FCA8F800606B
:1009C000C8210C48FFF7ADFD3946002002F076FF44
:1009D000A4E7002DA2D10A2003F096FE9EE70000B6
:1009E0003000002000002342008021423800002017
:1009F00000000020FA00002025730000C3FCC1EEB7
:100A0000CEAA3A25730D0A00CEDED0A7B5C4C3FC2A
:100A1000C1EEA3ACC7EBD6D8D0C2CAE4C8EB212143
:100A20000D0A0000704700008000A0F1C0400029BE
:100A3000016802D041F0010101E0024A1140016069
:100A400070470000FEFF0F0010B5D0E901121143FE
:100A5000D0E903231A4311434269114382691143C8
:100A6000C2691143026A1143426A1143826A114307
:100A7000C26A1143026B114302689200A2F1C042A4
:100A800011608168082907D101688900A1F1C0417E
:100A90000A6842F040020A60416BD1E9002342EA51
:100AA00003128B688C891B0243EA04431A430B8AA6
:100AB00042EA03520B7D896942EA03620A430168F4
:100AC0008900A1F1C0414A60C16AB1F5804F08D0E8
:100AD00000686FF070418000A0F1C040C0F80411C0
:100AE00010BD816BD1E9002342EA03128B680C8AA6
:100AF0001B0243EA04531A430B7D896942EA0362ED
:100B000000680A438000A0F1C040C0F8042110BD75
:100B1000F0B5CC78002204F00F03E40601D58C7800
:100B200023430C784FF00F0C14F0FF0F4FF0010E21
:100B30001BD005680E880EFA02F42640A64210D19A
:100B400096000CFA06F725EA070703FA06F5CE78B1
:100B50003D43282E02D0482E02D002E0446100E03E
:100B60000461521C082AE5D305600A88FF2A1CD9B3
:100B70004468002202F108060EFA06F50E882E409F
:100B8000AE420ED196000CFA06F7BC4303FA06F704
:100B9000CE783C43282E00D14561CE78482E00D136
:100BA0000561521C082AE5D34460F0BD41617047DD
:100BB00001617047FEE7000008B50121442002F002
:100BC00065FA1820ADF8000048208DF8030069464A
:100BD0000648FFF79DFF0120ADF8000028208DF8A2
:100BE000030069460248FFF793FF08BD0018014063
:100BF0000008014070B509490646002408884D8860
:100C000021464543204602F0B7F802F09FF9044818
:100C100001E00680641CAC42FBD370BDEC000020F8
:100C20000008006C2DE9F04F2B4B2C2719469871CA
:100C30002B2589884FF4305A4FF4285B4FF44874C1
:100C400041F6631E2A264FF0F00845F210594FF482
:100C5000A07C4FF4F072C8B1A3F800C0A3F80280E2
:100C6000494533D1A3F808A0A3F80AB02802988117
:100C70001C805A80A1F5A640103802D11A80A3F832
:100C800002C0BDE8F04F002001F0D4BFA3F80080FF
:100C9000A3F802C0494507D1A3F808A0A3F80AB0F9
:100CA0004FF42C50988104E071451F8104D15D817F
:100CB0009E811A805C8001E05E819D81A1F5A64045
:100CC0001038DED1A3F800C05A80DAE71F815E81B8
:100CD00071459D81CCD0CDE7EC0000202DE9F04797
:100CE000DFF89C9092464A46B9F80460DFF894C059
:100CF00093890C0A050A5289A6F5A0480CF102074F
:100D0000B8F5A2680CD0A6F5C858B8F1630816D09B
:100D1000ACF800203D80C0B23880ACF8003024E050
:100D2000ACF800203D80521CACF80020C0B23880E6
:100D3000ACF800303C805B1CACF8003016E099F851
:100D4000066026B9B9F80050281A401E80B2ACF8E7
:100D50000020020A3A80C5B23D803A80C0B2388095
:100D6000ACF800303C80C8B238803C80C8B23880D3
:100D7000B9F80800ACF80000A7F800A0BDE8F087BB
:100D8000EC000020FE07006C2DE9F0438146A2EB49
:100D90000900401C1F460C4685B2DFF83080079ED4
:100DA0000FE02146484601F0E7FF02F0CFF80020AF
:100DB000414602E00E80401C80B2A842FAD3641C77
:100DC000A4B2BC42EDD9BDE8F08300000008006C7D
:100DD0002DE9F04F01219FB0080202F03FF90121F7
:100DE0004FF4B47002F052F94FF00108ADF83C80B6
:100DF00010268DF83F60032447468DF83E400FA92A
:100E0000FE48FFF785FE4CF23370ADF83C00182524
:100E10008DF83F508DF83E400FA9F948FFF778FE56
:100E20004FF68070ADF83C008DF83F508DF83E4095
:100E30000FA9F448FFF76CFE41F20100ADF83C0049
:100E40008DF83F508DF83E400FA9EF48FFF760FE48
:100E500000200F21CDE918011A901B901C901D90C5
:100E60001090CDE91104CDE91607149006211590D4
:100E7000CDE90010CDE90206139004903102CDE9CE
:100E800008010690059007908900CDE90A010C90B1
:100E900017A80D9010A80E906846FFF7D5FD012108
:100EA0000620FFF7C1FD322002F09CFBD74CD32077
:100EB000208001F097FED64DA88001F093FEA88017
:100EC00001F090FE4FF6FF7909EA0020A88001F0BA
:100ED00089FEA98849F2413A0843A88047F28976F9
:100EE00045F2103B45F21057504560D00420208059
:100EF00001F078FEA88001F075FEA88001F072FE76
:100F000009EA00204946A88001F06CFEAA88104337
:100F1000A0F50542A880523A44D0B04247D0D42030
:100F2000208001F05FFEA88001F05CFEA88001F047
:100F300059FE01EA0020A88001F054FEAA8810435F
:100F4000A880584533D04FF45A40208001F04AFE23
:100F5000A8804FF45B40208001F044FE01EA0020AD
:100F6000A8804FF45C40208001F03CFEAA8810432A
:100F7000A880B0F5004F7DD0B84218D0A1202080C5
:100F800001F030FEA88001F02DFE01EA0020A880CB
:100F900001F028FEA9880843A0F5AE41A880613978
:100FA00002D004E0AE8002E041F66310A880A98878
:100FB00098A0FFF783F9A888944DAD1C50457DD1CA
:100FC000CF20208000202880C12028803020288049
:100FD000ED20208064202880032028801220288093
:100FE00081202880E82020808520288010202880EB
:100FF0007A202880CB202080392028802C2028802F
:10100000002028803420288002202880F72020809B
:1010100020202880EA202080002028802880C020EE
:1010200020801B202880C120208001202880C5200E
:101030002080302028802880C7202080B72028806A
:1010400036202080482028803A2020805520288083
:10105000B1202080002028801A202880B6202080FF
:101060000A202880A2202880F220208000202880CA
:10107000262000E057E0208001202880E02020800A
:101080000F2028802A2028802820288008202880D7
:101090000E2028800820288054202880A92028801D
:1010A000432028800A2028800F20288000202880C4
:1010B000288028802880E120208000E035E0002082
:1010C00028801520288017202880072028801120BC
:1010D0002880062028802B202880562028803C202D
:1010E000288005202880102028800F2028803F207D
:1010F000288028800F2028802B2020800020288016
:101100002880012028803F2028802A20208000205D
:10111000288028802880EF202880112020807820B7
:1011200002F060FA9FE0AF8041E7B0427AD111202F
:101130002080782002F056FA362020800020288077
:101140003A20208005202880B22020800C20288092
:10115000288000202880332028802880B720208005
:1011600035202880BB20208032202880C02020808D
:101170000C202880C220208001202880C3202080CD
:1011800010202880C420208020202880C620208095
:101190000F202880D0202080A4202880A120288013
:1011A000E0202080D0202880002028800220288075
:1011B000072028800A2028802820288032202880A4
:1011C0004420288042202880062028800E20288065
:1011D000122028801420288017202880E1202080D9
:1011E000D020288000202880022028800720288006
:1011F0000A20288028202880312014E0000C01409B
:10120000001401400018014000200140FE07006C5E
:10121000EC000020204C43442049443A25780D0A34
:101220000000000022E028805420288047202880E9
:101230000E2028801C202880172028801B20288032
:101240001E2028802A2020800020288028802880B6
:10125000EF2028802B20208000202880288001205B
:1012600028803F202880292001F02DBC58457DD1C1
:10127000ED20208001202880FE202880EE20208084
:10128000DE20288021202880F12020800120288055
:10129000DF20208010202880C42020808F202880FC
:1012A000C620208000202880E220288028802880F6
:1012B000BF202080AA202880B02020800D202880F8
:1012C000002028800D2028800020288011202880E0
:1012D00000202880192028800020288021202880B4
:1012E000002028802D202880002028803D20288074
:1012F000002028805D202880002028805D20288014
:1013000000202880B1202080802028800020288094
:101310008B2028800020288096202880002028808C
:10132000B2202080002028802880022028800020F1
:1013300028800320288000202880B32020800020DF
:10134000288028802880288028802880288028805D
:10135000288028802880288028802880288028804D
:101360002880288028802880288000E0FEE32880CC
:1013700028802880B42020808B202880002028808E
:101380009620288000202880A12028800020288006
:10139000B52020800220288000202880032028807B
:1013A000002028800420288000202880B62020806B
:1013B000002028802880B7202080002028802880D6
:1013C0003F202880002028805E2028800020288060
:1013D00064202880002028808C20288000202880FD
:1013E000AC20288000202880DC2028800020288055
:1013F00070202880002028809020288000202880CD
:10140000EB20288000202880DC20288000202880F5
:10141000B8202080002028802880288028802880EC
:10142000288028802880BA2020802420288000203E
:10143000288028802880C12020802020288000202B
:1014400028805420288000202880FF202880002029
:101450002880C22020800A202880002028800420A4
:10146000288000202880C32020803C202880002065
:1014700028803A20288000202880392028800020D9
:10148000288037202880002028803C2028800020C9
:1014900028803620288000202880322028800020C4
:1014A00028802F202880002028802C2028800020C1
:1014B00028802920288000202880262028800020BD
:1014C00028802420288000202880242028800020B4
:1014D000288023202880002028803C20288000208D
:1014E0002880362028800020288032202880002074
:1014F00028802F202880002028802C202880002071
:10150000288029202880002028802620288000206C
:101510002880242028800020288024202880002063
:1015200028802320288000202880C420208062205A
:101530002880002028800520288000202880842002
:10154000288000202880F020288000202880182073
:10155000288000202880A4202880002028801820AF
:1015600028800020288050202880002028800C20FF
:10157000288000202880172028800020288095209F
:10158000288000202880F320288000202880E62062
:10159000288000202880C52020803220288000203C
:1015A0002880442028800020288065202880002072
:1015B000288076202880002028808820288000200D
:1015C0002880C62020802020288000202880172006
:1015D0002880002028800120288000202880C72023
:1015E000208000202880288028802880C820208013
:1015F00000202880288028802880C9202080002082
:10160000288028802880288028802880288028809A
:10161000288028802880288028802880288028808A
:10162000E020208016202880002028801C20288090
:101630000020288021202880002028803620288033
:1016400000202880462028800020288052202880E2
:101650000020288064202880002028807A2028808C
:10166000002028808B202880002028809920288036
:1016700000202880A820288000202880B9202880E9
:1016800000202880C420288000202880CA202880AC
:1016900000202880D220288000202880D92028807F
:1016A00000202880E020288000202880F320288047
:1016B00000202880E120208016202880002028801B
:1016C0001C202880002028802220288000202880BC
:1016D000362028800020288045202880002028806F
:1016E0005220288000202880642028800020288024
:1016F0007A202880002028808B20288000202880C5
:101700009920288000202880A82028800020288078
:10171000B920288000202880C4202880002028802C
:10172000CA20288000202880D220288000202880FD
:10173000D820288000202880E020288000202880D1
:10174000F320288000202880E220208005202880A7
:10175000002028800B202880002028801B20288043
:1017600000202880342028800020288044202880E1
:10177000002028804F202880002028806120288099
:101780000020288079202880002028808820288038
:10179000002028809720288000202880A6202880EC
:1017A00000202880B720288000202880C2202880A0
:1017B00000202880C720288000202880D120288071
:1017C00000202880D620288000202880DD20288046
:1017D00000202880F320288000202880E32020801B
:1017E00005202880002028800A20288000202880CA
:1017F0001C2028800020288033202880002028807A
:101800004420288000202880502028800020288024
:1018100062202880002028807820288000202880CE
:101820008820288000202880972028800020288079
:10183000A620288000202880B7202880002028802B
:10184000C220288000202880C720288000202880EF
:10185000D120288000202880D520288000202880C2
:10186000DD20288000202880F32028800020288088
:10187000E42020800120288000202880012028806A
:101880000020288002202880002028802A2028800C
:10189000002028803C202880002028804B202880A1
:1018A000002028805D202880002028807420288047
:1018B00000202880842028800020288093202880F1
:1018C00000202880A220288000202880B3202880A3
:1018D00000202880BE20288000202880C420288066
:1018E00000202880CD20288000202880D320288038
:1018F00000202880DD20288000202880F3202880F8
:1019000000202880E5202080002028802880288052
:10191000288002202880002028802920288000207C
:1019200028803C202880002028804B202880002010
:1019300028805D20288000202880742028800020B6
:101940002880842028800020288093202880002060
:101950002880A220288000202880B3202880002012
:101960002880BE20288000202880C42028800020D5
:101970002880CD20288000202880D32028800020A7
:101980002880DC20288000202880F3202880002068
:101990002880E62020801120288000202880342004
:1019A000288000202880562028800020288076204B
:1019B000288000202880772028800020288066202A
:1019C00028800020288088202880002028809920D6
:1019D000288000202880BB20288000202880992093
:1019E000288000202880662028800020288055201C
:1019F000288000202880552028800020288045202D
:101A0000288000202880432028800020288044202F
:101A1000288000202880E720208032202880002095
:101A200028805520288000202880762028800020CB
:101A300028806620288000202880672028800020B9
:101A40002880672028800020288087202880002088
:101A500028809920288000202880BB202880002012
:101A60002880992028800020288077202880002046
:101A700028804420288000202880562028800020AC
:101A800028802320288000202880332028800020E0
:101A900028804520288000202880E8202080002001
:101AA000288028809920288000202880872028806E
:101AB0000020288088202880002028807720288007
:101AC0000020288066202880002028808820288008
:101AD00000202880AA20288000202880BB20288081
:101AE00000202880992028800020288066202880D7
:101AF000002028805520288000202880552028801C
:101B0000002028804420288000202880442028802D
:101B1000002028805520288000202880E92020806F
:101B2000AA20288000202880288028802080AA20C1
:101B30002880CF20208000202880288028802880AE
:101B40002880288028802880288028802880288055
:101B500028802880288028802880F020208000206D
:101B60002880502028800020288000E02CE0288059
:101B70002880F320208000202880F9202080062063
:101B800028801020288029202880002028803A20C2
:101B900020805520288011202080642001F022FD23
:101BA000292020803520208000202880512020807E
:101BB000FF202880532020802C2028805520208042
:101BC000822028802C20FDE3B8427DD14FF4704361
:101BD0005521184601F0C4F94FF20105AA21284603
:101BE00001F0BEF96E1C5221304601F0B9F9AF1C6C
:101BF0000821384601F0B4F94FF2040A0121504699
:101C000001F0AEF90D214FF4304001F0A9F90D219A
:101C10004BF2010001F0A4F90D214BF2020001F09A
:101C20009FF94FF4364B3421584601F099F934218D
:101C30004BF2016001F094F934214BF2026001F0A3
:101C40008FF90D214FF4314001F08AF90D214BF24B
:101C5000011001F085F90D214BF2021001F080F91D
:101C600034214FF4374001F07BF934214BF20170FD
:101C700001F076F934214BF2027001F071F9002184
:101C80004FF4324001F06CF900214BF2012001F0D9
:101C900067F900214BF2022001F062F924214FF490
:101CA000384001F05DF924214BF6010001F058F9AC
:101CB00024214BF6020001F053F901214FF43F407B
:101CC00001F04EF90F2100E0FEE34FF4334001F044
:101CD00047F90F214BF2013001F042F90F214BF28D
:101CE000023001F03DF934214FF4394001F038F968
:101CF00034214BF6011001F033F934214BF6021078
:101D000001F02EF908214FF4354001F029F908219E
:101D10004BF2015001F024F908214BF2025001F07E
:101D20001FF903214FF4424001F01AF924214FF426
:101D30003A4001F015F924214BF6012001F010F989
:101D400024214BF6022001F00BF900214FF43C4016
:101D500001F006F978214BF6014001F001F900216C
:101D60004BF6024001F0FCF800214FF43D4001F039
:101D7000F7F878214BF6015001F0F2F800214BF60C
:101D8000025001F0EDF800214FF43E4001F0E8F878
:101D900064214BF6016001F0E3F800214FF451405B
:101DA00001F0DEF833214DF2011001F0D9F80021E5
:101DB0004DF2021001F0D4F834214DF2031001F07D
:101DC000CFF800214DF2041001F0CAF83A214DF28B
:101DD000051001F0C5F800214DF2061001F0C0F821
:101DE0004A214DF2071001F0BBF800214DF2081016
:101DF00001F0B6F85C214DF2091001F0B1F80021B4
:101E00004DF20A1001F0ACF881214DF20B1001F0F7
:101E1000A7F800214DF20C1001F0A2F8A6214DF216
:101E20000D1001F09DF800214DF20E1001F098F810
:101E3000E5214DF20F1001F093F801214DF2101041
:101E400001F08EF813214DF2111001F089F80121F3
:101E50004DF2121001F084F854214DF2131001F0EC
:101E60007FF801214DF2141001F07AF882214DF231
:101E7000151001F075F801214DF2161001F070F8FF
:101E8000CA214DF2171001F06BF802214DF2181023
:101E900001F066F800214DF2191001F061F80221FD
:101EA0004DF21A1001F05CF801214DF21B1001F007
:101EB00057F802214DF21C1001F052F834214DF276
:101EC0001D1001F04DF802214DF21E1001F048F8EE
:101ED00067214DF21F1001F043F802214DF220104E
:101EE00001F03EF884214DF2211001F039F8022171
:101EF0004DF2221001F034F8A4214DF2231001F02C
:101F00002FF802214DF2241001F02AF8B7214DF2EA
:101F1000251001F025F802214DF2261001F020F8DD
:101F2000CF214DF2271001F01BF802214DF22810AD
:101F300001F016F8DE214DF2291001F011F802210E
:101F40004DF22A1001F00CF8F2214DF22B1001F0A5
:101F500007F802214DF22C1001F002F8FE214DF29B
:101F60002D1000F0FDFF03214DF22E1000F0F8FFC0
:101F700010214DF22F1000F0F3FF03214DF230102D
:101F800000F0EEFF33214DF2311000F0E9FF0321A4
:101F90004DF2321000F0E4FF6D214DF2331000F0ED
:101FA000DFFF00214FF4524000F0DAFF33214DF201
:101FB000012000F0D5FF00214DF2022000F0D0FFFB
:101FC00034214DF2032000F0CBFF00214DF204201C
:101FD00000F0C6FF3A214DF2052000F0C1FF0021BC
:101FE0004DF2062000F0BCFF4A214DF2072000F020
:101FF000B7FF00214DF2082000F0B2FF5C214DF246
:10200000092000F0ADFF00214DF20A2000F0A8FFEA
:1020100081214DF20B2000F0A3FF00214DF20C2096
:1020200000F09EFFA6214DF20D2000F099FF002147
:102030004DF20E2000F094FFE5214DF20F2000F04C
:102040008FFF01214DF2102000F08AFF13214DF285
:10205000112000F085FF01214DF2122000F080FFD9
:1020600054214DF2132000F07BFF01214DF214208A
:1020700000F076FF82214DF2152000F071FF012162
:102080004DF2162000F06CFFCA214DF2172000F02F
:1020900067FF02214DF2182000F062FF00214DF28F
:1020A000192000F05DFF02214DF21A2000F058FFC8
:1020B00001214DF21B2000F053FF02214DF21C20A4
:1020C00000F04EFF34214DF21D2000F049FF0221A7
:1020D0004DF21E2000F044FF67214DF21F2000F05A
:1020E0003FFF02214DF2202000F03AFF84214DF203
:1020F000212000F035FF02214DF2222000F030FFB8
:10210000A4214DF2232000F02BFF02214DF22420C8
:1021100000F026FFB7214DF2252000F021FF02211B
:102120004DF2262000F01CFFCF214DF2272000F0B9
:1021300017FF02214DF2282000F012FFDE214DF2A0
:10214000292000F00DFF02214DF22A2000F008FFA7
:10215000F2214DF22B2000F003FF02214DF22C2042
:1021600000F0FEFEFE214DF22D2000F0F9FE0321CD
:102170004DF22E2000F0F4FE10214DF22F2000F041
:10218000EFFE03214DF2302000F0EAFE33214DF244
:10219000312000F0E5FE03214DF2322000F0E0FE98
:1021A0006D214DF2332000F0DBFE00214FF453404F
:1021B00000F0D6FE33214DF2013000F0D1FE0021B7
:1021C0004DF2023000F0CCFE34214DF2033000F02D
:1021D000C7FE00214DF2043000F0C2FE3A214DF25C
:1021E000053000F0BDFE00214DF2063000F0B8FED3
:1021F0004A214DF2073000F0B3FE00214DF20830C5
:1022000000F0AEFE5C214DF2093000F0A9FE002185
:102210004DF20A3000F0A4FE81214DF20B3000F0A7
:102220009FFE00214DF20C3000F09AFEA6214DF2E7
:102230000D3000F095FE00214DF20E3000F090FEC2
:10224000E5214DF20F3000F08BFE01214DF21030F0
:1022500000F086FE13214DF2113000F081FE0121C5
:102260004DF2123000F07CFE54214DF2133000F09C
:1022700077FE01214DF2143000F072FE82214DF202
:10228000153000F06DFE01214DF2163000F068FEB1
:10229000CA214DF2173000F063FE02214DF21830D2
:1022A00000F05EFE00214DF2193000F059FE0221CF
:1022B0004DF21A3000F054FE01214DF21B3000F0B7
:1022C0004FFE02214DF21C3000F04AFE34214DF247
:1022D0001D3000F045FE02214DF21E3000F040FEA0
:1022E00067214DF21F3000F03BFE02214DF22030FD
:1022F00000F036FE84214DF2213000F031FE022143
:102300004DF2223000F02CFEA4214DF2233000F0DB
:1023100027FE02214DF2243000F022FEB7214DF2BB
:10232000253000F01DFE02214DF2263000F018FE8F
:10233000CF214DF2273000F013FE02214DF228305C
:1023400000F00EFEDE214DF2293000F009FE0221E0
:102350004DF22A3000F004FEF2214DF22B3000F055
:10236000FFFD02214DF22C3000F0FAFDFE214DF26E
:102370002D3000F0F5FD03214DF22E3000F0F0FD80
:1023800010214DF22F3000F0EBFD03214DF23030E3
:1023900000F0E6FD33214DF2313000F0E1FD032184
:1023A0004DF2323000F0DCFD6D214DF2333000F0A3
:1023B000D7FD00214FF4544000F0D2FD33214DF2FF
:1023C000014000E07FE300F0CBFD00214DF2024030
:1023D00000F0C6FD34214DF2034000F0C1FD0021A4
:1023E0004DF2044000F0BCFD3A214DF2054000F0F2
:1023F000B7FD00214DF2064000F0B2FD4A214DF23A
:10240000074000F0ADFD00214DF2084000F0A8FDAE
:102410005C214DF2094000F0A3FD00214DF20A407D
:1024200000F09EFD81214DF20B4000F099FD00214E
:102430004DF20C4000F094FDA6214DF20D4000F04D
:102440008FFD00214DF20E4000F08AFDE5214DF296
:102450000F4000F085FD01214DF2104000F080FD9D
:1024600013214DF2114000F07BFD01214DF212408D
:1024700000F076FD54214DF2134000F071FD012172
:102480004DF2144000F06CFD82214DF2154000F039
:1024900067FD01214DF2164000F062FDCA214DF2A8
:1024A000174000F05DFD02214DF2184000F058FD8C
:1024B00000214DF2194000F053FD02214DF21A4067
:1024C00000F04EFD012100E0FFE24DF21B4000F064
:1024D00047FD02214DF21C4000F042FD34214DF237
:1024E0001D4000F03DFD02214DF21E4000F038FD80
:1024F00067214DF21F4000F033FD02214DF22040D4
:1025000000F02EFD84214DF2214000F029FD022132
:102510004DF2224000F024FDA4214DF2234000F0B2
:102520001FFD02214DF2244000F01AFDB7214DF2AB
:10253000254000F015FD02214DF2264000F010FD6F
:10254000CF214DF2274000F00BFD02214DF2284033
:1025500000F006FDDE214DF2294000F001FD0221D0
:102560004DF22A4000F0FCFCF2214DF22B4000F02D
:10257000F7FC02214DF22C4000F0F2FCFE214DF25E
:102580002D4000F0EDFC03214DF22E4000F0E8FC60
:1025900010214DF22F4000F0E3FC03214DF23040BA
:1025A00000F0DEFC33214DF2314000F0D9FC032174
:1025B0004DF2324000F0D4FC6D214DF2334000F07A
:1025C000CFFC00214FF4554000F0CAFC33214DF2FE
:1025D000015000F0C5FC00214DF2025000F0C0FC9B
:1025E00034214DF2035000F0BBFC00214DF20450A9
:1025F00000F0B6FC3A214DF2055000F0B1FC00218C
:102600004DF2065000F0ACFC4A214DF2075000F0AC
:10261000A7FC00214DF2085000F0A2FC5C214DF215
:10262000095000F09DFC00214DF20A5000F098FC8A
:1026300081214DF20B5000F093FC00214DF20C5023
:1026400000F08EFCA6214DF20D5000F089FC002117
:102650004DF20E5000F084FCE5214DF20F5000F0D9
:102660007FFC01214DF2105000F07AFC13214DF255
:10267000115000F075FC01214DF2125000F070FC79
:1026800054214DF2135000F06BFC01214DF2145017
:1026900000F066FC82214DF2155000F061FC012132
:1026A0004DF2165000F05CFCCA214DF2175000F0BC
:1026B00057FC02214DF2185000F052FC00214DF25F
:1026C000195000F04DFC02214DF21A5000F048FC68
:1026D00001214DF21B5000F043FC02214DF21C5031
:1026E00000F03EFC34214DF21D5000F039FC022177
:1026F0004DF21E5000F034FC67214DF21F5000F0E7
:102700002FFC02214DF2205000F02AFC84214DF2D2
:10271000215000F025FC02214DF2225000F020FC57
:10272000A4214DF2235000F01BFC02214DF2245055
:1027300000F016FCB7214DF2255000F011FC0221EB
:102740004DF2265000F00CFCCF214DF2275000F046
:1027500007FC02214DF2285000F002FCDE214DF270
:10276000295000F0FDFB02214DF22A5000F0F8FB49
:10277000F2214DF22B5000F0F3FB02214DF22C50D0
:1027800000F0EEFBFE214DF22D5000F0E9FB03219D
:102790004DF22E5000F0E4FB10214DF22F5000F0CE
:1027A000DFFB03214DF2305000F0DAFB33214DF214
:1027B000315000F0D5FB03214DF2325000F0D0FB38
:1027C0006D214DF2335000F0CBFB00214FF4564009
:1027D00000F0C6FB33214DF2016000F0C1FB002187
:1027E0004DF2026000F0BCFB34214DF2036000F0BA
:1027F000B7FB00214DF2046000F0B2FB3A214DF22C
:10280000056000F0ADFB00214DF2066000F0A8FB72
:102810004A214DF2076000F0A3FB00214DF2086051
:1028200000F09EFB5C214DF2096000F099FB002155
:102830004DF20A6000F094FB81214DF20B6000F034
:102840008FFB00214DF20C6000F08AFBA6214DF2B7
:102850000D6000F085FB00214DF20E6000F080FB62
:10286000E5214DF20F6000F07BFB01214DF210607D
:1028700000F076FB13214DF2116000F071FB012195
:102880004DF2126000F06CFB54214DF2136000F029
:1028900067FB01214DF2146000F062FB82214DF2D2
:1028A000156000F05DFB01214DF2166000F058FB51
:1028B000CA214DF2176000F053FB02214DF218605F
:1028C00000F04EFB00214DF2196000F049FB02219F
:1028D0004DF21A6000F044FB01214DF21B6000F044
:1028E0003FFB02214DF21C6000F03AFB34214DF217
:1028F0001D6000F035FB02214DF21E6000F030FB40
:1029000067214DF21F6000F02BFB02214DF2206089
:1029100000F026FB84214DF2216000F021FB022112
:102920004DF2226000F01CFBA4214DF2236000F068
:1029300017FB02214DF2246000F012FBB7214DF28B
:10294000256000F00DFB02214DF2266000F008FB2F
:10295000CF214DF2276000F003FB02214DF22860E9
:1029600000F0FEFADE214DF2296000F0F9FA0221B2
:102970004DF22A6000F0F4FAF2214DF22B6000F0E3
:10298000EFFA02214DF22C6000F0EAFAFE214DF23E
:102990002D6000F0E5FA03214DF22E6000F0E0FA20
:1029A00010214DF22F6000F0DBFA03214DF2306070
:1029B00000F0D6FA33214DF2316000F0D1FA032154
:1029C0004DF2326000F0CCFA6D214DF2336000F030
:1029D000C7FA5521184600F0C3FAAA21284600F08C
:1029E000BFFA5221304600F0BBFA0821384600F009
:1029F000B7FA0021504600F0B3FACC214FF4314031
:102A000000F0AEFA00214BF2011000F0A9FA052106
:102A1000584600F0A5FA70214FF4374000F0A0FAB4
:102A200070214BF2017000F09BFA01214FF4384005
:102A300000F096FA03214BF6010000F091FA032111
:102A40004BF6020000F08CFA03214BF6030000F075
:102A500087FA02214FF43C4000F082FA00214BF645
:102A6000014000F07DFA00214BF6024000F078FAB8
:102A7000D0214FF4494000F073FA02214CF60110C6
:102A800000F06EFA50214CF6021000F069FA502165
:102A90004CF6031000F064FA50214CF6041000F0DC
:102AA0005FFA00214FF4545000F05AFA55214FF4C8
:102AB000685000F055FA4FF488502080782000F0DC
:102AC000ADFD4FF4245020807DE0A0F5C85163395E
:102AD00079D1E22020801D20288002202880042037
:102AE0002880642000F09AFDE020208001202880CA
:102AF0000A2000F077FDE0202080032028800C20B1
:102B000000F070FD012020800A2000F06BFDE6201F
:102B100020802F202880FF2028802880B02020803F
:102B200020202880002028800320288040F21F30A9
:102B300028800120288040F2DF1028800020288093
:102B4000B42020800420288040F21F4028800020EC
:102B500028802E2028800020288028802880288017
:102B6000B6202080022028804FF4037028800020A7
:102B70002880172028801520288000202880288081
:102B8000F02020800320288029202080D020208051
:102B900000202880BE20208005202880FE2028805C
:102BA000012028800020288028802880B8202080CC
:102BB0000320288001202880BA202080012028803E
:102BC000642000F019F80020FEF72CF80449C1F841
:102BD00080814846FEF70EF81FB0BDE8F08F000078
:102BE00000802142034808B50088ADF80000BDF818
:102BF000000008BD0008006C0C4A10B5BE21118011
:102C0000941C0521218002F0B6FD4FF06632084B7E
:102C100002F0C4FD02F082FD208001202080FF2010
:102C2000208000202080208010BD0000FE07006C66
:102C30006666044070B54E4D00232946AA798988FE
:102C400041F66314012A01D01AB11BE0A14202D15E
:102C500018E0A14216D1082814D2DFE800F00406DB
:102C6000080A0C0E101206200CE007200AE00420CF
:102C700008E0052006E0012004E0002002E0032037
:102C800000E00220082812D2DFE800F01104060854
:102C90000A0C0E1080230AE0402308E0C02306E05F
:102CA000202304E0602302E0A02300E0E02345F2BB
:102CB0001056B14202D14FF4585000E03620A1F531
:102CC0001342413A03D0A1F5EE42893A01D143F0D3
:102CD0000803194600F044F9AA88A2420AD09806CF
:102CE0002888698802D5884202D303E0884201D946
:102CF000298068801F48811CB2426A89028021D1E4
:102D000000230B80531C038000230B80931C038043
:102D10002B885B1E1C0A0C80D21C0280DAB20A804F
:102D2000AA89028000230B80531C038000230B80A0
:102D3000931C03806B885B1E1C0A0C80D21C0280D3
:102D4000D8B212E000220A800A802A88521E130A92
:102D50000B80D2B20A80AA890280002008800880F5
:102D60006888401E020A0A80C0B2088070BD000058
:102D7000EC000020FE07006C2DE9F043DFF8A49082
:102D8000294F4A46B9F804C09389050A0C0ABE1CAB
:102D90005289ACF5C858B8F163080ED0ACF5A0481C
:102DA000B8F5A2683A80358033D0C0B230803B801D
:102DB0003480C8B23080BDE8F083DFF868C099F88D
:102DC0000680BCF800C0B8F1000F16D03A803580FC
:102DD000C0B23080ACF1010C4FEA1C2030800CF006
:102DE000FF0030803B803480C8B23080B9F80200E8
:102DF000401E010A3180C0B2DCE7ACEB0000401E8F
:102E000080B23A80002232803280020A3280C0B220
:102E1000E7E7521C3A80C0B230803B8034805B1CB4
:102E20003B80C6E7EC000020FE07006C2DE9F84F60
:102E300082461F460C468B46580700D0012000EB07
:102E4000D70079084843203AC0B202F0FF090026B3
:102E5000009041E00C2F10D0102F12D0182F3ED12F
:102E6000204909EBC90001EB80004FF00008855DA7
:102E700028060AD51C4802880BE009EB49001B49CB
:102E8000F1E71B4901EB0910EFE70A9828B916484A
:102E9000428821465046FDF721FF6806050E154879
:102EA000641CA4B24088A04219D9A4EB0B00B8421C
:102EB00009D10AF101001FFA80FA0E485C46018828
:102EC00051450CD906E008F1010000F0FF08B8F107
:102ED000080FCDD3761CF6B200988642BAD3BDE86F
:102EE000F88F0000FC6300083000002098590008AB
:102EF0000C5E0008EC0000202DE9F84F044600F0BD
:102F0000FF0810190D46DDE90A761FFA80FA5819F4
:102F10001FFA80F94FF0000B11E0544502D3E81975
:102F2000444685B24D450FD23B4629462046CDF852
:102F300000B0FFF77BFF04EB570084B2761C3278B9
:102F4000A2F120005E28E8D9BDE8F88F02480349C5
:102F50000089088070470000EC000020FE07006C2C
:102F6000024A1080901C018070470000FE07006C30
:102F700038B50121482000F089F82024ADF8004040
:102F800010208DF8030003200B4D8DF802006946D8
:102F90002846FDF7BDFD20212846FDF709FEADF8C6
:102FA0000040064C69462046FDF7B2FD2021204630
:102FB000FDF7FEFD38BD0000000C01400018014087
:102FC00010B5002208E0835CA3F161041A2C01D241
:102FD000203B8354521CD2B28A42F4D310BDFEE788
:102FE0007047000030B50F23C27801780125F2B197
:102FF000144A126801F1E02102F4E062C2F5E062D5
:10300000120AC2F10404D3404278A24084781C40E2
:103010001443220181F80024007800F01F018D4044
:103020004009800000F1E020C0F8005130BD01F0FF
:103030001F0085404809800000F1E020C0F8805161
:1030400030BD00000CED00E0024908430249086071
:10305000704700000000FA050CED00E0044A00296A
:10306000516901D0014300E0814351617047000084
:1030700000100240044A0029D16901D0014300E058
:103080008143D1617047000000100240044A0029CA
:10309000916901D0014300E08143916170470000D4
:1030A0000010024030B5204A5168204B11F00C014D
:1030B00003D0042901D0082901D0036012E051682F
:1030C000536801F470114FF0020413F4803F04EBD5
:1030D000914102D053689B0301D5154B00E0134B7F
:1030E0005943016051680F2303EA1111114B5C5CD5
:1030F0000168E14041605468072505EA14241C5D1D
:1031000021FA04F48460546805EAD4241B5DD94094
:10311000C1605268032303EA9232064B1B1F9A5C7C
:10312000B1FBF2F1016130BD0010024000127A00E3
:1031300000093D00440000200CB500222648009202
:103140000192016841F4803101604FF4A06301688D
:1031500001F4003101910099491C0091019911B9C4
:1031600000999942F3D10168890333D50121019176
:103170001A490A6842F010020A600A6822F0030243
:103180000A600A6842F002020A60416841604168D0
:103190004160416841F480614160416821F47C11E3
:1031A0004160416841F4E8114160016841F080717B
:1031B000016001688901FCD5416821F0030141608B
:1031C000416841F0020141604168C1F38101022977
:1031D000FAD10CBD01920CBD00100240002002404B
:1031E0004FF0E0210428086903D020F004000861B2
:1031F000704740F00400FAE710B502F033F80128F8
:1032000003D0BDE8104001F0BDBC10BD0F4810B5A3
:10321000016841F00101016041680D4A11404160BF
:1032200001680C4A11400160016821F480210160AD
:10323000416821F4FE0141604FF41F018160FFF7F6
:103240007BFF05494FF00060086010BD0010024090
:103250000000FFF8FFFFF6FE08ED00E010B50A4C95
:103260000121204600F04FF8012807D107490A68DC
:103270004868521C40F100000A6048602046BDE8E2
:103280001040012100F032B8000400402800002066
:103290007FB50D46044601210220FFF7EBFEADF895
:1032A0000440ADF8005000240F4DADF80640ADF8D5
:1032B00002406946284600F03BF8012211462846A4
:1032C00000F02DF81D208DF80C0001218DF80D1057
:1032D0008DF80E408DF80F1003A8FFF783FE012133
:1032E000284600F006F87FBD00040040C943018273
:1032F00070470029018802D041F0010101E021F06E
:1033000001010180704702460020138A92890B4216
:1033100002EA010202D0002A00D001207047002AF0
:10332000828901D00A4300E08A438281704700000D
:1033300030B502881B4C1C4DA0420DD0A8420BD0CA
:10334000B0F1804F08D0194B984205D0184B9842E5
:1033500002D0184B984203D122F070034A881A43D6
:10336000154B984206D0154B984203D022F4407377
:10337000CA881A4302808A8882850A880285A04208
:103380000AD0A84208D00E4A904205D00D4A904279
:1033900002D00D4A904201D1097A01860121818231
:1033A00030BD0000002C014000340140000400400A
:1033B00000080040000C00400010004000140040D5
:1033C00000400140004401400048014038B51F4D15
:1033D00040F22551284600F04DF81D4CD8B1284642
:1033E00000F0D6F8C1B22088020417D443044FF08D
:1033F000000204D50A290DD140F4004023E00D2934
:103400001FD0C0F30D03134D401C80B2E95420803F
:10341000C72800D922802088000411D50E480068F2
:1034200000280DD0694601F049FE0098002807D019
:103430000A494FF080500860BFF34F8FBFF36F8F82
:1034400038BD40F480402080E5E7000000380140AE
:1034500038000020FA0000200C00002004ED00E0FD
:103460000029818902D041F4005101E021F400518A
:103470008181704770B501F01F0501260024C1F35A
:10348000421306FA05F2012B0FD0022B0FD0838ACC
:103490004FEA11210088134206FA01F600EA0600FD
:1034A00001D000B10124204670BD8389F0E7038A72
:1034B000EEE710B5C1F3421301F01F040121A14052
:1034C000012B07D0022B07D01430002A026805D048
:1034D0000A4304E00C30F8E71030F6E78A43026054
:1034E00010BD000030B50446008A85B00D464CF68C
:1034F000FF710840E98801432182A0894EF6F3114B
:103500000840A9882A8911436A8902431143A1818D
:10351000A08A4FF6FF410840A9890143A18268466D
:10352000FFF7C0FD1948844201D1039800E00298DA
:10353000A189090400EBC00101EB0010296801D545
:10354000490000E08900B0FBF1F06422B0FBF2F129
:1035500009010B096FF018056B4300EB8300A38989
:103560001D044FF0320306D503EBC000B0FBF2F0B0
:1035700000F0070005E003EB0010B0FBF2F000F0F4
:103580000F000843208105B030BD00000038014025
:103590008088C0F308007047FEE7704710B504202C
:1035A000FFF71EFE0C480D490D4A0068B0FBF1F311
:1035B000B0FBF1F14FF47A70414313700120508059
:1035C0004FF0E020026942F00202026141610169AC
:1035D00041F00101016110BD1000002040420F00C8
:1035E0003400002070B5044601F03CFE01280CD0E8
:1035F000094D6888844203D3B4FBF0F001F084F8ED
:103600006888B4FBF0F100FB11444FF47A7060431A
:10361000BDE8704000F002B83400002070B54FF0F3
:10362000E02500216C69094AAB6912785043AA6908
:103630009A42FCD002D2A3EB020302E0A4EB020602
:103640003344194413468142F1D370BD3400002045
:1036500004490A885206FCD5024AC1B2121D1180E3
:1036600070470000003801401CB54FF44070FFF770
:10367000EBFCFFF793FF4FF4E13000F069FEFFF73A
:1036800077FCFDF799FAFDF7E3F8FDF7A1FB0020C1
:1036900000F094F81B494FF47840102408801AA0D9
:1036A000CDE900400A212346C8220846FFF724FC42
:1036B0001AA0CDE900401023C8221E210A20FFF7DE
:1036C0001BFC1BA0CDE900401023C82232210A2098
:1036D000FFF712FC1AA0CDE900401023C8224621B2
:1036E0000A20FFF709FC1A490120CDE90001020276
:1036F000002318A11A4801F089FD01F065F90020A6
:103700001CBD00003000002041544B2053544D3369
:1037100032463130332F3430370000004672656551
:1037200052544F53204578616D702031342D310053
:1037300042696E6172792053656D6170000000000E
:10374000436F6D6D616E6420646174613A000000C6
:103750000000002073746172745F7461736B000009
:10376000B542000870B5134A13181B7E93B1124B73
:1037700053F820308B421AD90F4B02EB8002083BE2
:1037800053F820301069B1FBF3F130F811400020FC
:10379000034608E011688847012070BD15690E18BE
:1037A000401C25F81630A042F8DB002070BD022036
:1037B00070BD0000540000206871000870B5044618
:1037C0000B480C4E002150F8240006EB8405420003
:1037D000286900F08FF806480021103050F82420A6
:1037E000A86800F087F801203119087670BD000044
:1037F00058710008540000202DE9F0411F4E054685
:10380000002470190F46007E10B931682846884799
:103810004FF0FF327FB31A4B53F82510B7FBF1F08E
:10382000B7FBF1FC01FB1C7101B1401C14490839C4
:1038300051F82510491E1ED406EB8506376937F866
:1038400011C0BCF1000F05D00024844211D1002228
:1038500084B207E0641CF8E7376901EB020C521CE4
:1038600027F81C408242F7D353F825004843BDE8AF
:10387000F081491EE3D51046F9E70000540000200E
:103880006071000810B50B4B0B4C002253F8203030
:10389000114604EB800005E0046934F8114004B1DE
:1038A000521C491C8B42F7D864204243B2FBF3F010
:1038B000C0B210BD5871000854000020002906D085
:1038C000034A02EB80029268891AFFF74BBF7047E8
:1038D0005400002010B50446FFF78EFF411C05D0B0
:1038E000034901EB84018968084410BD002010BD24
:1038F0005400002001E000F8011B521EFBD270476B
:103900002DE9F041184E0F460446F5683068001D59
:1039100000F070FD38B9306890F82C100120884014
:10392000316981433161601C07D137B13168BDE82D
:10393000F0410E48091D00F095BD30682C44AC42A2
:103940004460316805D2306CBDE8F041091D00F0DB
:1039500071BDF06B091D00F06DFDB06A844200D2AC
:10396000B462BDE8F081000070000020F059002032
:103970002DE9F041054600F081FD2D4EB068401C58
:10398000B06030682B4F10B1706930B32BE03560F8
:10399000B068012827D1002404EB840007EB8000E5
:1039A00000F03AFD641C202CF6D3234800F034FDCF
:1039B0002148143000F030FD1F48283000F02CFD65
:1039C0001D483C3000F028FD1B48503000F024FD1D
:1039D0001948F0631430306405E03068E96AC06A61
:1039E000884200D83560706A0121401C7062A8646A
:1039F000E86A326981401143316100EB800007EBD6
:103A00008000291D00F02EFD00F074FD7069002873
:103A10000CD03068E96AC06A884207D207494FF083
:103A200080500860BFF34F8FBFF36F8FBDE8F08108
:103A30007000002020570020A059002004ED00E075
:103A400010B500F01BFD0E4C2068A0B90D4800F029
:103A5000E3FC0C48143000F0DFFC0A48E06014304E
:103A6000206100221021052001F0A2F8206010B191
:103A700005A100F015FEBDE8104000F03BBD0000C0
:103A8000B4000020045A0020546D72510000000060
:103A900070B5124E124D1CE000F0E2FF306820B10C
:103AA000002401F00DFDA4B901E00124F9E700F0C4
:103AB000E5FCF068C468201D00F09CFCA868401E6E
:103AC000A8606868401E686000F014FD204600F0A1
:103AD00052F868680028DFD170BD0000DC59002072
:103AE0007000002030B4026C0B46002A0BD0C16875
:103AF0001144C1604468A14201D30168C16030BC77
:103B00001846FCF7C1BC30BC70472DE9F041856B0D
:103B1000174604460026026C82B1C7B1E068FCF784
:103B2000B3FCE168206C091AE1602268914202D27C
:103B30006168081AE060022F16D017E02068A8B963
:103B4000606801F017FC0646002060600EE0A06887
:103B5000FCF79AFC216CA0680844A0606168884268
:103B600004D32068A06001E005B16D1E6D1CA56343
:103B70003046BDE8F08110B50446006B00F0ECFC67
:103B80002046BDE8104000F0E7BC000010484FF4AC
:103B9000A041420706D0C01D0D4920F00700411A80
:103BA000C1F5A0410B4A00230144C2E900030839D2
:103BB000103A21F0070111604B600B600B1AC0E94D
:103BC000001393604FF000405360D06070470000D6
:103BD0002C5A0020D8000020074E4FF08054074D8B
:103BE000FFF756FF30680128FAD92C60BFF34F8FDA
:103BF000BFF36F8FF4E700002057002004ED00E0D2
:103C00002DE9F047DDE909840E461746824691000A
:103C10009946089DA522206BFCF77BFC6FF0030101
:103C2000206B01EB8701084420F00707780705D0D7
:103C300040F22B3219A11EA0FCF740FB00202218F5
:103C4000315C82F83410315C11B1401C1428F6D379
:103C5000002684F84760202D00D31F25E562C4E9C3
:103C60001456201D00F0E3FB04F1180000F0DFFB08
:103C70002461C5F120006462A061A665E66584F850
:103C800060604A465146384600F002FB2060B8F1B9
:103C9000000F01D0C8F80040BDE8F0872E2E5C462A
:103CA00072656552544F535C7461736B732E63007D
:103CB0004572726F723A25732C25640D0A0000005C
:103CC00030B5114900E011460A688242FBD34B68C7
:103CD0005C18844203D14068184448600846436831
:103CE0001C18944209D1084C103C2468A24209D007
:103CF00052681A4442600A6812680260814200D029
:103D0000086030BD0460F9E7D800002070B50024D9
:103D100041600B4D0061914206D8D11A82699142EF
:103D200006D2011D286907E09A4203D2994201D3C5
:103D3000012403E0011DE86800F07CFB204670BD13
:103D4000B400002010B5044600F098FBA06B20B131
:103D5000002400F0CFFB204610BD0124F9E700004D
:103D60002DE9F34100980F460026846C2CB940F6EB
:103D7000CE1216A11AA0FCF7A1FAA06BE16B884243
:103D800005D340F6CF1211A115A0FCF797FAA06B4E
:103D9000E16B88420CD294F945503A466946204678
:103DA000FFF7B3FE0646681C05D06D1C84F845502D
:103DB0003046BDE8FC81606A0028F9D004F1240097
:103DC00001F032FB0028F3D00126F1E72E2E5C46ED
:103DD00072656552544F535C71756575652E63004D
:103DE0004572726F723A25732C25640D0A0000002B
:103DF000F8B5054614480E46C068C068C468201D62
:103E000000F0F8FAE069012817D1A0692B464119A2
:103E100032462046FFF77AFF78B10020034601467C
:103E200000902A46204601F031FC30B907494FF492
:103E3000027201F11800FCF741FA616A01B02046F4
:103E4000BDE8F04008470000B4000020F05500082D
:103E500070B586B02F4E53E00198002806DADDE9F0
:103E60000301029A90470198002849DB039C60698E
:103E700010B1201D00F0BEFA05A800F0A7F8054615
:103E800001980A283CD2DFE800F00505053B2738F9
:103E900005053B270298A169034601442A462046AE
:103EA000FFF734FF00282BD0616A20468847E0697D
:103EB000012825D1002000900298A1690023421812
:103EC0001946204601F0E2FBD0B940F2213212A19E
:103ED00017A0FCF7F3F913E00298A06128B94FF49A
:103EE0004E720DA112A0FCF7E9F9A0692B46411909
:103EF0001A462046FFF70AFF02E0204600F02CFB9E
:103F000000231A4601A9306800F08EFE0028A3D1D4
:103F100006B070BDB40000202E2E5C46726565525E
:103F2000544F535C74696D6572732E63000000001A
:103F30004572726F723A25732C25640D0A000000D9
:103F4000F8B50D46064600F08BFD684600F03EF8D9
:103F50000446009810B101F0B3FAF8BD1148ADB1B4
:103F600001690968D9B10025311B2A46006800F0B3
:103F7000A9FB01F0A5FA0028EFD10B494FF08050C2
:103F80000860BFF34F8FBFF36F8FF8BDA642EBD829
:103F900001F096FA21463046FFF72AFFF8BD0125C9
:103FA000E2E70000B400002004ED00E00648C16B29
:103FB000096829B1C16BC968C968496881627047DD
:103FC0004FF0FF31FAE700007000002070B50546A1
:103FD00001F056F9064E0446B068844203D200F060
:103FE00009F8012000E0002028602046B46070BD80
:103FF000B4000020F8B5184E26E0C068C468056813
:10400000201D00F0F7F9616A20468847E069012821
:104010001AD1A0692844A84206D924616060211DF4
:10402000F06800F007FA0FE0002003460146009018
:104030002A46204601F02AFB30B9084940F2923264
:1040400001F11800FCF73AF9F06801680029D4D1B1
:104050003169C6E90310F8BDB4000020F05500082E
:1040600008484068401C04D0F42207A111A0FCF7C6
:1040700025F9502080F31188BFF34F8FBFF36F8F66
:10408000FEE70000E00000202E2E5C4672656552BF
:10409000544F535C706F727461626C655C5256442D
:1040A000535C41524D5F434D335C706F72742E63AD
:1040B000000000004572726F723A25732C25640D62
:1040C0000A000000084CE068016839B1002139B1EC
:1040D0000020FFF735FFFFF7BBFEF4E70121F6E70D
:1040E000C0680068F5E70000B40000202DE9F04149
:1040F000044600F0C3F994F9455004F1240610E099
:10410000A06C20B100212046FFF72AFE04E0606A7F
:1041100048B1304601F088F908B100F091FB6D1EFE
:104120006DB2002DECDC4FF0FF3684F8456000F0F6
:10413000E1F900F0A3F994F9445004F1100709E003
:10414000206948B1384601F06FF908B100F078FBFA
:104150006D1E6DB2002DF3DC84F84460BDE8F041C3
:1041600000F0C8B92DE9F0410546002600F078FCC2
:10417000324F386808B9FFF709FDF86805424FD19A
:10418000002D4DD0083568070BD005F00700C0F1B1
:1041900008000544680704D0BF2229A132A0FCF71B
:1041A0008DF8002D3CD07868854239D823491031EC
:1041B0000846046801E0214604466068A84202D22D
:1041C00020680028F7D13868B846844228D00E68A5
:1041D0002068086060680836401B10280ED96719EF
:1041E000780704D0EC2216A11FA0FCF767F86068DE
:1041F000401B786038466560FFF762FD6168D8F85B
:1042000004004246401AC8F80400D8F80830984222
:1042100000D29060D8F80C0001430020C4E90001EE
:1042200001F04EF9700705D04FF4967204A10EA06C
:10423000FCF744F83046BDE8F0810000C8000020DB
:104240002E2E5C4672656552544F535C706F7274CB
:1042500061626C655C4D656D4D616E675C68656142
:10426000705F342E630000004572726F723A2573DE
:104270002C25640D0A0000000449086818B108687C
:10428000426D521C426508687047000070000020B3
:1042900010B5031F4FF080741C601B1F21F001013B
:1042A0001960191F024B0B60143940380A6010BDA9
:1042B000614000087CB500F0E1F8032200210120F4
:1042C00000F076FC0F4C0023211DE0600220C501A8
:1042D000CDE900012A460CA10E4800F097FF04F139
:1042E00008010320CDE9000100232A460AA10E4857
:1042F00000F08CFF206800F03DFABDE87C4000F043
:10430000F9B80000000000207461736B315F7461C4
:10431000736B00002D4300086B657970726F6365E5
:1043200073735F7461736B0001090008074C4FF4ED
:10433000FA75D4F8940130B10021C4F894112846DC
:1043400000F0E2F9F5E70121F7E7000000802142E3
:1043500030B5054687B0012144F20400FEF796FE11
:104360004FF40070ADF8100003208DF812001820F3
:104370001E4C8DF8130004A92046FCF7C9FB21153B
:10438000ADF8101004208DF8130004A92046FCF7A6
:10439000BFFB25208DF8140007208DF815000024A0
:1043A0008DF8164001208DF8170005A8FEF71AFEBB
:1043B000ADF80440ADF80640ADF80840ADF80C404B
:1043C0000C200B4CADF80A00009569462046FFF71B
:1043D00089F8012240F225512046FFF76AF80121B1
:1043E0002046FFF73DF807B030BD0000000801404F
:1043F00000380140D0E9013201699A60D0E9012317
:104400005A604A68824201D182684A600022026191
:104410000868401E0860704700F108014FF0FF3245
:10442000C0E90112C16001610021016070470021F3
:104430000161704730B50C68621C02D000F10802BF
:1044400002E0026904E01A4653681D68A542FAD9E1
:1044500053684B6099608A60516008610168491C2B
:10446000016030BD42684A6093688B609368596010
:10447000916008610168491C01607047502080F319
:104480001188BFF34F8FBFF36F8F09494868401CF5
:10449000486001280AD10748006810F0FF0F05D0D6
:1044A0004FF4BD7204A10FA0FBF708BF70470000D6
:1044B000E000002004ED00E02E2E5C46726565529F
:1044C000544F535C706F727461626C655C525644F9
:1044D000535C41524D5F434D335C706F72742E6379
:1044E000000000004572726F723A25732C25640D2E
:1044F0000A00000010B5084C606828B940F281122B
:1045000006A111A0FBF7DAFE6068401E606001D1D1
:1045100080F3118810BD0000E00000202E2E5C46C4
:1045200072656552544F535C706F727461626C6552
:104530005C525644535C41524D5F434D335C706F47
:1045400072742E63000000004572726F723A257318
:104550002C25640D0A00000070B500282AD0164DE5
:10456000A0F108046068E968084205D14FF4A07220
:1045700012A11CA0FBF7A2FE206828B140F2411254
:104580000EA118A0FBF79AFE6068E968084211D0F6
:104590002268002A0ED18843606000F061FA6068EA
:1045A0006968084468602046FFF78AFBBDE87040F0
:1045B00000F086BF70BD0000C80000202E2E5C46B3
:1045C00072656552544F535C706F727461626C65B2
:1045D0005C4D656D4D616E675C686561705F342E22
:1045E000630000004572726F723A25732C25640DCA
:1045F0000A00000006484FF47A710068B0FBF1F140
:104600004FF0E020491E4161072101617047000021
:104610001000002010B5FBF72BFE104C10280CD317
:1046200000F1E02090F8F0032178884205D24FF4A1
:104630002A720BA115A0FBF741FE18480068A1687B
:1046400000F4E060884207D9BDE810404FF42E72B4
:1046500003A10EA0FBF732BE10BD0000E000002059
:104660002E2E5C4672656552544F535C706F7274A7
:1046700061626C655C525644535C41524D5F434DE0
:10468000335C706F72742E63000000004572726FAD
:10469000723A25732C25640D0A0000000CED00E031
:1046A00010B5074B002253F832401CB1521C082AA7
:1046B000F9D310BD43F8321003EBC201486010BDBE
:1046C000E056002070B515460E460446FFF7D6FEAC
:1046D00094F944100020491C01D184F8440094F955
:1046E0004510491C01D184F84500FFF703FFA06B7A
:1046F00028B92A46314604F1240000F0D1F82046BA
:10470000BDE87040FFF7F2BC10B5040012D00E49AE
:10471000096B29B140F2CF420CA111A0FBF7CEFDED
:1047200000F09EF900212046FFF7EAF800F0C8FEED
:10473000002807D10E494FF080500860BFF34F8F1B
:10474000BFF36F8F10BD0000700000202E2E5C465E
:1047500072656552544F535C7461736B732E6300C2
:104760004572726F723A25732C25640D0A000000A1
:1047700004ED00E070B50446FFF780FE234D04B958
:104780002C68201DFFF736FE58B9E06A204A00EB7E
:10479000800152F8211021B9012181402869884304
:1047A0002861A06A18B104F11800FFF723FE686AB7
:1047B000401C68622868844207D1211D1548FFF714
:1047C00051FE6868401C686007E0A868401EA86049
:1047D0002046FFF7D0F9FFF7E9FBFFF78BFE68698A
:1047E000002812D0286884420FD1286B28B140F2EB
:1047F000654209A10DA0FBF761FD10494FF0805003
:104800000860BFF34F8FBFF36F8F70BD7000002043
:1048100020570020DC5900202E2E5C467265655220
:10482000544F535C7461736B732E63004572726FE7
:10483000723A25732C25640D0A00000004ED00E097
:1048400001490120C86170477000002070B50D4615
:10485000040005D140F6063207A10CA0FBF72EFD9F
:104860000E48016820461831FFF7E4FD2846BDE8F0
:1048700070400121FFF744B82E2E5C4672656552E8
:10488000544F535C7461736B732E63004572726F87
:10489000723A25732C25640D0A0000007000002078
:1048A00070B514460E46050005D140F6313209A117
:1048B0000DA0FBF703FD1048016828461831FFF7EB
:1048C000D1FD0CB14FF0FF3621463046BDE87040B7
:1048D000FFF716B82E2E5C4672656552544F535C36
:1048E0007461736B732E63004572726F723A257335
:1048F0002C25640D0A0000007000002070B5040033
:1049000039D01D4DE06A2968C96A884233D2A0694E
:10491000002804DB2868C06AC0F12000A061E06ABA
:10492000164E00EB8000616906EB800081421FD1CA
:10493000201DFFF75FFD012150B9E06A00EB800206
:1049400056F8222022B92A6901FA00F082432A612E
:104950002868C06AE0622A6981401143296100EB3E
:10496000800006EB8000211DBDE87040FFF77ABD96
:104970002868C06AE06270BD7000002020570020E7
:1049800010B5040005D140F6C13205A109A0FBF71E
:1049900095FC0C48016A2160C068606010BD000091
:1049A0002E2E5C4672656552544F535C7461736B76
:1049B000732E63004572726F723A25732C25640D55
:1049C0000A000000700000201CB518480024CDE942
:1049D00000402346822216A1174800F017FC012848
:1049E00003D100F019FE01280AD0401C1DD102B0ED
:1049F00040F28472BDE8104010A115A0FBF75EBC28
:104A0000502080F31188BFF34F8FBFF36F8F07489B
:104A10004FF0FF312C38816201214161C460FBF706
:104A200065FFBDE81C4000F071B81CBD9C00002073
:104A300049444C4500000000D93B00082E2E5C463E
:104A400072656552544F535C7461736B732E6300CF
:104A50004572726F723A25732C25640D0A000000AE
:104A60000248016B491C0163704700007000002080
:104A700070B51A4C206B10B10120E06170BD0020B0
:104A8000E061174908684968A063626B904204D9E5
:104A90002168821A8B6D1A448A6560632069114E01
:104AA000B0FA80F0C0F11F0000EB800556F8250039
:104AB00028B940F6F6220CA110A0FBF7FFFB06EB8D
:104AC000850000F10802416849684160914201D1C6
:104AD00049684160C868206070BD00007000002017
:104AE00028000020205700202E2E5C46726565525B
:104AF000544F535C7461736B732E63004572726F15
:104B0000723A25732C25640D0A0000001CB51A4961
:104B100008780190FF20087008788DF800009DF853
:104B20000000164A00F0500010700720906007E067
:104B30009068401E90609DF8000040008DF80000D5
:104B40009DF800000006F3D4107A000200F4E06043
:104B50009060019808700A48016841F47001016092
:104B6000016841F070410160FFF744FD0020506092
:104B7000FBF748FB00201CBD00E400E0E000002043
:104B800020ED00E010B5502080F31188BFF34F8F67
:104B9000BFF36F8F00F07AFB18B104494FF08050DB
:104BA0000860002080F3118810BD000004ED00E0D3
:104BB0002DE9F04117460E46050005D14FF4C472A9
:104BC00010A115A0FBF77AFBBEB105FB06F054302F
:104BD000FFF7C8FA04000ED004F154007EB1206043
:104BE000C4E90F562046012100F0E0F884F8507027
:104BF00000212046A164BDE8F0810020E7E72460A1
:104C0000EEE700002E2E5C4672656552544F535CF1
:104C100071756575652E63004572726F723A257302
:104C20002C25640D0A0000002DE9FF4F83B09B4640
:104C30008A4604004FF0000605D140F2DC4251A143
:104C400055A0FBF73BFBBAF1000F07D1206C28B150
:104C500040F2DD424BA150A0FBF730FB00F002FB1D
:104C600038B9059828B14FF49C6246A14AA0FBF7D9
:104C700025FB4FF000094FF08057DFF82C81FFF73C
:104C8000FDFBA56B45B351462046E668FEF72AFFBB
:104C9000BBF1000F13D0E660606A50B104F124004C
:104CA00000F0C2FB28B1C8F80070BFF34F8FBFF30C
:104CB0006F8FFFF71FFC012007B0BDE8F08F6D1E5E
:104CC000A563206810B9FFF7D7FA60602069002853
:104CD000EFD004F11000E3E7059808B11EB106E03B
:104CE000FFF708FC27E06846FFF74AFE0126FFF7BA
:104CF00001FCFFF7B5FEFFF7C1FB94F94400401C2F
:104D000001D184F8449094F94500401C01D184F805
:104D10004590FFF7EFFB05A9684600F033FA00283D
:104D200020460AD0FFF7E2F900F0CAFB2046FFF761
:104D300009F80028A3D00020BEE7FFF703F8D8B198
:104D4000206830B9FFF79AFB6068FFF7D7FDFFF7DF
:104D5000D1FB04F124000599FFF778FD2046FFF709
:104D6000C5F900F0ADFB002889D1C8F80070BFF389
:104D70004F8FBFF36F8F82E72046FFF7B7F900F040
:104D80009FFB7CE72E2E5C4672656552544F535C48
:104D900071756575652E63004572726F723A257381
:104DA0002C25640D0A00000004ED00E070B50D46EE
:104DB000040005D140F21B121CA121A0FBF77EFAD2
:104DC000FFF75CFBD4E90F20216802FB0011616052
:104DD0000021A1632168A1600A46D4E90F01401EA9
:104DE00000FB0121E16021464FF0FF3001F8440F44
:104DF000487004F110004DB1FFF70EFB04F12400E0
:104E0000FFF70AFBFFF776FB012070BD216900293F
:104E1000F8D000F009FB0028F4D00D494FF0805085
:104E20000860BFF34F8FBFF36F8FEBE72E2E5C460A
:104E300072656552544F535C71756575652E6300DC
:104E40004572726F723A25732C25640D0A000000BA
:104E500004ED00E02DE9FF4F83B099468B46040036
:104E60004FF0000605D140F2D92252A156A0FBF71F
:104E700025FABBF1000F07D1206C28B140F2DA22ED
:104E80004CA151A0FBF71AFAB9F1020F08D1E06B5F
:104E9000012805D040F2DB2246A14BA0FBF70EFA19
:104EA00000F0E0F938B9059828B140F2DE2241A1BE
:104EB00045A0FBF703FA4FF0000A4FF08057DFF8E8
:104EC0001881FFF7DBFAA06BE16B884206D3B9F1DA
:104ED000020F03D0059800B316B325E04A465946A1
:104EE0002046FEF712FEA16C21B149462046FEF78E
:104EF00037FF05E0616A19B104F1240000F094FA6B
:104F000028B1C8F80070BFF34F8FBFF36F8FFFF762
:104F1000F1FA012007B0BDE8F08FFFF7EBFA21E0CE
:104F20006846FFF72DFD0126FFF7E4FAFFF798FD2D
:104F3000FFF7A4FA94F94400401C01D184F844A07E
:104F400094F94500401C01D184F845A0FFF7D2FA3E
:104F500005A9684600F016F930B12046FFF7C6F8FB
:104F600000F0AEFA0020D5E7FFF788FAA06BE16BFE
:104F7000884201D1012500E00025FFF7BBFA95B179
:104F800004F110000599FFF761FC2046FFF7AEF829
:104F900000F096FA002894D1C8F80070BFF34F8F44
:104FA000BFF36F8F8DE72046FFF7A0F800F088FA77
:104FB00087E700002E2E5C4672656552544F535CA5
:104FC00071756575652E63004572726F723A25734F
:104FD0002C25640D0A00000004ED00E02DE9F047E7
:104FE000984615468946040005D140F29F322AA111
:104FF0002EA0FBF763F9B9F1000F07D1206C28B19F
:105000004FF4687224A129A0FBF758F9B8F1020FF8
:1050100008D1E06B012805D040F2A1321EA123A0E7
:10502000FBF74CF9FFF7F6FA5020EFF3118780F306
:105030001188BFF34F8FBFF36F8FA06BE16B884276
:1050400007D3B8F1020F04D0002087F31188BDE820
:10505000F08794F94560424649462046FEF755FDE3
:10506000701C04D0761C84F845600120EDE7A06C2C
:10507000012620B141462046FEF772FE06E0606A36
:105080000028F2D004F1240000F0CEF90028ECD082
:10509000002DEAD02E60E8E72E2E5C467265655240
:1050A000544F535C71756575652E63004572726F60
:1050B000723A25732C25640D0A0000002DE9F04199
:1050C0000D46040005D140F23C4225A129A0FBF782
:1050D000F5F8206C28B14FF4886221A125A0FBF7D8
:1050E000EDF8206838B9606828B140F245421CA14B
:1050F00020A0FBF7E3F8FFF78DFA5020EFF31186BD
:1051000080F31188BFF34F8FBFF36F8FA16BE06BFC
:1051100088421FD994F94500491CA163411C04D061
:10512000401C84F84500012015E0A06C012720B147
:1051300000212046FEF714FE06E0606A0028F2D047
:1051400004F1240000F070F90028ECD0002DEAD022
:105150002F60E8E7002086F31188BDE8F0810000A9
:105160002E2E5C4672656552544F535C71756575A1
:10517000652E63004572726F723A25732C25640D9B
:105180000A00000070B50D46040005D140F6CB3290
:1051900014A119A0FBF792F82DB940F6CC3211A159
:1051A00015A0FBF78BF8FFF769F9174AD068296853
:1051B0004B1C0FD02368126A934202D0626882426D
:1051C0000AD96268801A884206D2081A28602046E6
:1051D000FFF7D6FB002400E00124FFF78BF92046FF
:1051E00070BD00002E2E5C4672656552544F535CB4
:1051F0007461736B732E63004572726F723A25731C
:105200002C25640D0A000000700000202DE9FF5FCE
:105210008346DDE90E87994616468A469000FEF7DA
:10522000A1FF05001AD06420FEF79CFF040012D0F5
:1052300025630021CDE90241CDE900874B46324686
:1052400051465846FEF7DCFC2046FEF791FB012054
:1052500004B0BDE8F09F2846FFF77EF94FF0FF301D
:10526000F6E700000548416919B1006B18B100204C
:105270007047012070470220704700007000002036
:105280000148C06870470000700000202DE9F0411F
:105290002D4F0026386B40B1B869401CB861F869E1
:1052A00000B101263046BDE8F081FD686D1CFD604F
:1052B00011D1F86B006828B140F6D91223A128A0BB
:1052C000FAF7FCFFF86B396CF9633864386A401CF4
:1052D0003862FEF76BFEB86ADFF89480854209D326
:1052E000F86B006880B1F86BC068C468606885427C
:1052F0000DD2B8623868C06A00EB800158F821000E
:105300000128CCD90126CAE74FF0FF30F1E7201D74
:10531000FFF770F8A06A18B104F11800FFF76AF8F7
:10532000E06A01213A6981401143396100EB800153
:1053300008EB8100211DFFF795F8E06A3968C96A1A
:105340008842CDD30126CBE7700000202E2E5C468C
:1053500072656552544F535C7461736B732E6300B6
:105360004572726F723A25732C25640D0A00000095
:105370002057002070B504004FF000063CD01F4DB0
:105380002868844205D040F6C7621DA121A0FAF723
:1053900095FF606D28B940F6C96219A11DA0FAF702
:1053A0008DFF606D401E6065226DE16A914223D0E1
:1053B00010BB201DFFF71EF81A49012250B9E06A00
:1053C00000EB800351F8233023B92B6902FA00F077
:1053D00083432B61206DE062C0F12000A061E06A90
:1053E0002B6982401A432A6100EB800001EB8000A8
:1053F000211DFFF737F80126304670BD70000020F0
:105400002E2E5C4672656552544F535C7461736B0B
:10541000732E63004572726F723A25732C25640DEA
:105420000A000000205700202DE9F041C068C46840
:105430002CB940F6613216A11AA0FAF73FFF04F129
:1054400018000746FEF7D6FF1A4D286B012660B1FB
:1054500039461948FFF706F8E06A2968C96A8842A0
:1054600013D90120EE61BDE8F081201DFEF7C2FFD7
:10547000E06A2A6906FA00F1114329610F4900EB3D
:10548000800001EB8000211DE4E70020EBE7000035
:105490002E2E5C4672656552544F535C7461736B7B
:1054A000732E63004572726F723A25732C25640D5A
:1054B0000A00000070000020C8590020205700207A
:1054C0002DE9F0472B4D00242746286B28B94FF4CF
:1054D000FD6229A12DA0FAF7F1FEFEF7CFFF286BA0
:1054E000401E2863286BE8BBA8682C490126C8B376
:1054F000A1F52A798846D8F80010E9B1D8F80C004F
:10550000C46804F11800FEF775FF201DFEF772FF56
:10551000E06A2A6906FA00F11143296100EB800173
:1055200009EB8100211DFEF79DFFE06A2968C96A29
:105530008842E0D3EE61DEE70CB1FEF737FDAC69DF
:105540003CB1FFF7A3FE00B1EE61641EF9D100206B
:10555000A861E86930B11249012738070860BFF334
:105560004F8F00E001E0BFF36F8FFEF7C3FF3846B7
:10557000BDE8F087700000202E2E5C4672656552F3
:10558000544F535C7461736B732E63004572726F7A
:10559000723A25732C25640D0A000000C8590020BA
:1055A00004ED00E02DE9F0470746994616460D4602
:1055B0002C20DDF820A0FEF7D5FD040014D0B8465D
:1055C0004F46D1462DB94FF4C67209A10EA0FAF785
:1055D00075FEFEF735FA04F11801C4F8008081E881
:1055E000E002201DFEF723FF2046BDE8F087000003
:1055F0002E2E5C4672656552544F535C74696D651E
:1056000072732E63000000004572726F723A257348
:105610002C25640D0A0000001CB50024FEF710FACA
:105620000C48006868B10B491F20091DCDE9000135
:1056300000234FF4827208A10948FFF7E7FD040038
:1056400005D140F2331207A10CA0FAF737FE20462D
:105650001CBD0000B4000020546D7220537663001E
:10566000C54000082E2E5C4672656552544F535C4F
:1056700074696D6572732E63000000004572726F6D
:10568000723A25732C25640D0A0000002DE9FF47AE
:10569000DDF830A0994690460D4606004FF0000711
:1056A00005D14FF4D37212A117A0FAF707FE1A4CD6
:1056B000206880B1CDE900580296062D11DAFFF777
:1056C000D1FD02284FF0000309D00022694620686E
:1056D000FFF7C0FB074604B03846BDE8F0875246E6
:1056E000F4E700234A466946FFF778FCF2E700003A
:1056F0002E2E5C4672656552544F535C74696D651D
:1057000072732E63000000004572726F723A257347
:105710002C25640D0A000000B40000204FEA11534C
:10572000A3F58063D3F11E03A8BFD3F1200C08DBDF
:105730004FF0004242EAC12252EA505232FA03F0DC
:10574000704709420BD4102BC4BF0020704703F5EB
:10575000787CBCF1FF3F05D04FF0FF3070474FF031
:105760000000704770B500F0C3F800BF4992248074
:1057700000207047F0E7B0FA80F310FA03F10AD086
:10578000C3F11D0303F580634FEA41504FEA035212
:1057900002EBD12170474FF000007047DFF848C19D
:1057A00070B51CEA111E1EBF1CEA13159EEA0C0FF1
:1057B00095EA0C0F00F06F8081EA030423EA4C1392
:1057C0004EEAD47E21EA4C1141F4801143F4801357
:1057D000AE44A1FB024CA0FB0365AEF17F7E3619FF
:1057E00055EB0C05A1FB034C4CF10003A0FB021C84
:1057F00016EB0C06654153F10003094218BF46F051
:10580000010613F4007F0BD14FEA03314FEA053054
:10581000340341EA155140EA16506FF003020AE0E2
:105820004FEAC3214FEAC520F40241EA555140EA4C
:1058300056506FF0020202EB2E4201EB025585EA50
:10584000CE710AD05FEA440C18BF24F0004450F136
:10585000000041F1000120EAD47040F2FE7C624574
:1058600000D270BDA84214BF4FF080444FF04044B6
:10587000002E08BF0024BEF1806FA8BFA1F1C04177
:10588000BDE8704080F282804FF0000001F1C0411D
:1058900001F0004170479EEA0C0F0CEA131518BF87
:1058A00095EA0C0F06D04FF0000081EA030E0EF0CF
:1058B000004170BD00F01CF88900013E00F007B8FF
:1058C00000F009B84FEA430C5FEA5C5C08D081EA5B
:1058D000030100F05BB84FEA410C5FEA5C5CF6D173
:1058E0004FF00000014970470000FF070000F87FFB
:1058F0000EF1020E2EF0030E5EF8046B364205D454
:10590000012A43EB030515F5001F12D8012841EBCE
:10591000010C1CF5001F0CD80ED14FEAD17C15F5F7
:10592000001F0CEB4C0C0CF1020C08BF4CEBD37CB1
:1059300004E04FF0080C01E04FEAD37C0CEB4C057F
:1059400026FA05F606F00706B6F1040C06D20EEBB1
:10595000860CBDE870404CF0010C6047DFE80CF0AD
:10596000090B02024FF000414FF00000A1F50021A9
:1059700070BD19461046012851EB010418BFD4F53B
:10598000001484BF002001F0004170BD0808A0F59C
:1059900000114FEA310170470000000000000000D4
:1059A00000000000000000003F4000000000000078
:1059B00000003000400030004000000009000BC033
:1059C0003D000BC03D00090018C024407FE022408C
:1059D00031800000180024C01B000D80324001807F
:1059E00003801C4027401C800740004010006000DE
:1059F00000000000000000000000000000001F8008
:105A0000204040200000402020401F800000000077
:105A1000090006001F8006000900000004000400C1
:105A20003F8004000400000000100060000000003F
:105A30000000000004000400040004000400000052
:105A4000000000400000000000000000002001C035
:105A500006003800400000001F8020402040204009
:105A60001F800000000010403FC000400000000008
:105A700018C02140224024401840000010802040DF
:105A8000244024401B80000002000D0011003FC094
:105A9000014000003C80244024402440238000003A
:105AA0001F80244024403440038000003000200048
:105AB00027C03800200000001B80244024402440E0
:105AC0001B8000001C0022C0224022401F800000DA
:105AD000000000000840000000000000000000007E
