:020000040800F2
:10000000785B0020790200087B2E00082509000893
:10001000792E00089907000811330008000000003D
:10002000000000000000000000000000E1010008E6
:100030009B07000800000000250200087930000836
:10004000930200089302000893020008930200083C
:10005000930200089302000893020008930200082C
:10006000930200089302000893020008930200081C
:10007000930200089302000893020008930200080C
:1000800093020008930200089302000893020008FC
:1000900093020008930200089302000893020008EC
:1000A00093020008930200089302000893020008DC
:1000B00093020008DD300008930200089302000854
:1000C00093020008930200089302000893020008BC
:1000D000930200087531000893020008930200089B
:1000E000930200089302000893020008930200089C
:1000F000930200089302000893020008930200088C
:1001000093020008930200081931000893020008C6
:10011000930200089302000893020008930200086B
:10012000930200089302000893020008930200085B
:1001300000F002F800F045F80AA090E8000C8244B4
:100140008344AAF10107DA4501D100F03AF8AFF291
:10015000090EBAE80F0013F0010F18BFFB1A43F0A5
:1001600001031847BC6C0000DC6C0000103A24BF8F
:1001700078C878C1FAD8520724BF30C830C144BF0C
:1001800004680C607047000000230024002500264E
:10019000103A28BF78C1FBD8520728BF30C148BFEA
:1001A0000B607047642900F0F380782900F02C81FF
:1001B000732900F02982002070471FB51FBD10B5BC
:1001C00010BD00F0B6FA1146FFF7F7FF03F008F98B
:1001D00000F0D4FA03B4FFF7F2FF03BC03F099F880
:1001E000224B19680868B0E8F00F80F30988BFF364
:1001F0006F8F4FF0000080F311884EF00D0E7047A6
:100200000000000006480068006880F3088862B6B5
:1002100061B6BFF34F8FBFF36F8F00DF00BF00BF2A
:1002200008ED00E0EFF30980BFF36F8F0F4B1A6802
:1002300020E9F00F106008B54FF0500080F31188EE
:10024000BFF34F8FBFF36F8F04F0D6FA4FF000006B
:1002500080F31188BDE8084019680868B0E8F00F1D
:1002600080F30988BFF36F8F704700BF7C000020C8
:10027000EFF30580704700000948804709480047B0
:10028000FEE7FEE7FEE7FEE7FEE7FEE7FEE7FEE746
:10029000FEE7FEE704480549054A064B70470000A3
:1002A0008D3000083101000878550020785B00206F
:1002B0007857002078570020704700000FB4044999
:1002C00010B503AA029800F0A3F910BC5DF814FB66
:1002D000640000202DE9F0410E4604460020206213
:1002E0002046E168884730B3252805D0D4E90121AC
:1002F0009047206A401CF2E7E168204600278847C3
:10030000050018D0A5F14100192802D820354FF476
:1003100000673246294620462760FFF743FF40B179
:10032000012804D0F61D26F007060836D8E7361D4A
:10033000D6E72846DAE7206ABDE8F08170B50C46BA
:100340000546012A05D02878800600D5EA690023F1
:1003500002E0012305E05B1C934202D2E05C00282E
:10036000F9D1A869E618C01AA861286A1844286259
:100370002846AFF3008004E0D5E9012114F8010B11
:100380009047B442F8D32846AFF3008070BD000018
:100390002DE9F0410646002410687529314616A55E
:1003A00010D0AFF30080002802DA404213A507E026
:1003B00031688A0701D512A502E0490704D511A5C5
:1003C000012401E0AFF3008000210A2206F1240796
:1003D00009E0B0FBF2FCB0FBF2F302FB1C00303092
:1003E00078541846491C0028F3D123462A46304643
:1003F000BDE8F04100F085B8000000002D000000CD
:100400002B0000002000000070B504460D46214678
:100410001068AFF300802188090502D50F4A7A449D
:1004200002E00E4A7A440E32002104F1240305E072
:1004300000F00F060009965D5E54491C0028F7D1B4
:1004400020780023000704D5702D02D009B10223C3
:1004500011322046BDE8704000F053B8D669000064
:10046000032A40F2308010F0030C00F0158011F8E0
:10047000013BBCF1020F624498BF11F801CB00F8B8
:10048000013B38BF11F8013BA2F1040298BF00F80C
:1004900001CB38BF00F8013B11F0030300F0CA8024
:1004A000083AC0F0088051F8043B083A51F804CBF0
:1004B000A0E80810F5E7121D5CBF51F8043B40F8B6
:1004C000043BAFF30080D20724BF11F8013B11F8C1
:1004D00001CB48BF11F8012B24BF00F8013B00F805
:1004E00001CB48BF00F8012B704702F0FF0343EA3D
:1004F000032242EA024200F0D1B8704770477047C9
:1005000070472DE9F0470D4699469246044600F1A2
:1005100024080168880604D5E06921F010012160F3
:1005200000E00120A84201DD471B00E00027A1698F
:100530007A1902EB0900081AA0612078C00602D4DB
:100540002046AFF30080002608E0D4E901211AF824
:1005500006009047206A401C761C20624E45F4DB62
:100560002078C0060AD52046AFF3008006E0D4E923
:10057000012130209047206A401C2062381EA7F1DC
:100580000107F4DC07E0D4E9012118F805009047E1
:10059000206A401C2062281EA5F10105F3DC2046DC
:1005A000AFF300802078000602D50220BDE8F08776
:1005B0000120FBE701694A1C02610878704700B519
:1005C0008FB0CDE901310021059105497944CDE98C
:1005D000031011466846FFF77DFE0FB000BD000016
:1005E000E5FFFFFF10B5436913B1AFF3008001E0F1
:1005F000FFF7A4FE012010BD127800F124010A705B
:1006000000224A700122EDE711684FF0FF32E9E75E
:10061000074B70B50D467B44FFF7D1FF04462846D3
:1006200000F05CF810B14FF0FF3070BD204670BD97
:10063000AF2D000010B5203AC0F00B80B1E8185083
:10064000203AA0E81850B1E81850A0E81850BFF4BC
:10065000F5AF5FEA027C24BFB1E81850A0E818505B
:1006600044BF18C918C0BDE810405FEA827C24BFAF
:1006700051F8043B40F8043B08BF7047D20728BF3D
:1006800031F8023B48BF11F8012B28BF20F8023B8C
:1006900048BF00F8012B70474FF000020429C0F05A
:1006A000128010F0030C00F01F80CCF1040CBCF1A0
:1006B000020F18BF00F8012BA8BF20F8022BA1EBF6
:1006C0000C0100F011B85FEAC17C24BF00F8012BD7
:1006D00000F8012B48BF00F8012B7047007B00F0A9
:1006E000800070474FF0000200B5134694469646CE
:1006F000203922BFA0E80C50A0E80C50B1F1200135
:10070000BFF4F7AF090728BFA0E80C5048BF0CC0E2
:100710005DF804EB890028BF40F8042B08BF704740
:1007200048BF20F8022B11F0804F18BF00F8012BB2
:100730007047754600F02CF8AE46050069465346F2
:1007400020F00700854618B020B5FFF7A3FDBDE8EF
:1007500020404FF000064FF000074FF000084FF028
:10076000000B21F00701AC46ACE8C009ACE8C009B9
:10077000ACE8C009ACE8C0098D46704710B5044626
:10078000AFF300802046BDE81040FFF723BD000016
:100790000048704714550020FEE770478000A0F124
:1007A000C0400029016802D041F0010101E0024A85
:1007B0001140016070470000FEFF0F0010B5D0E946
:1007C00001121143D0E903231A4311434269114333
:1007D00082691143C2691143026A1143426A11439B
:1007E000826A1143C26A1143026B1143026892008C
:1007F000A2F1C04211608168082907D1016889000F
:10080000A1F1C0410A6842F040020A60416BD1E99F
:10081000002342EA03128B688C891B0243EA0443DB
:100820001A430B8A42EA03520B7D896942EA03624A
:100830000A4301688900A1F1C0414A60C16AB1F56B
:10084000804F08D000686FF070418000A0F1C04078
:10085000C0F8041110BD816BD1E9002342EA0312F4
:100860008B680C8A1B0243EA04531A430B7D896987
:1008700042EA036200680A438000A0F1C040C0F869
:10088000042110BDF0B5CC78002204F00F03E4067B
:1008900001D58C7823430C784FF00F0C14F0FF0F28
:1008A0004FF0010E1BD005680E880EFA02F42640A8
:1008B000A64210D196000CFA06F725EA070703FABC
:1008C00006F5CE783D43282E02D0482E02D002E015
:1008D000446100E00461521C082AE5D305600A88DF
:1008E000FF2A1CD94468002202F108060EFA06F518
:1008F0000E882E40AE420ED196000CFA06F7BC438D
:1009000003FA06F7CE783C43282E00D14561CE7815
:10091000482E00D10561521C082AE5D34460F0BD81
:1009200001617047FEE7000070B5094906460024E2
:1009300008884D8821464543204602F035F902F0EB
:1009400061FA044801E00680641CAC42FBD370BD30
:10095000F00000200008006C2DE9F04F2B4B2C27F5
:10096000194698712B2589884FF4305A4FF4285B2B
:100970004FF4487441F6631E2A264FF0F00845F202
:1009800010594FF4A07C4FF4F072C8B1A3F800C026
:10099000A3F80280494533D1A3F808A0A3F80AB010
:1009A000280298811C805A80A1F5A640103802D1F7
:1009B0001A80A3F802C0BDE8F04F002002F052B840
:1009C000A3F80080A3F802C0494507D1A3F808A006
:1009D000A3F80AB04FF42C50988104E071451F81B0
:1009E00004D15D819E811A805C8001E05E819D81E1
:1009F000A1F5A6401038DED1A3F800C05A80DAE78E
:100A00001F815E8171459D81CCD0CDE7F000002033
:100A10002DE9FE4F0026A2EB000882465F1A701EE9
:100A200035468946B8F1000F02DD4FF0010102E0C2
:100A300003D14FF00001019102E0C8F100080190DC
:100A4000002F02DD4FF0010002E003D14FF0000063
:100A5000009002E0C7F1000700904046B84501DD74
:100A6000044600E03C46601C4FF0000B029015E08D
:100A70001FFA89F11FFA8AF000F016F846443D4447
:100A8000A64202DD0199361B8A44A54202DD009987
:100A90002D1B89440BF101001FFA80FB02998B4545
:100AA000E6DDBDE8FE8F000000B502F07DF802F043
:100AB000A9F9024802490088088000BD58000020BA
:100AC0000008006CF0B51C4615460E4607460B465E
:100AD000FFF79EFF3A46234631461046FFF798FF40
:100AE00023462A4619463846FFF792FF2A462346F0
:100AF0003146BDE8F0401046FFF78ABF2DE9F047C8
:100B0000DFF89C9092464A46B9F80460DFF894C03A
:100B100093890C0A050A5289A6F5A0480CF1020730
:100B2000B8F5A2680CD0A6F5C858B8F1630816D07D
:100B3000ACF800203D80C0B23880ACF8003024E032
:100B4000ACF800203D80521CACF80020C0B23880C8
:100B5000ACF800303C805B1CACF8003016E099F833
:100B6000066026B9B9F80050281A401E80B2ACF8C9
:100B70000020020A3A80C5B23D803A80C0B2388077
:100B8000ACF800303C80C8B238803C80C8B23880B5
:100B9000B9F80800ACF80000A7F800A0BDE8F0879D
:100BA000F0000020FE07006C2DE9F0438146A2EB27
:100BB0000900401C1F460C4685B2DFF83080079EB6
:100BC0000FE02146484601F0EFFF02F01BF900203C
:100BD000414602E00E80401C80B2A842FAD3641C59
:100BE000A4B2BC42EDD9BDE8F08300000008006C5F
:100BF0002DE9F04F01219FB0080202F07BF901219D
:100C00004FF4B47002F082F94FF00108ADF83C8067
:100C100010268DF83F60032447468DF83E400FA90B
:100C2000FE48FFF72FFE4CF23370ADF83C0018255C
:100C30008DF83F508DF83E400FA9F948FFF722FE8E
:100C40004FF68070ADF83C008DF83F508DF83E4077
:100C50000FA9F448FFF716FE41F20100ADF83C0081
:100C60008DF83F508DF83E400FA9EF48FFF70AFE80
:100C700000200F21CDE918011A901B901C901D90A7
:100C80001090CDE91104CDE91607149006211590B6
:100C9000CDE90010CDE90206139004903102CDE9B0
:100CA00008010690059007908900CDE90A010C9093
:100CB00017A80D9010A80E906846FFF77FFD012140
:100CC0000620FFF76BFD322002F048FBD74CD32003
:100CD000208001F09FFED64DA88001F09BFEA880E9
:100CE00001F098FE4FF6FF7909EA0020A88001F094
:100CF00091FEA98849F2413A0843A88047F28976D3
:100D000045F2103B45F21057504560D0042020803A
:100D100001F080FEA88001F07DFEA88001F07AFE3F
:100D200009EA00204946A88001F074FEAA88104311
:100D3000A0F50542A880523A44D0B04247D0D42012
:100D4000208001F067FEA88001F064FEA88001F019
:100D500061FE01EA0020A88001F05CFEAA88104331
:100D6000A880584533D04FF45A40208001F052FEFD
:100D7000A8804FF45B40208001F04CFE01EA002087
:100D8000A8804FF45C40208001F044FEAA88104304
:100D9000A880B0F5004F7DD0B84218D0A1202080A7
:100DA00001F038FEA88001F035FE01EA0020A8809D
:100DB00001F030FEA9880843A0F5AE41A880613952
:100DC00002D004E0AE8002E041F66310A880A9885A
:100DD00098A0FFF773FAA888944DAD1C50457DD1BB
:100DE000CF20208000202880C1202880302028802B
:100DF000ED20208064202880032028801220288075
:100E000081202880E82020808520288010202880CC
:100E10007A202880CB202080392028802C20288010
:100E2000002028803420288002202880F72020807D
:100E300020202880EA202080002028802880C020D0
:100E400020801B202880C120208001202880C520F0
:100E50002080302028802880C7202080B72028804C
:100E600036202080482028803A2020805520288065
:100E7000B1202080002028801A202880B6202080E1
:100E80000A202880A2202880F220208000202880AC
:100E9000262000E057E0208001202880E0202080EC
:100EA0000F2028802A2028802820288008202880B9
:100EB0000E2028800820288054202880A9202880FF
:100EC000432028800A2028800F20288000202880A6
:100ED000288028802880E120208000E035E0002064
:100EE000288015202880172028800720288011209E
:100EF0002880062028802B202880562028803C200F
:100F0000288005202880102028800F2028803F205E
:100F1000288028800F2028802B20208000202880F7
:100F20002880012028803F2028802A20208000203F
:100F3000288028802880EF20288011202080782099
:100F400002F00CFA9FE0AF8041E7B0427AD1112065
:100F50002080782002F002FA3620208000202880AD
:100F60003A20208005202880B22020800C20288074
:100F7000288000202880332028802880B7202080E7
:100F800035202880BB20208032202880C02020806F
:100F90000C202880C220208001202880C3202080AF
:100FA00010202880C420208020202880C620208077
:100FB0000F202880D0202080A4202880A1202880F5
:100FC000E0202080D0202880002028800220288057
:100FD000072028800A202880282028803220288086
:100FE0004420288042202880062028800E20288047
:100FF000122028801420288017202880E1202080BB
:10100000D0202880002028800220288007202880E7
:101010000A20288028202880312014E0000C01407C
:10102000001401400018014000200140FE07006C40
:10103000F0000020204C43442049443A25780D0A12
:101040000000000022E028805420288047202880CB
:101050000E2028801C202880172028801B20288014
:101060001E2028802A202080002028802880288098
:10107000EF2028802B20208000202880288001203D
:1010800028803F202880292001F02DBC58457DD1A3
:10109000ED20208001202880FE202880EE20208066
:1010A000DE20288021202880F12020800120288037
:1010B000DF20208010202880C42020808F202880DE
:1010C000C620208000202880E220288028802880D8
:1010D000BF202080AA202880B02020800D202880DA
:1010E000002028800D2028800020288011202880C2
:1010F0000020288019202880002028802120288096
:10110000002028802D202880002028803D20288055
:10111000002028805D202880002028805D202880F5
:1011200000202880B1202080802028800020288076
:101130008B2028800020288096202880002028806E
:10114000B2202080002028802880022028800020D3
:1011500028800320288000202880B32020800020C1
:10116000288028802880288028802880288028803F
:10117000288028802880288028802880288028802F
:101180002880288028802880288000E0FEE32880AE
:1011900028802880B42020808B2028800020288070
:1011A0009620288000202880A120288000202880E8
:1011B000B52020800220288000202880032028805D
:1011C000002028800420288000202880B62020804D
:1011D000002028802880B7202080002028802880B8
:1011E0003F202880002028805E2028800020288042
:1011F00064202880002028808C20288000202880DF
:10120000AC20288000202880DC2028800020288036
:1012100070202880002028809020288000202880AE
:10122000EB20288000202880DC20288000202880D7
:10123000B8202080002028802880288028802880CE
:10124000288028802880BA20208024202880002020
:10125000288028802880C12020802020288000200D
:1012600028805420288000202880FF20288000200B
:101270002880C22020800A20288000202880042086
:10128000288000202880C32020803C202880002047
:1012900028803A20288000202880392028800020BB
:1012A000288037202880002028803C2028800020AB
:1012B00028803620288000202880322028800020A6
:1012C00028802F202880002028802C2028800020A3
:1012D000288029202880002028802620288000209F
:1012E0002880242028800020288024202880002096
:1012F000288023202880002028803C20288000206F
:101300002880362028800020288032202880002055
:1013100028802F202880002028802C202880002052
:10132000288029202880002028802620288000204E
:101330002880242028800020288024202880002045
:1013400028802320288000202880C420208062203C
:1013500028800020288005202880002028808420E4
:10136000288000202880F020288000202880182055
:10137000288000202880A420288000202880182091
:1013800028800020288050202880002028800C20E1
:101390002880002028801720288000202880952081
:1013A000288000202880F320288000202880E62044
:1013B000288000202880C52020803220288000201E
:1013C0002880442028800020288065202880002054
:1013D00028807620288000202880882028800020EF
:1013E0002880C620208020202880002028801720E8
:1013F0002880002028800120288000202880C72005
:10140000208000202880288028802880C8202080F4
:1014100000202880288028802880C9202080002063
:10142000288028802880288028802880288028807C
:10143000288028802880288028802880288028806C
:10144000E020208016202880002028801C20288072
:101450000020288021202880002028803620288015
:1014600000202880462028800020288052202880C4
:101470000020288064202880002028807A2028806E
:10148000002028808B202880002028809920288018
:1014900000202880A820288000202880B9202880CB
:1014A00000202880C420288000202880CA2028808E
:1014B00000202880D220288000202880D920288061
:1014C00000202880E020288000202880F320288029
:1014D00000202880E12020801620288000202880FD
:1014E0001C2028800020288022202880002028809E
:1014F0003620288000202880452028800020288051
:101500005220288000202880642028800020288005
:101510007A202880002028808B20288000202880A6
:101520009920288000202880A8202880002028805A
:10153000B920288000202880C4202880002028800E
:10154000CA20288000202880D220288000202880DF
:10155000D820288000202880E020288000202880B3
:10156000F320288000202880E22020800520288089
:10157000002028800B202880002028801B20288025
:1015800000202880342028800020288044202880C3
:10159000002028804F20288000202880612028807B
:1015A000002028807920288000202880882028801A
:1015B000002028809720288000202880A6202880CE
:1015C00000202880B720288000202880C220288082
:1015D00000202880C720288000202880D120288053
:1015E00000202880D620288000202880DD20288028
:1015F00000202880F320288000202880E3202080FD
:1016000005202880002028800A20288000202880AB
:101610001C2028800020288033202880002028805B
:101620004420288000202880502028800020288006
:1016300062202880002028807820288000202880B0
:10164000882028800020288097202880002028805B
:10165000A620288000202880B7202880002028800D
:10166000C220288000202880C720288000202880D1
:10167000D120288000202880D520288000202880A4
:10168000DD20288000202880F3202880002028806A
:10169000E42020800120288000202880012028804C
:1016A0000020288002202880002028802A202880EE
:1016B000002028803C202880002028804B20288083
:1016C000002028805D202880002028807420288029
:1016D00000202880842028800020288093202880D3
:1016E00000202880A220288000202880B320288085
:1016F00000202880BE20288000202880C420288048
:1017000000202880CD20288000202880D320288019
:1017100000202880DD20288000202880F3202880D9
:1017200000202880E5202080002028802880288034
:10173000288002202880002028802920288000205E
:1017400028803C202880002028804B2028800020F2
:1017500028805D2028800020288074202880002098
:101760002880842028800020288093202880002042
:101770002880A220288000202880B32028800020F4
:101780002880BE20288000202880C42028800020B7
:101790002880CD20288000202880D3202880002089
:1017A0002880DC20288000202880F320288000204A
:1017B0002880E620208011202880002028803420E6
:1017C000288000202880562028800020288076202D
:1017D000288000202880772028800020288066200C
:1017E00028800020288088202880002028809920B8
:1017F000288000202880BB20288000202880992075
:1018000028800020288066202880002028805520FD
:10181000288000202880552028800020288045200E
:101820002880002028804320288000202880442011
:10183000288000202880E720208032202880002077
:1018400028805520288000202880762028800020AD
:10185000288066202880002028806720288000209B
:10186000288067202880002028808720288000206A
:1018700028809920288000202880BB2028800020F4
:101880002880992028800020288077202880002028
:10189000288044202880002028805620288000208E
:1018A00028802320288000202880332028800020C2
:1018B00028804520288000202880E82020800020E3
:1018C0002880288099202880002028808720288050
:1018D00000202880882028800020288077202880E9
:1018E00000202880662028800020288088202880EA
:1018F00000202880AA20288000202880BB20288063
:1019000000202880992028800020288066202880B8
:1019100000202880552028800020288055202880FD
:10192000002028804420288000202880442028800F
:10193000002028805520288000202880E920208051
:10194000AA20288000202880288028802080AA20A3
:101950002880CF2020800020288028802880288090
:101960002880288028802880288028802880288037
:1019700028802880288028802880F020208000204F
:101980002880502028800020288000E02CE028803B
:101990002880F320208000202880F9202080062045
:1019A00028801020288029202880002028803A20A4
:1019B00020805520288011202080642001F0CEFC5A
:1019C0002920208035202080002028805120208060
:1019D000FF202880532020802C2028805520208024
:1019E000822028802C20FDE3B8427DD14FF4704343
:1019F0005521184601F010FA4FF20105AA21284698
:101A000001F00AFA6E1C5221304601F005FAAF1CB3
:101A10000821384601F000FA4FF2040A012150462D
:101A200001F0FAF90D214FF4304001F0F5F90D21E4
:101A30004BF2010001F0F0F90D214BF2020001F030
:101A4000EBF94FF4364B3421584601F0E5F93421D7
:101A50004BF2016001F0E0F934214BF2026001F039
:101A6000DBF90D214FF4314001F0D6F90D214BF295
:101A7000011001F0D1F90D214BF2021001F0CCF967
:101A800034214FF4374001F0C7F934214BF2017093
:101A900001F0C2F934214BF2027001F0BDF90021CE
:101AA0004FF4324001F0B8F900214BF2012001F06F
:101AB000B3F900214BF2022001F0AEF924214FF4DA
:101AC000384001F0A9F924214BF6010001F0A4F9F6
:101AD00024214BF6020001F09FF901214FF43F4011
:101AE00001F09AF90F2100E0FEE34FF4334001F0DA
:101AF00093F90F214BF2013001F08EF90F214BF2D7
:101B0000023001F089F934214FF4394001F084F9B1
:101B100034214BF6011001F07FF934214BF602100D
:101B200001F07AF908214FF4354001F075F90821E8
:101B30004BF2015001F070F908214BF2025001F014
:101B40006BF903214FF4424001F066F924214FF470
:101B50003A4001F061F924214BF6012001F05CF9D3
:101B600024214BF6022001F057F900214FF43C40AC
:101B700001F052F978214BF6014001F04DF90021B6
:101B80004BF6024001F048F900214FF43D4001F0CE
:101B900043F978214BF6015001F03EF900214BF654
:101BA000025001F039F900214FF43E4001F034F9C0
:101BB00064214BF6016001F02FF900214FF45140F0
:101BC00001F02AF933214DF2011001F025F900212D
:101BD0004DF2021001F020F934214DF2031001F012
:101BE0001BF900214DF2041001F016F93A214DF2D3
:101BF000051001F011F900214DF2061001F00CF969
:101C00004A214DF2071001F007F900214DF20810AA
:101C100001F002F95C214DF2091001F0FDF80021FC
:101C20004DF20A1001F0F8F881214DF20B1001F08D
:101C3000F3F800214DF20C1001F0EEF8A6214DF260
:101C40000D1001F0E9F800214DF20E1001F0E4F85A
:101C5000E5214DF20F1001F0DFF801214DF21010D7
:101C600001F0DAF813214DF2111001F0D5F801213D
:101C70004DF2121001F0D0F854214DF2131001F082
:101C8000CBF801214DF2141001F0C6F882214DF27B
:101C9000151001F0C1F801214DF2161001F0BCF849
:101CA000CA214DF2171001F0B7F802214DF21810B9
:101CB00001F0B2F800214DF2191001F0ADF8022147
:101CC0004DF21A1001F0A8F801214DF21B1001F09D
:101CD000A3F802214DF21C1001F09EF834214DF2C0
:101CE0001D1001F099F802214DF21E1001F094F838
:101CF00067214DF21F1001F08FF802214DF22010E4
:101D000001F08AF884214DF2211001F085F80221BA
:101D10004DF2221001F080F8A4214DF2231001F0C1
:101D20007BF802214DF2241001F076F8B7214DF234
:101D3000251001F071F802214DF2261001F06CF827
:101D4000CF214DF2271001F067F802214DF2281043
:101D500001F062F8DE214DF2291001F05DF8022158
:101D60004DF22A1001F058F8F2214DF22B1001F03B
:101D700053F802214DF22C1001F04EF8FE214DF2E5
:101D80002D1001F049F803214DF22E1001F044F816
:101D900010214DF22F1001F03FF803214DF23010C9
:101DA00001F03AF833214DF2311001F035F80321FA
:101DB0004DF2321001F030F86D214DF2331001F088
:101DC0002BF800214FF4524001F026F833214DF258
:101DD000012001F021F800214DF2022001F01CF851
:101DE00034214DF2032001F017F800214DF20420B8
:101DF00001F012F83A214DF2052001F00DF8002112
:101E00004DF2062001F008F84A214DF2072001F0BA
:101E100003F800214DF2082000F0FEFF5C214DF296
:101E2000092000F0F9FF00214DF20A2000F0F4FF34
:101E300081214DF20B2000F0EFFF00214DF20C202C
:101E400000F0EAFFA6214DF20D2000F0E5FF002191
:101E50004DF20E2000F0E0FFE5214DF20F2000F0E2
:101E6000DBFF01214DF2102000F0D6FF13214DF2CF
:101E7000112000F0D1FF01214DF2122000F0CCFF23
:101E800054214DF2132000F0C7FF01214DF2142020
:101E900000F0C2FF82214DF2152000F0BDFF0121AC
:101EA0004DF2162000F0B8FFCA214DF2172000F0C5
:101EB000B3FF02214DF2182000F0AEFF00214DF2D9
:101EC000192000F0A9FF02214DF21A2000F0A4FF12
:101ED00001214DF21B2000F09FFF02214DF21C203A
:101EE00000F09AFF34214DF21D2000F095FF0221F1
:101EF0004DF21E2000F090FF67214DF21F2000F0F0
:101F00008BFF02214DF2202000F086FF84214DF24C
:101F1000212000F081FF02214DF2222000F07CFF01
:101F2000A4214DF2232000F077FF02214DF224205E
:101F300000F072FFB7214DF2252000F06DFF022165
:101F40004DF2262000F068FFCF214DF2272000F04F
:101F500063FF02214DF2282000F05EFFDE214DF2EA
:101F6000292000F059FF02214DF22A2000F054FFF1
:101F7000F2214DF22B2000F04FFF02214DF22C20D8
:101F800000F04AFFFE214DF22D2000F045FF032115
:101F90004DF22E2000F040FF10214DF22F2000F0D6
:101FA0003BFF03214DF2302000F036FF33214DF28C
:101FB000312000F031FF03214DF2322000F02CFFE0
:101FC0006D214DF2332000F027FF00214FF45340E4
:101FD00000F022FF33214DF2013000F01DFF0021FF
:101FE0004DF2023000F018FF34214DF2033000F0C2
:101FF00013FF00214DF2043000F00EFF3A214DF2A4
:10200000053000F009FF00214DF2063000F004FF1A
:102010004A214DF2073000F0FFFE00214DF208305A
:1020200000F0FAFE5C214DF2093000F0F5FE0021CF
:102030004DF20A3000F0F0FE81214DF20B3000F03D
:10204000EBFE00214DF20C3000F0E6FEA6214DF231
:102050000D3000F0E1FE00214DF20E3000F0DCFE0C
:10206000E5214DF20F3000F0D7FE01214DF2103086
:1020700000F0D2FE13214DF2113000F0CDFE01210F
:102080004DF2123000F0C8FE54214DF2133000F032
:10209000C3FE01214DF2143000F0BEFE82214DF24C
:1020A000153000F0B9FE01214DF2163000F0B4FEFB
:1020B000CA214DF2173000F0AFFE02214DF2183068
:1020C00000F0AAFE00214DF2193000F0A5FE022119
:1020D0004DF21A3000F0A0FE01214DF21B3000F04D
:1020E0009BFE02214DF21C3000F096FE34214DF291
:1020F0001D3000F091FE02214DF21E3000F08CFEEA
:1021000067214DF21F3000F087FE02214DF2203092
:1021100000F082FE84214DF2213000F07DFE02218C
:102120004DF2223000F078FEA4214DF2233000F071
:1021300073FE02214DF2243000F06EFEB7214DF205
:10214000253000F069FE02214DF2263000F064FED9
:10215000CF214DF2273000F05FFE02214DF22830F2
:1021600000F05AFEDE214DF2293000F055FE02212A
:102170004DF22A3000F050FEF2214DF22B3000F0EB
:102180004BFE02214DF22C3000F046FEFE214DF2B6
:102190002D3000F041FE03214DF22E3000F03CFEC8
:1021A00010214DF22F3000F037FE03214DF2303078
:1021B00000F032FE33214DF2313000F02DFE0321CC
:1021C0004DF2323000F028FE6D214DF2333000F038
:1021D00023FE00214FF4544000F01EFE33214DF247
:1021E000014000E07FE300F017FE00214DF20240C5
:1021F00000F012FE34214DF2034000F00DFE0021EC
:102200004DF2044000F008FE3A214DF2054000F086
:1022100003FE00214DF2064000F0FEFD4A214DF282
:10222000074000F0F9FD00214DF2084000F0F4FDF8
:102230005C214DF2094000F0EFFD00214DF20A4013
:1022400000F0EAFD81214DF20B4000F0E5FD002198
:102250004DF20C4000F0E0FDA6214DF20D4000F0E3
:10226000DBFD00214DF20E4000F0D6FDE5214DF2E0
:102270000F4000F0D1FD01214DF2104000F0CCFDE7
:1022800013214DF2114000F0C7FD01214DF2124023
:1022900000F0C2FD54214DF2134000F0BDFD0121BC
:1022A0004DF2144000F0B8FD82214DF2154000F0CF
:1022B000B3FD01214DF2164000F0AEFDCA214DF2F2
:1022C000174000F0A9FD02214DF2184000F0A4FDD6
:1022D00000214DF2194000F09FFD02214DF21A40FD
:1022E00000F09AFD012100E0FFE24DF21B4000F0FA
:1022F00093FD02214DF21C4000F08EFD34214DF281
:102300001D4000F089FD02214DF21E4000F084FDC9
:1023100067214DF21F4000F07FFD02214DF2204069
:1023200000F07AFD84214DF2214000F075FD02217C
:102330004DF2224000F070FDA4214DF2234000F048
:102340006BFD02214DF2244000F066FDB7214DF2F5
:10235000254000F061FD02214DF2264000F05CFDB9
:10236000CF214DF2274000F057FD02214DF22840C9
:1023700000F052FDDE214DF2294000F04DFD02211A
:102380004DF22A4000F048FDF2214DF22B4000F0C2
:1023900043FD02214DF22C4000F03EFDFE214DF2A6
:1023A0002D4000F039FD03214DF22E4000F034FDA8
:1023B00010214DF22F4000F02FFD03214DF230404F
:1023C00000F02AFD33214DF2314000F025FD0321BC
:1023D0004DF2324000F020FD6D214DF2334000F00F
:1023E0001BFD00214FF4554000F016FD33214DF246
:1023F000015000F011FD00214DF2025000F00CFDE3
:1024000034214DF2035000F007FD00214DF204503D
:1024100000F002FD3A214DF2055000F0FDFC0021D4
:102420004DF2065000F0F8FC4A214DF2075000F042
:10243000F3FC00214DF2085000F0EEFC5C214DF25F
:10244000095000F0E9FC00214DF20A5000F0E4FCD4
:1024500081214DF20B5000F0DFFC00214DF20C50B9
:1024600000F0DAFCA6214DF20D5000F0D5FC002161
:102470004DF20E5000F0D0FCE5214DF20F5000F06F
:10248000CBFC01214DF2105000F0C6FC13214DF29F
:10249000115000F0C1FC01214DF2125000F0BCFCC3
:1024A00054214DF2135000F0B7FC01214DF21450AD
:1024B00000F0B2FC82214DF2155000F0ADFC01217C
:1024C0004DF2165000F0A8FCCA214DF2175000F052
:1024D000A3FC02214DF2185000F09EFC00214DF2A9
:1024E000195000F099FC02214DF21A5000F094FCB2
:1024F00001214DF21B5000F08FFC02214DF21C50C7
:1025000000F08AFC34214DF21D5000F085FC0221C0
:102510004DF21E5000F080FC67214DF21F5000F07C
:102520007BFC02214DF2205000F076FC84214DF21C
:10253000215000F071FC02214DF2225000F06CFCA1
:10254000A4214DF2235000F067FC02214DF22450EB
:1025500000F062FCB7214DF2255000F05DFC022135
:102560004DF2265000F058FCCF214DF2275000F0DC
:1025700053FC02214DF2285000F04EFCDE214DF2BA
:10258000295000F049FC02214DF22A5000F044FC91
:10259000F2214DF22B5000F03FFC02214DF22C5065
:1025A00000F03AFCFE214DF22D5000F035FC0321E5
:1025B0004DF22E5000F030FC10214DF22F5000F063
:1025C0002BFC03214DF2305000F026FC33214DF25C
:1025D000315000F021FC03214DF2325000F01CFC80
:1025E0006D214DF2335000F017FC00214FF456409E
:1025F00000F012FC33214DF2016000F00DFC0021CF
:102600004DF2026000F008FC34214DF2036000F04E
:1026100003FC00214DF2046000F0FEFB3A214DF274
:10262000056000F0F9FB00214DF2066000F0F4FBBC
:102630004A214DF2076000F0EFFB00214DF20860E7
:1026400000F0EAFB5C214DF2096000F0E5FB00219F
:102650004DF20A6000F0E0FB81214DF20B6000F0CA
:10266000DBFB00214DF20C6000F0D6FBA6214DF201
:102670000D6000F0D1FB00214DF20E6000F0CCFBAC
:10268000E5214DF20F6000F0C7FB01214DF2106013
:1026900000F0C2FB13214DF2116000F0BDFB0121DF
:1026A0004DF2126000F0B8FB54214DF2136000F0BF
:1026B000B3FB01214DF2146000F0AEFB82214DF21C
:1026C000156000F0A9FB01214DF2166000F0A4FB9B
:1026D000CA214DF2176000F09FFB02214DF21860F5
:1026E00000F09AFB00214DF2196000F095FB0221E9
:1026F0004DF21A6000F090FB01214DF21B6000F0DA
:102700008BFB02214DF21C6000F086FB34214DF260
:102710001D6000F081FB02214DF21E6000F07CFB89
:1027200067214DF21F6000F077FB02214DF220601F
:1027300000F072FB84214DF2216000F06DFB02215C
:102740004DF2226000F068FBA4214DF2236000F0FE
:1027500063FB02214DF2246000F05EFBB7214DF2D5
:10276000256000F059FB02214DF2266000F054FB79
:10277000CF214DF2276000F04FFB02214DF228607F
:1027800000F04AFBDE214DF2296000F045FB0221FA
:102790004DF22A6000F040FBF2214DF22B6000F078
:1027A0003BFB02214DF22C6000F036FBFE214DF286
:1027B0002D6000F031FB03214DF22E6000F02CFB68
:1027C00010214DF22F6000F027FB03214DF2306005
:1027D00000F022FB33214DF2316000F01DFB03219C
:1027E0004DF2326000F018FB6D214DF2336000F0C5
:1027F00013FB5521184600F00FFBAA21284600F0D4
:102800000BFB5221304600F007FB0821384600F050
:1028100003FB0021504600F0FFFACC214FF4314079
:1028200000F0FAFA00214BF2011000F0F5FA052150
:10283000584600F0F1FA70214FF4374000F0ECFAFE
:1028400070214BF2017000F0E7FA01214FF438409B
:1028500000F0E2FA03214BF6010000F0DDFA03215B
:102860004BF6020000F0D8FA03214BF6030000F00B
:10287000D3FA02214FF43C4000F0CEFA00214BF68F
:10288000014000F0C9FA00214BF6024000F0C4FA02
:10289000D0214FF4494000F0BFFA02214CF601105C
:1028A00000F0BAFA50214CF6021000F0B5FA5021AF
:1028B0004CF6031000F0B0FA50214CF6041000F072
:1028C000ABFA00214FF4545000F0A6FA55214FF412
:1028D000685000F0A1FA4FF488502080782000F072
:1028E00059FD4FF4245020807DE0A0F5C851633994
:1028F00079D1E22020801D20288002202880042019
:102900002880642000F046FDE020208001202880FF
:102910000A2000F023FDE0202080032028800C20E6
:1029200000F01CFD012020800A2000F017FDE620A9
:1029300020802F202880FF2028802880B020208021
:1029400020202880002028800320288040F21F308B
:1029500028800120288040F2DF1028800020288075
:10296000B42020800420288040F21F4028800020CE
:1029700028802E20288000202880288028802880F9
:10298000B6202080022028804FF403702880002089
:102990002880172028801520288000202880288063
:1029A000F02020800320288029202080D020208033
:1029B00000202880BE20208005202880FE2028803E
:1029C000012028800020288028802880B8202080AE
:1029D0000320288001202880BA2020800120288020
:1029E000642000F021F80020FDF7B6FF0449C1F88B
:1029F00080814846FDF798FF1FB0BDE8F08F0000CA
:102A0000008021420346012000E05843491EC9B21C
:102A1000FBD27047034808B50088ADF80000BDF848
:102A2000000008BD0008006C0C4A10B5BE211180E2
:102A3000941C0521218002F0EEFC4FF06632084B19
:102A400002F0FCFC02F0BAFC208001202080FF2074
:102A5000208000202080208010BD0000FE07006C38
:102A60006666044070B54E4D00232946AA798988D0
:102A700041F66314012A01D01AB11BE0A14202D130
:102A800018E0A14216D1082814D2DFE800F00406AD
:102A9000080A0C0E101206200CE007200AE00420A1
:102AA00008E0052006E0012004E0002002E0032009
:102AB00000E00220082812D2DFE800F01104060826
:102AC0000A0C0E1080230AE0402308E0C02306E031
:102AD000202304E0602302E0A02300E0E02345F28D
:102AE0001056B14202D14FF4585000E03620A1F503
:102AF0001342413A03D0A1F5EE42893A01D143F0A5
:102B00000803194600F088F9AA88A2420AD098065C
:102B10002888698802D5884202D303E0884201D917
:102B2000298068801F48811CB2426A89028021D1B5
:102B300000230B80531C038000230B80931C038015
:102B40002B885B1E1C0A0C80D21C0280DAB20A8021
:102B5000AA89028000230B80531C038000230B8072
:102B6000931C03806B885B1E1C0A0C80D21C0280A5
:102B7000D8B212E000220A800A802A88521E130A64
:102B80000B80D2B20A80AA890280002008800880C7
:102B90006888401E020A0A80C0B2088070BD00002A
:102BA000F0000020FE07006C2DE9F043DFF8A49050
:102BB000294F4A46B9F804C09389050A0C0ABE1C7D
:102BC0005289ACF5C858B8F163080ED0ACF5A048EE
:102BD000B8F5A2683A80358033D0C0B230803B80EF
:102BE0003480C8B23080BDE8F083DFF868C099F85F
:102BF0000680BCF800C0B8F1000F16D03A803580CE
:102C0000C0B23080ACF1010C4FEA1C2030800CF0D7
:102C1000FF0030803B803480C8B23080B9F80200B9
:102C2000401E010A3180C0B2DCE7ACEB0000401E60
:102C300080B23A80002232803280020A3280C0B2F2
:102C4000E7E7521C3A80C0B230803B8034805B1C86
:102C50003B80C6E7F0000020FE07006C2DE9F84F2E
:102C600082461F460C468B46580700D0012000EBD9
:102C7000D70079084843203AC0B202F0FF09002685
:102C8000009041E00C2F10D0102F12D0182F3ED101
:102C9000204909EBC90001EB80004FF00008855D79
:102CA00028060AD51C4802880BE009EB49001B499D
:102CB000F1E71B4901EB0910EFE70A9828B916481C
:102CC000428821465046FDF719FF6806050E154853
:102CD000641CA4B24088A04219D9A4EB0B00B842EE
:102CE00009D10AF101001FFA80FA0E485C460188FA
:102CF00051450CD906E008F1010000F0FF08B8F1D9
:102D0000080FCDD3761CF6B200988642BAD3BDE840
:102D1000F88F00009C60000858000020385600081A
:102D2000AC5A0008F00000202DE9F84F044600F0EE
:102D3000FF0810190D46DDE90A761FFA80FA5819C6
:102D40001FFA80F94FF0000B11E0544502D3E81947
:102D5000444685B24D450FD23B4629462046CDF824
:102D600000B0FFF77BFF04EB570084B2761C32788B
:102D7000A2F120005E28E8D9BDE8F88F2DE9FF4FC9
:102D800081B08046DDF83CA00E984FF000091F4648
:102D900093464C460AF0010546082BE0381B401EBE
:102DA000C1B20A20FFF72EFEBBFBF0F00A21B0FBF8
:102DB000F1F201FB1200B9F1000F05D1791E8C422E
:102DC00002DA48B14FF001093030C2B206FB04808C
:102DD00080B200950E9B08E05FEA0A6006FB048063
:102DE0000E9B80B200950AD530220299FFF736FF7C
:102DF000641CE4B2BC42D1D305B0BDE8F08F202200
:102E0000F3E700000248034900890880704700008A
:102E1000F0000020FE07006C024A1080901C018028
:102E200070470000FE07006C38B50121482000F013
:102E30006DF82024ADF8004010208DF80300032029
:102E40000B4D8DF8020069462846FDF71BFD202139
:102E50002846FDF765FDADF80040064C6946204662
:102E6000FDF710FD20212046FDF75AFD38BD00007A
:102E7000000C014000180140FEE7704730B50F23F9
:102E8000C27801780125F2B1144A126801F1E021FB
:102E900002F4E062C2F5E062120AC2F10404D34017
:102EA0004278A24084781C401443220181F8002417
:102EB000007800F01F018D404009800000F1E02003
:102EC000C0F8005130BD01F01F0085404809800066
:102ED00000F1E020C0F8805130BD00000CED00E0B2
:102EE0000249084302490860704700000000FA05E3
:102EF0000CED00E0044A0029516901D0014300E0D3
:102F0000814351617047000000100240044A0029CB
:102F1000916901D0014300E0814391617047000055
:102F20000010024030B5204A5168204B11F00C01CE
:102F300003D0042901D0082901D0036012E05168B0
:102F4000536801F470114FF0020413F4803F04EB56
:102F5000914102D053689B0301D5154B00E0134B00
:102F60005943016051680F2303EA1111114B5C5C56
:102F70000168E14041605468072505EA14241C5D9E
:102F800021FA04F48460546805EAD4241B5DD94016
:102F9000C1605268032303EA9232064B1B1F9A5CFE
:102FA000B1FBF2F1016130BD0010024000127A0065
:102FB00000093D006C0000200CB50022264800925C
:102FC0000192016841F4803101604FF4A06301680F
:102FD00001F4003101910099491C0091019911B946
:102FE00000999942F3D10168890333D501210191F8
:102FF0001A490A6842F010020A600A6822F00302C5
:103000000A600A6842F002020A6041684160416851
:103010004160416841F480614160416821F47C1164
:103020004160416841F4E8114160016841F08071FC
:10303000016001688901FCD5416821F0030141600C
:10304000416841F0020141604168C1F381010229F8
:10305000FAD10CBD01920CBD0010024000200240CC
:103060004FF0E0210428086903D020F00400086133
:10307000704740F00400FAE710B501F043FF012863
:1030800003D0BDE8104001F031BC10BD0F4810B5B1
:10309000016841F00101016041680D4A1140416041
:1030A00001680C4A11400160016821F4802101602F
:1030B000416821F4FE0141604FF41F018160FFF778
:1030C0007BFF05494FF00060086010BD0010024012
:1030D0000000FFF8FFFFF6FE08ED00E010B5084C19
:1030E0000121204600F039F8012802D105A0FDF7A2
:1030F000E5F82046BDE81040012100F02BB80000A3
:103100000004004054494D33CAE4B3F62E2E2E2E4F
:103110002E2E2E0D0A00000010B5084C012120466D
:1031200000F01BF8012802D105A0FDF7C7F82046E2
:10313000BDE81040012100F00DB80000000C004077
:1031400054494D35CAE4B3F62E2E2E2E2E2E2E0DBA
:103150000A000000C9430182704702460020138A1A
:1031600092890B4202EA010202D0002A00D001201B
:103170007047000070B5154C40F22551204600F014
:1031800035F800280ED0204600F0BEF8104AC1B233
:103190001088030406D444044FF0000306D50A291E
:1031A00001D0138070BD40F400400DE00D2909D01E
:1031B000C0F30D04074D401C80B229551080C7286C
:1031C000EFD870BD40F48040108070BD00380140E1
:1031D00060000020FE0000200029818902D041F417
:1031E000005101E021F400518181704770B501F078
:1031F0001F0501260024C1F3421306FA05F2012B34
:103200000FD0022B0FD0838A4FEA1121008813427E
:1032100006FA01F600EA060001D000B101242046BA
:1032200070BD8389F0E7038AEEE710B5C1F342135E
:1032300001F01F040121A140012B07D0022B07D070
:103240001430002A026805D00A4304E00C30F8E785
:103250001030F6E78A43026010BD000030B5044626
:10326000008A85B00D464CF6FF710840E98801439D
:103270002182A0894EF6F3110840A9882A891143BA
:103280006A8902431143A181A08A4FF6FF41084099
:10329000A9890143A1826846FFF744FE1948844288
:1032A00001D1039800E00298A189090400EBC00154
:1032B00001EB0010296801D5490000E08900B0FB4E
:1032C000F1F06422B0FBF2F109010B096FF018056F
:1032D0006B4300EB8300A3891D044FF0320306D536
:1032E00003EBC000B0FBF2F000F0070005E003EBD9
:1032F0000010B0FBF2F000F00F000843208105B091
:1033000030BD0000003801408088C0F308007047DD
:10331000FEE7704710B50420FFF7A2FE0C480D49E8
:103320000D4A0068B0FBF1F3B0FBF1F14FF47A7095
:1033300041431370012050804FF0E020026942F0B9
:10334000020202614161016941F00101016110BDA8
:103350004400002040420F005C00002070B504468D
:1033600001F0D0FD01280CD0094D6888844203D3B8
:10337000B4FBF0F001F08EF86888B4FBF0F100FBCC
:1033800011444FF47A706043BDE8704000F002B819
:103390005C00002070B54FF0E02500216C69094AFF
:1033A000AB6912785043AA699A42FCD002D2A3EBCF
:1033B000020302E0A4EB020633441944134681429F
:1033C000F1D370BD5C00002004490A885206FCD588
:1033D000024AC1B2121D118070470000003801403E
:1033E0001CB54FF44070FFF77BFDFFF793FF4FF4E0
:1033F000E13000F075FEFFF717FDFDF7F9FB2049FE
:103400004FF47840102408801EA0CDE900402346E8
:10341000C8220A211E20FFF787FC1FA0CDE900402B
:103420001E211023C8220846FFF77EFC1FA0CDE90D
:1034300000401023C82232211E20FFF775FC20A077
:10344000CDE900401023C82246211E20FFF76CFC66
:103450001FA0CDE900401023C8225A211E20FFF7EB
:1034600063FC1E490120CDE90001002380221CA13C
:103470001E4801F01BFD01F06DF900201CBD00008D
:103480005800002041544B2053544D3332463130C4
:10349000332F4634303700004672656552544F531F
:1034A000204578616D7020362D3100005461736BBA
:1034B00020437265617420616E642044656C000075
:1034C00041544F4D40414C49454E54454B0000003E
:1034D000323031362F31312F3235000000000020DC
:1034E00073746172745F7461736B0000A53E0008B1
:1034F0002DE9F041184E0F460446F5683068001D6E
:1035000000F03EFE38B9306890F82C100120884059
:10351000316981433161601C07D137B13168BDE841
:10352000F0410E48091D00F063BE30682C44AC42E7
:103530004460316805D2B06BBDE8F041091D00F070
:103540003FBE706B091D00F03BFEB06A844200D2A2
:10355000B462BDE8F08100007C000020D8040020A7
:103560002DE9F041054600F04FFE2D4EB068401C9D
:10357000B06030682B4F10B1706930B32BE035600C
:10358000B068012827D1002404EB840007EB8000F9
:1035900000F008FE641C202CF6D3234800F002FE45
:1035A0002148143000F0FEFD1F48283000F0FAFDDD
:1035B0001D483C3000F0F6FD1B48503000F0F2FD95
:1035C000194870631430B06305E03068E96AC06A76
:1035D000884200D83560706A0121401C70626864BE
:1035E000E86A326981401143316100EB800007EBEA
:1035F0008000291D00F0FCFD00F042FE70690028EB
:103600000CD03068E96AC06A884207D207494FF097
:1036100080500860BFF34F8FBFF36F8FBDE8F0811C
:103620007C000020080200208804002004ED00E057
:1036300010B500F0E9FD0E4C2068A0B90D4800F06F
:10364000B1FD0C48143000F0ADFD0A48E0601430C4
:10365000206100221021052001F05EF9206010B1E8
:1036600005A100F0E3FEBDE8104000F009BE000037
:10367000B8000020EC040020546D725100000000DE
:1036800070B5124E124D1CE001F0AEF8306820B15A
:10369000002401F065FDA4B901E00124F9E700F080
:1036A000B3FDF068C468201D00F06AFDA868401EE4
:1036B000A8606868401E686000F0E2FD204600F0E7
:1036C00052F868680028DFD170BD0000C4040020F3
:1036D0007C00002030B4026C0B46002A0BD0C1687D
:1036E0001144C1604468A14201D30168C16030BC8B
:1036F0001846FCF7B5BE30BC70472DE9F041856B2C
:10370000174604460026026C82B1C7B1E068FCF798
:10371000A7FEE168206C091AE1602268914202D29A
:103720006168081AE060022F16D017E02068A8B977
:10373000606801F06FFC0646002060600EE0A06843
:10374000FCF78EFE216CA0680844A0606168884286
:1037500004D32068A06001E005B16D1E6D1CA56357
:103760003046BDE8F08110B50446006B00F0BAFDAC
:103770002046BDE8104000F0B5BD000010484FF4F1
:10378000A041420706D0C01D0D4920F00700411A94
:10379000C1F5A0410B4A00230144C2E900030839E6
:1037A000103A21F0070111604B600B600B1AC0E961
:1037B000001393604FF000405360D06070470000EA
:1037C00014050020DC000020074E4FF08054074D08
:1037D000FFF756FF30680128FAD92C60BFF34F8FEE
:1037E000BFF36F8FF4E700000802002004ED00E053
:1037F0002DE9F047DDE909840E461746824691001F
:103800009946089DA522206BFCF76FFE6FF003011F
:10381000206B01EB8701084420F00707780705D0EB
:1038200040F22B3219A11EA0FCF748FD00202218FF
:10383000315C82F83410315C11B1401C1028F6D391
:10384000002684F84360202D00D31F25E562C4E9DB
:103850001356201D00F0B1FC04F1180000F0ADFC7F
:103860002461C5F120006462A061666584F8586037
:103870004A465146384600F003FB2060B8F1000F7D
:1038800001D0C8F80040BDE8F08700002E2E5C464D
:1038900072656552544F535C7461736B732E630091
:1038A0004572726F723A25732C25640D0A00000070
:1038B00030B5114900E011460A688242FBD34B68DB
:1038C0005C18844203D14068184448600846436845
:1038D0001C18944209D1084C103C2468A24209D01B
:1038E00052681A4442600A6812680260814200D03D
:1038F000086030BD0460F9E7DC00002070B50024EA
:1039000041600B4D0061914206D8D11A8269914203
:1039100006D2011D286907E09A4203D2994201D3D9
:10392000012403E0011DE86800F04AFC204670BD58
:10393000B800002010B5044600F066FCA06B20B172
:10394000002400F09DFC204610BD0124F9E7000092
:103950002DE9F34100980F460026846C2CB940F6FF
:10396000CE1216A11AA0FCF7A9FCA06BE16B88424D
:1039700005D340F6CF1211A115A0FCF79FFCA06B58
:10398000E16B88420CD294F945503A46694620468C
:10399000FFF7B3FE0646681C05D06D1C84F8455041
:1039A0003046BDE8FC81606A0028F9D004F12400AB
:1039B00001F08AFB0028F3D00126F1E72E2E5C46A9
:1039C00072656552544F535C71756575652E630061
:1039D0004572726F723A25732C25640D0A0000003F
:1039E000F8B5054614480E46C068C068C468201D76
:1039F00000F0C6FBE069012817D1A0692B464119E8
:103A000032462046FFF77AFF78B100200346014690
:103A100000902A46204601F089FC30B907494FF44E
:103A2000027201F11800FCF749FC616A01B02046FE
:103A3000BDE8F04008470000B800002090520008A0
:103A400070B586B02F4E53E00198002806DADDE904
:103A50000301029A90470198002849DB039C6069A2
:103A600010B1201D00F08CFB05A800F0A7F805465A
:103A700001980A283CD2DFE800F00505053B27380D
:103A800005053B270298A169034601442A462046C2
:103A9000FFF734FF00282BD0616A20468847E06991
:103AA000012825D1002000900298A1690023421826
:103AB0001946204601F03AFCD0B940F2213212A159
:103AC00017A0FCF7FBFB13E00298A06128B94FF4A4
:103AD0004E720DA112A0FCF7F1FBA0692B46411913
:103AE0001A462046FFF70AFF02E0204600F0FAFBE4
:103AF00000231A4601A9306800F04AFF0028A3D12C
:103B000006B070BDB80000202E2E5C46726565526E
:103B1000544F535C74696D6572732E63000000002E
:103B20004572726F723A25732C25640D0A000000ED
:103B3000F8B50D46064600F057FE684600F03EF820
:103B40000446009810B101F00BFBF8BD1148ADB16F
:103B500001690968D9B10025311B2A46006800F0C7
:103B600077FC01F0FDFA0028EFD10B494FF08050AF
:103B70000860BFF34F8FBFF36F8FF8BDA642EBD83D
:103B800001F0EEFA21463046FFF72AFFF8BD012585
:103B9000E2E70000B800002004ED00E00648416BB9
:103BA000096829B1416BC968C96849688162704771
:103BB0004FF0FF31FAE700007C00002070B50546A9
:103BC00001F0AEF9064E0446B068844203D200F01C
:103BD00009F8012000E0002028602046B46070BD94
:103BE000B8000020F8B5184E26E0C068C468056823
:103BF000201D00F0C5FA616A20468847E069012867
:103C00001AD1A0692844A84206D924616060211D08
:103C1000F06800F0D5FA0FE000200346014600905E
:103C20002A46204601F082FB30B9084940F2923220
:103C300001F11800FCF742FBF06801680029D4D1BB
:103C40003169C6E90310F8BDB800002090520008A1
:103C500008484068401C04D0F42207A111A0FCF7DA
:103C60002DFB502080F31188BFF34F8FBFF36F8F70
:103C7000FEE70000E40000202E2E5C4672656552CF
:103C8000544F535C706F727461626C655C52564441
:103C9000535C41524D5F434D335C706F72742E63C1
:103CA000000000004572726F723A25732C25640D76
:103CB0000A000000084CE068016839B1002139B100
:103CC0000020FFF735FFFFF7BBFEF4E70121F6E721
:103CD000C0680068F5E70000B80000202DE9F04159
:103CE000044600F091FA94F9455004F1240610E0DE
:103CF000A06C20B100212046FFF72AFE04E0606A94
:103D000048B1304601F0E0F908B100F05FFC6D1EEB
:103D10006DB2002DECDC4FF0FF3684F8456000F00A
:103D2000AFFA00F071FA94F9445004F1100709E079
:103D3000206948B1384601F0C7F908B100F046FCE7
:103D40006D1E6DB2002DF3DC84F84460BDE8F041D7
:103D500000F096BA2DE9F0410546002600F044FD3A
:103D6000324F386808B9FFF709FDF86805424FD1AE
:103D7000002D4DD0083568070BD005F00700C0F1C5
:103D800008000544680704D0BF2229A132A0FCF72F
:103D900095FA002D3CD07868854239D823491031F6
:103DA0000846046801E0214604466068A84202D241
:103DB00020680028F7D13868B846844228D00E68B9
:103DC0002068086060680836401B10280ED9671903
:103DD000780704D0EC2216A11FA0FCF76FFA6068E8
:103DE000401B786038466560FFF762FD6168D8F86F
:103DF00004004246401AC8F80400D8F80830984237
:103E000000D29060D8F80C0001430020C4E9000102
:103E100001F0A6F9700705D04FF4967204A10EA028
:103E2000FCF74CFA3046BDE8F0810000CC000020E1
:103E30002E2E5C4672656552544F535C706F7274DF
:103E400061626C655C4D656D4D616E675C68656156
:103E5000705F342E630000004572726F723A2573F2
:103E60002C25640D0A0000000449086818B1086890
:103E7000026D521C02650868704700007C0000203B
:103E800010B5031F4FF080741C601B1F21F001014F
:103E90001960191F024B0B60143940380A6010BDBD
:103EA000513C00081CB500F0AFF90F490220CDE9E4
:103EB0000001002380220DA10F4800F0F7FF0A49FE
:103EC0000320091DCDE90001002380220BA10E482B
:103ED00000F0ECFF0448001F006800F011FBBDE893
:103EE0001C4000F0CDB90000040000207461736B29
:103EF000315F7461736B00000D3F00087461736B78
:103F0000325F7461736B0000094000081CB52C4DD2
:103F100000244FF49D732C8073226E210520FCF742
:103F2000D1FD8223732219460520FCF771FD1F2065
:103F30002880102623A0CDE9006033466E226F2131
:103F40000620FEF7F1FE234DDFF88C800E2740F2AD
:103F5000391A4FF080094FF47A7B641CD5F894012C
:103F6000E4B248B10020C5F8940121461BA0FCF73B
:103F7000A5F9052C02D009E00120F4E716480C3819
:103F8000806800F0BDFA1BA0FCF798F9B4FBF7F0CD
:103F900007FB1041534638F82100722280B200908E
:103FA00083210620FCF700FECDE9006903232246A9
:103FB0006F215620FEF7E2FE584600F06BFACCE780
:103FC000580000205461736B312052756E3A3030C6
:103FD00030000000008021420C000020C8CECEF14D
:103FE00031D2D1BEADD6B4D0D0A3BA2564B4CE0DF3
:103FF0000A000000C8CECEF131C9BEB3FDC1CBC8A6
:10400000CECEF132210D0A001CB5284D00244FF40C
:104010009D732C80EA226E217D20FCF753FD8223C4
:10402000EA2219467D20FCF7F3FC1F20288010258A
:104030001FA0CDE900502B466E226F217E20FEF797
:1040400073FE1F4EDFF87C9080274FF00E0840F281
:10405000391A4FF47A7B641CD6F89401E4B210B399
:104060000020C6F89401214617A0FCF727F9CDE9F6
:104070000057032322466F21CE20FEF77FFEB4FBBC
:10408000F8F108FB1140C0F10D01534639F8210049
:10409000E92280B2009083217E20FCF785FD5846FE
:1040A00000F0F8F9D7E70120DBE700005800002016
:1040B0005461736B322052756E3A3030300000001C
:1040C000000023420C000020C8CECEF132D2D1BE77
:1040D000ADD6B4D0D0A3BA2564B4CE0D0A0000008A
:1040E00070B5054686B0012144F20400FEF70EFFCC
:1040F0004FF40070ADF8100003248DF81240182022
:104100001D4E8DF8130004A93046FCF7BBFB30159B
:10411000ADF8100004208DF8130004A93046FCF718
:10412000B1FB25208DF814008DF815408DF8164050
:1041300001208DF8170005A8FEF7A0FE0020ADF8BD
:104140000400ADF80600ADF80800ADF80C000C2036
:104150000A4CADF80A00009569462046FFF77EF844
:10416000012240F225512046FFF75FF80121204649
:10417000FFF732F806B070BD00080140003801407A
:10418000D0E9013201699A60D0E901235A604A6896
:10419000824201D182684A60002202610868401EA2
:1041A0000860704700F108014FF0FF32C0E90112CA
:1041B000C160016100210160704700210161704709
:1041C00030B50C68621C02D000F1080202E00269FE
:1041D00004E01A4653681D68A542FAD953684B603B
:1041E00099608A60516008610168491C016030BDB6
:1041F00042684A6093688B60936859609160086177
:104200000168491C01607047502080F31188BFF39A
:104210004F8FBFF36F8F09494868401C48600128E1
:104220000AD10748006810F0FF0F05D04FF4BD72A7
:1042300004A10FA0FCF742B870470000E400002082
:1042400004ED00E02E2E5C4672656552544F535CBF
:10425000706F727461626C655C525644535C41527B
:104260004D5F434D335C706F72742E63000000002D
:104270004572726F723A25732C25640D0A00000096
:1042800010B5084C606828B940F2811206A111A04F
:10429000FCF714F86068401E606001D180F311885B
:1042A00010BD0000E40000202E2E5C4672656552B1
:1042B000544F535C706F727461626C655C5256440B
:1042C000535C41524D5F434D335C706F72742E638B
:1042D000000000004572726F723A25732C25640D40
:1042E0000A00000070B500282AD0164DA0F108047D
:1042F0006068E968084205D14FF4A07212A11CA0C1
:10430000FBF7DCFF206828B140F241120EA118A093
:10431000FBF7D4FF6068E968084211D02268002AE0
:104320000ED18843606000F05FFA606869680844F5
:1043300068602046FFF7BCFABDE8704000F010BF8F
:1043400070BD0000CC0000202E2E5C4672656552C8
:10435000544F535C706F727461626C655C4D656D37
:104360004D616E675C686561705F342E63000000AC
:104370004572726F723A25732C25640D0A00000095
:1043800006484FF47A710068B0FBF1F14FF0E0207D
:10439000491E41610721016170470000440000206F
:1043A00010B5FBF765FF104C10280CD300F1E0208E
:1043B00090F8F0032178884205D24FF42A720BA1BD
:1043C00015A0FBF77BFF18480068A16800F4E060C7
:1043D000884207D9BDE810404FF42E7203A10EA009
:1043E000FBF76CBF10BD0000E40000202E2E5C46E1
:1043F00072656552544F535C706F727461626C6584
:104400005C525644535C41524D5F434D335C706F78
:1044100072742E63000000004572726F723A257349
:104420002C25640D0A0000000CED00E010B5074BD0
:10443000002253F832401CB1521C082AF9D310BD97
:1044400043F8321003EBC201486010BDC8010020E0
:1044500070B515460E460446FFF7D6FE94F9441093
:104460000020491C01D184F8440094F94510491CEE
:1044700001D184F84500FFF703FFA06B28B92A4655
:10448000314604F1240000F0D1F82046BDE8704028
:10449000FFF724BC10B5040012D00E49096B29B1F6
:1044A00040F2CF420CA111A0FBF708FF00F09CF9ED
:1044B00000212046FFF71CF800F052FE002807D12B
:1044C0000E494FF080500860BFF34F8FBFF36F8FDE
:1044D00010BD00007C0000202E2E5C4672656552E7
:1044E000544F535C7461736B732E63004572726F2B
:1044F000723A25732C25640D0A00000004ED00E0DB
:1045000070B50446FFF780FE234D04B92C68201DCA
:10451000FFF736FE58B9E06A204A00EB800152F8F6
:10452000211021B901218140286988432861A06AAE
:1045300018B104F11800FFF723FE686A401C686296
:104540002868844207D1211D1548FFF751FE68688D
:10455000401C686007E0A868401EA8602046FFF77E
:1045600002F9FFF71BFBFFF78BFE6869002812D0EA
:10457000286884420FD1286B28B140F2654209A116
:104580000DA0FBF79BFE10494FF080500860BFF371
:104590004F8FBFF36F8F70BD7C000020080200209A
:1045A000C40400202E2E5C4672656552544F535C45
:1045B0007461736B732E63004572726F723A257368
:1045C0002C25640D0A00000004ED00E001490120E3
:1045D000C86170477C00002070B50D46040005D10D
:1045E00040F6063207A10CA0FBF768FE0E480168F2
:1045F00020461831FFF7E4FD2846BDE87040012150
:10460000FEF776BF2E2E5C4672656552544F535CA2
:104610007461736B732E63004572726F723A257307
:104620002C25640D0A0000007C00002070B51446A3
:104630000E46050005D140F6313209A10DA0FBF769
:104640003DFE1048016828461831FFF7D1FD0CB136
:104650004FF0FF3621463046BDE87040FEF748BFB8
:104660002E2E5C4672656552544F535C7461736BB9
:10467000732E63004572726F723A25732C25640D98
:104680000A0000007C00002070B5040039D01D4DE8
:10469000E06A2968C96A884233D2A069002804DB2D
:1046A0002868C06AC0F12000A061E06A164E00EBE5
:1046B0008000616906EB800081421FD1201DFFF759
:1046C0005FFD012150B9E06A00EB800256F822201C
:1046D00022B92A6901FA00F082432A612868C06A77
:1046E000E0622A6981401143296100EB800006EBFA
:1046F0008000211DBDE87040FFF77ABD2868C06AC0
:10470000E06270BD7C0000200802002010B50400AB
:1047100005D140F6C13205A109A0FBF7CFFD0C4839
:10472000016A2160C068606010BD00002E2E5C46EA
:1047300072656552544F535C7461736B732E6300E2
:104740004572726F723A25732C25640D0A000000C1
:104750007C0000201CB517480024CDE9004023460A
:10476000822215A1164800F0A1FB012803D100F018
:10477000A3FD01280AD0401C1BD102B040F2847274
:10478000BDE810400FA114A0FBF798BD502080F3A6
:104790001188BFF34F8FBFF36F8F06484FF0FF3183
:1047A0002C38816201214161C460BDE81C4000F0E9
:1047B00061B81CBDA800002049444C450000000021
:1047C000C93700082E2E5C4672656552544F535C03
:1047D0007461736B732E63004572726F723A257346
:1047E0002C25640D0A0000000248016B491C01637E
:1047F000704700007C00002070B5134D286B10B18D
:104800000120E86170BD0020E86128690F4EB0FA10
:1048100080F0C0F11F0000EB800456F8240028B996
:1048200040F6F6220AA10FA0FBF748FD06EB840034
:1048300000F10802416849684160914201D149682C
:104840004160C868286070BD7C000020080200201C
:104850002E2E5C4672656552544F535C7461736BC7
:10486000732E63004572726F723A25732C25640DA6
:104870000A0000001CB51A4908780190FF20087052
:1048800008788DF800009DF80000164A00F05000EE
:1048900010700720906007E09068401E90609DF8BF
:1048A000000040008DF800009DF800000006F3D4E1
:1048B000107A000200F4E0609060019808700A48E5
:1048C000016841F470010160016841F070410160CC
:1048D000FFF756FD00205060FBF794FC00201CBD44
:1048E00000E400E0E400002020ED00E010B55020DE
:1048F00080F31188BFF34F8FBFF36F8F00F016FB6B
:1049000018B104494FF080500860002080F31188EE
:1049100010BD000004ED00E02DE9F04117460E4601
:10492000050005D14FF4C47210A115A0FBF7C6FC19
:10493000BEB105FB06F05430FFF70CFA04000ED0B0
:1049400004F154007EB12060C4E90F5620460121D5
:1049500000F0E0F884F8507000212046A164BDE822
:10496000F0810020E7E72460EEE700002E2E5C4691
:1049700072656552544F535C71756575652E6300A1
:104980004572726F723A25732C25640D0A0000007F
:104990002DE9FF4F83B09B468A4604004FF0000686
:1049A00005D140F2DC4251A155A0FBF787FCBAF1DA
:1049B000000F07D1206C28B140F2DD424BA150A07E
:1049C000FBF77CFC00F09EFA38B9059828B14FF44B
:1049D0009C6246A14AA0FBF771FC4FF000094FF022
:1049E0008057DFF82C81FFF70FFCA56B45B35146CC
:1049F0002046E668FEF76EFEBBF1000F13D0E660BE
:104A0000606A50B104F1240000F05EFB28B1C8F8E0
:104A10000070BFF34F8FBFF36F8FFFF731FC0120A2
:104A200007B0BDE8F08F6D1EA563206810B9FFF7D1
:104A30001BFA606020690028EFD004F11000E3E762
:104A4000059808B11EB106E0FFF71AFC27E068469A
:104A5000FFF75CFE0126FFF713FCFFF7C5FEFFF72B
:104A6000D3FB94F94400401C01D184F8449094F99C
:104A70004500401C01D184F84590FFF701FC05A9D1
:104A8000684600F0CFF9002820460AD0FFF726F943
:104A900000F066FB2046FEF74DFF0028A3D0002063
:104AA000BEE7FEF747FFD8B1206830B9FFF7ACFB8F
:104AB0006068FFF7E9FDFFF7E3FB04F124000599C7
:104AC000FFF78AFD2046FFF709F900F049FB0028AF
:104AD00089D1C8F80070BFF34F8FBFF36F8F82E7A3
:104AE0002046FFF7FBF800F03BFB7CE72E2E5C46F0
:104AF00072656552544F535C71756575652E630020
:104B00004572726F723A25732C25640D0A000000FD
:104B100004ED00E070B50D46040005D140F21B1213
:104B20001CA121A0FBF7CAFBFFF76EFBD4E90F2005
:104B3000216802FB001161600021A1632168A1606E
:104B40000A46D4E90F01401E00FB0121E160214625
:104B50004FF0FF3001F8440F487004F110004DB1E0
:104B6000FFF720FB04F12400FFF71CFBFFF788FB95
:104B7000012070BD21690029F8D000F0A5FA0028B5
:104B8000F4D00D494FF080500860BFF34F8FBFF352
:104B90006F8FEBE72E2E5C4672656552544F535C67
:104BA00071756575652E63004572726F723A257373
:104BB0002C25640D0A00000004ED00E02DE9FF4FF4
:104BC00083B099468B4604004FF0000605D140F2B1
:104BD000D92252A156A0FBF771FBBBF1000F07D100
:104BE000206C28B140F2DA224CA151A0FBF766FB01
:104BF000B9F1020F08D1E06B012805D040F2DB22A9
:104C000046A14BA0FBF75AFB00F07CF938B9059898
:104C100028B140F2DE2241A145A0FBF74FFB4FF047
:104C2000000A4FF08057DFF81881FFF7EDFAA06B0C
:104C3000E16B884206D3B9F1020F03D0059800B3A7
:104C400016B325E04A4659462046FEF756FDA16CAC
:104C500021B149462046FEF77BFE05E0616A19B1A5
:104C600004F1240000F030FA28B1C8F80070BFF356
:104C70004F8FBFF36F8FFFF703FB012007B0BDE835
:104C8000F08FFFF7FDFA21E06846FFF73FFD0126B0
:104C9000FFF7F6FAFFF7A8FDFFF7B6FA94F944001C
:104CA000401C01D184F844A094F94500401C01D176
:104CB00084F845A0FFF7E4FA05A9684600F0B2F8C9
:104CC00030B12046FFF70AF800F04AFA0020D5E795
:104CD000FFF79AFAA06BE16B884201D1012500E051
:104CE0000025FFF7CDFA95B104F110000599FFF703
:104CF00073FC2046FEF7F2FF00F032FA002894D150
:104D0000C8F80070BFF34F8FBFF36F8F8DE7204659
:104D1000FEF7E4FF00F024FA87E700002E2E5C4641
:104D200072656552544F535C71756575652E6300ED
:104D30004572726F723A25732C25640D0A000000CB
:104D400004ED00E02DE9F047984615468946040039
:104D500005D140F29F322AA12EA0FBF7AFFAB9F19C
:104D6000000F07D1206C28B14FF4687224A129A04C
:104D7000FBF7A4FAB8F1020F08D1E06B012805D0C7
:104D800040F2A1321EA123A0FBF798FAFFF708FB1F
:104D90005020EFF3118780F31188BFF34F8FBFF3DB
:104DA0006F8FA06BE16B884207D3B8F1020F04D07C
:104DB000002087F31188BDE8F08794F945604246EA
:104DC00049462046FEF799FC701C04D0761C84F8F6
:104DD00045600120EDE7A06C012620B14146204648
:104DE000FEF7B6FD06E0606A0028F2D004F1240068
:104DF00000F06AF90028ECD0002DEAD02E60E8E738
:104E00002E2E5C4672656552544F535C7175657504
:104E1000652E63004572726F723A25732C25640DFE
:104E20000A00000070B50D46040005D140F6CB32F3
:104E300014A119A0FBF742FA2DB940F6CC3211A10A
:104E400015A0FBF73BFAFFF7DFF9174AD06829688E
:104E50004B1C0FD02368126A934202D062688242D0
:104E60000AD96268801A884206D2081A2860204649
:104E7000FFF74CFC002400E00124FFF701FA204674
:104E800070BD00002E2E5C4672656552544F535C17
:104E90007461736B732E63004572726F723A25737F
:104EA0002C25640D0A0000007C0000202DE9FF5F26
:104EB0008346DDE90E87994616468A469000FEF73E
:104EC00049FF05001AD05C20FEF744FF040012D011
:104ED00025630021CDE90241CDE900874B463246EA
:104EE00051465846FEF784FC2046FEF739FB012068
:104EF00004B0BDE8F09F2846FFF7F4F94FF0FF300B
:104F0000F6E700000548416919B1006B18B10020AF
:104F10007047012070470220704700007C0000208D
:104F20000148C068704700007C0000202DE9F04176
:104F30002D4F0026386B40B1B869401CB861F86944
:104F400000B101263046BDE8F081FD686D1CFD60B2
:104F500011D1786B006828B140F6D91223A128A09E
:104F6000FBF7ACF9786BB96B7963B863386A401CAE
:104F70003862FEF713FEB86ADFF89480854209D3E1
:104F8000786B006880B1786BC068C46860688542DF
:104F90000DD2B8623868C06A00EB800158F8210071
:104FA0000128CCD90126CAE74FF0FF30F1E7201DD8
:104FB000FFF7E6F8A06A18B104F11800FFF7E0F86F
:104FC000E06A01213A6981401143396100EB8001B7
:104FD00008EB8100211DFFF70BF9E06A3968C96A07
:104FE0008842CDD30126CBE77C0000202E2E5C46E4
:104FF00072656552544F535C7461736B732E63001A
:105000004572726F723A25732C25640D0A000000F8
:105010000802002070B504004FF000063CD01F4D80
:105020002868844205D040F6C7621DA121A0FBF785
:1050300045F9206D28B940F6C96219A11DA0FBF7FA
:105040003DF9206D401E2065E26CE16A914223D05B
:1050500010BB201DFFF794F81A49012250B9E06AED
:1050600000EB800351F8233023B92B6902FA00F0DA
:1050700083432B61E06CE062C0F12000A061E06A34
:105080002B6982401A432A6100EB800001EB80000B
:10509000211DFFF7ADF80126304670BD7C000020D1
:1050A0002E2E5C4672656552544F535C7461736B6F
:1050B000732E63004572726F723A25732C25640D4E
:1050C0000A000000080200202DE9F041C068C46811
:1050D0002CB940F6613216A11AA0FBF7EFF804F1E3
:1050E00018000746FFF74CF81A4D286B012660B1EF
:1050F00039461948FFF77CF8E06A2968C96A88428E
:1051000013D90120EE61BDE8F081201DFFF738F8CA
:10511000E06A2A6906FA00F1114329610F4900EBA0
:10512000800001EB8000211DE4E70020EBE7000098
:105130002E2E5C4672656552544F535C7461736BDE
:10514000732E63004572726F723A25732C25640DBD
:105150000A0000007C000020B004002008020020AB
:105160002DE9F0472B4D00242746286B28B94FF432
:10517000FD6229A12DA0FBF7A1F8FFF745F8286BE8
:10518000401E2863286BE8BBA8682C490126C8B3D9
:10519000A1F52A798846D8F80010E9B1D8F80C00B2
:1051A000C46804F11800FEF7EBFF201DFEF7E8FFCE
:1051B000E06A2A6906FA00F11143296100EB8001D7
:1051C00009EB8100211DFFF713F8E06A2968C96A1D
:1051D0008842E0D3EE61DEE70CB1FEF7DFFCAC699C
:1051E0003CB1FFF7A3FE00B1EE61641EF9D10020CF
:1051F000A861E86930B11249012738070860BFF398
:105200004F8F00E001E0BFF36F8FFFF739F83846AA
:10521000BDE8F0877C0000202E2E5C46726565524A
:10522000544F535C7461736B732E63004572726FDD
:10523000723A25732C25640D0A000000B00400208A
:1052400004ED00E02DE9F0470746994616460D4665
:105250002C20DDF820A0FEF77DFD040014D0B84618
:105260004F46D1462DB94FF4C67209A10EA0FBF7E7
:1052700025F8FEF7DDF904F11801C4F8008081E893
:10528000E002201DFEF799FF2046BDE8F0870000F0
:105290002E2E5C4672656552544F535C74696D6581
:1052A00072732E63000000004572726F723A2573AC
:1052B0002C25640D0A0000001CB50024FEF7B8F987
:1052C0000C48006868B10B491F20091DCDE9000199
:1052D00000234FF4827208A10948FFF7E7FD04009C
:1052E00005D140F2331207A10CA0FAF7E7FF2046E0
:1052F0001CBD0000B8000020546D7220537663007E
:10530000B53C00082E2E5C4672656552544F535CC6
:1053100074696D6572732E63000000004572726FD0
:10532000723A25732C25640D0A0000002DE9FF4711
:10533000DDF830A0994690460D4606004FF0000774
:1053400005D14FF4D37212A117A0FAF7B7FF1A4C88
:10535000206880B1CDE900580296062D11DAFFF7DA
:10536000D1FD02284FF0000309D0002269462068D1
:10537000FFF724FC074604B03846BDE8F0875246E4
:10538000F4E700234A466946FFF7DCFCF2E7000039
:105390002E2E5C4672656552544F535C74696D6580
:1053A00072732E63000000004572726F723A2573AB
:1053B0002C25640D0A000000B80000204FEA1153AC
:1053C000A3F58063D3F11E03A8BFD3F1200C08DB43
:1053D0004FF0004242EAC12252EA505232FA03F040
:1053E000704709420BD4102BC4BF0020704703F54F
:1053F000787CBCF1FF3F05D04FF0FF3070474FF095
:105400000000704770B500F0C3F800BF49922480D7
:1054100000207047F0E7B0FA80F310FA03F10AD0E9
:10542000C3F11D0303F580634FEA41504FEA035275
:1054300002EBD12170474FF000007047DFF848C100
:1054400070B51CEA111E1EBF1CEA13159EEA0C0F54
:1054500095EA0C0F00F06F8081EA030423EA4C13F5
:105460004EEAD47E21EA4C1141F4801143F48013BA
:10547000AE44A1FB024CA0FB0365AEF17F7E361962
:1054800055EB0C05A1FB034C4CF10003A0FB021CE7
:1054900016EB0C06654153F10003094218BF46F0B4
:1054A000010613F4007F0BD14FEA03314FEA0530B8
:1054B000340341EA155140EA16506FF003020AE046
:1054C0004FEAC3214FEAC520F40241EA555140EAB0
:1054D00056506FF0020202EB2E4201EB025585EAB4
:1054E000CE710AD05FEA440C18BF24F0004450F19A
:1054F000000041F1000120EAD47040F2FE7C6245D8
:1055000000D270BDA84214BF4FF080444FF0404419
:10551000002E08BF0024BEF1806FA8BFA1F1C041DA
:10552000BDE8704080F282804FF0000001F1C04180
:1055300001F0004170479EEA0C0F0CEA131518BFEA
:1055400095EA0C0F06D04FF0000081EA030E0EF032
:10555000004170BD00F01CF88900013E00F007B862
:1055600000F009B84FEA430C5FEA5C5C08D081EABE
:10557000030100F05BB84FEA410C5FEA5C5CF6D1D6
:105580004FF00000014970470000FF070000F87F5E
:105590000EF1020E2EF0030E5EF8046B364205D4B7
:1055A000012A43EB030515F5001F12D8012841EB32
:1055B000010C1CF5001F0CD80ED14FEAD17C15F55B
:1055C000001F0CEB4C0C0CF1020C08BF4CEBD37C15
:1055D00004E04FF0080C01E04FEAD37C0CEB4C05E3
:1055E00026FA05F606F00706B6F1040C06D20EEB15
:1055F000860CBDE870404CF0010C6047DFE80CF011
:10560000090B02024FF000414FF00000A1F500210C
:1056100070BD19461046012851EB010418BFD4F59E
:10562000001484BF002001F0004170BD0808A0F5FF
:1056300000114FEA31017047000000000000000037
:1056400000000000000000003F40000000000000DB
:1056500000003000400030004000000009000BC096
:105660003D000BC03D00090018C024407FE02240EF
:1056700031800000180024C01B000D8032400180E2
:1056800003801C4027401C80074000401000600041
:1056900000000000000000000000000000001F806B
:1056A000204040200000402020401F8000000000DB
:1056B000090006001F800600090000000400040025
:1056C0003F800400040000000010006000000000A3
:1056D00000000000040004000400040004000000B6
:1056E000000000400000000000000000002001C099
:1056F00006003800400000001F802040204020406D
:105700001F800000000010403FC00040000000006B
:1057100018C0214022402440184000001080204042
:10572000244024401B80000002000D0011003FC0F7
:10573000014000003C80244024402440238000009D
:105740001F802440244034400380000030002000AB
:1057500027C03800200000001B8024402440244043
:105760001B8000001C0022C0224022401F8000003D
:1057700000000000084000000000000000000000E1
:105780000460000000000000000004000A00110096
:1057900020804040090009000900090009000000BC
:1057A00000004040208011000A0004001800200082
:1057B00023402400180000001F802040274029407B
:1057C0001F400000004007C039000F0001C000402A
:1057D00020403FC0244024401B8000001F80204008
:1057E000204020403080000020403FC0204020402A
:1057F0001F80000020403FC024402E4030C00000E9
:1058000020403FC024402E00300000000F001080D8
:10581000204022403380020020403FC004000400AA
:105820003FC02040204020403FC02040204000009A
:105830000060202020203FC02000200020403FC0EA
:1058400024400B0030C0204020403FC0204000409A
:10585000004000C03FC03C0003C03C003FC000000F
:1058600020403FC00C4023003FC020001F8020404C
:10587000204020401F80000020403FC024402400E2
:10588000180000001F802140214020E01FA00000E0
:1058900020403FC02440260019C0004018C02440CA
:1058A0002440224031800000300020403FC0204092
:1058B0003000000020003F80004000403F8020007A
:1058C00020003E0001C0070038002000380007C05B
:1058D0003C0007C038000000204039C0060039C035
:1058E000204000002000384007C038402000000061
:1058F000304021C02640384020C000000000000099
:105900007FE0402040200000000070000C00038079
:10591000004000000000402040207FE00000000028
:1059200000002000400020000000000000100010D7
:1059300000100010001000100000000040000000E7
:1059400000000000000002800540054003C0004048
:1059500020003FC00440044003800000000003809A
:10596000044004400640000000000380044024403E
:105970003FC0004000000380054005400340000098
:10598000000004401FC0244024402000000002E02A
:10599000055005500650042020403FC0044004003C
:1059A00003C000400000044027C000400000000089
:1059B00000100010041027E00000000020403FC04D
:1059C0000140070004C00440204020403FC0004088
:1059D0000040000007C0040007C0040003C000002E
:1059E000044007C00440040003C0004000000380DE
:1059F0000440044003800000041007F004500440F9
:105A000003800000000003800440045007F00010F1
:105A1000044007C0024004000400000000000640EB
:105A20000540054004C00000000004001F80044041
:105A300000400000040007800040044007C0004010
:105A40000400070004C0018006000400060001C035
:105A5000070001C006000000044006C0010006C0A7
:105A6000044000000410071004E001800600040058
:105A70000000044005C00640044000000000000093
:105A800004007BE040200000000000000000FFF068
:105A900000000000000040207BE004000000000047
:105AA0004000800040002000200040000000000076
:105AB00000000000000000000000000000000000E6
:105AC00000001FCC000C00000000000000000800D7
:105AD000300060000800300060000000022003FC7D
