:020000040800F2
:10000000A8FC00202D020008A336000851100008AB
:10001000A1360008B5090008C55B00080000000013
:10002000000000000000000000000000E75500088C
:10003000970C000800000000C93C0008FB570008AE
:10004000470200084702000847020008470200086C
:10005000470200084702000847020008470200085C
:10006000470200084702000847020008470200084C
:10007000470200084702000847020008470200083C
:10008000470200084702000847020008470200082C
:10009000470200084702000847020008470200081C
:1000A000470200084702000847020008470200080C
:1000B00047020008470200084D58000847020008A0
:1000C00047020008470200084702000847020008EC
:1000D00047020008295A00084702000847020008A2
:1000E00047020008470200084702000847020008CC
:1000F00047020008470200084702000847020008BC
:10010000470200088D410008470200084702000826
:100110004702000847020008895800084702000803
:10012000470200084702000847020008470200088B
:1001300000F002F800F06BF80AA090E8000C82448E
:100140008344AAF10107DA4501D100F060F8AFF26B
:10015000090EBAE80F0013F0010F18BFFB1A43F0A5
:1001600001031847B0B10000D0B100000A444FF0BD
:10017000000C10F8013B13F0070408BF10F8014B06
:100180001D1108BF10F8015B641E05D010F8016B4B
:10019000641E01F8016BF9D113F0080F1EBF10F8AF
:1001A000014BAD1C0C1B09D16D1E58BF01F801CBD2
:1001B000FAD505E014F8016B01F8016B6D1EF9D555
:1001C0009142D6D37047000000230024002500266A
:1001D000103A28BF78C1FBD8520728BF30C148BFAA
:1001E0000B607047642900F0D580752900F0D2803B
:1001F000782900F00B81632900F03983732900F01E
:100200003E83002070471FB51FBD10B510BD00F024
:1002100083FB1146FFF7F7FF07F0E2F900F0A1FBBF
:1002200003B4FFF7F2FF03BC05F041FE0948804725
:1002300009480047FEE7FEE7FEE7FEE7FEE7FEE7C8
:10024000FEE7FEE7FEE7FEE704480549034A054BE3
:1002500070470000FD57000831010008A8F8002091
:10026000A8FC0020A8F80020704710B54C1084EAC4
:10027000530404D54042C1F1000138BF491E1B425E
:1002800004D55242C3F1000338BF5B1E00F0F7F9FA
:1002900014F0804F04D04042C1F1000138BF491E24
:1002A00014F0004F04D05242C3F1000338BF5B1E6C
:1002B00010BD00000FB4044910B503AA029800F065
:1002C000E3FA10BC5DF814FB380000200FB41CB535
:1002D000074B06AA7B4469460090059800F0A5FAF2
:1002E0000020694600F0B4FA1CBC5DF814FB000065
:1002F0007905000070B5044685690068C10601D51E
:10030000302600E02026C00707D070BDD4E90121C7
:1003100030469047206A401C20626D1EF6D570BDA5
:1003200070B5044685690078C00707D170BDD4E96F
:10033000012120209047206A401C20626D1EF6D5C6
:1003400070BD70B50C460546012A05D02878800698
:1003500000D5EA69002302E0012305E05B1C93421B
:1003600002D2E05C0028F9D1A869E618C01AA86199
:10037000286A184428622846FFF7BCFF04E0D5E944
:10038000012114F8010B9047B442F8D32846FFF737
:10039000C7FF70BD2DE9F04106460024106875299D
:1003A000314616A510D0AFF30080002802DA404293
:1003B00013A507E031688A0701D512A502E04907B5
:1003C00004D511A5012401E0AFF3008000210A2229
:1003D00006F1240709E0B0FBF2FCB0FBF2F302FBEC
:1003E0001C00303078541846491C0028F3D12346AD
:1003F0002A463046BDE8F04100F0B8B900000000E0
:100400002D0000002B0000002000000070B5044605
:100410000D4621461068AFF300802188090502D5FA
:100420000F4A7A4402E00E4A7A440E32002104F167
:10043000240305E000F00F060009965D5E54491C98
:100440000028F7D120780023000704D5702D02D0B2
:1004500009B1022311322046BDE8704000F086B990
:1004600010AC00002DE9F05F894604464FF0000A09
:10047000DFF874B1FB44C0F820A02046E16888474B
:10048000002874D0252806D0D4E901219047206A9D
:10049000401C2062F1E700265F462046E16888475D
:1004A0002028054607DB312D05D2781910F8200CDD
:1004B00008B10643F1E7B00701D526F00406C4F8F9
:1004C0001CA00027C4F818A02A2D09D0284605F042
:1004D000E7FC38B304EB8708303DC8F8185019E042
:1004E00059F8041B204604EB87029161E1688847B4
:1004F000012F054618D1E069002820DA26F02006F1
:100500001DE0D8F8180000EB800005EB4000303803
:10051000C8F818002046E1688847054605F0C0FC89
:100520000028EED1012F0AD02E2D08D12046E168F7
:1005300088477F1C0546022F46F02006C4DBA069D1
:10054000002803DA404246F00106A061F00701D01E
:1005500026F010066C2D0BD0682D09D04C2D39D00B
:100560006A2D35D0742D35D07A2D33D016E038E091
:10057000E1682F4620468847B842054609D16C2FCE
:1005800026D04FF48060E168064320468847054640
:1005900004E06C2F1AD04FF4807006430DB3A5F120
:1005A0004100192802D8203546F400664A462946FB
:1005B000204626604E46FFF715FE80B101280BD07D
:1005C000F61D26F0070000F1080956E74020E4E791
:1005D0008020D8E70020D6E706F104094DE7284639
:1005E00052E7206ABDE8F09FE6AB0000032A40F224
:1005F000308010F0030C00F0158011F8013BBCF1C5
:10060000020F624498BF11F801CB00F8013B38BFDC
:1006100011F8013BA2F1040298BF00F801CB38BFEA
:1006200000F8013B11F0030300F04081083AC0F0EC
:10063000088051F8043B083A51F804CBA0E80810B0
:10064000F5E7121D5CBF51F8043B40F8043BAFF3E3
:100650000080D20724BF11F8013B11F801CB48BF3D
:1006600011F8012B24BF00F8013B00F801CB48BF73
:1006700000F8012B7047704770477047704753EA86
:10068000020C00F069802DE9F04B4FF00006002BC2
:100690001FBFB3FA83F503FA05F424FA05F65E40AA
:1006A00012BF1643B2FA82F502FA05F4C5F120052D
:1006B0001EBF22FA05FC44EA0C04203556EA044C1D
:1006C0004FEA144418BF641C4FF000084FF00009B3
:1006D000904271EB030C39D3002919BFB1FA81F7AD
:1006E00001FA07F6B0FA80F700FA07F6C7F120071B
:1006F0001EBF20FA07FC46EA0C062037B6FBF4FCC6
:10070000A7EB0507103F07F01F0BCBF120060CFAF3
:100710000BFB2CFA06F644BFB3460026202FA4BFDD
:100720005E464FF0000B5BEA060C08BF4FF0010B72
:1007300019EB0B09ABFB027C48EB0608C01B06FB60
:1007400002CC0BFB03CC71EB0C01C1E70B4602465C
:1007500041464846BDE8F08B13B54FF000004FF01E
:100760000001AFF30080BDE81C4070472DE9F04761
:100770000D4699469246044600F124080168880611
:1007800004D5E06921F01001216000E00120A842B9
:1007900001DD471B00E00027A1697A1902EB09007F
:1007A000081AA0612078C00602D42046FFF7A2FDF7
:1007B000002608E0D4E901211AF806009047206AD3
:1007C000401C761C20624E45F4DB2078C0060AD51A
:1007D0002046FFF78FFD06E0D4E901213020904745
:1007E000206A401C2062381EA7F10107F4DC07E0F4
:1007F000D4E9012118F805009047206A401C2062C6
:10080000281EA5F10105F3DC2046FFF789FD2078BD
:10081000000602D50220BDE8F0870120FBE70000BA
:1008200001694A1C02610878704700B58FB0CDE9B4
:1008300001310021059105497944CDE903101146A4
:100840006846FFF70FFE0FB000BD0000E5FFFFFF99
:100850000A6802F8010B0A60704710B5436913B1CA
:10086000AFF3008001E0FFF76CFD012010BD1278AE
:1008700000F124010A7000224A700122EDE711689C
:100880004FF0FF32E9E70000074B70B50D467B449F
:10089000FFF7CBFF0446284600F03AF810B14FF0BE
:1008A000FF3070BD204670BD8F6B000010B5203A40
:1008B000C0F00B80B1E81850203AA0E81850B1E819
:1008C0001850A0E81850BFF4F5AF5FEA027C24BFCF
:1008D000B1E81850A0E8185044BF18C918C0BDE8C6
:1008E00010405FEA827C24BF51F8043B40F8043B8F
:1008F00008BF7047D20728BF31F8023B48BF11F844
:10090000012B28BF20F8023B48BF00F8012B70479D
:10091000007B00F080007047754600F02BF8AE4673
:1009200005006946534620F00700854618B020B5FB
:10093000FFF78AFCBDE820404FF000064FF00007AB
:100940004FF000084FF0000B21F00701AC46ACE877
:10095000C009ACE8C009ACE8C009ACE8C0098D46E4
:10096000704710B50446AFF300802046BDE8104044
:10097000FFF756BC0048704744F8002038B5012105
:10098000082003F0BBF94FF48074ADF8004010204C
:100990008DF803000320064D8DF8020069462846B5
:1009A00000F08AFA2146284600F007FB38BD000017
:1009B000000C0140FEE770B500254FF4803405E0DF
:1009C000802003F0D1FB08B144B101E0641EF7D2EE
:1009D00040F2FF5003F084FB284670BD032070BD39
:1009E00070B5124C0546616B11F0450FFBD0042029
:1009F00003F0BAFB20B1042003F072FB032070BDAA
:100A0000012003F0B1FB20B1012003F069FB0120BC
:100A100070BD2069A84201D0102070BD40F2FF5087
:100A2000A063606900F0080070BD00000080014014
:100A300010B500244FF480310E4809E0426B12F0EB
:100A4000450F05D009B1500705D5032404200CE05B
:100A5000491EF3D2F7E7012003F086FB18B1012409
:100A6000204603F03DFB40F2FF5003F039FB2046E7
:100A700010BD00000080014010B50A49486B10F01D
:100A8000450FFBD0042003F06FFB20B1042003F0DE
:100A900027FB032010BD40F2FF5003F021FB002094
:100AA00010BD0000008001402DE9F0411B4C0E46B6
:100AB00007460025606B10F0450FFBD0042003F0C3
:100AC00053FB28B1042003F00BFB0320BDE8F081A9
:100AD000012003F049FB20B1012003F001FB0120BC
:100AE000F4E72069B84210D140F2FF5003F0F8FA61
:100AF000626912F4604F03D0900404D51320E5E737
:100B0000100C308007E0500401D51020DEE71004FF
:100B100001D50F20DAE72846D8E700000080014021
:100B200010B500244FF480320B4809E0416B11F0FE
:100B3000450F05D00AB1480705D50324042006E077
:100B4000521EF3D2F7E7480603D50024402003F0F5
:100B5000C7FA204610BD000000800140002901684E
:100B600002D041F0010102E04FF6FE721140016037
:100B70007047000001684FF6FE72114001600021CD
:100B8000016041608160C1603149314A0839904259
:100B900003D1486840F00F0006E02D4A143290421D
:100BA00004D1486840F0F00048607047284A283275
:100BB000904203D1486840F47060F5E7244A3C3223
:100BC000904203D1486840F47040EDE7204A50322B
:100BD000904203D1486840F47020E5E71C4A643233
:100BE000904203D1486840F47000DDE7184A78323B
:100BF000904203D1486840F07060D5E7154A111F54
:100C0000904203D1086840F00F0006E0114A143208
:100C1000904204D1086840F0F000086070470D4A27
:100C20002832904203D1086840F47060F5E7094A21
:100C30003C32904203D1086840F47040EDE7054A29
:100C400050329042EAD1086840F47020E5E7000095
:100C5000080002400804024030B5026847F6F0730D
:100C60009A430C6A8B682343D1E904452C43234300
:100C70008C692343CC6923434C6A23438C6A234306
:100C800013430360CA6842600A6882604968C160B1
:100C900030BD4160704770478000A0F1C04000291E
:100CA000016802D041F0010101E0024A11400160F7
:100CB00070470000FEFF0F0010B5D0E9011211438C
:100CC000D0E903231A431143426911438269114356
:100CD000C2691143026A1143426A1143826A114395
:100CE000C26A1143026B114302689200A2F1C04232
:100CF00011608168082907D101688900A1F1C0410C
:100D00000A6842F040020A60416BD1E9002342EADE
:100D100003128B688C891B0243EA04431A430B8A33
:100D200042EA03520B7D896942EA03620A43016881
:100D30008900A1F1C0414A60C16AB1F5804F08D075
:100D400000686FF070418000A0F1C040C0F804114D
:100D500010BD816BD1E9002342EA03128B680C8A33
:100D60001B0243EA04531A430B7D896942EA03627A
:100D700000680A438000A0F1C040C0F8042110BD03
:100D80002DE9FC470024494F00944FF0080A0194D4
:100D900010204FF04009C7F800A0C7E901094FF43F
:100DA0008068C7E903480E462546384603F00CFA2A
:100DB0001020FFF715FE00284DD13D4800890004A2
:100DC00038603720C7E90109C7E90358384603F0FE
:100DD000FBF93720FFF704FE00283CD1411E07F144
:100DE0001400C0E9001A302181600221C0E9031516
:100DF0000121416103F090F93320C7F80890C7E959
:100E00000050C7E90358384603F0DEF93320FFF7F6
:100E1000E7FD05001FD1DFF89C804FF4001A6F46F4
:100E200040F22A69D8F8340010EA090F0BD1504675
:100E300003F09AF90028F5D003F0C0F947F8240030
:100E4000641C022CEED3082003F08EF928B1082090
:100E500003F046F90420BDE8FC87022003F084F982
:100E600020B1022003F03CF90220F4E7202003F037
:100E70007BF920B1202003F033F90620EBE74FF493
:100E80000074204603F070F920B1204603F028F9E1
:100E90000720E0E740F2FF5003F022F9009800BA83
:100EA0007060019800BA30602846D4E758020020EC
:100EB0002000002000800140F0B5CC78002204F032
:100EC0000F03E40601D58C7823430C784FF00F0C08
:100ED00014F0FF0F4FF0010E1BD005680E880EFABC
:100EE00002F42640A64210D196000CFA06F725EA35
:100EF000070703FA06F5CE783D43282E02D0482E88
:100F000002D002E0446100E00461521C082AE5D3EB
:100F100005600A88FF2A1CD94468002202F10806ED
:100F20000EFA06F50E882E40AE420ED196000CFA4F
:100F300006F7BC4303FA06F7CE783C43282E00D1CF
:100F40004561CE78482E00D10561521C082AE5D3B0
:100F50004460F0BDF0B5144C002801DAE36900E00C
:100F60006368450D2E0185B2C0F30157B540C0F34B
:100F70000342032F05D0C6020AD503269640B34389
:100F800007E023F07062636823F07063636002E03F
:100F9000AB4343F0706201B12A43002801DAE261F9
:100FA000F0BD6260F0BD000000000140024600207C
:100FB00092680A4200D00120704741617047016188
:100FC0007047000030B40C4601461546500700D06B
:100FD000012000EBD5006843C2B208784B78812825
:100FE00009D3402B07D3FF2B05D0FF2803D07F2B3D
:100FF0000CD2403B0BE00023184603E05B1C04F8D6
:10100000010BDBB29342F9D330BC7047413B8138CE
:10101000D9B2C0B2C0EB401303EB801001EB40002B
:1010200050430A490C2D0AD0102D0BD0182DEBD1AE
:10103000D1F819100144204630BC04F01DBED1F88F
:101040000910F7E7D1F81110F4E7000020F80020AC
:10105000FEE772B6704762B6704700007CB5054681
:1010600000211E4800910191008902041C48026081
:101070000D2242604022C0E902211101016103F00A
:10108000A3F8184C606B0190014601E0616B01917F
:1010900011F0450FFAD0012003F066F820B10120CD
:1010A00003F01EF801207CBD042003F05DF820B1A0
:1010B000042003F015F803207CBD20690D2801D021
:1010C00010207CBD40F2FF5003F00AF860690090E8
:1010D000C0F34320287000207CBD000020000020C9
:1010E000580200200080014008B50121442002F090
:1010F00005FE1C20ADF8000048208DF8030069466D
:101100000648FFF7D9FE0120ADF8000028208DF831
:10111000030069460248FFF7CFFE08BD00180140F2
:10112000000801402DE9F0412E4C2F4F2F4D012694
:1011300008B1267001E02078A0B110212846FFF701
:1011400035FFB0B108212846FFF730FF88B10421F0
:101150002846FFF72BFF60B101213846FFF726FF35
:10116000012806D010212846FFF720FF012824D0AF
:1011700035E00A2005F086F900202070102128466D
:10118000FFF714FF80B108212846FFF70FFF70B169
:1011900004212846FFF70AFF58B101213846FFF71E
:1011A00005FF012807D01AE00120BDE8F0810220E8
:1011B000FBE70320F9E70420F7E708212846FFF7BB
:1011C000F5FE01280BD104212846FFF7EFFE012888
:1011D00005D101213846FFF7E9FE00B9267000204D
:1011E000E3E700001800002000080140001801405B
:1011F00070B509490646002408884D8821464543B4
:10120000204602F0EBF802F0D3F9044801E0068032
:10121000641CAC42FBD370BD2C0200200008006CA3
:101220002DE9F04F2B4B2C27194698712B258988D7
:101230004FF4305A4FF4285B4FF4487441F6631E64
:101240002A264FF0F00845F210594FF4A07C4FF4D5
:10125000F072C8B1A3F800C0A3F80280494533D1A9
:10126000A3F808A0A3F80AB0280298811C805A802D
:10127000A1F5A640103802D11A80A3F802C0BDE83B
:10128000F04F002002F008B8A3F80080A3F802C0D5
:10129000494507D1A3F808A0A3F80AB04FF42C5091
:1012A000988104E071451F8104D15D819E811A807F
:1012B0005C8001E05E819D81A1F5A6401038DED101
:1012C000A3F800C05A80DAE71F815E8171459D81D5
:1012D000CCD0CDE72C0200202DE9F047DFF89C9020
:1012E00092464A46B9F80460DFF894C093890C0A24
:1012F000050A5289A6F5A0480CF10207B8F5A268C4
:101300000CD0A6F5C858B8F1630816D0ACF8002088
:101310003D80C0B23880ACF8003024E0ACF800204A
:101320003D80521CACF80020C0B23880ACF80030D0
:101330003C805B1CACF8003016E099F8066026B9DA
:10134000B9F80050281A401E80B2ACF80020020AFA
:101350003A80C5B23D803A80C0B23880ACF80030E7
:101360003C80C8B238803C80C8B23880B9F80800E8
:10137000ACF80000A7F800A0BDE8F0872C02002020
:10138000FE07006C2DE9F0438146A2EB0900401CEA
:101390001F460C4685B2DFF83080079E0FE02146DD
:1013A000484602F01BF802F003F90020414602E033
:1013B0000E80401C80B2A842FAD3641CA4B2BC4286
:1013C000EDD9BDE8F08300000008006C2DE9F04F76
:1013D00001219FB0080202F079FC01214FF4B470A2
:1013E00002F08CFC4FF00108ADF83C8010268DF81F
:1013F0003F60032447468DF83E400FA9FE48FFF7A3
:101400005BFD4CF23370ADF83C0018258DF83F5071
:101410008DF83E400FA9F948FFF74EFD4FF680705A
:10142000ADF83C008DF83F508DF83E400FA9F448D0
:10143000FFF742FD41F20100ADF83C008DF83F504E
:101440008DF83E400FA9EF48FFF736FD00200F2131
:10145000CDE918011A901B901C901D901090CDE9B9
:101460001104CDE91607149006211590CDE900105E
:10147000CDE90206139004903102CDE908010690EF
:10148000059007908900CDE90A010C9017A80D90EE
:1014900010A80E906846FFF70FFC01210620FFF709
:1014A000FBFB322004F0EEFFD74CD320208001F06C
:1014B00097FED64DA88001F093FEA88001F090FE23
:1014C0004FF6FF7909EA0020A88001F089FEA9887B
:1014D00049F2413A0843A88047F2897645F2103B29
:1014E00045F21057504560D00420208001F078FE6E
:1014F000A88001F075FEA88001F072FE09EA0020C4
:101500004946A88001F06CFEAA881043A0F5054268
:10151000A880523A44D0B04247D0D420208001F075
:101520005FFEA88001F05CFEA88001F059FE01EA90
:101530000020A88001F054FEAA881043A8805845D6
:1015400033D04FF45A40208001F04AFEA8804FF477
:101550005B40208001F044FE01EA0020A8804FF4A7
:101560005C40208001F03CFEAA881043A880B0F5C2
:10157000004F7DD0B84218D0A120208001F030FE6D
:10158000A88001F02DFE01EA0020A88001F028FECD
:10159000A9880843A0F5AE41A880613902D004E0D3
:1015A000AE8002E041F66310A880A98898A0FEF7FB
:1015B00081FEA888944DAD1C50457DD1CF20208060
:1015C00000202880C120288030202880ED20208025
:1015D00064202880032028801220288081202880F1
:1015E000E820208085202880102028807A202880EC
:1015F000CB202080392028802C20288000202880A3
:101600003420288002202880F72020802020288075
:10161000EA202080002028802880C02020801B20F5
:101620002880C120208001202880C52020803020F3
:1016300028802880C7202080B7202880362020805E
:10164000482028803A20208055202880B120208002
:10165000002028801A202880B62020800A20288098
:10166000A2202880F220208000202880262000E070
:1016700057E0208001202880E02020800F20288053
:101680002A20288028202880082028800E202880D2
:101690000820288054202880A920288043202880E2
:1016A0000A2028800F202880002028802880288079
:1016B0002880E120208000E035E0002028801520EF
:1016C00028801720288007202880112028800620C5
:1016D00028802B202880562028803C202880052028
:1016E0002880102028800F2028803F2028802880F4
:1016F0000F2028802B202080002028802880012097
:1017000028803F2028802A202080002028802880D0
:101710002880EF20288011202080782004F0B2FE5D
:101720009FE0AF8041E7B0427AD11120208078203D
:1017300004F0A8FE36202080002028803A20208057
:1017400005202880B22020800C20288028800020BE
:101750002880332028802880B720208035202880CA
:10176000BB20208032202880C02020800C202880B0
:10177000C220208001202880C320208010202880C3
:10178000C420208020202880C62020800F20288090
:10179000D0202080A4202880A1202880E020208044
:1017A000D020288000202880022028800720288040
:1017B0000A20288028202880322028804420288061
:1017C00042202880062028800E2028801220288091
:1017D0001420288017202880E1202080D020288015
:1017E0000020288002202880072028800A202880C6
:1017F00028202880312014E0000C01400014014012
:101800000018014000200140FE07006C2C0200205F
:10181000204C43442049443A25780D0A000000003A
:1018200022E0288054202880472028800E2028800D
:101830001C202880172028801B2028801E2028801C
:101840002A2020800020288028802880EF202880DF
:101850002B202080002028802880012028803F2005
:101860002880292001F02DBC58457DD1ED20208015
:1018700001202880FE202880EE202080DE20288085
:1018800021202880F120208001202880DF20208056
:1018900010202880C42020808F202880C62020800F
:1018A00000202880E220288028802880BF202080F7
:1018B000AA202880B02020800D20288000202880A9
:1018C0000D202880002028801120288000202880DA
:1018D00019202880002028802120288000202880AE
:1018E0002D202880002028803D202880002028806E
:1018F0005D202880002028805D202880002028800E
:10190000B120208080202880002028808B20288003
:10191000002028809620288000202880B220208067
:101920000020288028800220288000202880032092
:10193000288000202880B320208000202880288054
:101940002880288028802880288028802880288057
:101950002880288028802880288028802880288047
:1019600028802880288000E0FEE3288028802880C6
:10197000B42020808B20288000202880962028807A
:1019800000202880A120288000202880B5202080E9
:101990000220288000202880032028800020288022
:1019A0000420288000202880B62020800020288065
:1019B0002880B72020800020288028803F20288091
:1019C000002028805E202880002028806420288035
:1019D000002028808C20288000202880AC202880AF
:1019E00000202880DC20288000202880702028808B
:1019F000002028809020288000202880EB2028804C
:101A000000202880DC20288000202880B82020802A
:101A1000002028802880288028802880288028800E
:101A20002880BA2020802420288000202880288038
:101A30002880C12020802020288000202880542059
:101A4000288000202880FF20288000202880C220B5
:101A500020800A2028800020288004202880002060
:101A60002880C32020803C202880002028803A2025
:101A700028800020288039202880002028803720D6
:101A80002880002028803C202880002028803620C4
:101A900028800020288032202880002028802F20C5
:101AA0002880002028802C202880002028802920C1
:101AB00028800020288026202880002028802420BC
:101AC00028800020288024202880002028802320AF
:101AD0002880002028803C20288000202880362074
:101AE00028800020288032202880002028802F2075
:101AF0002880002028802C20288000202880292071
:101B0000288000202880262028800020288024206B
:101B1000288000202880242028800020288023205E
:101B2000288000202880C420208062202880002077
:101B300028800520288000202880842028800020FC
:101B40002880F0202880002028801820288000206D
:101B50002880A420288000202880182028800020A9
:101B6000288050202880002028800C2028800020F9
:101B70002880172028800020288095202880002099
:101B80002880F320288000202880E620288000205C
:101B90002880C520208032202880002028804420F2
:101BA000288000202880652028800020288076203A
:101BB0002880002028808820288000202880C620B7
:101BC00020802020288000202880172028800020C6
:101BD00028800120288000202880C7202080002025
:101BE0002880288028802880C82020800020288005
:101BF000288028802880C9202080002028802880F4
:101C00002880288028802880288028802880288094
:101C1000288028802880288028802880E020208034
:101C200016202880002028801C2028800020288062
:101C3000212028800020288036202880002028802D
:101C400046202880002028805220288000202880DC
:101C500064202880002028807A2028800020288086
:101C60008B20288000202880992028800020288030
:101C7000A820288000202880B920288000202880E3
:101C8000C420288000202880CA20288000202880A6
:101C9000D220288000202880D92028800020288079
:101CA000E020288000202880F32028800020288041
:101CB000E120208016202880002028801C202880F9
:101CC000002028802220288000202880362028809C
:101CD000002028804520288000202880522028804D
:101CE0000020288064202880002028807A202880F6
:101CF000002028808B2028800020288099202880A0
:101D000000202880A820288000202880B920288052
:101D100000202880C420288000202880CA20288015
:101D200000202880D220288000202880D8202880E9
:101D300000202880E020288000202880F3202880B0
:101D400000202880E2202080052028800020288094
:101D50000B202880002028801B202880002028803D
:101D600034202880002028804420288000202880DB
:101D70004F20288000202880612028800020288093
:101D80007920288000202880882028800020288032
:101D90009720288000202880A620288000202880E6
:101DA000B720288000202880C2202880002028809A
:101DB000C720288000202880D1202880002028806B
:101DC000D620288000202880DD2028800020288040
:101DD000F320288000202880E32020800520288010
:101DE000002028800A202880002028801C202880AD
:101DF000002028803320288000202880442028804C
:101E00000020288050202880002028806220288000
:101E100000202880782028800020288088202880A2
:101E2000002028809720288000202880A620288055
:101E300000202880B720288000202880C220288009
:101E400000202880C720288000202880D1202880DA
:101E500000202880D520288000202880DD202880B0
:101E600000202880F320288000202880E420208083
:101E70000120288000202880012028800020288040
:101E800002202880002028802A2028800020288006
:101E90003C202880002028804B202880002028809B
:101EA0005D20288000202880742028800020288041
:101EB00084202880002028809320288000202880EB
:101EC000A220288000202880B3202880002028809D
:101ED000BE20288000202880C42028800020288060
:101EE000CD20288000202880D32028800020288032
:101EF000DD20288000202880F320288000202880F2
:101F0000E52020800020288028802880288002204A
:101F100028800020288029202880002028803C203C
:101F20002880002028804B202880002028805D20E9
:101F30002880002028807420288000202880842089
:101F40002880002028809320288000202880A2203C
:101F5000288000202880B320288000202880BE20F0
:101F6000288000202880C420288000202880CD20C0
:101F7000288000202880D320288000202880DC2092
:101F8000288000202880F320288000202880E62058
:101F900020801120288000202880342028800020E4
:101FA0002880562028800020288076202880002045
:101FB0002880772028800020288066202880002024
:101FC00028808820288000202880992028800020D0
:101FD0002880BB202880002028809920288000208D
:101FE0002880662028800020288055202880002016
:101FF0002880552028800020288045202880002027
:102000002880432028800020288044202880002029
:102010002880E7202080322028800020288055203A
:1020200028800020288076202880002028806620B4
:1020300028800020288067202880002028806720B2
:102040002880002028808720288000202880992050
:10205000288000202880BB2028800020288099200C
:102060002880002028807720288000202880442095
:1020700028800020288056202880002028802320C7
:1020800028800020288033202880002028804520B8
:10209000288000202880E8202080002028802880B8
:1020A00099202880002028808720288000202880F0
:1020B0008820288000202880772028800020288001
:1020C0006620288000202880882028800020288002
:1020D000AA20288000202880BB202880002028807B
:1020E00099202880002028806620288000202880D1
:1020F0005520288000202880552028800020288016
:102100004420288000202880442028800020288027
:102110005520288000202880E9202080AA202880BF
:1021200000202880288028802080AA202880CF2096
:1021300020800020288028802880288028802880EF
:10214000288028802880288028802880288028804F
:10215000288028802880F02020800020288050209F
:1021600028800020288000E02CE028802880F320B0
:10217000208000202880F920208006202880102040
:10218000288029202880002028803A20208055207F
:10219000288011202080642004F074F929202080F8
:1021A000352020800020288051202080FF2028809A
:1021B000532020802C2028805520208082202880B9
:1021C0002C20FDE3B8427DD14FF4704355211846D1
:1021D00001F0F8F94FF20105AA21284601F0F2F9C1
:1021E0006E1C5221304601F0EDF9AF1C0821384633
:1021F00001F0E8F94FF2040A0121504601F0E2F93A
:102200000D214FF4304001F0DDF90D214BF20100BA
:1022100001F0D8F90D214BF2020001F0D3F94FF48F
:10222000364B3421584601F0CDF934214BF2016090
:1022300001F0C8F934214BF2026001F0C3F90D211D
:102240004FF4314001F0BEF90D214BF2011001F0C5
:10225000B9F90D214BF2021001F0B4F934214FF419
:10226000374001F0AFF934214BF2017001F0AAF9C7
:1022700034214BF2027001F0A5F900214FF43240F5
:1022800001F0A0F900214BF2012001F09BF900219F
:102290004BF2022001F096F924214FF4384001F06E
:1022A00091F924214BF6010001F08CF924214BF621
:1022B000020001F087F901214FF43F4001F082F95B
:1022C0000F2100E0FEE34FF4334001F07BF90F21D2
:1022D0004BF2013001F076F90F214BF2023001F0A0
:1022E00071F934214FF4394001F06CF934214BF687
:1022F000011001F067F934214BF6021001F062F988
:1023000008214FF4354001F05DF908214BF20150EE
:1023100001F058F908214BF2025001F053F9032162
:102320004FF4424001F04EF924214FF43A4001F0BD
:1023300049F924214BF6012001F044F924214BF600
:10234000022001F03FF900214FF43C4001F03AF93E
:1023500078214BF6014001F035F900214BF602409F
:1023600001F030F900214FF43D4001F02BF97821C4
:102370004BF6015001F026F900214BF6025001F016
:1023800021F900214FF43E4001F01CF964214BF685
:10239000016001F017F900214FF4514001F012F9EA
:1023A00033214DF2011001F00DF900214DF2021020
:1023B00001F008F934214DF2031001F003F9002176
:1023C0004DF2041001F0FEF83A214DF2051001F033
:1023D000F9F800214DF2061001F0F4F84A214DF20F
:1023E000071001F0EFF800214DF2081001F0EAF8B3
:1023F0005C214DF2091001F0E5F800214DF20A10C0
:1024000001F0E0F881214DF20B1001F0DBF8002122
:102410004DF20C1001F0D6F8A6214DF20D1001F08E
:10242000D1F800214DF20E1001F0CCF8E5214DF26B
:102430000F1001F0C7F801214DF2101001F0C2F8A1
:1024400013214DF2111001F0BDF801214DF21210CF
:1024500001F0B8F854214DF2131001F0B3F8012146
:102460004DF2141001F0AEF882214DF2151001F07A
:10247000A9F801214DF2161001F0A4F8CA214DF27D
:10248000171001F09FF802214DF2181001F09AF890
:1024900000214DF2191001F095F802214DF21A10A9
:1024A00001F090F801214DF21B1001F08BF8022190
:1024B0004DF21C1001F086F834214DF21D1001F090
:1024C00081F802214DF21E1001F07CF867214DF2D7
:1024D0001F1001F077F802214DF2201001F072F880
:1024E00084214DF2211001F06DF802214DF22210ED
:1024F00001F068F8A4214DF2231001F063F80221E5
:102500004DF2241001F05EF8B7214DF2251001F0D4
:1025100059F802214DF2261001F054F8CF214DF266
:10252000271001F04FF802214DF2281001F04AF86F
:10253000DE214DF2291001F045F802214DF22A105A
:1025400001F040F8F2214DF22B1001F03BF802218E
:102550004DF22C1001F036F8FE214DF22D1001F055
:1025600031F803214DF22E1001F02CF810214DF21C
:102570002F1001F027F803214DF2301001F022F85E
:1025800033214DF2311001F01DF803214DF23210CC
:1025900001F018F86D214DF2331001F013F800210D
:1025A0004FF4524001F00EF833214DF2012001F0BA
:1025B00009F800214DF2022001F004F834214DF217
:1025C000032000F0FFFF00214DF2042000F0FAFF8D
:1025D0003A214DF2052000F0F5FF00214DF20620D2
:1025E00000F0F0FF4A214DF2072000F0EBFF002140
:1025F0004DF2082000F0E6FF5C214DF2092000F0CA
:10260000E1FF00214DF20A2000F0DCFF81214DF2B4
:102610000B2000F0D7FF00214DF20C2000F0D2FF7C
:10262000A6214DF20D2000F0CDFF00214DF20E202D
:1026300000F0C8FFE5214DF20F2000F0C3FF01219B
:102640004DF2102000F0BEFF13214DF2112000F0DA
:10265000B9FF01214DF2122000F0B4FF54214DF2D8
:10266000132000F0AFFF01214DF2142000F0AAFF6B
:1026700082214DF2152000F0A5FF01214DF2162018
:1026800000F0A0FFCA214DF2172000F09BFF0221AD
:102690004DF2182000F096FF00214DF2192000F0B5
:1026A00091FF02214DF21A2000F08CFF01214DF222
:1026B0001B2000F087FF02214DF21C2000F082FF5A
:1026C00034214DF21D2000F07DFF02214DF21E202D
:1026D00000F078FF67214DF21F2000F073FF022108
:1026E0004DF2202000F06EFF84214DF2212000F0F9
:1026F00069FF02214DF2222000F064FFA4214DF277
:10270000232000F05FFF02214DF2242000F05AFF49
:10271000B7214DF2252000F055FF02214DF2262071
:1027200000F050FFCF214DF2272000F04BFF022197
:102730004DF2282000F046FFDE214DF2292000F066
:1027400041FF02214DF22A2000F03CFFF2214DF220
:102750002B2000F037FF02214DF22C2000F032FF39
:10276000FE214DF22D2000F02DFF03214DF22E20F1
:1027700000F028FF10214DF22F2000F023FF03214D
:102780004DF2302000F01EFF33214DF2312000F0D9
:1027900019FF03214DF2322000F014FF6D214DF29C
:1027A000332000F00FFF00214FF4534000F00AFFE8
:1027B00033214DF2013000F005FF00214DF20230CF
:1027C00000F000FF34214DF2033000F0FBFE002149
:1027D0004DF2043000F0F6FE3A214DF2053000F0E3
:1027E000F1FE00214DF2063000F0ECFE4A214DF2E0
:1027F000073000F0E7FE00214DF2083000F0E2FE65
:102800005C214DF2093000F0DDFE00214DF20A306E
:1028100000F0D8FE81214DF20B3000F0D3FE0021F4
:102820004DF20C3000F0CEFEA6214DF20D3000F03E
:10283000C9FE00214DF20E3000F0C4FEE5214DF23C
:102840000F3000F0BFFE01214DF2103000F0BAFE53
:1028500013214DF2113000F0B5FE01214DF212307E
:1028600000F0B0FE54214DF2133000F0ABFE012118
:102870004DF2143000F0A6FE82214DF2153000F02A
:10288000A1FE01214DF2163000F09CFECA214DF24E
:10289000173000F097FE02214DF2183000F092FE42
:1028A00000214DF2193000F08DFE02214DF21A3058
:1028B00000F088FE01214DF21B3000F083FE022162
:1028C0004DF21C3000F07EFE34214DF21D3000F040
:1028D00079FE02214DF21E3000F074FE67214DF2A8
:1028E0001F3000F06FFE02214DF2203000F06AFE32
:1028F00084214DF2213000F065FE02214DF222309C
:1029000000F060FEA4214DF2233000F05BFE0221B6
:102910004DF2243000F056FEB7214DF2253000F084
:1029200051FE02214DF2263000F04CFECF214DF237
:10293000273000F047FE02214DF2283000F042FE21
:10294000DE214DF2293000F03DFE02214DF22A3009
:1029500000F038FEF2214DF22B3000F033FE022160
:102960004DF22C3000F02EFEFE214DF22D3000F005
:1029700029FE03214DF22E3000F024FE10214DF2ED
:102980002F3000F01FFE03214DF2303000F01AFE10
:1029900033214DF2313000F015FE03214DF232307B
:1029A00000F010FE6D214DF2333000F00BFE0021DF
:1029B0004FF4544000F006FE33214DF2014000E098
:1029C0007FE300F0FFFD00214DF2024000F0FAFD30
:1029D00034214DF2034000F0F5FD00214DF204409A
:1029E00000F0F0FD3A214DF2054000F0EBFD002132
:1029F0004DF2064000F0E6FD4A214DF2074000F09E
:102A0000E1FD00214DF2084000F0DCFD5C214DF2BB
:102A1000094000F0D7FD00214DF20A4000F0D2FD40
:102A200081214DF20B4000F0CDFD00214DF20C4014
:102A300000F0C8FDA6214DF20D4000F0C3FD0021BD
:102A40004DF20E4000F0BEFDE5214DF20F4000F0CA
:102A5000B9FD01214DF2104000F0B4FD13214DF2FB
:102A6000114000F0AFFD01214DF2124000F0AAFD2F
:102A700054214DF2134000F0A5FD01214DF2144008
:102A800000F0A0FD82214DF2154000F09BFD0121D8
:102A90004DF2164000F096FDCA214DF2174000F0AD
:102AA00091FD02214DF2184000F08CFD00214DF205
:102AB000194000F087FD02214DF21A4000F082FD1E
:102AC000012100E0FFE24DF21B4000F07BFD0221FE
:102AD0004DF21C4000F076FD34214DF21D4000F017
:102AE00071FD02214DF21E4000F06CFD67214DF298
:102AF0001F4000F067FD02214DF2204000F062FD12
:102B000084214DF2214000F05DFD02214DF2224072
:102B100000F058FDA4214DF2234000F053FD0221A6
:102B20004DF2244000F04EFDB7214DF2254000F05B
:102B300049FD02214DF2264000F044FDCF214DF227
:102B4000274000F03FFD02214DF2284000F03AFD01
:102B5000DE214DF2294000F035FD02214DF22A40E0
:102B600000F030FDF2214DF22B4000F02BFD022150
:102B70004DF22C4000F026FDFE214DF22D4000F0DC
:102B800021FD03214DF22E4000F01CFD10214DF2DD
:102B90002F4000F017FD03214DF2304000F012FDF0
:102BA00033214DF2314000F00DFD03214DF2324052
:102BB00000F008FD6D214DF2334000F003FD0021CF
:102BC0004FF4554000F0FEFC33214DF2015000F06F
:102BD000F9FC00214DF2025000F0F4FC34214DF2DA
:102BE000035000F0EFFC00214DF2045000F0EAFC2D
:102BF0003A214DF2055000F0E5FC00214DF206505F
:102C000000F0E0FC4A214DF2075000F0DBFC00210F
:102C10004DF2085000F0D6FC5C214DF2095000F056
:102C2000D1FC00214DF20A5000F0CCFC81214DF284
:102C30000B5000F0C7FC00214DF20C5000F0C2FC1C
:102C4000A6214DF20D5000F0BDFC00214DF20E50BA
:102C500000F0B8FCE5214DF20F5000F0B3FC01216B
:102C60004DF2105000F0AEFC13214DF2115000F067
:102C7000A9FC01214DF2125000F0A4FC54214DF2A8
:102C8000135000F09FFC01214DF2145000F09AFC0B
:102C900082214DF2155000F095FC01214DF21650A5
:102CA00000F090FCCA214DF2175000F08BFC02217D
:102CB0004DF2185000F086FC00214DF2195000F042
:102CC00081FC02214DF21A5000F07CFC01214DF2F2
:102CD0001B5000F077FC02214DF21C5000F072FCFA
:102CE00034214DF21D5000F06DFC02214DF21E50BA
:102CF00000F068FC67214DF21F5000F063FC0221D8
:102D00004DF2205000F05EFC84214DF2215000F085
:102D100059FC02214DF2225000F054FCA4214DF246
:102D2000235000F04FFC02214DF2245000F04AFCE9
:102D3000B7214DF2255000F045FC02214DF22650FE
:102D400000F040FCCF214DF2275000F03BFC022167
:102D50004DF2285000F036FCDE214DF2295000F0F3
:102D600031FC02214DF22A5000F02CFCF2214DF2F0
:102D70002B5000F027FC02214DF22C5000F022FCD9
:102D8000FE214DF22D5000F01DFC03214DF22E507E
:102D900000F018FC10214DF22F5000F013FC03211D
:102DA0004DF2305000F00EFC33214DF2315000F066
:102DB00009FC03214DF2325000F004FC6D214DF26C
:102DC000335000F0FFFB00214FF4564000F0FAFBB7
:102DD00033214DF2016000F0F5FB00214DF202605D
:102DE00000F0F0FB34214DF2036000F0EBFB00211A
:102DF0004DF2046000F0E6FB3A214DF2056000F070
:102E0000E1FB00214DF2066000F0DCFB4A214DF2AF
:102E1000076000F0D7FB00214DF2086000F0D2FB04
:102E20005C214DF2096000F0CDFB00214DF20A60FB
:102E300000F0C8FB81214DF20B6000F0C3FB0021C4
:102E40004DF20C6000F0BEFBA6214DF20D6000F0CB
:102E5000B9FB00214DF20E6000F0B4FBE5214DF20C
:102E60000F6000F0AFFB01214DF2106000F0AAFBF3
:102E700013214DF2116000F0A5FB01214DF212600B
:102E800000F0A0FB54214DF2136000F09BFB0121E8
:102E90004DF2146000F096FB82214DF2156000F0B7
:102EA00091FB01214DF2166000F08CFBCA214DF21E
:102EB000176000F087FB02214DF2186000F082FBE2
:102EC00000214DF2196000F07DFB02214DF21A60E5
:102ED00000F078FB01214DF21B6000F073FB022132
:102EE0004DF21C6000F06EFB34214DF21D6000F0CD
:102EF00069FB02214DF21E6000F064FB67214DF278
:102F00001F6000F05FFB02214DF2206000F05AFBD1
:102F100084214DF2216000F055FB02214DF2226028
:102F200000F050FBA4214DF2236000F04BFB022186
:102F30004DF2246000F046FBB7214DF2256000F011
:102F400041FB02214DF2266000F03CFBCF214DF207
:102F5000276000F037FB02214DF2286000F032FBC1
:102F6000DE214DF2296000F02DFB02214DF22A6096
:102F700000F028FBF2214DF22B6000F023FB022130
:102F80004DF22C6000F01EFBFE214DF22D6000F092
:102F900019FB03214DF22E6000F014FB10214DF2BD
:102FA0002F6000F00FFB03214DF2306000F00AFBB0
:102FB00033214DF2316000F005FB03214DF2326008
:102FC00000F000FB6D214DF2336000F0FBFA55215B
:102FD000184600F0F7FAAA21284600F0F3FA522129
:102FE000304600F0EFFA0821384600F0EBFA0021F5
:102FF000504600F0E7FACC214FF4314000F0E2FAFD
:1030000000214BF2011000F0DDFA0521584600F0D6
:10301000D9FA70214FF4374000F0D4FA70214BF206
:10302000017000F0CFFA01214FF4384000F0CAFAE5
:1030300003214BF6010000F0C5FA03214BF6020014
:1030400000F0C0FA03214BF6030000F0BBFA0221A6
:103050004FF43C4000F0B6FA00214BF6014000F07E
:10306000B1FA00214BF6024000F0ACFAD0214FF447
:10307000494000F0A7FA02214CF6011000F0A2FA34
:1030800050214CF6021000F09DFA50214CF603102E
:1030900000F098FA50214CF6041000F093FA002149
:1030A0004FF4545000F08EFA55214FF4685000F060
:1030B00089FA4FF488502080782003F0FDF94FF40E
:1030C000245020807DE0A0F5C851633979D1E220F9
:1030D00020801D2028800220288004202880642051
:1030E00003F0EAF9E0202080012028800A2003F084
:1030F000C9F9E0202080032028800C2003F0C2F9C9
:10310000012020800A2003F0BDF9E62020802F2036
:103110002880FF2028802880B02020802020288040
:10312000002028800320288040F21F3028800120C2
:10313000288040F2DF10288000202880B4202080E2
:103140000420288040F21F402880002028802E2064
:10315000288000202880288028802880B620208091
:10316000022028804FF40370288000202880172038
:10317000288015202880002028802880F0202080AA
:103180000320288029202080D02020800020288033
:10319000BE20208005202880FE2028800120288055
:1031A0000020288028802880B820208003202880C4
:1031B00001202880BA20208001202880642000F08F
:1031C0004DF80020FEF72CF80449C1F880814846EC
:1031D000FEF70EF81FB0BDE8F08F0000008021421E
:1031E000034808B50088ADF80000BDF8000008BD30
:1031F0000008006C10B5174C2288824202D9628800
:103200008A4201D8002010BD00F0E8F8A0881249D9
:10321000A0F5AA42103A1AD02E200880FFF7E0FF4E
:10322000A188A1F5C852633AEDD0FFF7D9FF014656
:10323000FFF7D6FFCAB24FF6FF7303EA02226FF31D
:103240000A01920A41EA421141EAD02010BD4FF42E
:103250003850E2E72C020020FE07006C0C4A10B543
:10326000BE211180941C0521218005F006FF4FF03E
:103270006632084B05F014FF05F0D2FE20800120D5
:103280002080FF20208000202080208010BD0000B2
:10329000FE07006C6666044070B54E4D002329465B
:1032A000AA79898841F66314012A01D01AB11BE07A
:1032B000A14202D118E0A14216D1082814D2DFE8B9
:1032C00000F00406080A0C0E101206200CE007207D
:1032D0000AE0042008E0052006E0012004E00020C8
:1032E00002E0032000E00220082812D2DFE800F00C
:1032F000110406080A0C0E1080230AE0402308E09F
:10330000C02306E0202304E0602302E0A02300E0C5
:10331000E02345F21056B14202D14FF4585000E07C
:103320003620A1F51342413A03D0A1F5EE42893A85
:1033300001D143F00803194600F044F9AA88A242DB
:103340000AD098062888698802D5884202D303E00B
:10335000884201D9298068801F48811CB2426A894D
:10336000028021D100230B80531C038000230B809B
:10337000931C03802B885B1E1C0A0C80D21C0280CD
:10338000DAB20A80AA89028000230B80531C0380D2
:1033900000230B80931C03806B885B1E1C0A0C802F
:1033A000D21C0280D8B212E000220A800A802A8849
:1033B000521E130A0B80D2B20A80AA890280002012
:1033C000088008806888401E020A0A80C0B208800F
:1033D00070BD00002C020020FE07006C2DE9F043B8
:1033E000DFF8A490294F4A46B9F804C09389050A2A
:1033F0000C0ABE1C5289ACF5C858B8F163080ED04F
:10340000ACF5A048B8F5A2683A80358033D0C0B298
:1034100030803B803480C8B23080BDE8F083DFF874
:1034200068C099F80680BCF800C0B8F1000F16D04B
:103430003A803580C0B23080ACF1010C4FEA1C20DC
:1034400030800CF0FF0030803B803480C8B2308088
:10345000B9F80200401E010A3180C0B2DCE7ACEBD3
:103460000000401E80B23A80002232803280020A80
:103470003280C0B2E7E7521C3A80C0B230803B8055
:1034800034805B1C3B80C6E72C020020FE07006CEA
:103490002DE9F84F82461F460C468B46580700D050
:1034A000012000EBD70079084843203AC0B202F06F
:1034B000FF090026009041E00C2F10D0102F12D0F1
:1034C000182F3ED1204909EBC90001EB80004FF0D5
:1034D0000008855D28060AD51C4802880BE009EB28
:1034E00049001B49F1E71B4901EB0910EFE70A9876
:1034F00028B91648428821465046FDF7EDFE680679
:10350000050E1548641CA4B24088A04219D9A4EB4A
:103510000B00B84209D10AF101001FFA80FA0E48E7
:103520005C46018851450CD906E008F1010000F025
:10353000FF08B8F1080FCDD3761CF6B2009886428A
:10354000BAD3BDE8F88F0000009D00081A000020E3
:103550009C920008109700082C0200202DE9F84FDB
:10356000044600F0FF0810190D46DDE90A761FFA3F
:1035700080FA58191FFA80F94FF0000B11E05445FA
:1035800002D3E819444685B24D450FD23B46294641
:103590002046CDF800B0FFF77BFF04EB570084B264
:1035A000761C3278A2F120005E28E8D9BDE8F88FB9
:1035B0000248034900890880704700002C0200205F
:1035C000FE07006C024A1080901C018070470000CA
:1035D000FE07006C38B50121482000F08FFB202445
:1035E000ADF8004010208DF8030003200B4D8DF83E
:1035F000020069462846FDF75FFC20212846FDF7BA
:10360000DEFCADF80040064C69462046FDF754FC50
:1036100020212046FDF7D3FC38BD0000000C0140FE
:103620000018014010B5084C00212046FDF796FA1D
:10363000064920460988FDF72CFB2046BDE81040CE
:103640000121FDF78BBA0000580402402C02002033
:1036500030B504468BB00121022000F037FB0E4D3F
:103660002846FDF787FA0D484021CDE900400020AB
:103670000290CDE903018900CDE905018900CDE97A
:1036800007108800099080000A9069462846FDF7D7
:10369000E3FA0BB030BD0000580402400008006C93
:1036A000FEE7704730B50F23C27801780125F2B1EB
:1036B000144A126801F1E02102F4E062C2F5E0620E
:1036C000120AC2F10404D3404278A24084781C401C
:1036D0001443220181F80024007800F01F018D407E
:1036E0004009800000F1E020C0F8005130BD01F039
:1036F0001F0085404809800000F1E020C0F880519B
:1037000030BD00000CED00E00249084302490860AA
:10371000704700000000FA050CED00E070B50849A4
:10372000002401EBC00505EB4400417815F81400B6
:1037300000F070FC641CE4B2042CF4D370BD0000F3
:10374000FAAB000810B504460021FF2000F062FC2F
:1037500000217C2000F05EFC04217D2000F05AFC5A
:1037600009217C2000F056FC2007010E7D2000F08E
:1037700051FC0021BDE810407D2000F04BBC10B58D
:1037800004460121FF2000F045FC122000F09EFBC2
:1037900020F002010CB141F00201BDE810401220FE
:1037A00000F038BC000110B52030C0B240F0080471
:1037B0000021FF2000F02EFC00217C2000F02AFCDC
:1037C00002217D2000F026FC03217C2000F022FC59
:1037D00021467D2000F01EFC2146BDE810407D20E2
:1037E00000F018BC70B520252C4630B1012807D058
:1037F000032808D004280BD108E01825342407E05A
:103800001C252A2404E02425162401E028250C2464
:103810000021FF2000F0FEFB00217C2000F0FAFBDD
:1038200004217D2000F0F6FB07217C2000F0F2FB54
:1038300020217D2000F0EEFB29467D2000F0EAFBF0
:1038400021467D2000F0E6FBBDE8704006217D208A
:1038500000F0E0BB70B50D4604460021FF2000F0EB
:10386000D9FB0421E02000F0D5FBC4F3C701C02040
:1038700000F0D0FBC5F3C701C12000F0CBFB60070F
:1038800005F0070242EA9062802000EA1411114319
:103890008C2000F0BFFB0021E02000F0BBFB0020EB
:1038A00070BD2DE9F04107460E46900702D0012079
:1038B000BDE8F081980701D00220F9E794089D083F
:1038C0000021FF2000F0A6FB0421E02000F0A2FB75
:1038D000E1B2512000F09EFBE9B2522000F09AFBC9
:1038E000F9B2532000F096FBF1B2542000F092FBA5
:1038F0002846802505EA5001702000EA161008438A
:10390000082101EA54110143C7F302200143552065
:1039100000F080FB05EA9401572000F07BFB0021BA
:10392000E02000F077FB0020C2E70000F8B500249B
:10393000012140F2391000F0E1F91026ADF80060E5
:1039400048258DF8035003204F4F8DF8020069463B
:103950003846FDF7B1FA10213846FDF730FB082054
:10396000ADF800008DF8036069463846FDF7A4FA0B
:1039700008213846FDF723FBFF20ADF800008DF845
:10398000035069464148FDF797FA4020ADF8000022
:103990003F4F8DF8035069463846FDF78DFA4021B8
:1039A0003846FDF70CFBF702ADF800708DF80360A8
:1039B000384E69463046FDF77FFA39463046FDF706
:1039C000FEFA7F10ADF800708DF80350694630465E
:1039D000FDF772FA39463046FDF7F1FA01212E481B
:1039E000FDF7B8FA2D480025C0F88C510A2002F0E6
:1039F00049FD2B4EC6F8BC510A2006F5DE7602F0D2
:103A000041FD0120306000F0CFF90121FF2000F0DE
:103A100001FB8021122000F0FDFA322002F032FD7D
:103A20001C2000F053FA4FF6FF7505EA00261D2012
:103A300000F04CFA40EA0601A1F5FE40A23804D09D
:103A400018A0FCF737FC0120F8BD0A2000F03EFA70
:103A500005EA00250B2000F039FA40EA0501A1F53E
:103A60001850423802D012A0FCF724FC134D05EB8D
:103A70004400417815F8140000F0CCFA641CA4B29C
:103A8000B22CF4D30020F8BD000C0140001001401E
:103A9000001401400020014000023000008021425B
:103AA000000024424D49443A25640D0A00000000FC
:103AB0004849443A25640D0A000000005CAA000849
:103AC00070B50E4D002405EB4400417815F8140044
:103AD00000F0A0FA641CA4B2082CF4D3074D002413
:103AE000103505EB4400417815F8140000F092FA07
:103AF000641CA4B2072CF4D370BD0000C0AB000856
:103B000070B55E254126542430B102280BD003281D
:103B10000CD0042810D10CE00021FF2000F07AFA2C
:103B20000021C7201AE065254F2405E052256624B0
:103B300002E042253F2671240021FF2000F06AFAAE
:103B40004021C72000F066FA2946CC2000F062FA36
:103B50003146CD2000F05EFA2146CE20BDE870400F
:103B600000F058BA70B5820701D0012070BD8A07F5
:103B700001D0022070BD84088D080021FF2000F0D4
:103B800049FA0421E02000F045FAE1B25A2000F0A1
:103B900041FAE9B25B2000F03DFA0421C4F30120B0
:103BA00001EA951101435C2000F034FA0021E02085
:103BB00000F030FA002070BD70B5074D002405EB11
:103BC0004400417815F8140000F024FA641CA4B2F3
:103BD0000E2CF4D370BD0000DEAB000870B580265B
:103BE00000243546072817D2DFE800F0160406083F
:103BF0000C0F130040240FE018240DE01824402679
:103C0000C02509E01824402601E01824A0264025FC
:103C100002E018244026A6250021FF2000F0FAF932
:103C200000217C2000F0F6F921467D2000F0F2F919
:103C300005217C2000F0EEF931467D2000F0EAF904
:103C40002946BDE870407D2000F0E4B92DE9F0413F
:103C50000D46044600EB520701EB53060121FF20FD
:103C600000F0D8F9032000F031F906F003022946EC
:103C700000F0F00062F39F010143032000F0CAF955
:103C8000C5F38701192000F0C5F9C6F387011A2092
:103C900000F0C0F9322000F019F907F007022146C0
:103CA00000F0C00062F3DF010143322000F0B2F9FE
:103CB000C4F3C701172000F0ADF9C7F3C701BDE891
:103CC000F041182000F0A6B970470000044A00290E
:103CD000516901D0014300E0814351617047000008
:103CE00000100240044A0029D16901D0014300E0DC
:103CF0008143D1617047000000100240044A00294E
:103D0000916901D0014300E0814391617047000057
:103D10000010024030B5204A5168204B11F00C01D0
:103D200003D0042901D0082901D0036012E05168B2
:103D3000536801F470114FF0020413F4803F04EB58
:103D4000914102D053689B0301D5154B00E0134B02
:103D50005943016051680F2303EA1111114B5C5C58
:103D60000168E14041605468072505EA14241C5DA0
:103D700021FA04F48460546805EAD4241B5DD94018
:103D8000C1605268032303EA9232064B1B1F9A5C00
:103D9000B1FBF2F1016130BD0010024000127A0067
:103DA00000093D004000002038B501214FF490701B
:103DB000FFF7A4FF4FF40055ADF8005048208DF8F0
:103DC00003000320114C8DF8020069462046FDF7E0
:103DD00073F829462046FDF7F2F80820ADF80000F8
:103DE00010200B4D8DF8030069462846FDF764F856
:103DF00008212846FDF7E3F8606820F47000606051
:103E0000606840F44010606038BD00000020014050
:103E10000014014070B5322002F04EFB0C4D012021
:103E2000C5F8B4010B4EC6F88C01322005F5DA75E1
:103E300006F5C67602F040FB00243460322002F022
:103E40003BFB2C60BDE87040322002F035BB000027
:103E500000002442008022422DE9F047184F002440
:103E6000786820F470007860786840F4000078602A
:103E7000DFF85090144E08254FF00108A24632207A
:103E800002F01AFBC6F88C816006040ED9F83401E2
:103E900008B1641CE4B2322002F00EFBC6F88CA11B
:103EA0006D1E15F0FF05EAD1786820F47000786087
:103EB000786840F4401078602046BDE8F087000044
:103EC00000200140000024420080224210B5044638
:103ED00000F022F8602000F055F8642002F0ECFABF
:103EE000204600F04FF8642002F0E6FA00F02EF8C9
:103EF000642002F0E1FA00F00FF8612000F042F8CF
:103F0000642002F0D9FAFFF7A7FF0446FFF782FF0B
:103F100000F01CF8204610BD70B50A4E0120C6F80E
:103F2000B401094DC5F88C01322005F5C67506F5BA
:103F3000DA7602F0C1FA00243460322002F0BCFAD2
:103F40002C6070BD000024420080224270B50B4CF2
:103F50000020C4F8B401322004F5DA7402F0ACFA9F
:103F600007480125C0F88C51322002F0A5FA2560DF
:103F7000BDE87040322002F09FBA000000002442E9
:103F8000008022422DE9F04700241F4E1F4F0546B6
:103F9000A0464FF00109280601D5484600E04046FA
:103FA000C6F8B4016806050E322002F085FAC7F89B
:103FB0008C91322002F080FAC7F88C81641CE4B244
:103FC000082CE8D3124C606820F4700060606068D0
:103FD00040F400006060322002F06EFAC7F88C9165
:103FE000322002F069FAD6F8340100B10120C7F896
:103FF0008C81616821F470016160616841F4401155
:104000006160BDE8F0870000000024420080224289
:104010000020014070B50D4606460024FFF77CFFE6
:104020006020FFF7AFFF00B10124642002F044FAE2
:104030003046FFF7A7FF00B10124642002F03CFAEC
:104040002846FFF79FFF00B10124FFF77FFF2046BE
:1040500070BD00002DE9FC41002600963546019612
:1040600000B102251B484069800102D50E20BDE841
:10407000FC81194C6946208980B2FCF781FE00283A
:10408000F5D10198400322D52089144C00044FF04B
:10409000400820603720C4E901084FF480672046BB
:1040A000C4E9036700F090F83720FCF799FC00287A
:1040B000DDD10620C4F80880C4E90050C4E90367D4
:1040C000204600F081F80620FCF78AFCCFE7252087
:1040D000CDE70000008001402000002058020020B1
:1040E0000149886370470000008001400149C1F820
:1040F000A000704700003042034A516821F0FF01E0
:104100000143516070470000008001400149086090
:10411000704700008C05304210B5094902684A62B8
:1041200042688A62CA6AD0E902342343D0E9044073
:10413000044322F0F70223431343CB6210BD000077
:104140000080014006480021016041608160C1603B
:1041500041628162C162034A8263C16370470000A9
:1041600000800140FF07C000034A01460020526B57
:104170000A4200D0012070470080014002480068D8
:1041800000F00300704700000080014000F06CBBAD
:1041900030B5094B5A6847F6FF618A43017D846850
:1041A000C568214344682C432143046800692143C6
:1041B00001431143596030BD008001400148D0F8EF
:1041C000800070470080014010B5084902688A608D
:1041D000CA68D0E901342343D0E9034004436FF3B4
:1041E0000A0223431343CB6010BD0000008001404E
:1041F00004490A6822F003020A600A6802430A605E
:1042000070470000008001400149C1F880007047FC
:1042100000800140F0B50F4604468BB015460121E1
:104220000220FFF753FD114E3046FCF7A3FC00219E
:104230003046FCF793FC0E4880218DE83100B80829
:1042400003900020CDE90401890006918900CDE9A1
:1042500007108900CDE9091069463046FCF7FCFCDF
:1042600000213046FCF77AFC0BB0F0BD440402405C
:104270008080014010B510490446002009780329C8
:1042800006D019B1012901D0022902D1022C01D393
:10429000272010BDE0B2FFF7DDFE0028F9D1074965
:1042A0004A6822F4C0524A604A68A3B242EAC32272
:1042B0004A604A684A6010BD20000020008001402A
:1042C0002DE9F0478249DFF80CA24FF0000C0B7883
:1042D00080F856300989A0F85410DAF800104FF031
:1042E00001090A0E95090570C2F38305457002F0B5
:1042F000030282700A0CC2700A0A02714171DAF874
:104300000420110E0C01C2F3074144EA111401F01C
:104310000F08C480C2F3072180F80880CC094472DA
:10432000C1F380148472C1F34014C472C1F3001449
:104330000473544680F80DC0A468260EC4F30745E4
:10434000C4F3072733B1012B04D0032B02D0022B77
:1043500030D03EE08907090DD2B241EA820141EA3C
:104360009612C6F3C2010261017506F0070141759C
:1043700069098175C5F38201C175A9074B0F3946DB
:1043800043EAD1150576AD1C09FA05F3DE17521C78
:10439000A2FB03570CFB037302FB063309FA08F276
:1043A000A5FB0267026503FB027205FB0C22C0E954
:1043B00012620EE09106890A41EA06222A4302614E
:1043C000521C530BD204C0E912234FF40072394639
:1043D0000265C1F38012427689064A0EE1B242EAD2
:1043E000D11200F81A2F01F07F014170DAF80C2089
:1043F000110ECB098370C1F34113C370C1F3820363
:10440000037189070B0FC2F3074143EA911343710C
:10441000C1F34013837180F807C001F001010172FC
:10442000C2F30721CB094372C1F380138372C1F336
:104430004013C372C1F300130373C1F381034373C9
:1044400001F003018173C2F34601224AC1731032A5
:1044500080F8109011684B460C0E84740C0CC1F35C
:10446000072545EA042484820C0651680D0E44EAAF
:104470000544C1F3074544EA0524C1F307252C434D
:10448000C0F8164000F81A1F91680C0E44700C0C0E
:10449000C1F30725240644EA0544C9B244EA0124CD
:1044A000D16844EA1164C1F307424460047A44EAE3
:1044B00012140472C1F30724120744EA1252428113
:1044C000C1F34601017343736046BDE8F087000005
:1044D00020000020840200207CB501213020FFF75D
:1044E0000DFC012140F20240FFF7F0FB4FF4F850C1
:1044F000ADF8000018258DF8035003248DF8024014
:1045000069462948FCF7D8FC0420ADF800008DF876
:104510000350264D8DF8024069462846FCF7CCFC36
:104520008021ADF8001048208DF803008DF802407E
:1045300069462846FCF7C0FCFFF704FE31208DF8E1
:10454000040000208DF805008DF8060001208DF88C
:10455000070001A8FFF7A6F800F0B8F8144C80B9DE
:1045600000F02AF868B92046FFF7AAFE48B9B4F867
:104570005400000400F054FC18B90120FFF77AFE43
:1045800018B10C49097803290AD194F8560040B1B2
:10459000012806D00420FFF7AFFD002000F056FCF4
:1045A0007CBD0A20F7E70000001001400014014024
:1045B000A8020020200000202DE9F84F0120ADF8CE
:1045C0000000FFF7DBFD88B3DFF8F49099F80000F6
:1045D000042872D03B4C02204FF0C00B0025C4F8D9
:1045E00008B0C4E900504602C4E903562046FFF76C
:1045F000EBFDFCF71DFA00281AD1334F796904F15D
:104600003C000160B9694160F9698160396AC16043
:1046100099F800004FF0030A4FF0400850B101280C
:1046200008D0062806D0022804D012E0FFE7252093
:10463000BDE8F88FC4F80880C4E9005AC4E90356FD
:104640002048FFF7C1FD69460320FCF72DFA00283A
:10465000EED199F8000003280FD1BDF80000C4F88E
:1046600008800004C4E9000AC4E903561548FFF7AE
:10467000ABFDFCF7DDF90028DAD199F80000042839
:104680001BD0BDF80000C9F8080000042060092014
:10469000C4E9010BC4E903560A48FFF795FDFCF78E
:1046A000C7F90028C4D1796906482C300160B9697E
:1046B0004160F9698160396AC1600020B8E7000093
:1046C0002000002058020020008001402DE9F05F0A
:1046D00000276048B2213E46017507604760876049
:1046E000C7603C463D46B946B8460761FFF750FDF6
:1046F0000320FFF77DFD0120FFF7F8FCDFF854A150
:104700004FF4806B0AF1180A5248CAF80080CAF8C0
:104710000480CAF80880CAE9038B1830FFF754FDFB
:10472000FCF749F928B17F1CFFB24A2FECD3BDE852
:10473000F09F4FF4D570CAF8000008205746CAF819
:1047400004004020C7E902080001CAF810004148EF
:104750001830FFF739FDFCF7E3F920B93E49012095
:104760004FF080490870BA46384641463722402704
:1047700080E88600C0F80C8036483901C3461830FE
:10478000CAF81010FFF720FD3720FCF729F94FF683
:10479000FF7888B3B9465646304F4FF0010B4FF4BF
:1047A000806ABDB34DE055463720C5E900B04FF4EF
:1047B0008068CAF810802748C5E9027B5E46183039
:1047C000FFF702FD3720FCF70BF90028AFD1244991
:1047D00049EA010028602920C5E90107C5E9036805
:1047E0001C481830FFF7F0FCFCF746F900289ED172
:1047F0001A494E69F50F641C1DB94FF6FF718C42C2
:10480000D1D34FF6FF718C421DD216F0804F8ED05F
:1048100002221BE013E01348C6E9000B0020C6F893
:1048200010A0C6E902900B481830FFF7CDFCFCF74A
:1048300023F90028CAD17969CD0F641CB1E744453A
:10484000E9D3444501D31B2071E7032202490A70D2
:104850006DE70000400200202000002000800140A1
:10486000000010800080FF802DE9F041354C606B26
:10487000354DC0054CF23A3620D5A87800210128E4
:104880000CD0E970A06B40F48070A063E06BB04383
:10489000E06301202871E878BDE8F0812B480C2204
:1048A000C0E900124022C0E9022111010161FFF7B5
:1048B0008BFC0C20FCF794F8E870E3E70220FFF78C
:1048C00053FC40B10220FFF70BFCE06BB043E06308
:1048D0000220E870E0E70820FFF746FC40B108201E
:1048E000FFF7FEFBE06BB043E0630420E870D3E722
:1048F0002020FFF739FC40B12020FFF7F1FBE06BEF
:10490000B043E0630620E870C6E71020FFF72CFCF8
:1049100040B11020FFF7E4FBE06BB043E0630520FB
:10492000E870B9E74FF400773846FFF71DFC002820
:10493000B2D03846FFF7D4FBE06BB043E06307200A
:10494000E870A9E700800140200000205802002004
:104950002DE9F84F17460A9E05004FF0FF3466D048
:10496000DFF8D0810020C8F82C00DFF8CCA14FF48C
:10497000007B9AF80010022903D1570A5E4647EAE5
:10498000C357814601466D484FF0FF328160C0E950
:1049900000210122C160C0E90412FFF7BDFBD8F875
:1049A0001400800102D50E20BDE8F88F701EB0F50E
:1049B000006F3CD206423AD1304601F0E1FB009054
:1049C0005E4810211438C0E900614021C0E9021995
:1049D00009010161FFF7F8FB1020FCF701F800283E
:1049E000E2D1009801015548C0E901614FF0FF3163
:1049F0000160012141610221C0E90319FFF78CFB2D
:104A00004E4811211438C0E900714021C0E9021953
:104A100009010161FFF7D8FB1120FBF7E1FF070057
:104A2000C2D19AF8010020B1012858D07BE026209D
:104A3000BAE7FCF70EFB46464FF4004ADFF8009158
:104A400040F22A6810E05046FFF78EFB50B100207C
:104A5000D6F8801045F82010401C0828F8D34C46A2
:104A6000203501E0D4B3641E716B11EA080FEAD05F
:104A70000820FFF779FB18B10820FFF731FB56E05B
:104A80000220FFF771FB20B10220FFF729FB022073
:104A90008AE72020FFF768FB20B12020FFF720FBEA
:104AA000062081E75C465846FFF75EFB40B1204692
:104AB000FFF716FB072077E7FFF780FB01C501E052
:104AC0004FF400142046FFF74FFB0028F4D1FCF709
:104AD000C2FA40F2FF50FFF703FB24E027E0002278
:104AE00031462846FFF796FB55468AF803908AF828
:104AF00002908AF80490D8F83C1040F22A32114310
:104B0000C8F83C100120FFF701FB0E4800E0641ECE
:104B10000168890403D4297909B9E97829B134B144
:104B2000E87800B1EF7838463EE7002CEFD104205A
:104B30003AE7000000800140200000206C020020C5
:104B4000FFFF7F00000402402DE9FC470027CD0D48
:104B50004E028046810791464FF4007018D0002421
:104B6000824612E06002821945EBE073CDF800A0A6
:104B70001248FFF7EDFE0746524610494046FBF744
:104B800035FD641C08F50078E4B24C45EAD30AE030
:104B9000B9F1010F0AD0CDE9000932462B46404653
:104BA00000F00EF807463846BDE8FC870090324614
:104BB0002B464046FFF7CCFEF4E700000003002040
:104BC0002DE9FF5F82B09148DDE91068DFF840A26F
:104BD00002990025C16017464FF0FF34CAF82C50E7
:104BE0000078022803D10602570A47EAC3578948CA
:104BF0004FF0010BA1468560C0E90045C560C0E9E2
:104C0000045BFFF789FADAF81400800103D50E205F
:104C100006B0BDE8F09F701EB0F5006F21D20642CD
:104C20001FD1304601F0ACFA00907A4810211438B8
:104C3000C0E90061402181600021C1604FF48061C2
:104C40000161FFF7C1FA1020FBF7CAFE0500DFD1B2
:104C50004046B8F1010F31D900FB06F8B8F1007FEA
:104C600001D32620D4E7009801016A48C0F80090DB
:104C7000C0E90181012141614FF000090221C0E931
:104C800003194D46FFF748FADFF888B11221ABF15E
:104C9000140B5846C0E900714021CBE90215090107
:104CA000CBF81010FFF790FA1220FBF799FE0500E1
:104CB000AED1564E707810B1012878D0A3E0FCF741
:104CC000C8F9574640F22A3814E04FF40040FFF785
:104CD0004BFA60B1F1680020D7F8802041F820201D
:104CE000401C0828F8D320314B4CF16002E0002C26
:104CF0007FD0641E786B10EA080FE6D00820FFF71B
:104D000033FA18B10820FFF7EBF972E00220FFF741
:104D10002BFA20B10220FFF7E3F9022078E72020E8
:104D2000FFF722FA20B12020FFF7DAF906206FE71B
:104D30004FF400742046FFF717FA58B12046FFF7EA
:104D4000CFF9072064E7FFF739FA0146F06802C09F
:104D5000F06001E04FF400142046FFF705FA002848
:104D6000F1D14FF48070FFF7FFF9C0B1307818B17E
:104D7000012801D0022812D158460C22C0E9009225
:104D80004022CBE90229234811011438CBF8101036
:104D9000FFF71AFA0C20FBF723FE0500BED1FCF743
:104DA0005AF940F2FF50FFF79BF92CE0FFE741462C
:104DB00000220298FFF72EFA86F803900121B170C5
:104DC00086F80490DAF83C1040F22A321143CAF80F
:104DD0003C10DAF82C1041F00801CAF82C100F48EA
:104DE00000E0641E0168890402D4002CF9D100E0BF
:104DF0000CB904200CE7307910B9F0780028FAD00B
:104E0000F07800B1F578284602E700002000002085
:104E1000008001406C020020FFFF7F000004024080
:104E2000094910B5086007204860402088600020CC
:104E3000C8604FF4806008610846FFF7C5F9BDE817
:104E400010400720FBF7CCBD5802002000210128AC
:104E500003D010B1262108467047014A5070FAE786
:104E6000200000202DE9FC5F4FF000050C9F9046CC
:104E70009B4604008DF800502E46B9465FD0DFF8FF
:104E8000A0A2CAF82C50A748691E8560C0E9001589
:104E90000121C560C0E90451FFF73EF9DAF81400BA
:104EA000800102D50E20BDE8FC9FDFF87CA29AF8B5
:104EB0000000022804D107024FEA582040EACB58EC
:104EC000781EB0F5006F3AD2074238D1384601F06B
:104ED00057F9DFF850B20190ABF1140B584610218E
:104EE000C0E900714021CBE902150901CBF810108F
:104EF000FFF76AF91020FBF773FD0028D3D18A4829
:104F0000DA4600890104CBF800100D215846CBF891
:104F100004104021C0E9021582480901AB4614384B
:104F2000CAF81010FFF750F90D20FBF759FD0028C3
:104F3000B9D17B4948694FF0FF358A4618E02620F1
:104F4000B1E779486D1E0089010476481438016084
:104F50000D2141604021C0E9021B09010161FFF7F9
:104F600033F90D20FBF73CFD00289CD1DAF8140042
:104F7000C00502D4002DE4D12DE065B369481821A5
:104F80001438C0E900814021C0E9021B0901016118
:104F9000FFF71AF91820FBF723FD002883D1DFF86B
:104FA000888100214FF0FF3B88F8021001985D4690
:104FB00002015C48C0F800B0C0E901720122C16082
:104FC000C0E90412FFF7A8F898F8010028B1464696
:104FD000012861D093E0292065E7FCF73AF840F218
:104FE0001A6827E04FF48040FFF7BEF800B3A9EB42
:104FF000060020280FD281074FEA900700D07F1CBF
:10500000002505E02068FFF7FFF8241D6D1C361D04
:10501000BD42F7D309E0002554F82500FFF7F4F866
:105020006D1C082DF8D3203420366FF0404501E088
:105030008DB36D1EDAF8340010EA080FD2D00820C4
:10504000FFF792F818B10820FFF74AF855E0022060
:10505000FFF78AF820B10220FFF742F8022022E78A
:105060001020FFF781F820B11020FFF739F8052054
:1050700019E74FF400742046FFF776F820B1204678
:10508000FFF72EF807200EE7FBF7E5FF40F2FF5091
:10509000CAF8380033E030E0102239462046FFF7E6
:1050A000B9F80020F070B0703071DAF83C1040F2BE
:1050B0001A321143CAF83C10DAF82C1041F00801FA
:1050C000CAF82C10194800E06D1E0168890402D44A
:1050D000002DF9D102E00DB1584603E0FFF7FCF9CD
:1050E0000BE0401E317909B9F17821B128B1F0788F
:1050F00028B1F078D7E60028F3D10420D3E640F2B7
:10510000FF50FEF7EDFF6846FBF7A8FF0028A6D189
:105110009DF800100729F6D00629F4D0C3E6000058
:10512000008001406C0200202000002000040240AA
:105130002DE9FC470746CD0D4E0290460020BA07E8
:105140004FF4007118D00024894611E04A463946D0
:105150001248FBF74BFA6002821945EBE073CDF879
:1051600000900E48FFF77EFE641CE4B207F500775E
:105170004445EBD3BDE8FC87B8F1010F07D0CDE97A
:10518000001832462B46384600F00AF8F2E732465D
:105190002B4638460091FFF765FEEBE70003002041
:1051A0002DE9FF5F82B00400DDE910674FF00000D9
:1051B00091468DF80000054607FB06FA45D0DFF85A
:1051C000B4828346C8F82C00AB484FF0FF32C0F8D9
:1051D00008B0C0E9002B0122C0F80CB0C0E904B24D
:1051E000FEF79AFFD8F81400800103D50E2006B010
:1051F000BDE8F09FA1480078022804D10602059876
:10520000C20542EA5929701EB0F5006F1DD2064250
:105210001BD1304600F0B4FF01909748102114389C
:10522000C0E900614021C0E9021B09010161FEF7EC
:10523000CBFF1020FBF7D4FB0028D8D1012F5AD97F
:1052400007FB06F8B8F1007F01D32620CFE78B4893
:10525000007818B1012801D0022824D18748864E51
:105260000089143E01043160372171604021C6E994
:10527000021B090130463161FEF7A6FF3720FBF71C
:10528000AFFB0028B3D130461721C0E9007140219F
:10529000C6E9021B09013161FEF796FF1720FBF7F3
:1052A0009FFB0028A3D1744819211438C0E900914C
:1052B0004021C0E9021B09010161FEF785FF1920A9
:1052C000FBF78EFB002892D101984FF0FF360101C9
:1052D000694801270660C0E90181C0F80CB0C0E947
:1052E00004B7FEF719FFDFF8949199F8010018B19F
:1052F0004D4601287DD0ACE0FBF7ABFEDFF87481B2
:1053000026E0406B400420D5AAEB050020280FD2F0
:1053100081074FEA900700D07F1C002605E0206837
:10532000FEF772FF241D2D1D761CBE42F7D309E047
:10533000002654F82600FEF767FF761C082EF8D3E7
:10534000203420356FF0404602E0002E7FD0761EDC
:10535000D8F83410404640F21A321142D1D0082019
:10536000FEF702FF18B10820FEF7BAFE6FE0022038
:10537000FEF7FAFE20B10220FEF7B2FE022036E769
:105380001020FEF7F1FE20B11020FEF7A9FE052047
:105390002DE74FF400742046FEF7E6FE20B12046CC
:1053A000FEF79EFE072022E74FF48070FEF7DCFE3A
:1053B000B8B199F8000018B1012801D0022810D125
:1053C0002D480C221438C0E900B24022C0E9022B5B
:1053D00011010161FEF7F8FE0C20FBF701FB00282C
:1053E000CDD1FBF738FE40F2FF50FEF779FE30E0FA
:1053F000FFE7414610222046FEF70CFF85F803B078
:10540000AF7085F804B01B48C16B40F21A321143EB
:10541000C163C16A41F00801C1623046184900E029
:10542000401E0A68920402D40028F9D100E018B99D
:10543000FFF752F80BE0761E287908B9E87820B11A
:105440002EB1E87828B1E878D1E6002EF3D1042017
:10545000CDE640F2FF50FEF743FE6846FBF7FEFD47
:1054600000288CD19DF800100729F6D00629F4D029
:10547000BDE60000008001406C02002020000020FA
:105480000004024030B587B001210820FEF736FC49
:1054900001218803FEF726FC4FF46044ADF8144068
:1054A00018208DF817000320194D8DF8160005A956
:1054B0002846FBF701FD21462846FBF780FD00202A
:1054C000ADF800004FF48271ADF80210ADF80400A1
:1054D0000221ADF806100121ADF808104902ADF81F
:1054E0000A103821ADF80C10ADF80E000720094C59
:1054F000ADF810006946204600F059F80121204619
:1055000000F040F8FF2000F007F807B030BD0000C1
:10551000000C01400038004070B506460024114DD3
:1055200003E0641CE4B2C82C0FD80221284600F026
:1055300033F80028F5D03146284600F036F800242C
:1055400005E0641CE4B2C82C01D9002070BD012123
:10555000284600F021F80028F3D0284600F023F870
:10556000C0B270BD0038004001460548028822F0F4
:105570003802028002880A430280012100F002B84A
:10558000003800400029018802D041F0400101E0CC
:1055900021F04001018070470246002012890A4232
:1055A00000D001207047808970478181704730B5F5
:1055B00002884C8802F441530A88CD8822438C88A3
:1055C0002C4322430C8922434C8922438C89224359
:1055D000CC8922431A430280828B22F400628283A8
:1055E000098A018230BD70470CB50022264800921E
:1055F0000192016841F4803101604FF4A0630168B9
:1056000001F4003101910099491C0091019911B9EF
:1056100000999942F3D10168890333D501210191A1
:105620001A490A6842F010020A600A6822F003026E
:105630000A600A6842F002020A60416841604168FB
:105640004160416841F480614160416821F47C110E
:105650004160416841F4E8114160016841F08071A6
:10566000016001688901FCD5416821F003014160B6
:10567000416841F0020141604168C1F381010229A2
:10568000FAD10CBD01920CBD001002400020024076
:105690002DE9F04F1F46824693B013460C468946CB
:1056A000780701D0012100E0002101EBD701794307
:1056B000C8B212900C2F03D0102F01D0182F31D167
:1056C0003A4669461846FBF77DFC002026E01DF8A7
:1056D0000860DFF858B00025300602D5BBF800207E
:1056E00003E01C9828B91248028821465046FBF76F
:1056F000F3FD7006641C060EA4B2A4EB0900B842C8
:1057000005D10AF101004C461FFA80FA03E06D1C36
:10571000EDB2082DE0D308F10100C0B21299804625
:105720008842D4D313B0BDE8F08F00001A000020E7
:105730001C0000202DE9FF4F81B00446DDE90E7505
:1057400080469B460E468A46002081461DE0B9F100
:10575000000F20D003994FF0000908EB0100401B17
:10576000A04202DA701986B244460AEB0B00401BD5
:10577000B0420DDB109800902B463A463146204649
:10578000FFF786FF601984B2BF1C3A78002ADED189
:1057900005B0BDE8F08F802A01D90120D5E7039933
:1057A00008EB0100A0EB5500A04202DA701986B2A6
:1057B00044460AEB0B00401BB042E9DB0D2A0BD03C
:1057C000109800902B4631462046FDF761FE04EB11
:1057D000550084B27F1CD8E7701986B244467F1CFE
:1057E000F5E74FF0E0210428086903D020F0040019
:1057F0000861704740F00400FAE770470F4810B5A1
:10580000016841F00101016041680D4A11404160A9
:1058100001680C4A11400160016821F48021016097
:10582000416821F4FE0141604FF41F018160FFF7E0
:10583000DBFE05494FF00060086010BD001002401B
:105840000000FFF8FFFFF6FE08ED00E010B50C4C7D
:105850000121204600F051F801280AD109480169C8
:1058600088470021204600F05EF86421204600F0C1
:1058700058F82046BDE81040012100F028B800008B
:10588000000800403801002070B5094D012128466C
:1058900000F033F830B1074C07A02178FAF70AFD81
:1058A000002020702846BDE87040012100F00FB8AC
:1058B00000100040300000206672616D653A25647A
:1058C0006670730D0A000000C94301827047C94326
:1058D000018270470029018802D041F0010101E0F6
:1058E00021F0010101807047808C70470246002042
:1058F000128A0A4200D00120704702460020138A13
:1059000092890B4202EA010202D0002A00D0012053
:105910007047002A828901D00A4300E08A438281CD
:1059200070478185704781847047000030B50288D8
:105930001B4C1C4DA0420DD0A8420BD0B0F1804FA3
:1059400008D0194B984205D0184B984202D0184BFA
:10595000984203D122F070034A881A43154B9842AB
:1059600006D0154B984203D022F44073CA881A43DC
:1059700002808A8882850A880285A0420AD0A842CD
:1059800008D00E4A904205D00D4A904202D00D4AEE
:10599000904201D1097A01860121818230BD000047
:1059A000002C014000340140000400400008004089
:1059B000000C004000100040001400400040014076
:1059C00000440140004801407FB50D4604460121D6
:1059D0000420FEF787F9ADF804400020ADF8005030
:1059E000104CADF80600ADF8020069462046FFF7FE
:1059F0009DFF012241212046FFF78BFF1E218DF8DC
:105A00000C1003218DF80D108DF80E1001208DF86B
:105A10000F0003A8FDF746FE01212046FFF75AFFBD
:105A20007FBD00000008004070B5154C40F22551C4
:105A3000204600F035F800280ED0204600F0BEF8D1
:105A4000104AC1B21088030406D444044FF0000386
:105A500006D50A2901D0138070BD40F400400DE046
:105A60000D2909D0C0F30D04074D401C80B2295503
:105A70001080C728EFD870BD40F48040108070BD02
:105A800000380140360000200005002000298189EF
:105A900002D041F4005101E021F4005181817047AE
:105AA00070B501F01F0501260024C1F3421306FA68
:105AB00005F2012B0FD0022B0FD0838A4FEA112160
:105AC0000088134206FA01F600EA060001D000B190
:105AD0000124204670BD8389F0E7038AEEE710B504
