:020000040800F2
:1000000028C7002045670008C1040008C304000891
:10001000C7040008CB040008CF040008000000005B
:10002000000000000000000000000000D3040008F1
:10003000D504000800000000D7040008D904000817
:100040005F6700085F6700085F6700085F67000878
:100050005F6700085F6700085F6700085F67000868
:100060005F6700085F6700085F6700085F67000858
:100070005F6700085F6700085F6700085F67000848
:100080005F6700085F6700085F6700085F67000838
:100090005F6700085F6700085F6700085F67000828
:1000A0005F6700085F6700085F6700085F67000818
:1000B0005F6700085F67000885D500085F67000874
:1000C0005F6700085F6700085F6700085F670008F8
:1000D0005F670008BB6600085F6700085F6700088D
:1000E0005F6700085F6700085F6700085F670008D8
:1000F0005F6700085F6700085F6700085F670008C8
:100100005F670008215C00085F6700085F67000800
:100110005F6700085F6700085F6700085F670008A7
:100120005F6700085F6700085F6700085F67000897
:1001300000F002F800F06BF80AA090E8000C82448E
:100140008344AAF10107DA4501D100F060F8AFF26B
:10015000090EBAE80F0013F0010F18BFFB1A43F0A5
:1001600001031847801F0100A01F01000A444FF03F
:10017000000C10F8013B13F0070408BF10F8014B06
:100180001D1108BF10F8015B641E05D010F8016B4B
:10019000641E01F8016BF9D113F0080F1EBF10F8AF
:1001A000014BAD1C0C1B09D16D1E58BF01F801CBD2
:1001B000FAD505E014F8016B01F8016B6D1EF9D555
:1001C0009142D6D37047000000230024002500266A
:1001D000103A28BF78C1FBD8520728BF30C148BFAA
:1001E0000B60704764290EF0438775290EF0408735
:1001F00078290EF0798763290FF0358273290FF083
:100200003A82002070471FB51FBD10B510BD0FF01A
:100210007FFA1146FFF7F7FF00F008F80FF09DFA9C
:1002200003B4FFF7F2FF03BC06F0ECF90EB506F0DD
:1002300079F94FF4A06006F0A5FA4FF4E13006F02A
:10024000F0F9644841684820884700F037FA00F028
:100250005BFA00F027FF03F011FE05F0C9FD002056
:1002600008F047FE0CF0B6F95B49012208685BA173
:100270000AF03FFB58490122486859A10AF039FBAE
:100280004FF478405749088015E057A010210B46DD
:10029000C822CDE9001032211E2003F08EFCC820B8
:1002A00006F07DF94FF6FF704223F02232210090D4
:1002B0001E2003F028FA0EF084F90028E5D1102161
:1002C0004CA20B46CDE900210290C82232211E200B
:1002D0000EF083FA002010214BA20B46CDE900213D
:1002E0000290C82246211E200EF077FA002010212D
:1002F00049A20B46CDE900210290C8225A211E20B6
:100300000EF06BFA0020102148A20B46CDE9002127
:100310000290C8226E211E200EF05FFA00201021EC
:1003200046A20B46CDE900210290C82282211E2060
:100330000EF053FA0020102144A20B46CDE9002113
:100340000290C82296211E200EF047FA00201021AC
:1003500042A20B46CDE900210290C822AA211E200C
:100360000EF03BFA34E0002042490860102142A21E
:100370000B46CDE900210290C822D2211E200EF0AA
:100380002CFA05F0ACFE044621463FA00EF000FE1C
:100390000020102141A20B46CDE900210290C82285
:1003A000D2211E200EF019FA05F000FE00201021C7
:1003B0003EA20B46CDE900210290C822D2211E2088
:1003C0000EF00BFA01203D49C1F894010EF0BFFB7D
:1003D000C9E70000C001002080000020303A000082
:1003E000313A000016000020466F6E74204572728C
:1003F0006F722100BEABD3A22053544D3332BFAA3B
:10040000B7A2B0E500000000574156C2BCD2F4BB11
:10041000FACAB5D1E9000000D5FDB5E3D4ADD7D314
:1004200040414C49454E54454B0000003230313577
:10043000C4EA34D4C23330C8D50000004B4559302B
:100440003A5245432F504155534500004B455931D1
:100450003A53544F50265341564500004B45595F7F
:1004600055503A506C6179205468652046696C6536
:100470000000000094012342B4E6B4A2C6F7B2E241
:10048000CAD42E2E2E00000052616D205465737464
:100490003A3058253034580D0A000000D5FDCFD22F
:1004A000B2A8B2E2CAD42E2E2E0000003C3C574126
:1004B00056C2BCD2F4BBFA3E3E000000000023420C
:1004C000704700BFFEE700BFFEE700BFFEE700BFCA
:1004D000FEE7704770477047704700000CB500207A
:1004E000019000906C48006840F480306A490860D0
:1004F00000BF6948006800F4003000900198401C7B
:100500000190009818B90198B0F5A06FF1D1624838
:10051000006800F4003010B10120009001E00020DC
:1005200000900098012843D15C48006840F010001A
:100530005A4908600846006820F003000860084631
:10054000006840F002000860534840685249486023
:100550000846406848600846406840F4806048604B
:100560000846406820F47C1048600846406840F423
:10057000E81048600846006840F08070086000BFDE
:100580004548006800F000700028F9D042484068F3
:1005900020F00300404948600846406840F00200EF
:1005A000486000BF3C48406800F00C000828F9D1C2
:1005B0000CBD10B5FFF792FF10BD10B536480068AE
:1005C00040F001003449086008464068344908405A
:1005D0003149486008460068324908402E490860A1
:1005E0000846006820F4802008600846406820F42F
:1005F000FE0048604FF41F008860FFF7DAFF4FF0FD
:1006000000602949086010BD10B5002100200022BB
:10061000214B5B6803F00C0121B1042906D00829A5
:1006200028D107E0214B224C236027E01F4B204CB0
:10063000236023E0184B5B6803F47010164B5B6873
:1006400003F48032022303EB904022B9194B434359
:10065000174C23600DE0104B5B6803F4003323B1AB
:10066000144B4343124C236003E0104B4343104CA4
:10067000236003E00D4B0E4C236000BF00BF064B10
:100680005B68C3F303130C4CE15C094B1B68CB4064
:10069000074C236010BD0000001002400020024003
:1006A0000000FFF8FFFFF6FE08ED00E000127A0000
:1006B0000000002000093D000400002008B50121D1
:1006C000482006F0EFFE2020ADF8000010208DF845
:1006D000030003208DF802006946094806F026FC55
:1006E0002021074806F0CFFC2020ADF80000694625
:1006F000044806F01BFC2021024806F0C4FC08BD9B
:10070000000C01400018014008B50121442006F00A
:10071000C9FE1C20ADF8000048208DF80300694692
:10072000354806F003FC0120ADF8000028208DF8C4
:1007300003006946314806F0F9FB08BD10B50446D0
:1007400014B101202E4908702D480078002837D0B8
:100750001021294806F07DFC78B10821264806F0D2
:1007600078FC50B10421244806F073FC28B1012123
:10077000224806F06EFC012822D10A2005F00FFF66
:1007800000201F49087010211B4806F062FC08B9C0
:10079000012010BD0821184806F05BFC08B90220B2
:1007A000F7E70421144806F054FC08B90320F0E7E9
:1007B0000121124806F04DFC01281BD10420E8E776
:1007C00010210D4806F045FC012813D108210A48E4
:1007D00006F03FFC01280DD10421074806F039FC42
:1007E000012807D10121054806F033FC10B901208A
:1007F000034908700020CCE70018014000080140C0
:1008000014000020FE4908807047FD49891C0880BB
:10081000704708B5FA48801C00880090BDF80000B9
:1008200008BDF74A1080921C1180704710B504462D
:100830002046FFF7E7FF052005F08DFEFFF7E9FFF3
:1008400010BDF0480089EE4908807047EC49891CCA
:100850000880704730B5014601F01F04C1F345130D
:10086000CA0AE50205EB43151544A8B230BD00BF26
:10087000011EA0F10102D0B2FAD1704700B50246C4
:100880000B46E048808841F66311884247D1DD4835
:100890008079A8B9DB480088401E801A82B2D94905
:1008A0004889FFF7AFFF0020FFF7AFFF0020FFF7F9
:1008B000ACFF1012FFF7A9FFD0B2FFF7A6FF16E0BA
:1008C000D0494889FFF79EFF1012FFF79EFFD0B274
:1008D000FFF79BFFCB490988491EC1F30F20FFF7A3
:1008E00094FFC8490978491EC8B2FFF78EFFC54971
:1008F0008889FFF787FF1812FFF787FFD8B2FFF745
:1009000084FFC0494988491EC1F30F20FFF77DFFCE
:10091000BC498978491EC8B2FFF777FF3AE0B94869
:10092000808845F21051884220D1B6494889FFF7A6
:1009300069FF1012FFF769FFB2494989491C88B263
:10094000FFF760FFD0B2FFF760FFAE498889FFF77D
:1009500059FF1812FFF759FFAA498989491C88B223
:10096000FFF750FFD8B2FFF750FF13E0A5494889C1
:10097000FFF748FF1012FFF748FFD0B2FFF745FF1F
:10098000A0498889FFF73EFF1812FFF73EFFD8B253
:10099000FFF73BFF00BD2DE9F04105460E469948A3
:1009A0000088A84203DD97484088B04202DC00205E
:1009B000BDE8F08131462846FFF760FF9148808806
:1009C00045F21051884204D14FF43850FFF71AFF16
:1009D00002E02E20FFF716FFFFF71BFF04468948B1
:1009E000808841F66311884201D12046E0E7FFF795
:1009F00010FF0446FFF70DFF8046E7B24FF6FF7089
:100A000000EA0727E012C002B91240EA411040EAAA
:100A1000E820CDE700B57B48808845F21051884238
:100A200004D14FF42450FFF7EDFE02E02920FFF738
:100A3000E9FE00BD00B57348808845F21051884238
:100A400004D14FF42050FFF7DDFE02E02820FFF72D
:100A5000D9FE00BD70B504460023002669488079A0
:100A6000012805D16748808841F66311884208D182
:100A700064488079F0B96348808841F66311884200
:100A800018D1082C15D2DFE804F00406080A0C0E71
:100A9000101206240DE007240BE0042409E00524CD
:100AA00007E0012405E0002403E0032401E0022420
:100AB00000BF00BF082C1CD2DFE804F00406090CBC
:100AC0000F12151800BF14E043F0800311E043F04B
:100AD00040030EE043F0C0030BE043F0200308E0C6
:100AE00043F0600305E043F0A00302E043F0E003BD
:100AF00000BF00BF4348808845F21051884202D1B0
:100B00004FF4585600E036263E48808849F241317D
:100B1000884205D03B48808847F28971884201D1DC
:100B200043F0080319463046FFF77BFE35488088BE
:100B300041F6631188421DD003F0200068B13148AE
:100B4000008830494988884214DA2E480588408850
:100B50002C490880084645800CE02A48008829492D
:100B60004988884206DD274805884088254908804D
:100B7000084645802348808845F21051884257D165
:100B800020494889FFF73EFE0020FFF73EFE1D4941
:100B90004989491C88B2FFF735FE0020FFF735FE72
:100BA00018494989891C88B2FFF72CFE1549098824
:100BB000491EC1F30F20FFF728FE12494989C91CBD
:100BC00088B2FFF71FFE0F490978491EC8B2FFF728
:100BD0001CFE0C498889FFF715FE0020FFF715FE63
:100BE00008498989491C88B2FFF70CFE0020FFF7ED
:100BF0000CFE04498989891C88B2FFF703FE03E0D3
:100C0000FE07006CB4020020FE494988491EC1F36A
:100C10000F20FFF7FAFDFB498989C91C88B2FFF74D
:100C2000F1FDF8498978491EC8B2FFF7EEFD2DE0C5
:100C3000F4494889FFF7E6FD0020FFF7E6FD0020B4
:100C4000FFF7E3FDEF490988491EC1F30F20FFF7C5
:100C5000DCFDEC490978491EC8B2FFF7D6FDE94929
:100C60008889FFF7CFFD0020FFF7CFFD0020FFF7B9
:100C7000CCFDE4494988491EC1F30F20FFF7C5FDAB
:100C8000E0498978491EC8B2FFF7BFFD70BD30B595
:100C900004460D4629462046FFF7F0FDFFF7D1FD3B
:100CA000D9480088D949088030BD10B503460C46A4
:100CB000D448808845F21051884220D1D1494889D2
:100CC000FFF7A0FD1812FFF7A0FDCE494989491C86
:100CD00088B2FFF797FDD8B2FFF797FDC949888919
:100CE000FFF790FD2012FFF790FDC6498989491C46
:100CF00088B2FFF787FDE0B2FFF787FD42E0C14809
:100D0000808841F66311884228D1BE48807920B995
:100D1000BC480088401EC01A83B2BA494889FFF710
:100D200071FD1812FFF771FDD8B2FFF76EFD1812B2
:100D3000FFF76BFDD8B2FFF768FDB2498889FFF76E
:100D400061FD2012FFF761FDE0B2FFF75EFD2012AA
:100D5000FFF75BFDE0B2FFF758FD13E0A9494889B2
:100D6000FFF750FD1812FFF750FDD8B2FFF74DFD09
:100D7000A4498889FFF746FD2012FFF746FDE0B23F
:100D8000FFF743FD9F480089A049891E0880881C01
:100D9000028010BD2DE9F0470446BE20FFF732FD6A
:100DA0000520FFF732FD20460EF019FD07464FF0F3
:100DB0006632974B0EF026FD05460EF0E3FC1FFA57
:100DC00080F94846FFF721FD0120FFF71EFDFF20B7
:100DD000FFF71BFD0020FFF718FD0020FFF715FDB2
:100DE000BDE8F08710B5044686488471002C45D1D3
:100DF000F020844908804FF4A0704880084680881D
:100E000045F21051884210D14FF430507D4908818D
:100E10004FF4285048814FF42C5088814FF4F070E3
:100E200008804FF4487048801AE07648808841F680
:100E3000631188420DD12C20724908812B204881F2
:100E40002A2088814FF4F07008804FF44870488061
:100E500006E02C206B4908812A2048812B208881BC
:100E60006848808845F2103188424CD14FF4A07018
:100E7000644908804FF4F070488044E04FF4A0705B
:100E800060490880F02048800846808845F210516B
:100E9000884210D14FF430505A4908814FF42850FD
:100EA00048814FF42C5088814FF4487008804FF4EB
:100EB000F07048801AE05348808841F663118842F8
:100EC0000DD12C204F4908812A2048812B20888170
:100ED0004FF4487008804FF4F070488006E02C20F2
:100EE000484908812A2048812B20888145488088EC
:100EF00045F21031884206D14FF4F0704149088024
:100F00004FF4A07048800020FFF7A4FD10BDF0B59D
:100F100004460D46A018401E86B2E818401E87B24F
:100F20003848808841F66311884231D1354880794C
:100F300001282DD033480088801A001B84B2E8189D
:100F4000401E83B22F494889FFF75CFC2012FFF74F
:100F50005CFCE0B2FFF759FCA118491EC1F30F2059
:100F6000FFF753FCA118491EC8B2FFF74EFC2549F4
:100F70008889FFF747FC2812FFF747FCE8B2FFF724
:100F800044FC1812FFF741FCD8B2FFF73EFC73E0B7
:100F90001C48808845F2105188424DD11949488932
:100FA000FFF730FC2012FFF730FC16494989491C35
:100FB00088B2FFF727FCE0B2FFF727FC1149498907
:100FC000891C88B2FFF71EFC3012FFF71EFC0D498A
:100FD0004989C91C88B2FFF715FCF0B2FFF715FC70
:100FE00008498889FFF70EFC2812FFF70EFC054917
:100FF0008989491C88B2FFF705FCE8B2FFF705FCB8
:10100000004907E0B4020020160000200008006C30
:10101000666604408989891C88B2FFF7F3FB3812A1
:10102000FFF7F3FBFE498989C91C88B2FFF7EAFB89
:10103000F8B2FFF7EAFB1FE0F9494889FFF7E2FB46
:101040002012FFF7E2FBE0B2FFF7DFFB3012FFF701
:10105000DCFBF0B2FFF7D9FBF1498889FFF7D2FB3F
:101060002812FFF7D2FBE8B2FFF7CFFB3812FFF7E9
:10107000CCFBF8B2FFF7C9FBF0BD70B50446002603
:10108000E74805884088454300210846FFF7F6FBFE
:10109000FFF7D7FB00BF02E0E2480480761CAE42B7
:1010A000FAD370BD00B59FB00121080206F0EDF93A
:1010B00001214FF4B47006F0F5F90120ADF8780085
:1010C00010208DF87B0003208DF87A001EA9D648E9
:1010D00005F02CFF4CF23370ADF8780018208DF835
:1010E0007B0003208DF87A001EA9D04805F01EFF72
:1010F0004FF68070ADF8780018208DF87B00032043
:101100008DF87A001EA9CA4805F010FF41F20100CF
:10111000ADF8780018208DF87B0003208DF87A0058
:101120001EA9C44805F002FF012008900020099084
:101130000F200A9000200B900C900D900E900190C3
:1011400002900320039000200490059006900790E1
:1011500006200F9000201090119010201290002077
:10116000139015901490169017904FF4805018908B
:10117000002019904FF480401A9000201B9008A87E
:101180001C9001A81D900FA805F0B6FB01210620B8
:1011900005F01AFD322005F002FAD320FFF732FBEA
:1011A000FFF737FB9E498880FFF733FB9C49888017
:1011B000FFF72FFB9A498880084680884FF6FF7119
:1011C00001EA002096498880FFF723FB944989882B
:1011D0000843934988800846808849F24131884213
:1011E0007ED00420FFF70EFBFFF713FB8C498880AD
:1011F000FFF70FFB8A498880FFF70BFB884988803F
:10120000084680884FF6FF7101EA002084498880F3
:10121000FFF7FFFA82498988084381498880084698
:10122000808848F25251884203D147F289707C4944
:1012300088807B48808847F2897188427AD0D420A0
:10124000FFF7E0FAFFF7E5FA75498880FFF7E1FA62
:1012500073498880FFF7DDFA7149888008468088E5
:101260004FF6FF7101EA00206D498880FFF7D1FA3F
:101270006B49898808436A4988800846808845F216
:101280001031884256D04FF45A40FFF7BBFAFFF7AF
:10129000C0FA634988804FF45B40FFF7B3FAFFF769
:1012A000B8FA5F498880084680884FF6FF7101EAE6
:1012B00000205B4988804FF45C40FFF7A3FAFFF7FA
:1012C000A8FA574989880843554988800846808884
:1012D000B0F5004F02D145F210508880504800E030
:1012E00028E0808845F21051884223D0A120FFF7E2
:1012F00089FAFFF78EFA4A498880FFF78AFA484947
:101300008880084680884FF6FF7101EA0020444932
:101310008880FFF77EFA42498988084340498880DF
:101320000846808845F26171884203D141F6631016
:101330003B4988803A4881883FA00DF029FE384813
:10134000808849F2413188427ED1CF20FFF75AFA96
:101350000020FFF75AFAC120FFF757FA3020FFF7B5
:1013600054FAED20FFF74EFA6420FFF74EFA0320FF
:10137000FFF74BFA1220FFF748FA8120FFF745FAF2
:10138000E820FFF73FFA8520FFF73FFA1020FFF72C
:101390003CFA7A20FFF739FACB20FFF733FA3920ED
:1013A000FFF733FA2C20FFF730FA0020FFF72DFA71
:1013B0003420FFF72AFA0220FFF727FAF720FFF779
:1013C00021FA2020FFF721FAEA20FFF71BFA00207C
:1013D000FFF71BFA0020FFF718FAC020FFF712FAF8
:1013E0001B20FFF712FAC120FFF70CFA0120FFF7CC
:1013F0000CFAC520FFF706FA3020FFF706FA302076
:10140000FFF703FAC720FFF7FDF9B720FFF7FDF953
:101410003620FFF7F7F94820FFF7F7F93A2014E0F4
:10142000B40200200008006C000C014000140140D0
:101430000018014000200140204C43442049443A18
:1014400025780D0A00000000ABE0FFF7DBF955201E
:10145000FFF7DBF9B120FFF7D5F90020FFF7D5F949
:101460001A20FFF7D2F9B620FFF7CCF90A20FFF7D0
:10147000CCF9A220FFF7C9F9F220FFF7C3F9002049
:10148000FFF7C3F92620FFF7BDF90120FFF7BDF9EB
:10149000E020FFF7B7F90F20FFF7B7F92A20FFF791
:1014A000B4F92820FFF7B1F90820FFF7AEF90E20B4
:1014B000FFF7ABF90820FFF7A8F95420FFF7A5F9CB
:1014C000A920FFF7A2F94320FFF79FF90A20FFF7B1
:1014D0009CF90F20FFF799F90020FFF796F90020FB
:1014E000FFF793F90020FFF790F90020FFF78DF93F
:1014F000E120FFF787F90020FFF787F91520FFF7B4
:1015000084F91720FFF781F90720FFF77EF91120F2
:10151000FFF77BF90620FFF778F92B20FFF775F925
:101520005620FFF772F93C20FFF76FF90520FFF70F
:101530006CF91020FFF769F90F20FFF766F93F20DB
:10154000FFF763F93F20FFF760F90F20FFF75DF920
:101550002B20FFF757F90020FFF757F90020FFF77E
:1015600054F90120FFF751F93F20FFF74EF92A20E7
:10157000FFF748F90020FFF748F90020FFF745F989
:101580000020FFF742F9EF20FFF73FF91120FFF7A6
:1015900039F9782005F003F82920FFF733F902F034
:1015A000A6B8FE48808847F2897188427ED1112012
:1015B000FFF728F9782004F0F2FF3620FFF722F930
:1015C0000020FFF722F93A20FFF71CF90520FFF76A
:1015D0001CF9B220FFF716F90C20FFF716F90C20C2
:1015E000FFF713F90020FFF710F93320FFF70DF98B
:1015F0003320FFF70AF9B720FFF704F93520FFF78A
:1016000004F9BB20FFF7FEF83220FFF7FEF8C020F8
:10161000FFF7F8F80C20FFF7F8F8C220FFF7F2F810
:101620000120FFF7F2F8C320FFF7ECF81020FFF7D6
:10163000ECF8C420FFF7E6F82020FFF7E6F8C62014
:10164000FFF7E0F80F20FFF7E0F8D020FFF7DAF817
:10165000A420FFF7DAF8A120FFF7D7F8E020FFF782
:10166000D1F8D020FFF7D1F80020FFF7CEF8022004
:10167000FFF7CBF80720FFF7C8F80A20FFF7C5F8F7
:101680002820FFF7C2F83220FFF7BFF84420FFF709
:10169000BCF84220FFF7B9F80620FFF7B6F80E2095
:1016A000FFF7B3F81220FFF7B0F800E054E0142081
:1016B000FFF7ABF81720FFF7A8F8E120FFF7A2F833
:1016C000D020FFF7A2F80020FFF79FF80220FFF7D5
:1016D0009CF80720FFF799F80A20FFF796F82820D2
:1016E000FFF793F83120FFF790F85420FFF78DF8BB
:1016F0004720FFF78AF80E20FFF787F81C20FFF736
:1017000084F81720FFF781F81B20FFF77EF81E20D2
:10171000FFF77BF82A20FFF775F80020FFF775F830
:101720000020FFF772F80020FFF76FF8EF20FFF7B7
:101730006CF82B20FFF766F80020FFF766F8002012
:10174000FFF763F80120FFF760F83F20FFF75DF82F
:101750002920FFF757F822E79048808845F210319A
:10176000884240F07C87ED20FFF74CF80120FFF71E
:101770004CF8FE20FFF749F8EE20FFF743F8DE2093
:10178000FFF743F82120FFF740F8F120FFF73AF880
:101790000120FFF73AF8DF20FFF734F81020FFF7B9
:1017A00034F8C420FFF72EF88F20FFF72EF8C6205C
:1017B000FFF728F80020FFF728F8E220FFF725F8C8
:1017C000E220FFF722F8E220FFF71FF8BF20FFF723
:1017D00019F8AA20FFF719F8B020FFF713F80D2029
:1017E000FFF713F80020FFF710F80D20FFF70DF8B2
:1017F0000020FFF70AF81120FFF707F80020FFF795
:1018000004F81920FFF701F80020FEF7FEFF212061
:10181000FEF7FBFF0020FEF7F8FF2D20FEF7F5FF97
:101820000020FEF7F2FF3D20FEF7EFFF0020FEF75D
:10183000ECFF5D20FEF7E9FF0020FEF7E6FF5D20EC
:10184000FEF7E3FF0020FEF7E0FFB120FEF7DAFF2E
:101850008020FEF7DAFF0020FEF7D7FF8B20FEF78F
:10186000D4FF0020FEF7D1FF9620FEF7CEFF002028
:10187000FEF7CBFFB220FEF7C5FF0020FEF7C5FF45
:101880000020FEF7C2FF0220FEF7BFFF0020FEF798
:10189000BCFF0320FEF7B9FF0020FEF7B6FFB32020
:1018A000FEF7B0FF0020FEF7B0FF0020FEF7ADFF0F
:1018B0000020FEF7AAFF0020FEF7A7FF0020FEF79A
:1018C000A4FF0020FEF7A1FF0020FEF79EFF0020EE
:1018D000FEF79BFF0020FEF798FF0020FEF795FF24
:1018E0000020FEF792FF0020FEF78FFF0020FEF79A
:1018F0008CFF0020FEF789FF0020FEF786FF002006
:10190000FEF783FF0020FEF780FF0020FEF77DFF3B
:101910000020FEF77AFF0020FEF777FF0020FEF799
:1019200074FF0020FEF771FF0020FEF76EFF00201D
:10193000FEF76BFFB420FEF765FF8B20FEF765FF17
:101940000020FEF762FF9620FEF75FFF0020FEF703
:101950005CFFA120FEF759FF0020FEF756FFB520DF
:10196000FEF750FF0220FEF750FF0020FEF74DFF6C
:101970000320FEF74AFF0020FEF747FF0420FEF792
:1019800044FF0020FEF741FFB620FEF73BFF00209A
:10199000FEF73BFF0020FEF738FF01E0B402002015
:1019A000B720FEF72FFF0020FEF72FFF0020FEF7E5
:1019B0002CFF3F20FEF729FF0020FEF726FF5E20C8
:1019C000FEF723FF0020FEF720FF6420FEF71DFF37
:1019D0000020FEF71AFF8C20FEF717FF0020FEF70D
:1019E00014FFAC20FEF711FF0020FEF70EFFDC20F5
:1019F000FEF70BFF0020FEF708FF7020FEF705FF43
:101A00000020FEF702FF9020FEF7FFFE0020FEF709
:101A1000FCFEEB20FEF7F9FE0020FEF7F6FEDC20D0
:101A2000FEF7F3FE0020FEF7F0FEB820FEF7EAFE18
:101A30000020FEF7EAFE0020FEF7E7FE0020FEF79A
:101A4000E4FE0020FEF7E1FE0020FEF7DEFE0020AF
:101A5000FEF7DBFE0020FEF7D8FE0020FEF7D5FEE5
:101A6000BA20FEF7CFFE2420FEF7CFFE0020FEF7BF
:101A7000CCFE0020FEF7C9FE0020FEF7C6FEC12006
:101A8000FEF7C0FE2020FEF7C0FE0020FEF7BDFEE0
:101A90005420FEF7BAFE0020FEF7B7FEFF20FEF747
:101AA000B4FE0020FEF7B1FEC220FEF7ABFE0A2016
:101AB000FEF7ABFE0020FEF7A8FE0420FEF7A5FE11
:101AC0000020FEF7A2FEC320FEF79CFE3C20FEF79E
:101AD0009CFE0020FEF799FE3A20FEF796FE0020BD
:101AE000FEF793FE3920FEF790FE0020FEF78DFEF4
:101AF0003720FEF78AFE0020FEF787FE3C20FEF727
:101B000084FE0020FEF781FE3620FEF77EFE0020D8
:101B1000FEF77BFE3220FEF778FE0020FEF775FE12
:101B20002F20FEF772FE0020FEF76FFE2C20FEF73E
:101B30006CFE0020FEF769FE2920FEF766FE0020FD
:101B4000FEF763FE2620FEF760FE0020FEF75DFE36
:101B50002420FEF75AFE0020FEF757FE2420FEF751
:101B600054FE0020FEF751FE2320FEF74EFE00201B
:101B7000FEF74BFE3C20FEF748FE0020FEF745FE38
:101B80003620FEF742FE0020FEF73FFE3220FEF731
:101B90003CFE0020FEF739FE2F20FEF736FE002027
:101BA000FEF733FE2C20FEF730FE0020FEF72DFE60
:101BB0002920FEF72AFE0020FEF727FE2620FEF74A
:101BC00024FE0020FEF721FE2420FEF71EFE00204A
:101BD000FEF71BFE2420FEF718FE0020FEF715FE80
:101BE0002320FEF712FE0020FEF70FFEC420FEF7B2
:101BF00009FE6220FEF709FE0020FEF706FE052022
:101C0000FEF703FE0020FEF700FE8420FEF7FDFD38
:101C10000020FEF7FAFDF020FEF7F7FD0020FEF7AA
:101C2000F4FD1820FEF7F1FD0020FEF7EEFDA420E4
:101C3000FEF7EBFD0020FEF7E8FD1820FEF7E5FDBE
:101C40000020FEF7E2FD5020FEF7DFFD0020FEF74A
:101C5000DCFD0C20FEF7D9FD0020FEF7D6FD172095
:101C6000FEF7D3FD0020FEF7D0FD9520FEF7CDFD59
:101C70000020FEF7CAFDF320FEF7C7FD0020FEF7A7
:101C8000C4FDE620FEF7C1FD0020FEF7BEFDC52025
:101C9000FEF7B8FD3220FEF7B8FD0020FEF7B5FDD7
:101CA0004420FEF7B2FD0020FEF7AFFD6520FEF7F1
:101CB000ACFD0020FEF7A9FD7620FEF7A6FD002072
:101CC000FEF7A3FD8820FEF7A0FD0020FEF79DFD96
:101CD000C620FEF797FD2020FEF797FD0020FEF7B7
:101CE00094FD1720FEF791FD0020FEF78EFD0120E8
:101CF000FEF78BFD0020FEF788FDC720FEF782FD72
:101D00000020FEF782FD0020FEF77FFD0020FEF799
:101D10007CFD0020FEF779FDC820FEF773FD002052
:101D2000FEF773FD0020FEF770FD0020FEF76DFD4D
:101D30000020FEF76AFDC920FEF764FD0020FEF7D3
:101D400064FD0020FEF761FD0020FEF75EFD00202F
:101D5000FEF75BFD0020FEF758FD0020FEF755FD65
:101D60000020FEF752FD0020FEF74FFD0020FEF799
:101D70004CFD0020FEF749FD0020FEF746FD002047
:101D8000FEF743FD0020FEF740FD0020FEF73DFD7D
:101D90000020FEF73AFD0020FEF737FDE020FEF7B9
:101DA00031FD1620FEF731FD0020FEF72EFD1C2030
:101DB000FEF72BFD0020FEF728FD2120FEF725FD74
:101DC0000020FEF722FD3620FEF71FFD0020FEF763
:101DD0001CFD4620FEF719FD0020FEF716FD5220DF
:101DE000FEF713FD0020FEF710FD6420FEF70DFD49
:101DF0000020FEF70AFD7A20FEF707FD0020FEF71F
:101E000004FD8B20FEF701FD0020FEF7FEFC99206B
:101E1000FEF7FBFC0020FEF7F8FCA820FEF7F5FC1F
:101E20000020FEF7F2FCB920FEF7EFFC0020FEF7E1
:101E3000ECFCC420FEF7E9FC0020FEF7E6FCCA201B
:101E4000FEF7E3FC0020FEF7E0FCD220FEF7DDFC0D
:101E50000020FEF7DAFCD920FEF7D7FC0020FEF7C1
:101E6000D4FCE020FEF7D1FC0020FEF7CEFCF320EE
:101E7000FEF7CBFC0020FEF7C8FCE120FEF7C2FC19
:101E80001620FEF7C2FC0020FEF7BFFC1C20FEF768
:101E9000BCFC0020FEF7B9FC2220FEF7B6FC0020B7
:101EA000FEF7B3FC3620FEF7B0FC0020FEF7ADFCD9
:101EB0004520FEF7AAFC0020FEF7A7FC5220FEF703
:101EC000A4FC0020FEF7A1FC6420FEF79EFC00208D
:101ED000FEF79BFC7A20FEF798FC0020FEF795FCAD
:101EE0008B20FEF792FC0020FEF78FFC9920FEF776
:101EF0008CFC0020FEF789FCA820FEF786FC002061
:101F0000FEF783FCB920FEF780FC0020FEF77DFC85
:101F1000C420FEF77AFC0020FEF777FCCA20FEF70B
:101F200074FC0020FEF771FCD220FEF76EFC00204E
:101F3000FEF76BFCD820FEF768FC0020FEF765FC7E
:101F4000E020FEF762FC0020FEF75FFCF320FEF7C6
:101F50005CFC0020FEF759FCE220FEF753FC052054
:101F6000FEF753FC0020FEF750FC0B20FEF74DFC63
:101F70000020FEF74AFC1B20FEF747FC0020FEF77E
:101F800044FC3420FEF741FC0020FEF73EFC4420D8
:101F9000FEF73BFC0020FEF738FC4F20FEF735FC37
:101FA0000020FEF732FC6120FEF72FFC0020FEF738
:101FB0002CFC7920FEF729FC0020FEF726FC882067
:101FC000FEF723FC0020FEF720FC9720FEF71DFC07
:101FD0000020FEF71AFCA620FEF717FC0020FEF7F3
:101FE00014FCB720FEF711FC0020FEF70EFCC22007
:101FF000FEF70BFC0020FEF708FCC720FEF705FCEF
:102000000020FEF702FCD120FEF7FFFB0020FEF7C8
:10201000FCFBD620FEF7F9FB0020FEF7F6FBDD20E7
:10202000FEF7F3FB0020FEF7F0FBF320FEF7EDFBDD
:102030000020FEF7EAFBE320FEF7E4FB0520FEF7B5
:10204000E4FB0020FEF7E1FB0A20FEF7DEFB0020A8
:10205000FEF7DBFB1C20FEF7D8FB0020FEF7D5FBCC
:102060003320FEF7D2FB0020FEF7CFFB4420FEF723
:10207000CCFB0020FEF7C9FB5020FEF7C6FB00207A
:10208000FEF7C3FB6220FEF7C0FB0020FEF7BDFB9E
:102090007820FEF7BAFB0020FEF7B7FB8820FEF79A
:1020A000B4FB0020FEF7B1FB9720FEF7AEFB00204B
:1020B000FEF7ABFBA620FEF7A8FB0020FEF7A5FB72
:1020C000B720FEF7A2FB0020FEF79FFBC220FEF721
:1020D0009CFB0020FEF799FBC720FEF796FB002033
:1020E000FEF793FBD120FEF790FB0020FEF78DFB5F
:1020F000D520FEF78AFB0020FEF787FBDD20FEF7E8
:1021000084FB0020FEF781FBF320FEF77EFB00201E
:10211000FEF77BFBE420FEF775FB0120FEF775FB65
:102120000020FEF772FB0120FEF76FFB0020FEF798
:102130006CFB0220FEF769FB0020FEF766FB2A20FD
:10214000FEF763FB0020FEF760FB3C20FEF75DFB23
:102150000020FEF75AFB4B20FEF757FB0020FEF74E
:1021600054FB5D20FEF751FB0020FEF74EFB742070
:10217000FEF74BFB0020FEF748FB8420FEF745FBF3
:102180000020FEF742FB9320FEF73FFB0020FEF706
:102190003CFBA220FEF739FB0020FEF736FBB32004
:1021A000FEF733FB0020FEF730FBBE20FEF72DFBD1
:1021B0000020FEF72AFBC420FEF727FB0020FEF7D5
:1021C00024FBCD20FEF721FB0020FEF71EFBD320D1
:1021D000FEF71BFB0020FEF718FBDD20FEF715FBCA
:1021E0000020FEF712FBF320FEF70FFB0020FEF7A6
:1021F0000CFBE520FEF706FB0020FEF706FB0020A7
:10220000FEF703FB0020FEF700FB0020FEF7FDFABF
:102210000220FEF7FAFA0020FEF7F7FA2920FEF76F
:10222000F4FA0020FEF7F1FA3C20FEF7EEFA002067
:10223000FEF7EBFA4B20FEF7E8FA0020FEF7E5FA8E
:102240005D20FEF7E2FA0020FEF7DFFA7420FEF7C9
:10225000DCFA0020FEF7D9FA8420FEF7D6FA002037
:10226000FEF7D3FA9320FEF7D0FA0020FEF7CDFA5E
:10227000A220FEF7CAFA0020FEF7C7FAB320FEF745
:10228000C4FA0020FEF7C1FABE20FEF7BEFA002015
:10229000FEF7BBFAC420FEF7B8FA0020FEF7B5FA45
:1022A000CD20FEF7B2FA0020FEF7AFFAD320FEF7FA
:1022B000ACFA0020FEF7A9FADC20FEF7A6FA00200F
:1022C000FEF7A3FAF320FEF7A0FA0020FEF79DFA2E
:1022D000E620FEF797FA1120FEF797FA0020FEF7A6
:1022E00094FA3420FEF791FA0020FEF78EFA562079
:1022F000FEF78BFA0020FEF788FA7620FEF785FAC3
:102300000020FEF782FA7720FEF77FFA0020FEF722
:102310007CFA6620FEF779FA0020FEF776FA88202C
:10232000FEF773FA0020FEF770FA9920FEF76DFAB7
:102330000020FEF76AFABB20FEF767FA0020FEF7DE
:1023400064FA9920FEF761FA0020FEF75EFA662033
:10235000FEF75BFA0020FEF758FA5520FEF755FA13
:102360000020FEF752FA5520FEF74FFA0020FEF744
:102370004CFA4520FEF749FA0020FEF746FA4320C2
:10238000FEF743FA0020FEF740FA4420FEF73DFA3C
:102390000020FEF73AFAE720FEF734FA3220FEF783
:1023A00034FA0020FEF731FA5520FEF72EFA00200D
:1023B000FEF72BFA7620FEF728FA0020FEF725FA22
:1023C0006620FEF722FA0020FEF71FFA6720FEF7CC
:1023D0001CFA0020FEF719FA6720FEF716FA002013
:1023E000FEF713FA8720FEF710FA0020FEF70DFA29
:1023F0009920FEF70AFA0020FEF707FABB20FEF745
:1024000004FA0020FEF701FA9920FEF7FEF90020F9
:10241000FEF7FBF97720FEF7F8F90020FEF7F5F953
:102420004420FEF7F2F90020FEF7EFF95620FEF700
:10243000ECF90020FEF7E9F92320FEF7E6F9002089
:10244000FEF7E3F93320FEF7E0F90020FEF7DDF9AF
:102450004520FEF7DAF90020FEF7D7F9E820FEF76D
:10246000D1F90020FEF7D1F90020FEF7CEF999202E
:10247000FEF7CBF90020FEF7C8F98720FEF7C5F973
:102480000020FEF7C2F98820FEF7BFF90020FEF712
:10249000BCF97720FEF7B9F90020FEF7B6F96620FF
:1024A000FEF7B3F90020FEF7B0F98820FEF7ADF98A
:1024B0000020FEF7AAF9AA20FEF7A7F90020FEF7F0
:1024C000A4F9BB20FEF7A1F90020FEF79EF99920A0
:1024D000FEF79BF90020FEF798F96620FEF795F9C4
:1024E0000020FEF792F95520FEF78FF90020FEF745
:1024F0008CF95520FEF789F90020FEF786F9442073
:10250000FEF783F90020FEF780F94420FEF77DF9FD
:102510000020FEF77AF95520FEF777F90020FEF744
:1025200074F9E920FEF76EF9AA20FEF76EF9002093
:10253000FEF76BF90020FEF768F90020FEF765F959
:102540000020FEF75FF9AA20FEF75FF9CF20FEF723
:1025500059F90020FEF759F90020FEF756F900203E
:10256000FEF753F90020FEF750F90020FEF74DF971
:102570000020FEF74AF90020FEF747F90020FEF799
:1025800044F90020FEF741F90020FEF73EF9002053
:10259000FEF73BF90020FEF738F90020FEF735F989
:1025A0000020FEF732F90020FEF72FF90020FEF799
:1025B0002CF90020FEF729F9F020FEF723F900207E
:1025C000FEF723F95020FEF720F90020FEF71DF951
:1025D0000020FEF71AF90020FEF717F9F320FEF7A6
:1025E00011F90020FEF711F9F920FEF70BF906208A
:1025F000FEF70BF91020FEF708F92920FEF705F980
:102600000020FEF702F93A20FEF7FCF85520FEF70D
:10261000FCF81120FEF7F6F8642003F0C0FF292033
:10262000FEF7F0F83520FEF7EDF80020FEF7EDF8A4
:102630005120FEF7E7F8FF20FEF7E7F85320FEF7FA
:10264000E1F82C20FEF7E1F85520FEF7DBF88220B8
:10265000FEF7DBF82C20FEF7D5F801F048B8FE486D
:10266000808845F2105188427ED155214FF4704048
:10267000FEF7D7F8AA214FF20100FEF7D2F8522157
:102680004FF20200FEF7CDF808214FF20300FEF7EB
:10269000C8F801214FF20400FEF7C3F80D214FF4F2
:1026A0003040FEF7BEF80D214BF20100FEF7B9F8FD
:1026B0000D214BF20200FEF7B4F834214FF43640FE
:1026C000FEF7AFF834214BF20160FEF7AAF834218F
:1026D0004BF20260FEF7A5F80D214FF43140FEF7F2
:1026E000A0F80D214BF20110FEF79BF80D214BF2E3
:1026F0000210FEF796F834214FF43740FEF791F8B8
:1027000034214BF20170FEF78CF834214BF2027049
:10271000FEF787F800214FF43240FEF782F80021DF
:102720004BF20120FEF77DF800214BF20220FEF76C
:1027300078F824214FF43840FEF773F824214BF643
:102740000100FEF76EF824214BF60200FEF769F84F
:1027500001214FF43F40FEF764F80F214FF433405E
:10276000FEF75FF80F2100E0FEE34BF20130FEF7C9
:1027700058F80F214BF20230FEF753F834214FF492
:102780003940FEF74EF834214BF60110FEF749F8B8
:1027900034214BF60210FEF744F808214FF435407F
:1027A000FEF73FF808214BF20150FEF73AF80821F6
:1027B0004BF20250FEF735F803214FF44240FEF78A
:1027C00030F824214FF43A40FEF72BF824214BF641
:1027D0000120FEF726F824214BF60220FEF721F80F
:1027E00000214FF43C40FEF71CF878214BF60140E5
:1027F000FEF717F800214BF60240FEF712F8002111
:102800004FF43D40FEF70DF878214BF60150FEF7EE
:1028100008F800214BF60250FEF703F800214FF4B0
:102820003E40FDF7FEFF64214BF60160FDF7F9FF26
:1028300000214FF45140FDF7F4FF33214DF2011018
:10284000FDF7EFFF00214DF20210FDF7EAFF342102
:102850004DF20310FDF7E5FF00214DF20410FDF7E6
:10286000E0FF3A214DF20510FDF7DBFF00214DF2AC
:102870000610FDF7D6FF4A214DF20710FDF7D1FFF4
:1028800000214DF20810FDF7CCFF5C214DF209103C
:10289000FDF7C7FF00214DF20A10FDF7C2FF8121AD
:1028A0004DF20B10FDF7BDFF00214DF20C10FDF7AE
:1028B000B8FFA6214DF20D10FDF7B3FF00214DF238
:1028C0000E10FDF7AEFFE5214DF20F10FDF7A9FF49
:1028D00001214DF21010FDF7A4FF13214DF211104C
:1028E000FDF79FFF01214DF21210FDF79AFF5421D1
:1028F0004DF21310FDF795FF01214DF21410FDF775
:1029000090FF82214DF21510FDF78BFF01214DF252
:102910001610FDF786FFCA214DF21710FDF781FF53
:1029200002214DF21810FDF77CFF00214DF2191025
:10293000FDF777FF02214DF21A10FDF772FF01211A
:102940004DF21B10FDF76DFF02214DF21C10FDF73B
:1029500068FF34214DF21D10FDF763FF02214DF297
:102960001E10FDF75EFF67214DF21F10FDF759FFA6
:1029700002214DF22010FDF754FF84214DF2211069
:10298000FDF74FFF02214DF22210FDF74AFFA4216F
:102990004DF22310FDF745FF02214DF22410FDF703
:1029A00040FFB7214DF22510FDF73BFF02214DF20C
:1029B0002610FDF736FFCF214DF22710FDF731FF2E
:1029C00002214DF22810FDF72CFFDE214DF22910D7
:1029D000FDF727FF02214DF22A10FDF722FFF22119
:1029E0004DF22B10FDF71DFF02214DF22C10FDF7CB
:1029F00018FFFE214DF22D10FDF713FF03214DF2BC
:102A00002E10FDF70EFF10214DF22F10FDF709FFDC
:102A100003214DF23010FDF704FF33214DF2311048
:102A2000FDF7FFFE03214DF23210FDF7FAFE6D2196
:102A30004DF23310FDF7F5FE00214FF45240FDF743
:102A4000F0FE33214DF20120FDF7EBFE00214DF2A7
:102A50000220FDF7E6FE01E0B402002034214DF231
:102A60000320FDF7DEFE00214DF20420FDF7D9FE24
:102A70003A214DF20520FDF7D4FE00214DF206204B
:102A8000FDF7CFFE4A214DF20720FDF7CAFE0021D7
:102A90004DF20820FDF7C5FE5C214DF20920FDF73F
:102AA000C0FE00214DF20A20FDF7BBFE81214DF250
:102AB0000B20FDF7B6FE00214DF20C20FDF7B1FE14
:102AC000A6214DF20D20FDF7ACFE00214DF20E20A7
:102AD000FDF7A7FEE5214DF20F20FDF7A2FE012133
:102AE0004DF21020FDF79DFE13214DF21120FDF750
:102AF00098FE01214DF21220FDF793FE54214DF274
:102B00001320FDF78EFE01214DF21420FDF789FE02
:102B100082214DF21520FDF784FE01214DF2162091
:102B2000FDF77FFECA214DF21720FDF77AFE022144
:102B30004DF21820FDF775FE00214DF21920FDF72A
:102B400070FE02214DF21A20FDF76BFE01214DF2BD
:102B50001B20FDF766FE02214DF21C20FDF761FEF1
:102B600034214DF21D20FDF75CFE02214DF21E20A6
:102B7000FDF757FE67214DF21F20FDF752FE02219F
:102B80004DF22020FDF74DFE84214DF22120FDF76E
:102B900048FE02214DF22220FDF743FEA4214DF212
:102BA0002320FDF73EFE02214DF22420FDF739FEE1
:102BB000B7214DF22520FDF734FE02214DF22620EB
:102BC000FDF72FFECF214DF22720FDF72AFE02212F
:102BD0004DF22820FDF725FEDE214DF22920FDF7DC
:102BE00020FE02214DF22A20FDF71BFEF2214DF2BC
:102BF0002B20FDF716FE02214DF22C20FDF711FED1
:102C0000FE214DF22D20FDF70CFE03214DF22E206A
:102C1000FDF707FE10214DF22F20FDF702FE0321E4
:102C20004DF23020FDF7FDFD33214DF23120FDF74F
:102C3000F8FD03214DF23220FDF7F3FD6D214DF239
:102C40003320FDF7EEFD00214FF45340FDF7E9FD81
:102C500033214DF20130FDF7E4FD00214DF2023049
:102C6000FDF7DFFD34214DF20330FDF7DAFD0021E1
:102C70004DF20430FDF7D5FD3A214DF20530FDF758
:102C8000D0FD00214DF20630FDF7CBFD4A214DF27B
:102C90000730FDF7C6FD00214DF20830FDF7C1FDFC
:102CA0005C214DF20930FDF7BCFD00214DF20A30E8
:102CB000FDF7B7FD81214DF20B30FDF7B2FD00218C
:102CC0004DF20C30FDF7ADFDA6214DF20D30FDF7B4
:102CD000A8FD00214DF20E30FDF7A3FDE5214DF2D8
:102CE0000F30FDF79EFD01214DF21030FDF799FDEB
:102CF00013214DF21130FDF794FD01214DF21230F8
:102D0000FDF78FFD54214DF21330FDF78AFD0121AF
:102D10004DF21430FDF785FD82214DF21530FDF79F
:102D200080FD01214DF21630FDF77BFDCA214DF2E9
:102D30001730FDF776FD02214DF21830FDF771FDD9
:102D400000214DF21930FDF76CFD02214DF21A30D1
:102D5000FDF767FD01214DF21B30FDF762FD0221F9
:102D60004DF21C30FDF75DFD34214DF21D30FDF7B5
:102D700058FD02214DF21E30FDF753FD67214DF243
:102D80001F30FDF74EFD02214DF22030FDF749FDC9
:102D900084214DF22130FDF744FD02214DF2223015
:102DA000FDF73FFDA4214DF22330FDF73AFD02214E
:102DB0004DF22430FDF735FDB7214DF22530FDF7FA
:102DC00030FD02214DF22630FDF72BFDCF214DF2D3
:102DD0002730FDF726FD02214DF22830FDF721FDB9
:102DE000DE214DF22930FDF71CFD02214DF22A3083
:102DF000FDF717FDF2214DF22B30FDF712FD0221F8
:102E00004DF22C30FDF70DFDFE214DF22D30FDF77A
:102E100008FD03214DF22E30FDF703FD10214DF288
:102E20002F30FDF7FEFC03214DF23030FDF7F9FCA9
:102E300033214DF23130FDF7F4FC03214DF23230F5
:102E4000FDF7EFFC6D214DF23330FDF7EAFC002178
:102E50004FF45440FDF7E5FC33214DF20140FDF7FE
:102E6000E0FC00214DF20240FDF7DBFC34214DF285
:102E70000340FDF7D6FC00214DF20440FDF7D1FCE4
:102E80003A214DF20540FDF7CCFC00214DF2064001
:102E9000FDF7C7FC4A214DF20740FDF7C2FC0021B7
:102EA0004DF20840FDF7BDFC5C214DF20940FDF7F5
:102EB000B8FC00214DF20A40FDF7B3FC81214DF230
:102EC0000B40FDF7AEFC00214DF20C40FDF7A9FCD4
:102ED000A6214DF20D40FDF7A4FC00214DF20E405D
:102EE000FDF79FFCE5214DF20F40FDF79AFC012113
:102EF0004DF21040FDF795FC13214DF21140FDF706
:102F000090FC01214DF21240FDF78BFC54214DF253
:102F10001340FDF786FC01214DF21440FDF781FCC2
:102F200082214DF21540FDF77CFC01214DF2164047
:102F3000FDF777FCCA214DF21740FDF772FC022124
:102F40004DF21840FDF76DFC00214DF21940FDF7E0
:102F500068FC02214DF21A40FDF763FC01214DF29D
:102F60001B40FDF75EFC00E003E302214DF21C4034
:102F7000FDF757FC34214DF21D40FDF752FC0221B4
:102F80004DF21E40FDF74DFC67214DF21F40FDF74D
:102F900048FC02214DF22040FDF743FC84214DF214
:102FA0002140FDF73EFC02214DF22240FDF739FCA5
:102FB000A4214DF22340FDF734FC02214DF22440C0
:102FC000FDF72FFCB7214DF22540FDF72AFC022129
:102FD0004DF22640FDF725FCCF214DF22740FDF7AD
:102FE00020FC02214DF22840FDF71BFCDE214DF2B2
:102FF0002940FDF716FC02214DF22A40FDF711FC95
:10300000F2214DF22B40FDF70CFC02214DF22C4039
:10301000FDF707FCFE214DF22D40FDF702FC0321D8
:103020004DF22E40FDF7FDFB10214DF22F40FDF734
:10303000F8FB03214DF23040FDF7F3FB33214DF255
:103040003140FDF7EEFB03214DF23240FDF7E9FB85
:103050006D214DF23340FDF7E4FB00214FF4554064
:10306000FDF7DFFB33214DF20150FDF7DAFB0021C4
:103070004DF20250FDF7D5FB34214DF20350FDF720
:10308000D0FB00214DF20450FDF7CBFB3A214DF26D
:103090000550FDF7C6FB00214DF20650FDF7C1FBC0
:1030A0004A214DF20750FDF7BCFB00214DF20850BC
:1030B000FDF7B7FB5C214DF20950FDF7B2FB002193
:1030C0004DF20A50FDF7ADFB81214DF20B50FDF79B
:1030D000A8FB00214DF20C50FDF7A3FBA6214DF2F9
:1030E0000D50FDF79EFB00214DF20E50FDF799FBB0
:1030F000E5214DF20F50FDF794FB01214DF21050E8
:10310000FDF78FFB13214DF21150FDF78AFB0121D2
:103110004DF21250FDF785FB54214DF21350FDF78F
:1031200080FB01214DF21450FDF77BFB82214DF213
:103130001550FDF776FB01214DF21650FDF771FB9E
:10314000CA214DF21750FDF76CFB02214DF21850C9
:10315000FDF767FB00214DF21950FDF762FB0221DC
:103160004DF21A50FDF75DFB01214DF21B50FDF7AA
:1031700058FB02214DF21C50FDF753FB34214DF258
:103180001D50FDF74EFB02214DF21E50FDF749FB8D
:1031900067214DF21F50FDF744FB02214DF22050F4
:1031A000FDF73FFB84214DF22150FDF73AFB022150
:1031B0004DF22250FDF735FBA4214DF22350FDF7CF
:1031C00030FB02214DF22450FDF72BFBB7214DF2CD
:1031D0002550FDF726FB02214DF22650FDF721FB7D
:1031E000CF214DF22750FDF71CFB02214DF2285054
:1031F000FDF717FBDE214DF22950FDF712FB0221EE
:103200004DF22A50FDF70DFBF2214DF22B50FDF748
:1032100008FB02214DF22C50FDF703FBFE214DF27D
:103220002D50FDF7FEFA03214DF22E50FDF7F9FA6D
:1032300010214DF22F50FDF7F4FA03214DF23050DA
:10324000FDF7EFFA33214DF23150FDF7EAFA032191
:103250004DF23250FDF7E5FA6D214DF23350FDF796
:10326000E0FA00214FF45640FDF7DBFA33214DF22E
:103270000160FDF7D6FA00214DF20260FDF7D1FAA8
:1032800034214DF20360FDF7CCFA00214DF20460C9
:10329000FDF7C7FA3A214DF20560FDF7C2FA0021A9
:1032A0004DF20660FDF7BDFA4A214DF20760FDF7C9
:1032B000B8FA00214DF20860FDF7B3FA5C214DF237
:1032C0000960FDF7AEFA00214DF20A60FDF7A9FA98
:1032D00081214DF20B60FDF7A4FA00214DF20C6044
:1032E000FDF79FFAA6214DF20D60FDF79AFA002135
:1032F0004DF20E60FDF795FAE5214DF20F60FDF7F6
:1033000090FA01214DF21060FDF78BFA13214DF276
:103310001160FDF786FA01214DF21260FDF781FA86
:1033200054214DF21360FDF77CFA01214DF2146037
:10333000FDF777FA82214DF21560FDF772FA01214F
:103340004DF21660FDF76DFACA214DF21760FDF7D8
:1033500068FA02214DF21860FDF763FA00214DF280
:103360001960FDF75EFA02214DF21A60FDF759FA75
:1033700001214DF21B60FDF754FA02214DF21C6051
:10338000FDF74FFA34214DF21D60FDF74AFA022194
:103390004DF21E60FDF745FA67214DF21F60FDF703
:1033A00040FA02214DF22060FDF73BFA84214DF2F4
:1033B0002160FDF736FA02214DF22260FDF731FA65
:1033C000A4214DF22360FDF72CFA02214DF2246076
:1033D000FDF727FAB7214DF22560FDF722FA022109
:1033E0004DF22660FDF71DFACF214DF22760FDF763
:1033F00018FA02214DF22860FDF713FADE214DF292
:103400002960FDF70EFA02214DF22A60FDF709FA54
:10341000F2214DF22B60FDF704FA02214DF22C60EF
:10342000FDF7FFF9FE214DF22D60FDF7FAF90321BA
:103430004DF22E60FDF7F5F910214DF22F60FDF7EA
:10344000F0F903214DF23060FDF7EBF933214DF235
:103450003160FDF7E6F903214DF23260FDF7E1F945
:103460006D214DF23360FDF7DCF955214FF47040CA
:10347000FDF7D7F9AA214FF20100FDF7D2F9522149
:103480004FF20200FDF7CDF908214FF20300FDF7DE
:10349000C8F900214FF20400FDF7C3F9CC214FF425
:1034A0003140FDF7BEF900214BF20110FDF7B9F9EB
:1034B00005214FF43640FDF7B4F970214FF4374041
:1034C000FDF7AFF970214BF20170FDF7AAF9012168
:1034D0004FF43840FDF7A5F903214BF60100FDF745
:1034E000A0F903214BF60200FDF79BF903214BF6EF
:1034F0000300FDF796F902214FF43C40FDF791F9E6
:1035000000214BF60140FDF78CF900214BF60240FB
:10351000FDF787F9D0214FF44940FDF782F90221E8
:103520004CF60110FDF77DF950214CF60210FDF725
:1035300078F950214CF60310FDF773F950214CF641
:103540000410FDF76EF900214FF45450FDF769F9AE
:1035500055214FF46850FDF764F94FF48850FDF79A
:1035600051F9782002F0F7FF4FF42450FDF74AF9A3
:10357000BDE0FE48808841F663118842F8D1E22020
:10358000FDF740F91D20FDF740F90220FDF73DF958
:103590000420FDF73AF9642002F0DDFFE020FDF79A
:1035A00031F90120FDF731F90A2002F0F8FFE0209F
:1035B000FDF728F90320FDF728F90C2002F0EFFFB2
:1035C0000120FDF71FF90A2002F0E9FFE620FDF7D0
:1035D00019F92F20FDF719F9FF20FDF716F9FF2043
:1035E000FDF713F9B020FDF70DF92020FDF70DF9D7
:1035F0000020FDF70AF90320FDF707F940F21F301C
:10360000FDF703F90120FDF700F940F2DF10FDF7A7
:10361000FCF80020FDF7F9F8B420FDF7F3F80420DA
:10362000FDF7F3F840F21F40FDF7EFF80020FDF73B
:10363000ECF82E20FDF7E9F80020FDF7E6F8002071
:10364000FDF7E3F80020FDF7E0F80020FDF7DDF8D6
:10365000B620FDF7D7F80220FDF7D7F84FF4037036
:10366000FDF7D3F80020FDF7D0F81720FDF7CDF8CF
:103670001520FDF7CAF80020FDF7C7F80020FDF778
:10368000C4F8F020FDF7BEF80320FDF7BEF82920AE
:10369000FDF7B8F8D020FDF7B5F80020FDF7B5F834
:1036A000BE20FDF7AFF80520FDF7AFF8FE20FDF7CF
:1036B000ACF80120FDF7A9F80020FDF7A6F80020DE
:1036C000FDF7A3F80020FDF7A0F8B820FDF79AF861
:1036D0000320FDF79AF80120FDF797F8BA20FDF7CF
:1036E00091F80120FDF791F86420FDF753FB0020CD
:1036F000FDF778FB01209E4908604FF6FF70FDF74B
:10370000BCFC1FB000BD2DE9F04F05460E46174624
:103710009846DDF824A04FF0000B781B401C1FFAE0
:1037200080FB344613E021462846FDF7A7F8FDF755
:1037300088F84FF0000906E08E48A0F800A009F1D3
:1037400001001FFA80F9D945F6DB601C84B24445BC
:10375000E9DDBDE8F08F2DE9F84F07460D469046AC
:103760009946DDF828B0A8EB0700401C1FFA80FA44
:10377000A9EB0500401C80B20090002414E0281939
:1037800081B23846FDF77AF8FDF75BF8002607E0CE
:1037900004FB0A603BF8100076490880701C86B272
:1037A0005645F5DB601C84B200988442E7DBBDE837
:1037B000F88F2DE9FF4F84B081468A4600200390A0
:1037C00002900698A0EB09050798A0EB0A06CDF831
:1037D0000490CDF800A0002D01DD012705E00DB912
:1037E000002702E04FF0FF376D42002E02DD4FF060
:1037F000010806E016B94FF0000802E04FF0FF386C
:103800007642B54201DD2C4600E034464FF0000B15
:1038100021E0009A91B2019A90B2FDF738FA03982C
:10382000284403900298304402900398A04205DD9A
:103830000398001B03900198384401900298A0421D
:1038400005DD0298001B02900098404400900BF1A7
:1038500001001FFA80FB601C8345DADD08B0BDE87B
:10386000F08FF0B504460D4616461F462B463246ED
:1038700029462046FFF79DFF3B4622462946204623
:10388000FFF797FF3B46324639462046FFF791FF48
:103890003B46324629463046FFF78BFFF0BD2DE907
:1038A000F04306460F469046002445460320A0EB11
:1038B00048093CE07A1B91B2321990B2FDF7E7F962
:1038C0003A1B91B2721990B2FDF7E1F93A1991B22F
:1038D000721990B2FDF7DBF97A1991B2321990B2F0
:1038E000FDF7D5F97A1991B2321B90B2FDF7CFF9F5
:1038F0003A1991B2721B90B2FDF7C9F97A1B91B2D5
:10390000321B90B2FDF7C3F93A1B91B2721B90B211
:10391000FDF7BDF9641CB9F1000F03DAA000801DAA
:10392000814404E0601B80000A3081446D1EAC427B
:10393000C0DDBDE8F0832DE9F84F80460E461746FE
:103940001C46B3462046E31704EB5373DB102146B5
:103950004FEAE47C04EB5C7C4FEAEC0CA4EBCC0C6F
:10396000BCF1000F08D04FF0010C07E0B4020020BA
:10397000808121420008006C4FF0000C6344224615
:1039800004EBD27C4FEA6C0C03FB0CF3DBB200932C
:10399000A7F12000C7B2002556E00C2C07D107EB99
:1039A00047009F4901EB800010F8059013E0102CB0
:1039B00005D19C4800EB071010F805900BE0182C7F
:1039C00007D107EBC700984901EB800010F805907C
:1039D00001E0BDE8F88F4FF0000A2FE009F0800009
:1039E00030B19248028831464046FDF75EF907E063
:1039F0000A9828B98E48028831464046FDF755F9A5
:103A00004FEA49604FEA1069701C86B289484088C5
:103A1000B04200DCDDE7A6EB0B00A0420AD15E4617
:103A200008F101001FFA80F882480088404500DC58
:103A3000CFE706E00AF1010000F0FF0ABAF1080F33
:103A4000CCDB00BF681CC5B200988542A5DB00BF77
:103A5000BFE710B50246012000E050430B1EA1F164
:103A60000104E1B2F9D110BD2DE9FF4F81B0074645
:103A700091461E460E9D4FF0000A002439E0301B8F
:103A8000401EC1B20A20FFF7E4FFB9FBF0F00A21A3
:103A9000B0FBF1F201FB1208BAF1000F16D1701E53
:103AA000A04213DDB8F1000F0ED10020AB4605EBAC
:103AB000DB71491001FB0471009088B22B46202273
:103AC0000299FFF738FF12E04FF0010A0020AB46E1
:103AD00005EBDB71491001FB0471009088B208F11D
:103AE0003001CAB22B460299FFF725FF00BF601CC8
:103AF000C4B2B442C3DB05B0BDE8F08F2DE9FF4F7F
:103B000082B0064692461F46DDE90F48002001902C
:103B100000254DE0781B401EC1B20A20FFF799FF37
:103B2000BAFBF0F00A21B0FBF1F201FB1209019897
:103B300050BB781EA84227DDB9F1000F22D108F052
:103B4000800078B108F00100A34604EBDB71491056
:103B500001FB0561009088B2234630220399FFF7EC
:103B6000EAFE0EE008F00100A34604EBDB71491009
:103B700001FB0561009088B2234620220399FFF7DC
:103B8000DAFE13E00120019008F00100A34604EBE7
:103B9000DB71491001FB0561009088B209F1300129
:103BA000CAB223460399FFF7C6FE00BF681CC5B220
:103BB000BD42AFDB06B0BDE8F08F2DE9F847044603
:103BC0000D4690469946DDE9096704F0FF0A08EBC7
:103BD00004001FFA80F809EB05001FFA80F916E0CF
:103BE000444502DB5446A81985B24D4500DB14E07C
:103BF000002000903A78334629462046FFF79BFE86
:103C0000304606EBD07104EB61018CB27F1C387832
:103C10007E2802DC38782028E2DA00BFBDE8F88789
:103C200004FE000878020108680801081600002058
:103C300018000020B402002070B50546002405E0FD
:103C4000601CC4B2C82C01DD002070BD0221774881
:103C500003F0DBFD0028F3D02946744803F082FD11
:103C6000002405E0601CC4B2C82C01DD0020ECE794
:103C700001216E4803F0C9FD0028F3D06B4803F022
:103C800073FDC0B2E1E700B587B00121082003F061
:103C900009FC0121880303F012FC4FF46040ADF8E9
:103CA000180018208DF81B0003208DF81A0006A9B3
:103CB0005F4803F03BF94FF460415D4803F0E3F9DE
:103CC0000020ADF804004FF48270ADF8060000202B
:103CD000ADF808000220ADF80A000120ADF80C0094
:103CE0004002ADF80E003820ADF810000020ADF80D
:103CF00012000720ADF8140001A94C4803F05CFC49
:103D000001214A4803F0FDFCFF20FFF795FF07B0B3
:103D100000BD10B50446454800884FF6C7710840FD
:103D200042490880084600882043088001213F4816
:103D300003F0E7FC10BD00B587B0012141F204009B
:103D400003F0B0FBE020ADF8180018208DF81B0040
:103D500003208DF81A0006A9364803F0E7F8E021A1
:103D6000344803F090F90020ADF804004FF482705D
:103D7000ADF806000020ADF808000220ADF80A00FA
:103D80000120ADF80C004002ADF80E003820ADF86F
:103D900010000020ADF812000720ADF8140001A9B2
:103DA000254803F009FC0121234803F0AAFCFF2069
:103DB000FFF742FF07B000BD10B504461E4800885B
:103DC0004FF6C77108401C49088008460088204308
:103DD00008800121184803F094FC10BD70B5054619
:103DE000002405E0601CC4B2C82C01DD002070BDB9
:103DF0000221114803F009FD0028F3D029460E489E
:103E000003F0B0FC002405E0601CC4B2C82C01DD46
:103E10000020ECE70121084803F0F7FC0028F3D06C
:103E2000054803F0A1FCC0B2E1E700000038004003
:103E3000000C0140000801400030014010B5002492
:103E40000020D14908609020FFF7F6FE0020FFF720
:103E5000F3FE0020FFF7F0FE0020FFF7EDFEFF204D
:103E6000FFF7EAFE44EA0024FF20FFF7E5FE0443E3
:103E70000120C649C1F8B001204610BD08B5012196
:103E8000082003F00FFB4FF48050ADF80000102025
:103E90008DF8030003208DF802006946BC4803F04A
:103EA00045F84FF48051BA4803F0EDF80120B649C7
:103EB0000860FFF7E8FE0020FFF72BFFFFF7BEFFCB
:103EC000B449088008BD10B500240020AE49086040
:103ED0000520FFF7B1FEFF20FFF7AEFE04460120EC
:103EE000AA49C1F8B001204610BD10B50446002013
:103EF000A54908600120FFF79FFE2046FFF79CFEC2
:103F00000120A249C1F8B00110BD10B500209E49A2
:103F100008600620FFF790FE01209C49C1F8B0011F
:103F200010BD10B50020984908600420FFF784FEFA
:103F300001209649C1F8B00110BD2DE9F0410646B7
:103F40000C4617460020904908600320FFF774FED6
:103F5000C4F30740FFF770FEC4F30720FFF76CFEC1
:103F6000E0B2FFF769FE002505E0FF20FFF764FEE1
:103F70007055681C85B2BD42F7DB0120824908609C
:103F8000BDE8F08110B500BFFFF79DFF00F0010014
:103F90000028F9D110BD2DE9F04106460C46174620
:103FA000FFF7B3FF0020784908600220FFF744FEC6
:103FB000C4F30740FFF740FEC4F30720FFF73CFEC1
:103FC000E0B2FFF739FE002504E0705DFFF734FE34
:103FD000681C85B2BD42F8DB01206B490860FFF721
:103FE000D1FFBDE8F0812DE9F04107460E461446A9
:103FF000F0B2C0F58075AC4200DC254612E02A46DE
:1040000031463846FFF7C7FFAC4200D10BE02F44E2
:104010002E44601B84B2B4F5807F02DD4FF48075BE
:1040200000E02546EBE700BFBDE8F08110B504468F
:10403000214659A00AF0ACFF2403FFF766FFFFF703
:10404000A1FF0020504908602020FFF7F5FDC4F3D0
:104050000740FFF7F1FDC4F30720FFF7EDFDE0B2E5
:10406000FFF7EAFD01204949C1F8B001FFF78AFFD7
:1040700010BD2DE9F05F81460F461646DFF820B1EE
:104080004FEA1738C7F30B0ACAF58054A64200DC82
:10409000344644E04FEA08314FF480525846FFF767
:1040A0004CFF002508E00AEB05001BF80000FF2884
:1040B00000D003E0681C85B2A542F4DB00BFA54236
:1040C00016DA4046FFF7B2FF002507E019F80500B1
:1040D00005EB0A010BF80100681C85B2A542F5DB6F
:1040E0004FEA08314FF480525846FFF77CFF04E056
:1040F000224639464846FFF776FFA64200D10FE038
:1041000008F101084FF0000AA1442744301B86B291
:10411000B6F5805F02DD4FF4805400E03446B9E725
:1041200000BFBDE8F09F10B5FFF7EFFEFFF72AFFD5
:10413000002015490860C720FFF77EFD01201349C4
:10414000C1F8B001FFF71EFF10BD10B500200E49E9
:104150000860B920FFF770FD01200C49C1F8B001DB
:10416000032002F0F8F910BD10B5002006490860E0
:10417000AB20FFF761FD01200449C1F8B001032025
:1041800002F0E9F910BD0000B08121420080214217
:10419000000C01401A00002066653A25780D0A00DF
:1041A000C202002001460020012900D011B9FE4BB7
:1041B000197000E0262070470146FC4A506820F044
:1041C000FF0008435060704770B5044605E0F748AB
:1041D000456B05F0450000B100E0F8E700BF0420A2
:1041E00004F04BFE20B1042004F051FE032070BD0A
:1041F000012004F042FE20B1012004F048FE01201D
:10420000F5E7EA480069A04201D01020EFE740F24C
:10421000FF50E64988630846406908210840C0B25B
:10422000E5E72DE9FC4107460D4600260024002065
:10423000009001900820DE4908601020486040206E
:1042400088600020C8604FF480600861084604F070
:104250009DFD1020FFF7B8FF044614B12046BDE8CD
:10426000FC81D44800880004D149086037204860A8
:10427000402088600020C8604FF4806008610846D4
:1042800004F084FD3720FFF79FFF04460CB1204661
:10429000E5E74FF0FF30C84908600820486030204B
:1042A00088600220C860002008610120486108463B
:1042B00004F095FD0020BE4908603320486040208E
:1042C00088600020C8604FF480600861084604F0F0
:1042D0005DFD3320FFF778FF04460CB12046BEE7B2
:1042E0000CE04FF4001004F0C8FD38B104F099FD63
:1042F0004DF82600761C022E00D306E0AB48406B3A
:1043000040F22A6108400028EBD000BF082004F0EA
:10431000B4FD20B1082004F0BAFD04209FE702207C
:1043200004F0ABFD20B1022004F0B1FD022096E7BD
:10433000202004F0A2FD20B1202004F0A8FD0620DA
:104340008DE74FF4007004F098FD28B14FF4007031
:1043500004F09DFD072082E740F2FF5004F097FD36
:1043600000980006009901F47F4140EA012000997D
:1043700001F47F0140EA1120009940EA1160686071
:1043800001980006019901F47F4140EA012001995A
:1043900001F47F0140EA1120019940EA1160286090
:1043A00020465CE77CB50546002400200090019083
:1043B00000260DB1022600E000267C48406900F08E
:1043C000007008B10E207CBD7A49098888B2694620
:1043D000FFF727FF04460CB12046F4E7019800F4EC
:1043E000802060B37348008800047149086037205A
:1043F0004860402088600020C8604FF480600861F9
:10440000084604F0C3FC3720FFF7DEFE04460CB17B
:104410002046D8E766480660062065494860402087
:1044200088600020C8604FF480600861084604F08E
:10443000ADFC0620FFF7C8FE04462046C3E7252052
:10444000C1E770B5044600255C480078032801D117
:10445000272070BD5948007838B1584800780128A5
:1044600003D056480078022818D1022C01D3272007
:10447000EFE7E0B2FFF796FF05467DB94B4840688D
:1044800020F4C0504949486008464068A1B240EA5B
:10449000C120464948600846406848602846D8E739
:1044A00010B5044642480460072041494860402056
:1044B00088600020C8604FF480600861084604F0FE
:1044C00065FC0720FFF780FE10BDF0B50146002017
:1044D00000223A4B1B7881F85630364B1B88A1F8E6
:1044E0005430374B1B681A0E93090B70C2F38303C9
:1044F0004B7002F003038B70314B1B68C3F3074210
:10450000CA702F4B1B88C3F307220A712C4B1A78F1
:104510004A715B681A0E1301CB80294B5B68C3F3A9
:104520000742CB8843EA1213CB8002F00F030B72D1
:10453000234B9B88C3F30722D3094B72C2F380132A
:104540008B72C2F34013CB72C2F300130B730023C0
:104550004B731A4B1B783BB1184B1B78012B03D0C4
:10456000164B1B78032B5ED193071B0D0B61144B6D
:104570001A790B6943EA82030B61114B9B681A0E8F
:104580000B6943EA92130B61C2F3C2030B7502F08D
:1045900007034B750A4B9B68C3F3074253098B759E
:1045A000C2F38203CB750DE024000020008001409F
:1045B000E012002020000020F41200201C00002047
:1045C0000C13002093075B0F0B76FE4B1B89C3F384
:1045D00007220B7E43EAD2130B760B695B1C002487
:1045E000C1E912340B7E9B1C012606FA03F3DE1789
:1045F000D1E91245A4FB037C05FB03C304FB06338E
:10460000C1E912730C7A0123A3400B650024D1E9A0
:1046100012560B6DA5FB037C06FB03C305FB04339D
:10462000C1E912732CE0E84B1B78022B28D1E54B33
:104630001A7993069B0A0B61E24B9B681A0E0B6971
:1046400043EA02230B61DF4B9B68C3F307420B690C
:1046500013430B61DB4B1B89C3F307220B695B1C04
:104660004FF40074A3FB043566000027A3FB064C3F
:1046700005FB06C503FB0753C1E9124373100B6525
:10468000C2F3801301F8193F93065B0E4B70CD4BBC
:104690001A7A4B7843EAD2134B7002F07F038B7087
:1046A000C84BDB681A0ED309CB70C2F341130B71F0
:1046B000C2F382034B7193071B0F8B71C14BDB68F5
:1046C000C3F307428B7943EA92138B71C2F3401311
:1046D000CB7100230B7202F001034B72B94B9B8923
:1046E000C3F30722D3098B72C2F38013CB72C2F3D8
:1046F00040130B73C2F300134B73C2F381038B732C
:1047000002F00303CB73AF4B1A7B53080B740123E6
:104710004B74AE4B1B681A0ECA741939AB4B1B682D
:10472000C3F307421402CC85A84B1B88C3F30722AE
:10473000CB8D1343CB85A54B1A7814060C635B68AD
:104740001A0E0B6B43EA02440C63A04B5B68C3F385
:1047500007420B6B43EA02240C639C4B9B88C3F318
:1047600007220B6B13430B63984B1A7934235A546B
:10477000964B9B681A0E35235A54944B9B68C3F38F
:10478000074214068C63914B1B89C3F307228B6B82
:1047900043EA02448C638D4B1A7A8B6B43EA022402
:1047A0008C638A4BDB681A0E8B6B13438B63874BCE
:1047B000DB68C3F307423C235B5C43EA12143C23EF
:1047C0005C5413071C0DCC87804B9B89C3F30722D5
:1047D000CB8F1343CB877D4B1A7B540840235C540B
:1047E000012441235C54F0BD70B500264FF48035A0
:1047F00005E07748446B04F0450000B103E0281E53
:10480000A5F10105F5D100BF15B104F0040028B1F0
:104810000326042004F03BFB304670BD012004F069
:104820002CFB18B10126012004F031FB40F2FF50AF
:1048300004F02DFB3046F0E72DE9F04105460E4629
:104840004FF0000805E06248476B07F0450000B1F3
:1048500000E0F8E700BF042004F00FFB28B10420BB
:1048600004F015FB0320BDE8F081012004F005FBF6
:1048700020B1012004F00BFB0120F4E7544800694B
:10488000A84201D01020EEE740F2FF5004F0FFFAFA
:104890004F48446904F4604018B9200C3080404609
:1048A000E1E704F4005008B11320DCE704F4804091
:1048B00008B11020D7E704F4004008B10F20D2E778
:1048C0004046D0E738B500240120009004F049FAB2
:1048D00008B9252038BD3C480078042821D00020A4
:1048E0003C49086002204860C02088600020C86001
:1048F0004FF480600861084604F048FAFFF774FF3F
:1049000004460CB12046E5E7314840692F4908606C
:104910002F48806948602E48C06988602C48006A2A
:10492000C8602948007858B127480078012807D086
:1049300025480078062803D023480078022816D19D
:10494000002024490860032048604020886000203F
:10495000C8604FF480600861084604F017FA6946A1
:104960000320FFF769FF04460CB12046B2E7164862
:104970000078032816D1BDF800000004154908602E
:1049800003204860402088600020C8604FF48060A9
:104990000861084604F0FAF9FFF726FF04460CB157
:1049A000204697E708480078042834D0BDF8000076
:1049B00009490860BDF800000004064908600920A4
:1049C00048600BE00C1300201C0000201C1300208A
:1049D00000800140E012002020000020C0208860FC
:1049E0000020C8604FF480600861084604F0CEF9EA
:1049F000FFF7FAFE04460CB120466BE7F848406921
:104A0000F8490860F64880694860F548C0698860E0
:104A1000F348006AC86000205CE710B505E0F04884
:104A2000446B04F0450000B100E0F8E700BF04204B
:104A300004F023FA20B1042004F029FA032010BD69
:104A400040F2FF5004F023FA0020F8E770B500268A
:104A50004FF4803505E0E248446B04F0450000B1B6
:104A600003E0281EA5F10105F5D100BF15B104F042
:104A7000040028B10326042004F009FA304670BD72
:104A800004F0400018B10026402004F000FA30463F
:104A9000F5E770B500254FF4803404E0802004F081
:104AA000ECF900B103E0201EA4F10104F6D100BF2F
:104AB0000CB9032070BD40F2FF5004F0E8F928461D
:104AC000F8E72DE9F0470027002400260025A0463E
:104AD000A146B220C449087500200860486088607B
:104AE000C8600861084604F011F9032004F02EF9AB
:104AF000012004F028F900BF12E00020BB49086043
:104B000048608860C8604FF480600861084604F01F
:104B10003DF9FFF7BEFF044604B903E0781CC7B2B5
:104B20004A2FEADB00BF14B12046BDE8F0874FF4FE
:104B3000D570AE4908600820486040208860002099
:104B4000C8604FF480600861084604F01FF9FFF761
:104B50007DFF044624B90120A54908704FF0804923
:104B60000020A2490860372048604020886000206B
:104B7000C8604FF480600861084604F007F93720E8
:104B8000FFF722FB0446002C4BD134E0002097496C
:104B9000086037204860402088600020C8604FF4DB
:104BA00080600861084604F0F1F83720FFF70CFB3D
:104BB00004460CB12046B8E78E4849EA00008B490C
:104BC000086029204860402088600020C8604FF4B9
:104BD00080600861084604F0D9F8FFF71EFF04461C
:104BE0000CB12046A1E77E484669012080EAD670D4
:104BF00080F001086D1CB8F1000F03D14FF6FF7073
:104C00008542C3D34FF6FF70854202D31B24204652
:104C10008BE706F08040061E32D0022074490870EF
:104C20002EE01CE074487149086001204860402073
:104C300088600020C8604FF480600861084604F076
:104C4000A5F8FFF7EAFE04460CB120466DE764487C
:104C50004669012080EAD67080F001086D1CB8F129
:104C6000000F03D14FF6FF708542DBD34FF6FF7084
:104C7000854202D31B24204657E703205C49087075
:104C8000204652E77CB5002500240121302002F0A7
:104C900009FC012140F2024002F0F7FB4FF4F8500A
:104CA000ADF8000018208DF8030003208DF80200F5
:104CB0006946524802F03AF90420ADF80000182085
:104CC0008DF8030003208DF8020069464C4802F07D
:104CD0002DF98020ADF8000048208DF80300032056
:104CE0008DF802006946464802F020F904F000F809
:104CF00031208DF8040000208DF805008DF80600A5
:104D000001208DF8070001A801F041FDFFF7D9FE51
:104D1000044614B9FFF7D6FD04461CB93948FFF71D
:104D2000D4FB044634B93749B1F854100804FFF7EE
:104D3000B7FB04461CB90120FFF783FB04461CB1F6
:104D40002B480078032812D12E4890F8560020B145
:104D50002C4890F85600012801D10A2500E00425CE
:104D60002846FFF729FA0020FFF71CFA04462046E0
:104D70007CBD10B5002003F0E9FF002010BD70B528
:104D80008CB006460C4615460121022002F07DFB40
:104D90001D4803F083FE00211B4803F04CFF104820
:104DA0008030019002960395A008049000200590A1
:104DB00080200690800007908000089000200990D5
:104DC0004FF400500A9000200B9001A90E4803F008
:104DD00007FF00210C4803F02EFF0CB070BD00004F
:104DE000008001400C130020C8120020E0120020B7
:104DF0001C000020000010800080FF800010014097
:104E000000140140301300204404024001460020F9
:104E100002E04910421CD0B20129FAD170472DE9B5
:104E2000F84F8146174698460A9C4FF0000AD34631
:104E30004D464FF0FF36B9F1000F02D12620BDE8F4
:104E4000F88F0020FD49C862FD480078022805D18E
:104E50000402780A40EAC8574FEA68280020F94956
:104E600088604860401E0860012048610020C860DA
:104E70000861084603F0B3FFF048406900F0007095
:104E800008B10E20DBE7002C21DDB4F5006F1EDC3D
:104E9000601E2040D8B92046FFF7B8FF0090EA48CE
:104EA00004601020E8494860402088600020C86005
:104EB0004FF480600861084603F068FF1020FFF798
:104EC00083F98246BAF1000F03D05046B7E7262097
:104ED000B5E700980001DB498860084644604FF060
:104EE000FF300860012048610220C860002008618E
:104EF000084603F074FFD44807601120D249486087
:104F0000402088600020C8604FF480600861084637
:104F100003F03CFF1120FFF757F98246BAF1000F6A
:104F200001D050468BE7C948007800285AD101F0DB
:104F300065FB18E04FF4004003F09FFF78B14FF09D
:104F4000000B06E0BD488030006845F82B000BF1EF
:104F5000010BBBF1080FF5D32035BD4E03E00EB9B0
:104F600004206CE7761EB548406B40F22A61084089
:104F70000028DFD0082003F080FF20B1082003F0D4
:104F800086FF04205BE7022003F077FF20B10220B8
:104F900003F07DFF022052E7202003F06EFF20B1D6
:104FA000202003F074FF062049E74FF4007003F05F
:104FB00064FF28B14FF4007003F069FF07203EE75B
:104FC00003E003F02EFF28602D1D4FF4001003F0C6
:104FD00054FF0028F5D101F013FB40F2FF5003F01D
:104FE00056FF31E09948007801282DD10022214652
:104FF0004846FFF7C4FE002096490870964908709D
:10500000964908708D48C06B40F22A3108438B499D
:10501000C863012003F0B7FE00E0761E90480068E8
:1050200000F4005038B98D48007820B989480078DC
:1050300008B9002EF1D10EB9042000E785480078A8
:1050400010B1844890F800A05046F8E62DE9FF5FC3
:1050500017469846DDE90E464FF00009CA464FF064
:10506000FF3580490098086000207449C862744880
:105070000078022805D10402780A40EAC8574FEAAE
:10508000682800206F4988604860401E0860012041
:1050900048610020C8600861084603F0A0FE674828
:1050A000406900F0007018B10E2004B0BDE8F09F18
:1050B000002C21DDB4F5006F1EDC601E2040D8B945
:1050C0002046FFF7A3FE83465F48046010205E4938
:1050D0004860402088600020C8604FF4806008610C
:1050E000084603F053FE1020FFF76EF88146B9F131
:1050F000000F03D04846D8E72620D6E7012E70D906
:1051000006FB04F0B0F1007F01D32620CDE74FEA83
:105110000B104C49886006FB04F048604FF0FF30EC
:105120000860012048610220C8600020086108462C
:1051300003F055FE44480760122043494860402070
:1051400088600020C8604FF480600861084603F062
:105150001DFE1220FFF738F88146B9F1000F01D08B
:105160004846A2E73948007800287DD101F046FA88
:105170001EE04FF4004003F080FEA8B14FF0000A9B
:1051800008E02E48803000683649096841F82A0056
:105190000AF1010ABAF1080FF3D33248006820304F
:1051A000304908602A4D03E00DB904207DE76D1EEB
:1051B0002248406B40F22A3108400028D9D008200C
:1051C00003F05BFE20B1082003F061FE04206CE7D1
:1051D000022003F052FE28B1022003F058FE022004
:1051E00063E7A5E0202003F048FE20B1202003F073
:1051F0004EFE062059E74FF4007003F03EFE28B142
:105200004FF4007003F043FE07204EE709E003F07F
:1052100008FE14490968086012480068001D114919
:1052200008604FF4001003F028FE0028EFD14FF47F
:10523000807003F022FED0B3014816E000800140E8
:105240001C000020F4120020E012002024000020A6
:10525000FFFF7F00260000202500002027000020FF
:10526000000402402800002029E0007838B1F94805
:105270000078012803D0F7480078022818D10020D0
:10528000F54908600C204860402088600020C86014
:105290004FF480600861084603F078FD0C20FEF7AB
:1052A00093FF8146B9F1000F02D04846FDE6FFE7C3
:1052B00001F0A6F940F2FF5003F0E9FD38E0E748BD
:1052C0000078012834D106FB04F100220098FFF792
:1052D00056FD0020E24908700120E24908700020D4
:1052E000E1490870E148C06B40F22A310843DF49C8
:1052F000C8630846C06A40F00800C86200E06D1E3E
:10530000DB48006800F4005008B9002DF7D10DB952
:105310000420CAE600BFD448007818B9D048007805
:105320000028F8D0CE48007810B1CD4890F8009011
:105330004846BAE61CB50446002001900090CD48CE
:1053400000880004C44908600D204860402088603F
:105350000020C8604FF480600861084603F016FD25
:10536000C248406B009002E0C048406B009000983B
:1053700000F045000028F7D0012003F07EFD20B1A9
:10538000012003F084FD01201CBD042003F075FD05
:1053900020B1042003F07BFD0320F5E7B34800694A
:1053A0000D2801D01020EFE740F2FF5003F06FFD11
:1053B000AE48406901900198C0F34320207000205E
:1053C000E2E72DE9FF5F86B017469846149D002658
:1053D00000200590049000248146039082460290AC
:1053E0000195DDF818B0DDF818B0BBF1000F03D15E
:1053F00026200AB0BDE8F09F00209C49C8629E4963
:1054000088604860401E0860012048610020C86034
:105410000861084603F0E3FC9448406900F000701E
:1054200008B10E20E5E78B480078022805D1050277
:10543000780A40EAC8574FEA6828002D1FDDB5F505
:10544000006F1CDC681E2840C8B92846FFF7DEFC48
:1054500005908148056010207F49486040208860A1
:105460000020C8604FF480600861084603F08EFC9D
:105470001020FEF7A9FE06461EB13046B9E72620E9
:10548000B7E77C4800880004734908600D20486035
:10549000402088600020C8604FF4806008610846A2
:1054A00003F074FC0D20FEF78FFE06460EB1304669
:1054B0009FE76E48406903904FF0FF341BE0641E85
:1054C0006C4800880004644908600D204860402052
:1054D00088600020C8604FF480600861084603F0CF
:1054E00055FC0D20FEF770FE06460EB1304680E7F3
:1054F0005E4840690390039800F4807008B9002C5E
:10550000DDD10CB9292074E75348076018205249AF
:105510004860402088600020C8604FF480600861C7
:10552000084603F033FC1820FEF74EFE06460EB187
:1055300030465EE700204B490870059800014E494F
:105540008860084645604FF0FF30086001204861E0
:105550000020C8600861084603F041FC4FF0FF34AA
:105560003E480078002873D101F048F843E04FF43A
:10557000804003F082FCC8B30198A0EB090020280A
:1055800021D20198A0EB090000F0030020B9019896
:10559000A0EB0900800804E00198A0EB0900800856
:1055A000401C02904FF0000A09E0DBF8000003F015
:1055B0003CFC0AF1010A0BF1040B09F10409029801
:1055C0008245F2D30FE04FF0000A05E05BF82A00B5
:1055D00003F02BFC0AF1010ABAF1080FF6D30BF124
:1055E000200B09F120096FF0404404E0FFE70CB9FB
:1055F0000420FEE6641E1D48406B40F21A6108401C
:105600000028B4D0082003F038FC20B1082003F0B3
:105610003EFC0420EDE6022003F02FFC20B1022026
:1056200003F035FC0220E4E6102003F026FC20B154
:10563000102003F02CFC0520DBE64FF4007003F093
:105640001CFCD8B14FF4007003F021FC0720D0E619
:105650001BE000001C000020E012002024000020BD
:1056600026000020250000202700002000800140A7
:105670000004024020000020F412002000F0C0FFCF
:1056800040F2FF50FC4988633EE0FC480078012866
:105690003AD1102229460698FFF771FB0020F849FD
:1056A0000870F8490870F8490870F348C06B40F278
:1056B0001A310843F049C8630846C06A40F0080040
:1056C000C86200E0641EF148006800F4005008B9A8
:1056D000002CF7D11CB9FFF7D5FA042089E64FF06A
:1056E000FF3400E0641EE848007820B9E448007800
:1056F00008B9002CF6D10CB904207AE6E04800780D
:1057000010B1DF48007874E640F2FF5003F0BFFBB1
:1057100004A8FFF70FFE064603E004A8FFF70AFE01
:1057200006463EB99DF810000728F6D09DF81000F7
:105730000628F2D030465CE62DE9FF5F84B0DDE953
:1057400012470026002003900290002580468146E3
:10575000019007FB04FBDDF810A0DDF810A0BAF102
:10576000000F03D1262008B0BDE8F09F0020C249F9
:10577000C862C74988604860401E086001204861CF
:105780000020C8600861084603F029FBBA48406958
:1057900000F0007008B10E20E5E7BE48007802284E
:1057A00008D10402DDE90601400A40EAC15049126D
:1057B000CDE90601002C1FDDB4F5006F1CDC601E76
:1057C0002040C8B92046FFF721FB0390B24804608F
:1057D0001020B1494860402088600020C8604FF424
:1057E00080600861084603F0D1FA1020FEF7ECFC57
:1057F00006461EB13046B6E72620B4E7012F6FD922
:1058000007FB04F0B0F1007F01D32620ABE7A148ED
:10581000007838B19F480078012803D09D4800786F
:1058200002282DD19D48008800049B49086037203C
:105830004860402088600020C8604FF480600861A4
:10584000084603F0A3FA3720FEF7BEFC06460EB169
:10585000304688E79048076017208F49486040200D
:1058600088600020C8604FF480600861084603F03B
:105870008DFA1720FEF7A8FC06460EB1304672E7F7
:1058800085490698086019204860402088600020FB
:10589000C8604FF480600861084603F077FA192069
:1058A000FEF792FC06460EB130465CE70398000115
:1058B0007749886007FB04F048604FF0FF300860CC
:1058C000012048610020C8600861084603F087FA9B
:1058D0006A480078002871D1451E00F08FFE40E034
:1058E000F3E06548406B00F48040A8B3ABEB0800E0
:1058F00020281ED2ABEB080000F0030018B9ABEB78
:105900000800800803E0ABEB08008008401C019011
:105910004FF0000909E0DAF8000003F086FA09F117
:1059200001090AF1040A08F1040801988145F2D33B
:105930000FE04FF0000905E05AF8290003F075FA6E
:1059400009F10109B9F1080FF6D30AF1200A08F1AB
:1059500020086FF0404504E0FFE70DB9042002E79E
:105960006D1E4548406B40F21A3108400028B8D0FF
:10597000082003F082FA20B1082003F088FA0420FE
:10598000F1E6022003F079FA20B1022003F07FFA59
:105990000220E8E6102003F070FA20B1102003F096
:1059A00076FA0520DFE64FF4007003F066FA30B1B6
:1059B0004FF4007003F06BFA0720D4E62CE04FF4AC
:1059C000807003F05AFA00B33248007838B1314899
:1059D0000078012803D02F480078022815D1002034
:1059E0002D4908600C204860402088600020C86075
:1059F0004FF480600861084603F0C8F90C20FEF7F8
:105A0000E3FB06460EB13046ADE600F0F9FD40F28C
:105A1000FF5003F03CFA58E018480078012854D1B0
:105A200007FB04F110220498FFF7A9F9002014499C
:105A300008700120134908700020134908700E48AF
:105A4000C06B40F21A3108430B49C8630846C06A6C
:105A500040F00800C8624FF0FF3500E06D1E0B48B3
:105A6000006800F4005008B9002DF7D1C5B9FFF760
:105A700009F9042077E6000000800140240000209E
:105A800026000020250000202700002000040240FE
:105A9000F41200201C000020E01200202000002052
:105AA0004FF0FF3500E06D1EC248007820B9C248B3
:105AB000007808B9002DF6D10DB9042053E6BE4890
:105AC000007810B1BC4800784DE640F2FF5003F07A
:105AD000DEF902A8FFF72EFC064603E002A8FFF756
