:020000040800F2
:1000000078DF0020054D0008390400083B04000893
:100010003D0400083F0400084104000800000000FF
:10002000000000000000000000000000390200088D
:1000300043040008000000007D020008194B00087E
:100040001F4D00081F4D00081F4D00081F4D0008E0
:100050001F4D00081F4D00081F4D00081F4D0008D0
:100060001F4D00081F4D00081F4D00081F4D0008C0
:100070001F4D00081F4D00081F4D00081F4D0008B0
:100080001F4D00081F4D00081F4D00081F4D0008A0
:100090001F4D00081F4D00081F4D00081F4D000890
:1000A0001F4D00081F4D00081F4D00081F4D000880
:1000B0001F4D0008E34A00081F4D00081F4D0008AF
:1000C0001F4D00081F4D00081F4D00081F4D000860
:1000D0001F4D00089D4C00081F4D00081F4D0008D3
:1000E0001F4D00081F4D00081F4D00081F4D000840
:1000F0001F4D00081F4D00081F4D00081F4D000830
:100100001F4D00081F4D00081F4D00081F4D00081F
:100110001F4D00081F4D00081F4D00081F4D00080F
:100120001F4D00081F4D00081F4D00081F4D0008FF
:1001300000F002F800F070F80AA090E8000C824489
:100140008344AAF10107DA4501D100F065F8AFF266
:10015000090EBAE80F0013F0010F18BFFB1A43F0A5
:100160000103184718380700383807000A444FF0D1
:10017000000C10F8013B13F0070408BF10F8014B06
:100180001D1108BF10F8015B641E05D010F8016B4B
:10019000641E01F8016BF9D113F0080F1EBF10F8AF
:1001A000014BAD1C0C1B09D16D1E58BF01F801CBD2
:1001B000FAD505E014F8016B01F8016B6D1EF9D555
:1001C0009142D6D37047000000230024002500266A
:1001D000103A28BF78C1FBD8520728BF30C148BFAA
:1001E0000B60704769290CF0C98564290CF0C6853D
:1001F00075290CF0C38578290CF0FC8563290DF076
:10020000988073290DF09D80002070471FB50CF079
:1002100032FE1FBD10B510BD0DF0F4F81146FFF70A
:10022000F5FF00F0BFF80DF012F903B4FFF7F2FF8D
:1002300003BC04F0DDFC0000224B19680868B0E83C
:10024000F00F80F30988BFF36F8F4FF0000080F349
:1002500011884EF00D0E704700000000064800683F
:10026000006880F3088862B661B6BFF34F8FBFF3B2
:100270006F8F00DF00BF00BF08ED00E0EFF30980E3
:10028000BFF36F8F0F4B1A6820E9F00F106008B5AD
:100290004FF0500080F31188BFF34F8FBFF36F8F83
:1002A00007F0E6FA4FF0000080F31188BDE808403F
:1002B00019680868B0E8F00F80F30988BFF36F8F02
:1002C000704700BFAC000020EFF3058070470000CE
:1002D0000B49D1F800C04A685CF8043B1068184428
:1002E00042F8040B8C4528BFA1F1DC0C8A4228BFE0
:1002F000A1F1DC02C1F800C04A6020F00040704764
:100300000CD5002009F0E1FEFCE73C4C4FF4FA75F7
:10031000D4F8940130B10021C4F89411284607F0B4
:10032000DBF9F5E70121F7E712F0A2FC052007F061
:10033000D3F9F9E71CB50121402005F0ADFA11F021
:1003400067F9042019F00EF808F0C6FC2C490220C9
:100350000023CDE9000180222AA1AFF2330006F08C
:10036000F9FF27490320091D0023CDE90001802260
:1003700027A1AFF2690006F0EDFF21490420083102
:100380000023CDE90001C20124A1AFF2870006F0ED
:10039000E1FF1B48001F006807F007F8BDE81C409C
:1003A00008F0B4BC1CB504F0C1FB4FF4407004F07D
:1003B000A7FD4FF4E13004F025FC00F0EFF800F069
:1003C00087FC00F013F904F0C0FA02F0A7FD00204A
:1003D00004F0C6FC012004F0C3FC09490120091FF8
:1003E0000023CDE90001020210A1AFF2B70006F030
:1003F000B1FF07F06DFB00201CBD00000080214212
:1004000004000020746F7563685F7461736B000093
:100410006C6564305F7461736B000000656D7769B3
:100420006E64656D6F5F7461736B000073746172ED
:10043000745F7461736B00007047FEE7FEE7FEE7D0
:10044000FEE770470CB500224C480092019201680B
:1004500041F4803101604FF4A063016801F4003180
:1004600001910099491C0091019911B90099994293
:10047000F3D10168890333D50121019140490A680C
:1004800042F010020A600A6822F003020A600A6859
:1004900042F002020A60416841604168416041687F
:1004A00041F480614160416821F47C114160416800
:1004B00041F4E8114160016841F080710160016818
:1004C0008901FCD5416821F003014160416841F098
:1004D000020141604168C1F381010229FAD10CBDDA
:1004E00001920CBD254810B5016841F00101016081
:1004F0004168244A114041600168234A114001606B
:10050000016821F480210160416821F4FE0141600D
:100510004FF41F018160FFF795FF1C494FF0006009
:10052000086010BD154A10B55068194B10F00C0149
:10053000184803D0042901D0082901D0036012E033
:100540005168536801F470114FF0020413F4803FB6
:1005500004EB914102D053689B0301D50E4B00E0A0
:100560000B4B5943016051680A4AC1F30311121D34
:10057000515C0268CA40026010BD000000100240D9
:10058000002002400000FFF8FFFFF6FE08ED00E04B
:1005900000127A001000002000093D0038B501214A
:1005A000482005F082F92024ADF8004010208DF895
:1005B000030003200B4D8DF802006946284604F025
:1005C0008CFF2021284604F0F2FFADF80040064CD5
:1005D0006946204604F081FF2021204604F0E7FF11
:1005E00038BD0000000C01400018014008B5012191
:1005F000442005F05AF91C20ADF8000048208DF881
:1006000003006946364804F068FF0120ADF8000099
:1006100028208DF803006946324804F05EFF08BDCB
:100620002DE9F041304C2F4F2D4D012608B1267099
:1006300001E02078A0B11021284604F0A4FFB0B159
:100640000821284604F09FFF88B10421284604F0C1
:100650009AFF60B10121384604F095FF012806D0C9
:100660001021284604F08FFF012824D035E00A200D
:1006700004F092FA002020701021284604F083FF35
:1006800080B10821284604F07EFF70B1042128467D
:1006900004F079FF58B10121384604F074FF0128B5
:1006A00007D01AE00120BDE8F0810220FBE703201B
:1006B000F9E70420F7E70821284604F064FF012841
:1006C0000BD10421284604F05EFF012805D1012149
:1006D000384604F058FF00B926700020E3E7000018
:1006E000001801400008014024000020FE49088055
:1006F0007047FD49891C08807047FB4808B5801C7D
:100700000088ADF80000BDF8000008BDF64A108072
:10071000901C01807047F44910B50880052004F052
:1007200023FABDE81040E8E7F048EF490089088067
:100730007047ED49891C08807047C0F34511C20A13
:10074000C00200EB4110104480B27047401EC0B29E
:10075000FCD270472DE9F043DFF89093E24F4A4610
:10076000B9F804C09389050A0C0ABE1C5289ACF57D
:10077000C858B8F163080ED0ACF5A048B8F5A26827
:100780003A80358033D0C0B230803B803480C8B2EC
:100790003080BDE8F083DFF854C399F80680BCF8D8
:1007A00000C0B8F1000F16D03A803580C0B230805A
:1007B000ACF1010C4FEA1C2030800CF0FF003080BF
:1007C0003B803480C8B23080B9F80200401E010A74
:1007D0003180C0B2DCE7ACEB0000401E80B23A8052
:1007E000002232803280020A3280C0B2E7E7521C17
:1007F0003A80C0B230803B8034805B1C3B80C6E7CF
:1008000010B5BA4C2288824202D962888A4201D845
:10081000002010BDFFF79EFFA088B349A0F5AA42B3
:10082000103A1AD02E200880FFF767FFA188A1F5A3
:10083000C852633AEDD0FFF760FF0146FFF75DFF56
:10084000CAB24FF6FF7303EA02226FF30A01920A5B
:1008500041EA421141EAD02010BD4FF43850E2E79E
:10086000A248A1498088A0F5AA42103A02D02920C6
:10087000088070474FF42450FAE79C489A498088D2
:10088000A0F5AA42103A02D02820088070474FF401
:100890002050FAE770B5954C00232146A27989884B
:1008A00041F66316012A01D01AB11BE0B14202D110
:1008B00018E0B14216D1082814D2DFE800F004068F
:1008C000080A0C0E101206200CE007200AE0042093
:1008D00008E0052006E0012004E0002002E00320FB
:1008E00000E00220082812D2DFE800F01104060818
:1008F0000A0C0E1080230AE0402308E0C02306E023
:10090000202304E0602302E0A02300E0E02345F27E
:100910001055A94202D14FF4585000E03620A1F5FD
:100920001342413A03D0A1F5EE42893A01D143F096
:1009300008031946FFF7EAFEA288B2420AD09806D9
:100940002088618802D5884202D303E0884201D919
:10095000218060806449881CAA4262890A8021D172
:1009600000230380531C0B8000230380931C0B8007
:1009700023885B1E1D0A0580D21C0A80DAB2028021
:10098000A2890A8000230380531C0B80002303806C
:10099000931C0B8063885B1E1C0A0480D21C0A8097
:1009A000D9B212E00022028002802288521E130A6D
:1009B0000380D2B20280A2890A80002101800180D6
:1009C0006188491E0A0A0280C9B2018070BD00B563
:1009D000FFF7C0FEFFF7A8FE45484349891C008881
:1009E000088000BD2DE9F047DFF8009192464A46A5
:1009F000B9F80460DFF8F0C093890C0A050A52893F
:100A0000A6F5A0480CF10207B8F5A2680CD0A6F52F
:100A1000C858B8F1630816D0ACF800203D80C0B2C9
:100A20003880ACF8003024E0ACF800203D80521C47
:100A3000ACF80020C0B23880ACF800303C805B1CC1
:100A4000ACF8003016E099F8066026B9B9F8005005
:100A5000281A401E80B2ACF80020020A3A80C5B2C3
:100A60003D803A80C0B23880ACF800303C80C8B2DB
:100A700038803C80C8B23880B9F80800ACF8000073
:100A8000A7F800A0BDE8F087174A10B5BE21118075
:100A9000941C0521218027F0CBF84FF06632154BCE
:100AA00027F016F927F080F8208001202080FF2011
:100AB000208000202080208010BD2DE9F04F0B4BBE
:100AC0002C272B2598714FF4305A4FF4285B4FF4A4
:100AD000487441F6631E2A264FF0F00845F210597B
:100AE0004FF4A07C194607E0FE07006CDC0E0020E6
:100AF000260000206666044089884FF4F072C0B179
:100B0000A3F800C0A3F80280494532D1A3F808A099
:100B1000A3F80AB0280298811C805A80A1F5A6404B
:100B2000103802D11A80A3F802C0BDE8F04F0020AF
:100B3000B0E6A3F80080A3F802C0494507D1A3F8A6
:100B400008A0A3F80AB04FF42C50988104E0714536
:100B50001F8104D15D819E811A805C8001E05E81ED
:100B60009D81A1F5A6401038DFD1A3F800C05A80BE
:100B7000DBE71F815E8171459D81CDD0CEE72DE9F8
:100B8000FF4F83185B1E1FFA83FA039B0B44A3F1EC
:100B900001081FFA88F9FE4EDFF8F8E33346B788FC
:100BA0009C890D0A5B89A7F5C85C0EF1020BBCF1AC
:100BB000630C29D196F806C0BCF1010F24D0368809
:100BC0001FFA88F7B61A301A86B2AEF80030330A28
:100BD0005846ABF80030F3B2ABF800303244521E46
:100BE000130AABF80030D2B2ABF80020AEF80040E8
:100BF000ABF80050C9B2ABF80010390AABF80010DE
:100C0000F9B20180BDE8FF8F0244521EC2F30728EB
:100C1000039AA7F5A04C0A44521E060AC2F3072203
:100C2000BCF5A26C7746AEF8003017D0ABF8006088
:100C3000C0B2ABF80000ABF800800AF0FF00ABF8E0
:100C400000003C80ABF80050C8B2ABF80000ABF835
:100C5000002009F0FF00ABF80000D3E7DC46ABF85A
:100C600000605E1C3E80C0B2ABF80000981C38806B
:100C7000ABF80080DB1C3B800AF0FF00ABF8000003
:100C80003C80ABF80050601C3880C8B2ACF8000063
:100C9000A01C3880ACF80020E41C3C8009F0FF0068
:100CA000ACF80000AEE770B5B949064600240888E4
:100CB0004D88214645432046FFF74CFDFFF734FDA4
:100CC000B448801C01E00680641CAC42FBD370BDBC
:100CD0002DE9F04F01219FB0080204F0DDFD012154
:100CE0004FF4B47004F0E1FD4FF00108ADF83C8022
:100CF00010268DF83F60032447468DF83E400FA92B
:100D0000A54804F0EAFB4CF23370ADF83C0018251E
:100D10008DF83F508DF83E400FA9A04804F0DDFB50
:100D20004FF68070ADF83C008DF83F508DF83E4096
:100D30000FA99B4804F0D1FB41F20100ADF83C0043
:100D40008DF83F508DF83E400FA9964804F0C5FB42
:100D500000200F21CDE918011A901B901C901D90C6
:100D60001090CDE91104CDE91607149006211590D5
:100D7000CDE90010CDE90206139004903102CDE9CF
:100D800008010690059007908900CDE90A010C90B2
:100D900017A80D9010A80E90684604F03DF90121A7
:100DA000062004F06EFA322003F0F6FE794CD320D0
:100DB0002080FFF7A2FC764DA880FFF79EFCA8805C
:100DC000FFF79BFC4FF6FF7909EA0020A880FFF7A8
:100DD00094FCA98849F2413A0843A88047F28976F1
:100DE00045F2103B45F21057504560D0042020805A
:100DF000FFF783FCA880FFF780FCA880FFF77DFC4D
:100E000009EA00204946A880FFF777FCAA8810432A
:100E1000A0F50542A880523A44D0B04247D0D42031
:100E20002080FFF76AFCA880FFF767FCA880FFF727
:100E300064FC01EA0020A880FFF75FFCAA88104349
:100E4000A880584533D04FF45A402080FFF755FC16
:100E5000A8804FF45B402080FFF74FFC01EA0020A0
:100E6000A8804FF45C402080FFF747FCAA8810431D
:100E7000A880B0F5004F7DD0B84218D0A1202080C6
:100E8000FFF73BFCA880FFF738FC01EA0020A880B0
:100E9000FFF733FCA9880843A0F5AE41A88061396B
:100EA00002D004E0AE8002E041F66310A880A98879
:100EB0003DA00BF0E5FEA888364DAD1C50457BD11A
:100EC000CF20208000202880C1202880302028804A
:100ED000ED20208064202880032028801220288094
:100EE00081202880E82020808520288010202880EC
:100EF0007A202880CB202080392028802C20288030
:100F0000002028803420288002202880F72020809C
:100F100020202880EA202080002028802880C020EF
:100F200020801B202880C120208001202880C5200F
:100F30002080302028802880C7202080B72028806B
:100F400036202080482028803A2020805520288084
:100F5000B1202080002028801A202880B620208000
:100F60000A202880A2202880F220208000202880CB
:100F7000262000E06BE0208001202880E0202080F7
:100F80000F2028802A20288028202880082014E08C
:100F9000DC0E0020FE07006C000C01400014014034
:100FA0000018014000200140204C43442049443AAD
:100FB00025780D0A000000004BE028800E202880D4
:100FC0000820288054202880A920288043202880B9
:100FD0000A2028800F202880002028802880288050
:100FE0002880E120208000202880152028801720DC
:100FF00028800720288011202880062028802B2088
:101000002880562028803C20288005202880102019
:1010100028800F2028803F20288028800F202880CB
:101020002B202080002028802880012028803F203D
:1010300028802A2020800020288028802880EF20F7
:10104000288011202080782003F0A6FD8BE0AF805F
:101050002DE7B0427ED111202080782003F09CFD46
:1010600036202080002028803A20208005202880FB
:10107000B22020800C202880288000202880332067
:1010800028802880B720208035202880BB20208021
:1010900032202880C02020800C202880C220208080
:1010A00001202880C320208010202880C420208098
:1010B00020202880C62020800F202880D02020805B
:1010C000A4202880A1202880E0202080D020288013
:1010D0000020288002202880072028800A202880DD
:1010E0002820288032202880442028804220288000
:1010F000062028800E202880122028801420288096
:1011000017202880E1202080D020288000202880FF
:1011100002202880072028800A2028802820288074
:101120003120288054202880472028800E202880C5
:101130001C202880172028801B2028801E20288023
:101140002A2020800020288028802880EF202880E6
:101150002B2000E00AE02080002028802880012049
:1011600028803F202880292001F02DBC58457DD1C2
:10117000ED20208001202880FE202880EE20208085
:10118000DE20288021202880F12020800120288056
:10119000DF20208010202880C42020808F202880FD
:1011A000C620208000202880E220288028802880F7
:1011B000BF202080AA202880B02020800D202880F9
:1011C000002028800D2028800020288011202880E1
:1011D00000202880192028800020288021202880B5
:1011E000002028802D202880002028803D20288075
:1011F000002028805D202880002028805D20288015
:1012000000202880B1202080802028800020288095
:101210008B2028800020288096202880002028808D
:10122000B2202080002028802880022028800020F2
:1012300028800320288000202880B32020800020E0
:10124000288028802880288028802880288028805E
:10125000288028802880288028802880288028804E
:101260002880288028802880288000E0FEE32880CD
:1012700028802880B42020808B202880002028808F
:101280009620288000202880A12028800020288007
:10129000B52020800220288000202880032028807C
:1012A000002028800420288000202880B62020806C
:1012B000002028802880B7202080002028802880D7
:1012C0003F202880002028805E2028800020288061
:1012D00064202880002028808C20288000202880FE
:1012E000AC20288000202880DC2028800020288056
:1012F00070202880002028809020288000202880CE
:10130000EB20288000202880DC20288000202880F6
:10131000B8202080002028802880288028802880ED
:10132000288028802880BA2020802420288000203F
:10133000288028802880C12020802020288000202C
:1013400028805420288000202880FF20288000202A
:101350002880C22020800A202880002028800420A5
:10136000288000202880C32020803C202880002066
:1013700028803A20288000202880392028800020DA
:10138000288037202880002028803C2028800020CA
:1013900028803620288000202880322028800020C5
:1013A00028802F202880002028802C2028800020C2
:1013B00028802920288000202880262028800020BE
:1013C00028802420288000202880242028800020B5
:1013D000288023202880002028803C20288000208E
:1013E0002880362028800020288032202880002075
:1013F00028802F202880002028802C202880002072
:10140000288029202880002028802620288000206D
:101410002880242028800020288024202880002064
:1014200028802320288000202880C420208062205B
:101430002880002028800520288000202880842003
:10144000288000202880F020288000202880182074
:10145000288000202880A4202880002028801820B0
:1014600028800020288050202880002028800C2000
:1014700028800020288017202880002028809520A0
:10148000288000202880F320288000202880E62063
:10149000288000202880C52020803220288000203D
:1014A0002880442028800020288065202880002073
:1014B000288076202880002028808820288000200E
:1014C0002880C62020802020288000202880172007
:1014D0002880002028800120288000202880C72024
:1014E000208000202880288028802880C820208014
:1014F00000202880288028802880C9202080002083
:10150000288028802880288028802880288028809B
:10151000288028802880288028802880288028808B
:10152000E020208016202880002028801C20288091
:101530000020288021202880002028803620288034
:1015400000202880462028800020288052202880E3
:101550000020288064202880002028807A2028808D
:10156000002028808B202880002028809920288037
:1015700000202880A820288000202880B9202880EA
:1015800000202880C420288000202880CA202880AD
:1015900000202880D220288000202880D920288080
:1015A00000202880E020288000202880F320288048
:1015B00000202880E120208016202880002028801C
:1015C0001C202880002028802220288000202880BD
:1015D0003620288000202880452028800020288070
:1015E0005220288000202880642028800020288025
:1015F0007A202880002028808B20288000202880C6
:101600009920288000202880A82028800020288079
:10161000B920288000202880C4202880002028802D
:10162000CA20288000202880D220288000202880FE
:10163000D820288000202880E020288000202880D2
:10164000F320288000202880E220208005202880A8
:10165000002028800B202880002028801B20288044
:1016600000202880342028800020288044202880E2
:10167000002028804F20288000202880612028809A
:101680000020288079202880002028808820288039
:10169000002028809720288000202880A6202880ED
:1016A00000202880B720288000202880C2202880A1
:1016B00000202880C720288000202880D120288072
:1016C00000202880D620288000202880DD20288047
:1016D00000202880F320288000202880E32020801C
:1016E00005202880002028800A20288000202880CB
:1016F0001C2028800020288033202880002028807B
:101700004420288000202880502028800020288025
:1017100062202880002028807820288000202880CF
:10172000882028800020288097202880002028807A
:10173000A620288000202880B7202880002028802C
:10174000C220288000202880C720288000202880F0
:10175000D120288000202880D520288000202880C3
:10176000DD20288000202880F32028800020288089
:10177000E42020800120288000202880012028806B
:101780000020288002202880002028802A2028800D
:10179000002028803C202880002028804B202880A2
:1017A000002028805D202880002028807420288048
:1017B00000202880842028800020288093202880F2
:1017C00000202880A220288000202880B3202880A4
:1017D00000202880BE20288000202880C420288067
:1017E00000202880CD20288000202880D320288039
:1017F00000202880DD20288000202880F3202880F9
:1018000000202880E5202080002028802880288053
:10181000288002202880002028802920288000207D
:1018200028803C202880002028804B202880002011
:1018300028805D20288000202880742028800020B7
:101840002880842028800020288093202880002061
:101850002880A220288000202880B3202880002013
:101860002880BE20288000202880C42028800020D6
:101870002880CD20288000202880D32028800020A8
:101880002880DC20288000202880F3202880002069
:101890002880E62020801120288000202880342005
:1018A000288000202880562028800020288076204C
:1018B000288000202880772028800020288066202B
:1018C00028800020288088202880002028809920D7
:1018D000288000202880BB20288000202880992094
:1018E000288000202880662028800020288055201D
:1018F000288000202880552028800020288045202E
:101900002880002028804320288000202880442030
:10191000288000202880E720208032202880002096
:1019200028805520288000202880762028800020CC
:1019300028806620288000202880672028800020BA
:101940002880672028800020288087202880002089
:1019500028809920288000202880BB202880002013
:101960002880992028800020288077202880002047
:1019700028804420288000202880562028800020AD
:1019800028802320288000202880332028800020E1
:1019900028804520288000202880E8202080002002
:1019A000288028809920288000202880872028806F
:1019B0000020288088202880002028807720288008
:1019C0000020288066202880002028808820288009
:1019D00000202880AA20288000202880BB20288082
:1019E00000202880992028800020288066202880D8
:1019F000002028805520288000202880552028801D
:101A0000002028804420288000202880442028802E
:101A1000002028805520288000202880E920208070
:101A2000AA20288000202880288028802080AA20C2
:101A30002880CF20208000202880288028802880AF
:101A40002880288028802880288028802880288056
:101A500028802880288028802880F020208000206E
:101A60002880502028800020288000E02CE028805A
:101A70002880F320208000202880F9202080062064
:101A800028801020288029202880002028803A20C3
:101A900020805520288011202080642003F07CF8CD
:101AA000292020803520208000202880512020807F
:101AB000FF202880532020802C2028805520208043
:101AC000822028802C20FCE3B8427DD14FF4704363
:101AD00055211846FEF71AFE4FF20105AA212846A5
:101AE000FEF714FE6E1C52213046FEF70FFEAF1CAF
:101AF00008213846FEF70AFE4FF2040C0121604629
:101B0000FEF704FE0D214FF43040FEF7FFFD0D21DE
:101B10004BF20100FEF7FAFD0D214BF20200FEF739
:101B2000F5FD4FF4364A34215046FEF7EFFD3421DF
:101B30004BF20160FEF7EAFD34214BF20260FEF742
:101B4000E5FD4FF4314B0D215846FEF7DFFD0D2129
:101B50004BF20110FEF7DAFD0D214BF20210FEF7F9
:101B6000D5FD34214FF43740FEF7D0FD34214BF240
:101B70000170FEF7CBFD34214BF20270FEF7C6FD7B
:101B800000214FF43240FEF7C1FD00214BF201204D
:101B9000FEF7BCFD00214BF20220FEF7B7FD242129
:101BA0004FF43840FEF7B2FD24214BF60100FEF75A
:101BB000ADFD24214BF60200FEF7A8FD01214FF4F4
:101BC0003F40FEF7A3FD00E0FEE30F214FF433405A
:101BD000FEF79CFD0F214BF20130FEF797FD0F2120
:101BE0004BF20230FEF792FD34214FF43940FEF7FC
:101BF0008DFD34214BF60110FEF788FD34214BF6A4
:101C00000210FEF783FD08214FF43540FEF77EFDFC
:101C100008214BF20150FEF779FD08214BF20250EA
:101C2000FEF774FD03214FF44240FEF76FFD2421BF
:101C30004FF43A40FEF76AFD24214BF60120FEF7EF
:101C400065FD24214BF60220FEF760FD00214FF4D4
:101C50003C40FEF75BFD78214BF60140FEF756FD58
:101C600000214BF60240FEF751FD00214FF43D40AC
:101C7000FEF74CFD78214BF60150FEF747FD0021A1
:101C80004BF60250FEF742FD00214FF43E40FEF7B6
:101C90003DFD64214BF60160FEF738FD00214FF455
:101CA0005140FEF733FD33214DF20110FEF72EFDBA
:101CB00000214DF20210FEF729FD34214DF20310F0
:101CC000FEF724FD00214DF20410FEF71FFD3A211E
:101CD0004DF20510FEF71AFD00214DF20610FEF739
:101CE00015FD4A214DF20710FEF710FD00214DF2BF
:101CF0000810FEF70BFD5C214DF20910FEF706FD02
:101D000000214DF20A10FEF701FD81214DF20B106A
:101D1000FEF7FCFC00214DF20C10FEF7F7FCA621AB
:101D20004DF20D10FEF7F2FC00214DF20E10FEF701
:101D3000EDFCE5214DF20F10FEF7E8FC01214DF21C
:101D40001010FEF7E3FC13214DF21110FEF7DEFC3C
:101D500001214DF21210FEF7D9FC54214DF213105F
:101D6000FEF7D4FC01214DF21410FEF7CFFC8221C6
:101D70004DF21510FEF7CAFC01214DF21610FEF7C8
:101D8000C5FCCA214DF21710FEF7C0FC02214DF22E
:101D90001810FEF7BBFC00214DF21910FEF7B6FC3F
:101DA00002214DF21A10FEF7B1FC01214DF21B1079
:101DB000FEF7ACFC02214DF21C10FEF7A7FC34210B
:101DC0004DF21D10FEF7A2FC02214DF21E10FEF78F
:101DD0009DFC67214DF21F10FEF798FC02214DF289
:101DE0002010FEF793FC84214DF22110FEF78EFCAB
:101DF00002214DF22210FEF789FCA4214DF223109E
:101E0000FEF784FC02214DF22410FEF77FFCB7217F
:101E10004DF22510FEF77AFC02214DF22610FEF756
:101E200075FCCF214DF22710FEF770FC02214DF218
:101E30002810FEF76BFCDE214DF22910FEF766FC40
:101E400002214DF22A10FEF761FCF2214DF22B1017
:101E5000FEF75CFC02214DF22C10FEF757FCFE2130
:101E60004DF22D10FEF752FC03214DF22E10FEF71D
:101E70004DFC10214DF22F10FEF748FC03214DF2CE
:101E80003010FEF743FC33214DF23110FEF73EFCDB
:101E900003214DF23210FEF739FC6D214DF2331063
:101EA000FEF734FC00214FF45240FEF72FFC3321A3
:101EB0004DF20120FEF72AFC00214DF20220FEF730
:101EC00025FC34214DF20320FEF720FC00214DF2C9
:101ED0000420FEF71BFC3A214DF20520FEF716FC0C
:101EE00000214DF20620FEF711FC4A214DF2072099
:101EF000FEF70CFC00214DF20820FEF707FC5C21E8
:101F00004DF20920FEF702FC00214DF20A20FEF7F7
:101F1000FDFB81214DF20B20FEF7F8FB00214DF275
:101F20000C20FEF7F3FBA6214DF20D20FEF7EEFB91
:101F300000214DF20E20FEF7E9FBE5214DF20F20C6
:101F4000FEF7E4FB01214DF21020FEF7DFFB132129
:101F50004DF21120FEF7DAFB01214DF21220FEF7BF
:101F6000D5FB54214DF21320FEF7D0FB01214DF299
:101F70001420FEF7CBFB82214DF21520FEF7C6FBA5
:101F800001214DF21620FEF7C1FBCA214DF21720A8
:101F9000FEF7BCFB02214DF21820FEF7B7FB002133
:101FA0004DF21920FEF7B2FB02214DF21A20FEF786
:101FB000ADFB01214DF21B20FEF7A8FB02214DF2E3
:101FC0001C20FEF7A3FB34214DF21D20FEF79EFBE3
:101FD00002214DF21E20FEF799FB67214DF21F20D2
:101FE000FEF794FB02214DF22020FEF78FFB8421A7
:101FF0004DF22120FEF78AFB02214DF22220FEF74E
:1020000085FBA4214DF22320FEF780FB02214DF237
:102010002420FEF77BFBB7214DF22520FEF776FB4F
:1020200002214DF22620FEF771FBCF214DF2272031
:10203000FEF76CFB02214DF22820FEF767FBDE2144
:102040004DF22920FEF762FB02214DF22A20FEF715
:102050005DFBF2214DF22B20FEF758FB02214DF2E1
:102060002C20FEF753FBFE214DF22D20FEF74EFBF8
:1020700003214DF22E20FEF749FB10214DF22F20B7
:10208000FEF744FB03214DF23020FEF73FFB3321E6
:102090004DF23120FEF73AFB03214DF23220FEF7DC
:1020A00035FB6D214DF23320FEF730FB00214FF45C
:1020B0005340FEF72BFB33214DF20130FEF726FB98
:1020C00000214DF20230FEF721FB34214DF20330A6
:1020D000FEF71CFB00214DF20430FEF717FB3A21FE
:1020E0004DF20530FEF712FB00214DF20630FEF7EF
:1020F0000DFB4A214DF20730FEF708FB00214DF29F
:102100000830FEF703FB5C214DF20930FEF7FEFAC2
:1021100000214DF20A30FEF7F9FA81214DF20B3021
:10212000FEF7F4FA00214DF20C30FEF7EFFAA6218B
:102130004DF20D30FEF7EAFA00214DF20E30FEF7B7
:10214000E5FAE5214DF20F30FEF7E0FA01214DF2FC
:102150001030FEF7DBFA13214DF21130FEF7D6FAFC
:1021600001214DF21230FEF7D1FA54214DF2133015
:10217000FEF7CCFA01214DF21430FEF7C7FA8221A6
:102180004DF21530FEF7C2FA01214DF21630FEF77E
:10219000BDFACA214DF21730FEF7B8FA02214DF20E
:1021A0001830FEF7B3FA00214DF21930FEF7AEFAFF
:1021B00002214DF21A30FEF7A9FA01214DF21B302F
:1021C000FEF7A4FA02214DF21C30FEF79FFA3421EB
:1021D0004DF21D30FEF79AFA02214DF21E30FEF745
:1021E00095FA67214DF21F30FEF790FA02214DF269
:1021F0002030FEF78BFA84214DF22130FEF786FA6B
:1022000002214DF22230FEF781FAA4214DF2233053
:10221000FEF77CFA02214DF22430FEF777FAB7215F
:102220004DF22530FEF772FA02214DF22630FEF70C
:102230006DFACF214DF22730FEF768FA02214DF2F8
:102240002830FEF763FADE214DF22930FEF75EFA00
:1022500002214DF22A30FEF759FAF2214DF22B30CD
:10226000FEF754FA02214DF22C30FEF74FFAFE2110
:102270004DF22D30FEF74AFA03214DF22E30FEF7D3
:1022800045FA10214DF22F30FEF740FA03214DF2AE
:102290003030FEF73BFA33214DF23130FEF736FA9B
:1022A00003214DF23230FEF731FA6D214DF2333019
:1022B000FEF72CFA00214FF45440FEF727FA3321A1
:1022C00000E080E34DF20140FEF720FA00214DF2DC
:1022D0000240FEF71BFA34214DF20340FEF716FAD6
:1022E00000214DF20440FEF711FA3A214DF205406B
:1022F000FEF70CFA00214DF20640FEF707FA4A21DC
:102300004DF20740FEF702FA00214DF20840FEF7B9
:10231000FDF95C214DF20940FEF7F8F900214DF27C
:102320000A40FEF7F3F981214DF20B40FEF7EEF97A
:1023300000214DF20C40FEF7E9F9A6214DF20D40C7
:10234000FEF7E4F900214DF20E40FEF7DFF9E5213A
:102350004DF20F40FEF7DAF901214DF21040FEF781
:10236000D5F913214DF21140FEF7D0F901214DF2BC
:102370001240FEF7CBF954214DF21340FEF7C6F997
:1023800001214DF21440FEF7C1F982214DF21540B2
:10239000FEF7BCF901214DF21640FEF7B7F9CA214C
:1023A0004DF21740FEF7B2F902214DF21840FEF748
:1023B000ADF900214DF21940FEF7A8F902214DF2C6
:1023C0001A40FEF7A3F900E0FFE201214DF21B40A5
:1023D000FEF79CF902214DF21C40FEF797F93421DB
:1023E0004DF21D40FEF792F902214DF21E40FEF71C
:1023F0008DF967214DF21F40FEF788F902214DF259
:102400002040FEF783F984214DF22140FEF77EF94A
:1024100002214DF22240FEF779F9A4214DF223402A
:10242000FEF774F902214DF22440FEF76FF9B7214F
:102430004DF22540FEF76AF902214DF22640FEF7E3
:1024400065F9CF214DF22740FEF760F902214DF2E8
:102450002840FEF75BF9DE214DF22940FEF756F9E0
:1024600002214DF22A40FEF751F9F2214DF22B40A4
:10247000FEF74CF902214DF22C40FEF747F9FE2100
:102480004DF22D40FEF742F903214DF22E40FEF7AA
:102490003DF910214DF22F40FEF738F903214DF29E
:1024A0003040FEF733F933214DF23140FEF72EF97B
:1024B00003214DF23240FEF729F96D214DF23340F0
:1024C000FEF724F900214FF45540FEF71FF93321A0
:1024D0004DF20150FEF71AF900214DF20250FEF7BD
:1024E00015F934214DF20350FEF710F900214DF299
:1024F0000450FEF70BF93A214DF20550FEF706F9AC
:1025000000214DF20650FEF701F94A214DF2075025
:10251000FEF7FCF800214DF20850FEF7F7F85C21B9
:102520004DF20950FEF7F2F800214DF20A50FEF785
:10253000EDF881214DF20B50FEF7E8F800214DF245
:102540000C50FEF7E3F8A6214DF20D50FEF7DEF831
:1025500000214DF20E50FEF7D9F8E5214DF20F5053
:10256000FEF7D4F801214DF21050FEF7CFF81321F9
:102570004DF21150FEF7CAF801214DF21250FEF74C
:10258000C5F854214DF21350FEF7C0F801214DF269
:102590001450FEF7BBF882214DF21550FEF7B6F845
:1025A00001214DF21650FEF7B1F8CA214DF2175035
:1025B000FEF7ACF802214DF21850FEF7A7F8002103
:1025C0004DF21950FEF7A2F802214DF21A50FEF713
:1025D0009DF801214DF21B50FEF798F802214DF2B3
:1025E0001C50FEF793F834214DF21D50FEF78EF883
:1025F00002214DF21E50FEF789F867214DF21F505F
:10260000FEF784F802214DF22050FEF77FF8842176
:102610004DF22150FEF77AF802214DF22250FEF7DA
:1026200075F8A4214DF22350FEF770F802214DF207
:102630002450FEF76BF8B7214DF22550FEF766F8EF
:1026400002214DF22650FEF761F8CF214DF22750BE
:10265000FEF75CF802214DF22850FEF757F8DE2114
:102660004DF22950FEF752F802214DF22A50FEF7A2
:102670004DF8F2214DF22B50FEF748F802214DF2B1
:102680002C50FEF743F8FE214DF22D50FEF73EF898
:1026900003214DF22E50FEF739F810214DF22F5044
:1026A000FEF734F803214DF23050FEF72FF83321B6
:1026B0004DF23150FEF72AF803214DF23250FEF769
:1026C00025F86D214DF23350FEF720F800214FF42C
:1026D0005640FEF71BF833214DF20160FEF716F865
:1026E00000214DF20260FEF711F834214DF2036033
:1026F000FEF70CF800214DF20460FEF707F83A21CE
:102700004DF20560FEF702F800214DF20660FDF77C
:10271000FDFF4A214DF20760FDF7F8FF00214DF261
:102720000860FDF7F3FF5C214DF20960FDF7EEFF55
:1027300000214DF20A60FDF7E9FF81214DF20B60A7
:10274000FDF7E4FF00214DF20C60FDF7DFFFA6214D
:102750004DF20D60FDF7DAFF00214DF20E60FDF73E
:10276000D5FFE5214DF20F60FDF7D0FF01214DF2BD
:102770001060FDF7CBFF13214DF21160FDF7C6FF8E
:1027800001214DF21260FDF7C1FF54214DF213609B
:10279000FDF7BCFF01214DF21460FDF7B7FF822168
:1027A0004DF21560FDF7B2FF01214DF21660FDF705
:1027B000ADFFCA214DF21760FDF7A8FF02214DF2CF
:1027C0001860FDF7A3FF00214DF21960FDF79EFF91
:1027D00002214DF21A60FDF799FF01214DF21B60B5
:1027E000FDF794FF02214DF21C60FDF78FFF3421AD
:1027F0004DF21D60FDF78AFF02214DF21E60FDF7CC
:1028000085FF67214DF21F60FDF780FF02214DF229
:102810002060FDF77BFF84214DF22160FDF776FFFC
:1028200002214DF22260FDF771FFA4214DF22360D9
:10283000FDF76CFF02214DF22460FDF767FFB72121
:102840004DF22560FDF762FF02214DF22660FDF793
:102850005DFFCF214DF22760FDF758FF02214DF2B9
:102860002860FDF753FFDE214DF22960FDF74EFF92
:1028700002214DF22A60FDF749FFF2214DF22B6053
:10288000FDF744FF02214DF22C60FDF73FFFFE21D2
:102890004DF22D60FDF73AFF03214DF22E60FDF75A
:1028A00035FF10214DF22F60FDF730FF03214DF26F
:1028B0003060FDF72BFF33214DF23160FDF726FF2D
:1028C00003214DF23260FDF721FF6D214DF233609F
:1028D000FDF71CFF55211846FDF718FFAA212846D1
:1028E000FDF714FF52213046FDF710FF082138464E
:1028F000FDF70CFF00216046FDF708FFCC2158468C
:10290000FDF704FF00214BF20110FDF7FFFE05214A
:102910005046FDF7FBFE70214FF43740FDF7F6FE01
:1029200070214BF20170FDF7F1FE01214FF43840A8
:10293000FDF7ECFE03214BF60100FDF7E7FE032156
:102940004BF60200FDF7E2FE03214BF60300FDF714
:10295000DDFE02214FF43C40FDF7D8FE00214BF68E
:102960000140FDF7D3FE00214BF60240FDF7CEFEFD
:10297000D0214FF44940FDF7C9FE02214CF6011069
:10298000FDF7C4FE50214CF60210FDF7BFFE5021AA
:102990004CF60310FDF7BAFE50214CF60410FDF77B
:1029A000B5FE00214FF45450FDF7B0FE55214FF411
:1029B0006850FDF7ABFE4FF488502080782002F07D
:1029C000D3F84FF4245020807DE0A0F5C85163393E
:1029D00079D1E22020801D20288002202880042038
:1029E0002880642002F0C0F8E020208001202880A8
:1029F0000A2002F0D1F8E0202080032028800C205B
:102A000002F0CAF8012020800A2002F0C5F8E62072
:102A100020802F202880FF2028802880B020208040
:102A200020202880002028800320288040F21F30AA
:102A300028800120288040F2DF1028800020288094
:102A4000B42020800420288040F21F4028800020ED
:102A500028802E2028800020288028802880288018
:102A6000B6202080022028804FF4037028800020A8
:102A70002880172028801520288000202880288082
:102A8000F02020800320288029202080D020208052
:102A900000202880BE20208005202880FE2028805D
:102AA000012028800020288028802880B8202080CD
:102AB0000320288001202880BA202080012028803F
:102AC0006420FDF7E1FF0020FDF7F7FFF749C1F8AB
:102AD00080814846FEF7E7F81FB0BDE8F08F2DE98A
:102AE000F0438146A2EB0900401C1F460C4685B20C
:102AF000DFF8BC83079E0FE021464846FDF72AFE1B
:102B0000FDF712FE0020414602E00E80401C80B21C
:102B1000A842FAD3641CA4B2BC42EDD9BDE8F0834C
:102B20002DE9F0478246A2EB0A00401C0E4685B212
:102B3000981B401C87B20024DFF87493DDF82080D6
:102B400014E0301981B25046FDF704FEFDF7ECFDAC
:102B50000020494606E004FB050338F813200A80EC
:102B6000401C80B2A842F6D3641CA4B2BC42E8D395
:102B7000BDE8F0872DE9FE4F0026A2EB0008824653
:102B80005F1A701E35468946B8F1000F02DD4FF01E
:102B9000010102E003D14FF00001019102E0C8F110
:102BA00000080190002F02DD4FF0010002E003D188
:102BB0004FF00000009002E0C7F10007009040468F
:102BC000B84501DD044600E03C46601C4FF0000BB8
:102BD000029015E01FFA89F11FFA8AF0FDF7F7FE5F
:102BE00046443D44A64202DD0199361B8A44A54273
:102BF00002DD00992D1B89440BF101001FFA80FBB7
:102C000002998B45E6DDBDE8FE8FF0B51C46154602
:102C10000E4607460B46FFF7ADFF3A4623463146C0
:102C20001046FFF7A7FF23462A4619463846FFF706
:102C3000A1FF2A4623463146BDE8F040104699E7F9
:102C40002DE9FC4F80460024154603200F46A0EBDB
:102C5000450649E0781B81B208EB040A01901FFA8F
:102C60008AF0FDF7B4FE381B81B208EB050900902D
:102C70001FFA89F0FDF7ABFE07EB040B1FFA8BF18F
:102C80001FFA89F0FDF7A3FE07EB05091FFA89F18A
:102C90001FFA8AF0FDF79BFEA8EB040A1FFA89F1E0
:102CA0001FFA8AF0FDF793FEA8EB05091FFA8BF1D6
:102CB0001FFA89F0FDF78BFE019881B21FFA8AF0A6
:102CC000FDF785FE009881B21FFA89F0FDF77FFEBF
:102CD000641C002E03DA06EB8406B61D04E0601BBC
:102CE00006EB80066D1E0A36AC42B3DDBDE8FC8FF4
:102CF0002DE9F84F82461F460C468B46580700D0F8
:102D0000012000EBD70079084843203AC0B202F016
:102D1000FF090026009041E00C2F10D0102F12D098
:102D2000182F3ED1634909EBC90001EB80004FF039
:102D30000008855D28060AD55F4802880BE009EB8C
:102D400049005E49F1E75E4901EB0910EFE70A9897
:102D500028B95948428821465046FDF743FE680687
:102D6000050E5848641CA4B24088A04219D9A4EBAF
:102D70000B00B84209D10AF101001FFA80FA51484C
:102D80005C46018851450CD906E008F1010000F0CD
:102D9000FF08B8F1080FCDD3761CF6B20098864232
:102DA000BAD3BDE8F88F0346012000E05843491E1E
:102DB000C9B2FBD270472DE9FF4F81B00027DDF883
:102DC00038B01D46924680463C46B9464FEA5B06FF
:102DD00027E0281B401EC1B20A20FFF7E4FFBAFB20
:102DE000F0F00A21B0FBF1F201FB120027B9691ED5
:102DF0008C4201DA48B101273030C2B206FB0480B0
:102E000080B25B46CDF8009006E006FB048080B2FD
:102E10005B462022CDF800900299FFF769FF641C01
:102E2000E4B2AC42D5D305B057E62DE9FF4F81B0EF
:102E30008046DDF83CA00E984FF000091F469346EF
:102E40004C460AF0010546082BE0381B401EC1B273
:102E50000A20FFF7A8FFBBFBF0F00A21B0FBF1F25C
:102E600001FB1200B9F1000F05D1791E8C4202DA84
:102E700048B14FF001093030C2B206FB048080B285
:102E800000950E9B08E05FEA0A6006FB04800E9B3B
:102E900080B2009508D530220299FFF729FF641C03
:102EA000E4B2BC42D1D3BEE72022F5E70080214244
:102EB0000008006CB2940208260000204E8A020826
:102EC000C28E0208DC0E00202DE9F84F044600F007
:102ED000FF0810190D46DDE90A761FFA80FA581925
:102EE0001FFA80F94FF0000B11E0544502D3E819A6
:102EF000444685B24D450FD23B4629462046CDF883
:102F000000B0FFF7F5FE04EB570084B2761C327870
:102F1000A2F120005E28E8D943E700004E4841694D
:102F200041F480714161816941F0200181618169D1
:102F300041F040018161816941F0800181618169D5
:102F400041F4807181614548016800210160026897
:102F500042F0BB320260001F026802F0FF220260F2
:102F6000026842F0BB1202603D48026801600268DC
:102F700042F0BB320260001F02683A4B1A40026006
:102F80000268394B1A4302603848026892B2026004
:102F90000268374B1A430260001F026802F07F424A
:102FA00002600368334A134303603348436823F4E1
:102FB00070634360436843F430634360036803F025
:102FC0007F4303600368134303604FF020400161B7
:102FD0004161C0F81411016941F480510161016936
:102FE00041F010010161416941F440714161416961
:102FF0004161416941616FF07041C0F8141101698C
:1030000041F001010161704710B5002A07D04FF06F
:10301000D04310F8014B5C54491C521EF7D110BD2F
:10302000002A07D04FF0D0435B5C491C00F8013BFD
:10303000521EF7D1704703B50146012201A8FFF7E0
:10304000E3FF0CBD08B5014601226846FFF7E8FF23
:103050009DF8000008BD000000100240041401406B
:103060000418014000FFFF0FBB0000B0041C01402A
:103070000000BBBBBBBBBB000020014038B5012139
:10308000082002F012FCC020ADF8000010208DF8DE
:1030900003000320824C8DF802006946204602F0AE
:1030A0001CFAC021204602F082FA38BD70B57C4877
:1030B000016821F070410160016841F040510160F8
:1030C000784C0120C4F89C01C4F89801042004F550
:1030D000CC7401F049FD00256560042001F044FD39
:1030E000256070BD6E4810B5016821F07041016027
:1030F000016841F0405101606A4C0020C4F8980119
:10310000C4F89C01042004F5CC7401F02DFD0120CD
:1031100020606060BDE81040042001F025BD70B55E
:103120005F480024016821F070410160016841F0AE
:10313000004101605B4D0126C5F89C61304601F0FD
:1031400013FDC5F89861012001F00EFD07E0641C35
:10315000E4B2FA2C03D9FFF7C5FF012070BDD5F802
:103160001C010028F3D1C5F8980170BD70B54D4C15
:103170000025C4F898514A48016821F07041016067
:10318000016841F040510160C4F89C51022004F5EF
:10319000CC7401F0E9FC01202060022001F0E4FC85
:1031A000256070BD70B53F4C0026C4F898613C485E
:1031B000016821F070410160016841F040510160F7
:1031C0000125C4F89C51022004F5CC7401F0CCFC1C
:1031D0002560022001F0C8FC266070BD2DE9F04199
:1031E00005462F48016821F070410160016841F0F7
:1031F000405101602B4E0027C6F898713C464FF0B5
:103200000108280602D5C6F89C8101E0C6F89C7129
:103210006806050E022001F0A7FCC6F8988102207E
:1032200001F0A2FCC6F89871022001F09DFC641C1C
:10323000E4B2082CE5D3BDE8F0812DE9F0478146E2
:1032400017480024016821F070410160016841F0D5
:1032500000410160134E254627464FF00108C6F88D
:103260009871022001F080FCC6F898816006040E77
:10327000D6F81C0108B1641CE4B2012001F074FC12
:103280006D1CEDB2082DEAD3B9F1000F04D0FFF7A1
:103290006DFF2046BDE8F087FFF784FFF9E70000E7
:1032A000000C014000802142FFF7E8BE10B5044643
:1032B000FFF7FCFE200AA02101EB4000C0B2FFF79F
:1032C0008DFFFFF72CFFE0B2FFF788FFFFF727FF26
:1032D000FFF7ECFEA120FFF781FFFFF720FF0020A2
:1032E000FFF7ABFF0446FFF7FDFE204610BD70B5AB
:1032F0000D460446FFF7DAFE200AA02101EB40004C
:10330000C0B2FFF76BFFFFF70AFFE0B2FFF766FFFF
:10331000FFF705FF2846FFF761FFFFF700FFFFF704
:10332000E1FEBDE870400A2001F036BC2DE9F04115
:1033300016460D460746002409E0E00025FA00F095
:10334000C1B2381980B2FFF7D2FF641CE4B2B442B4
:10335000F3D3BDE8F0812DE9F0410D460146002090
:1033600004464E1908E00702301B401E80B2FFF7EA
:103370009DFF641C3844E4B2AC42F4D3E9E710B5D5
:10338000FF20FFF793FF55280AD05521FF20FFF7B4
:10339000AEFFFF20FFF78AFF552801D0012010BDA6
:1033A000002010BD70B515460E46044608E02046C4
:1033B000641CA4B2FFF77AFF6D1E06F8010BADB2D4
:1033C000002DF4D170BD70B514460D46064606E0DA
:1033D00029783046FFF78BFF761CB6B26D1C641E51
:1033E000A4B2F5D270BD0000052001F0BDBB944829
:1033F000816941F008018161816941F08001816149
:103400009048016821F0F0010160016841F030014D
:1034100001608D48016821F0F0010160016841F010
:103420003001016087480C30016841F00201016001
:1034300085480830016841F400710160704770B53B
:103440008148016821F0F0010160016841F030011C
:1034500001607E4E0120C6F8A4017D4DC5F88401AF
:103460001E2005F5C27506F5D27601F07DFB00241D
:103470003460052001F078FB2C6070BD70B5724897
:10348000016821F0F0010160016841F03001016044
:103490006F480125C0F884511E2001F065FB6B4C7C
:1034A0000020C4F8A401052004F5D27401F05CFBEF
:1034B000256070BD70B564480024016821F0F001FA
:1034C0000160016841F080010160604D0120C5F894
:1034D000A4015F4EC6F8840107E0641CE4B2FA2C34
:1034E00003D9FFF7CBFF012070BD052001F03CFBA5
:1034F000D5F824010028F0D1C6F8840170BD70B55C
:10350000534C0025C4F884514F48016821F0F00164
:103510000160016841F030010160052004F5C274CA
:1035200001F022FB4948C0F8A451052001F01CFB22
:1035300001202060052001F017FB256070BD70B5EB
:10354000434C0026C4F884613F48016821F0F00133
:103550000160016841F030010160052004F5C2748A
:1035600001F002FB39480125C0F8A451052001F003
:10357000FBFA2560052001F0F7FA266070BD2DE901
:10358000F04705463048016821F0F001016001680C
:1035900041F0300101602E4E0027C6F884710520ED
:1035A00001F0E2FADFF8A48000244FF00109E909F4
:1035B000C8F8A4116806050EC6F88491052001F02C
:1035C000D3FAC6F88471052001F0CEFA641CE4B287
:1035D000082CECD3BDE8F0872DE9F04782461A4865
:1035E0000024016821F0F0010160016841F08001D0
:1035F00001601E2001F0B8FA0025154EDFF84C904E
:103600002F464FF00108C6F88471052001F0ACFA8E
:10361000C6F884816006040ED9F8240108B1641C40
:10362000E4B26D1CEDB2082DEDD3BAF1000F03D05A
:10363000FFF765FF2046CDE7FFF781FFFAE70000BF
:1036400000100240000C0140041C01400080234295
:10365000008021422DE9F04115460E460446002720
:10366000FFF7EDFE7020FFF78AFFFFF723FFE0B2C0
:10367000FFF785FFFFF71EFF002408E0305DFFF72E
:103680007EFFFFF717FF070003D1641CE4B2AC42D2
:10369000F4D3FFF7F3FE3846BDE8F0812DE9F041A1
:1036A00015460F460446FFF7CAFE7020FFF767FF76
:1036B000FFF700FFE0B2FFF762FFFFF7FBFEFFF747
:1036C000BEFE7120FFF75BFFFFF7F4FE00246E1EC5
:1036D00009E0B44201D0012000E00020FFF77CFFA8
:1036E0003855641CE4B2AC42F3D3BDE8F041FFF7B7
:1036F000C5BE38B57448816941F080018161734865
:10370000016821F47F410160016841F4605101606A
:103710006E480830016841F440610160FFF767FEC0
:103720006B4D0024C5F8AC41142005F5D67501F0A9
:1037300033FA01202860322001F02EFA8DF8004083
:10374000012269460020FFF785FF01226946A42077
:10375000FFF780FF16208DF80000012269468020C7
:10376000FFF778FF0C208DF80000012269468820C1
:10377000FFF770FF02226946A120FFF78FFF9DF837
:103780000000302803D19DF80100032801D001205A
:1037900038BD43F203014FA009F072FA002038BD92
:1037A0002DE9F1434E4F00244FF00A09387882B0DA
:1037B000401CC0B2B0FBF9F209FB1201494DA04612
:1037C000387009B10A2863D2012202A90220FFF74A
:1037D00065FF9DF8080001075AD000F00F00062889
:1037E00056D2FF218140C84340F0C00085F8200038
:1037F0004FF00108002695F8201008FA04F0014265
:1038000039D039480422694630F81400FFF746FFE2
:1038100095F830009DF80010C0079DF8010001F0F8
:103820000F010ED000EB012105EB4400C1829DF891
:1038300002209DF8031002F00F0201EB02218181AA
:103840000FE000EB0120C0F5F07105EB4400818131
:103850009DF802209DF8031002F00F0201EB0221F7
:10386000C1829DF800000821B1EB101F03D005EBC9
:103870004400C6828681641CE4B2052CBBD3A989AE
:103880004FF0010819B9E88A08B98DF808603E7050
:103890009DF80800C0060ED195F82000010602D55B
:1038A00020F0800005E04FF6FF71A981E98200F069
:1038B000E00085F820003878F02801D987F80090DA
:1038C0004046BDE8FE83000000100240041C014099
:1038D000008023424354502049443A25780D0A0081
:1038E0002A000020340000200EA202082DE9F04139
:1038F00015460E4604460027FFF7A1FD2820FFF7D6
:103900003EFEFFF7D7FD200AFFF739FEFFF7D2FD95
:10391000E0B2FFF734FEFFF7CDFD002408E0305D94
:10392000FFF72DFEFFF7C6FD070003D1641CE4B2CC
:10393000AC42F4D3FFF7A2FD3846BDE8F08108B5EC
:1039400000218DF800108DF80100B9489DF8002085
:10395000435C491C1A44C9B28DF80020B829F5D33C
:10396000D0B2C043401C8DF80000B822B04948F2E4
:103970004700FFF7BBFF0222694648F2FF00FFF74E
:10398000B5FF002008BD2DE9F04115460F4604465D
:10399000FFF755FD2820FFF7F2FDFFF78BFD200A0A
:1039A000FFF7EDFDFFF786FDE0B2FFF7E8FDFFF75B
:1039B00081FDFFF744FD2920FFF7E1FDFFF77AFDC8
:1039C00000246E1E09E0B44201D0012000E0002076
:1039D000FFF702FE3855641CE4B2AC42F3D3BDE8F5
:1039E000F041FFF74BBD2DE9FC419248816941F060
:1039F00080018161904C206820F47F402060206825
:103A000040F4605020608C4D0835286840F44060D8
:103A10002860FFF7ECFC894F0026C7F8AC610A204C
:103A200007F5D67701F0B8F8012038600A2001F0D8
:103A3000B3F8206820F470602060206840F40060D3
:103A40002060286820F480602860642001F0A4F8D9
:103A50000422694648F24010FFF795FF8DF8046094
:103A6000694677A009F00CF978A1684609F092FB45
:103A700010BB02208DF8000048F240040122694684
:103A80002046FFF733FF01226946E01DFFF77BFF69
:103A90009DF80010602905D26EA009F0F1F8012010
:103AA000FFF74DFF0A2001F077F88DF80060012242
:103AB00069462046FFF71AFF0020BDE8FC812DE98A
:103AC000F147694D00244FF00A0A287883B0401C62
:103AD000C0B2B0FBFAF20AFB1201644EA046287095
:103AE00009B10A287AD248F24E19012203A94846A0
:103AF000FFF749FF9DF80C004FF00007010603D5C2
:103B000000F00F01062901D3800606D58DF8047058
:103B1000012201A94846FFF7E9FE9DF80C000107C4
:103B20005CD000F00F01062958D2FF2088408DF8A4
:103B30000400C04396F8209040F0C00086F82000B2
:103B4000B089B082F08AF0834FF0010896F8201017
:103B500008FA04F0014226D035480422B8306946FC
:103B600030F81400FFF70FFF96F830009DF80110B1
:103B7000C0079DF8000000EB012106EB44000AD0CD
:103B8000C1829DF802109DF8032001EB0221C1F5CE
:103B90004871818107E081819DF802109DF8032022
:103BA00001EB0221C182641CE4B2052CCED3304962
:103BB000B2894FF001080B8830469A4203D8C28A76
:103BC00049888A4209D99DF80C1001F00F0101299A
:103BD0000BD9C1898181018BF1822F709DF80C0076
:103BE00000F08F0080280AD018E0818A8181C18B83
:103BF000C18280218DF80C1086F82090EEE796F8AF
:103C00002000010602D520F0800005E04FF6FF718C
:103C1000B181F18200F0E00086F820002878F028D9
:103C200001D985F800A004B04046BDE8F087000047
:103C300018A2020800100240041C01400080234228
:103C40004354502049443A25730D0A003931343722
:103C50000000000044656661756C74205665723A18
:103C600025640D0A000000002B0000203400002015
:103C7000DC0E00202DE9F04115460E4604460027D3
:103C8000FFF7DDFBB220FFF77AFCFFF713FC200AF9
:103C9000FFF775FCFFF70EFCE0B2FFF770FCFFF7D3
:103CA00009FC002408E0305DFFF769FCFFF702FC27
:103CB000070003D1641CE4B2AC42F4D3FFF7DEFB8F
:103CC0003846BDE8F0812DE9F04115460F4604461F
:103CD000FFF7B5FBB220FFF752FCFFF7EBFB200A22
:103CE000FFF74DFCFFF7E6FBE0B2FFF748FCFFF7FC
:103CF000E1FBFFF7A4FBB320FFF741FCFFF7DAFB82
:103D000000246E1E09E0B44201D0012000E0002032
:103D1000FFF762FC3855641CE4B2AC42F3D3BDE853
:103D2000F041FFF7ABBB08B500218DF8001010B1D2
:103D300080208DF80000012269464FF45060FFF7A3
:103D400099FF08BD38B56E4800258DF8005081698F
:103D500041F0800181616B48016821F47F4101607D
:103D6000016841F46051016066480830016841F41F
:103D700040610160FFF73BFB634CC4F8AC51642029
:103D800004F5D67400F008FF01202060642000F0E4
:103D900003FF0120FFF7C7FF012269464FF450607F
:103DA000FFF791FF9DF8001058A008F069FF9DF8FB
:103DB0000000802801D0012038BD002038BD2DE949
:103DC000F14F554F00244FF00A08387882B0401C5C
:103DD000C0B2B0FBF8F208FB1201504E2546387015
:103DE00009B10A2871D2012202A90020FFF76BFF56
:103DF0009DF80800C1066CD000F01F0040F0C00024
:103E0000DFF81CA1DFF81CB186F820004FF0010993
:103E100096F8201009FA04F0014249D042480422E1
:103E2000694630F81400FFF74EFF96F830009DF811
:103E30000210C0079DF8030000EB01201ED023F004
:103E4000F7FE52465B4623F043FF23F0ADFE06EB40
:103E50004405E8829DF801009DF8001000EB012068
:103E600023F0E6FE314A324B23F032FF0022314B81
:103E700024F062F823F098FEA88119E023F0D8FE20
:103E800052465B4623F024FF23F08EFE06EB4405EA
:103E9000A8819DF801009DF8001000EB012023F09F
:103EA000C7FE224A224B23F013FF23F07DFEE88257
:103EB000641CE4B2052CABD30125B28900211AB9E8
:103EC000F08A08B98DF8081039709DF80800C0060E
:103ED0000ED196F82000010602D520F0800005E002
:103EE0004FF6FF71B181F18200F0E00086F820000A
:103EF0003878F02801D987F800802846BDE8FE8F81
:103F000000100240041C0140008023424354502012
:103F100049443A25780D0A002C0000203400002086
:103F20007B14AE47E17AD43FDAA20208D881734607
:103F300094F6D23F000089402DE9F0470024FF4E5F
:103F4000FF4F0546A0464FF00109280601D5484617
:103F500000E04046C6F8A4016806050EC7F8848153
:103F6000012000F001FEC7F88491641CE4B2082C23
:103F7000EBD3BDE8F0872DE9F0470025F04F2C4644
:103F80002E46C7F88451DFF8B483C8F8A451C8F8A6
:103F9000AC5107F5C277FFF7CFFF062000F0E4FD34
:103FA0003E60012000F0E0FD4FF00109C7F80090ED
:103FB000484600F0D9FD3E60B2464E464FF6FF79C6
:103FC000A7F5C27709EA4404C7F884A1012000F0EC
:103FD000CBFDC7F88461D7F8080108B1641CA4B20E
:103FE0006D1CEDB2102DEDD32009C8F8AC61C0E70F
:103FF000FEB5064600246D463046FFF7BCFF25F8A7
:104000001400641CA4B2052CF6D300214C1CA0B2F1
:104010000BE035F8113035F81020934203D925F81C
:10402000112025F81030401C80B20528F1D3A1B230
:104030000429EBD30021012035F81020401C114445
:1040400080B289B20428F7D30320B1FBF0F0FEBDA3
:104050002DE9F041BB4F06460D463878FFF7C8FF03
:1040600004467878FFF7C4FF348028800120BDE83B
:10407000F08170B586B00C460546694604A8FFF786
:10408000E7FF00282FD001A903A8FFF7E1FF0028D0
:1040900029D0BDF80C30BDF81020934203D803F1AD
:1040A0003200824205D39A421FD802F13200834285
:1040B0001BD2BDF80410BDF80000814203D801F105
:1040C0003206B04204D388420FD8323081420CD23B
:1040D000D01840082880BDF80000BDF8041008443E
:1040E00040082080012006B070BD0020FBE72DE9CC
:1040F000F041044694480D460B46028004F10D0041
:1041000082B2193880B2FEF735FD05F10D0083B299
:10411000193881B222461046FEF72CFD6E1C04F1C0
:104120000108B1B21FFA88F0FCF751FCB1B2661E6B
:10413000B0B2FCF74CFC6F1EB9B21FFA88F0FCF766
:1041400046FCB9B2B0B2FCF742FC29462046BDE8B5
:10415000F0410622FEF774BD70B506467A480C465B
:1041600002803046FCF733FC751CA8B22146FCF7F0
:104170002EFC641CA1B23046FCF729FCA1B2A8B207
:10418000BDE87040FCF723BC70B56C49D1F828112C
:104190006C4C241D41B194F82000010641D520F05B
:1041A000800084F8200043E00200664800F104002B
:1041B00000F1160100F10C0002D0FFF75AFF24E0D5
:1041C000FFF757FF08B3B4F92C0024F063FA054653
:1041D000A08924F077FA616A24F088FA294624F04D
:1041E000B3F824F037FAA081B4F92E0024F052FA83
:1041F0000546E08A24F066FAA16A24F077FA294697
:1042000024F0A2F824F026FAE08294F820000006B8
:104210000ED4C02084F82000A089A082E08AE08328
:1042200006E00020A082E0834FF6FF70A081E082CC
:1042300094F8200000F0800070BD424910B50E22B5
:1042400028312820FFF7BFF80A21BDE810403620AA
:10425000FFF74DB810B53620FFF728F80A2801D02F
:10426000002010BD37490E2228312820FFF79AF888
:1042700034489022001D90F83030001FD02113B137
:104280000270417001E001704270012010BD2DE903
:10429000FF4F83B00E46DDE910A92B4907464FF4C6
:1042A0007840DDF85080088028A01024CDE9004037
:1042B000274D9346A0216B882A882820FEF704FE0C
:1042C00024A0CDE900406B882A88A0217820FEF741
:1042D000FBFD21A0CDE900406B882A88B42128206D
:1042E000FEF7F2FD1DA0CDE900406B882A88B421BD
:1042F0007820FEF7E9FD1AA0CDE900406B882A88F6
:10430000C8212820FEF7E0FD16A0CDE900406B880B
:104310002A88C8217820FEF7D7FD13A0CDE90040F8
:104320006B882A88DC212820FEF7CEFD0FA0CDE97E
:104330000040DC216B882A88782019E00080234225
:1043400000802142300000202600002078313A0011
:10435000DC0E002079313A0078323A0079323A00A6
:1043600078333A0079333A0078343A0079343A00B5
:10437000FEF7AAFDFEA0CDE900406B882A88F02157
:104380002820FEF7A1FD04233A46A02140200094F6
:10439000FEF711FD04233246A02190200094FEF781
:1043A0000AFD04235A46B42140200094FEF703FD81
:1043B00004230094B4219020069AFEF7FCFC042309
:1043C0005246C82140200094FEF7F5FC04234A46DB
:1043D000C82190200094FEF7EEFC04230094DC2119
:1043E0004020129AFEF7E7FC04230094DC21902081
:1043F000139AFEF7E0FC03234246F021602000946C
:10440000FEF7D9FC07B0BDE8F08F2DE9F04FDA4E8A
:1044100089B01F203080D9484FF6FF7700250780EC
:104420002C463846FCF73FFC4FF47848A6F800804D
:104430003846FCF738FCD248002737800168102046
:10444000CDE9000128216423A0220846FEF73CFDA7
:10445000142142460846FFF74AFECA48DFF828837F
:1044600080F820704762C74E01207168884796F82F
:1044700020000121B1EB901F4AD120F0400086F8C6
:10448000200005A8B28920F8252000EB85006D1CCE
:104490000024F18AEDB24180012D06D0022D12D008
:1044A000032D21D0042D33D13EE014214FF6FF72AD
:1044B0000846FFF71CFEB8F800004FF478421438A5
:1044C00080B2142122E0B8F800004646143880B2C9
:1044D0004FF6FF721421FFF70AFE70884FF47842FE
:1044E000143881B2142011E0B8F80200464614389E
:1044F00081B24FF6FF721420FFF7F9FD70884FF478
:104500007842143881B23088143880B2FFF7EFFD5A
:104510000A2000F041FB641CA4B2B4F57A7FA2D952
:10452000FFF798FE09B06EE7BDF81400BDF818104B
:10453000411A00D54942BDF81600BDF81A20801A6C
:1045400000D5404249434043084423F071FB23F027
:1045500097F823F029FB85B2BDF81C00BDF82010A8
:10456000411A00D54942BDF81E00BDF82220801A2C
:1045700000D5404249434043084423F059FB23F00F
:104580007FF823F011FB80B2814624F09BF80646A9
:10459000284624F097F8314623F04AFF23F0A8FE7E
:1045A00006460F464FF06632784B23F055FB4FD34B
:1045B000774A784B3046394623F088FC48D3E5B338
:1045C000B9F1000F44D0BDF81400BDF81C10411A19
:1045D00000D54942BDF81600BDF81E20801A00D54E
:1045E000404249434043084423F022FB23F048F86B
:1045F00023F0DAFA85B2BDF81800BDF82010411A90
:1046000000D54942BDF81A00BDF82220801A00D515
:10461000404249434043084423F00AFB23F030F86A
:1046200023F0C2FA80B224F04DF80646284624F062
:1046300049F8314623F0FCFE00E009E023F058FE83
:1046400006460F464FF06632504B23F005FB26D24C
:10465000B8F80210B8F8000014391438002589B2EF
:1046600080B24FF6FF72FFF742FD14214FF47842FB
:104670000846FFF73CFD0022474B3046394623F001
:1046800027FB23F091FA80B2BDF82220BDF820303C
:10469000BDF81E10CDE90320CDE9011391E0DFF84C
:1046A000F0B0DFF8F0905A464B463046394623F0DA
:1046B0000DFCCDD3BDF81800BDF81C10411A00D573
:1046C0004942BDF81A00BDF81E20801A00D54042AC
:1046D00049434043084423F0ABFA22F0D1FF23F0D2
:1046E00063FA85B2BDF81400BDF82010411A00D558
:1046F0004942BDF81600BDF82220801A00D540427C
:1047000049434043084423F093FA22F0B9FF23F0D1
:104710004BFA80B223F0D6FF0646284623F0D2FF9C
:10472000314623F085FE23F0E3FD06460F464FF0A9
:104730006632164B23F090FA06D35A464B46304663
:10474000394623F0C3FB4AD2B8F80210B8F800008B
:1047500014391438002589B280B24FF6FF72FFF782
:10476000C6FC14214FF478420846FFF7C0FC15E060
:104770006661632069733A0026000020280000204B
:10478000E4A2020834000020DC0E00206666EE3F42
:10479000CDCCCCCCCCCCF03F000059400022A24B79
:1047A0003046394623F094FA23F0FEF980B2BDF882
:1047B0002210BDF82030BDF81E20CDE90310CDE950
:1047C0000123BDF81C000090BDF81A30BDF8182078
:1047D000BDF81610BDF81400FFF759FD43E6BDF80B
:1047E0001800BDF814708146C01B23F053FFB8F8C1
:1047F00000600546A6F1280023F04CFF294623F06F
:1048000017FE8A4D8246686209EB070023F05AFFC3
:10481000514623F06BFF0746304623F053FF3946DD
:1048200024F030F84FF0FF3124F0D3F823F0F6FEF7
:10483000A885BDF81E00BDF816108346401A0191E8
:1048400023F028FFB8F802708146A7F1280023F072
:1048500021FF494623F0ECFDA862019981460090B2
:104860000BEB010023F02EFF494623F03FFF81466A
:10487000384623F027FF494624F004F84FF0FF3173
:1048800024F0A7F823F0CAFEE885504623F0C6FEC0
:10489000002800DA4042022807DC009823F0BEFE20
:1048A000002800DA4042022831DD143F143E002582
:1048B000B9B2B0B24FF6FF72FFF719FC14214FF4F2
:1048C00078420846FFF713FC59A11020CDE90001FA
:1048D000B8F80230B8F800201A212820FEF7F4FAC0
:1048E000524991F8300048B1002081F8300038B1C9
:1048F0004E489021001F0170D02106E00120F4E70E
:104900004A48D021001F017090214170ABE54D480D
:104910001F214FF6FF7401802046FCF7C4F94AA11D
:104920001020CDE90001B8F80230B8F800206E215F
:104930002320FEF7C9FA4FF47A7000F02DF9FFF743
:104940007CFC2046FCF7AFF9ECE570B5444D374CE4
:10495000A888A0F5AA41103939D0A0F5C85163390B
:1049600048D04048816941F008018161816941F086
:10497000800181613C48016821F47F610160016828
:1049800041F40361016038480C30016841F00601D0
:104990000160364801684FF6F0729143016001688A
:1049A00043F630021143016030480830016841F499
:1049B0006061016004F11601A1F10A00FFF748FBF4
:1049C000FEF772FCFFF746FC18B3002070BDFFF73E
:1049D0000AF868B1FFF7B6F92548606014F8300F9F
:1049E000A97940F0800001F0010108432070ECE754
:1049F0002048F2E7FEF77DFE1F48606094F8300023
:104A0000A97940F0800001F00101084384F83000EA
:104A1000DBE74FF6FF70FCF746F9FFF7F6FCFFF710
:104A200019FC012070BD0000000059403400002036
:104A30005450204E65656420726561646A757374B4
:104A40002100000026000020546F75636820536326
:104A50007265656E2041646A757374204F4B210046
:104A6000DC0E002000100240000C0140041C01403C
:104A7000BF3D0008BF3A0008A13700087FB50D46CA
:104A800004460121022000F019FFADF80440ADF802
:104A9000005000241E4DADF80640ADF802406946B6
:104AA000284600F0E9FF01221146284601F0A1FA4C
:104AB0001D208DF80C0001218DF80D108DF80E4091
:104AC0008DF80F1003A800F020FA0121284601F00C
:104AD0007BFA7FBD0F4800220260426047213120EF
:104AE000CCE710B50A4C0121204601F096FC0128C4
:104AF00007D108490A684868521C40F100000A6062
:104B000048602046BDE81040012101F092BC000041
:104B1000000400406800002010B503F027FA0128C7
:104B200003D0BDE8104004F002B910BD10B5042058
:104B300000F02BFA2B482C492C4A0068B0FBF1F30B
:104B4000B0FBF1F14FF47A704143137001205080B3
:104B50004FF0E020026942F0020202614161016906
:104B600041F00101016110BD70B54FF0E025002159
:104B70006C691E4AAB6912785043AA699A42FCD00C
:104B800002D2A3EB020302E0A4EB02063344194471
:104B900013468142F1D370BD70B5044603F0E6F9C7
:104BA00001280CD0114D6888844203D3B4FBF0F087
:104BB00002F092FD6888B4FBF0F100FB11444FF461
:104BC0007A706043BDE87040CEE770B505460024BA
:104BD0004FF47A7603E03046FFF7C6FF641CAC4220
:104BE000F9D370BD1000002040420F00700000207B
:104BF000704740490A885206FCD53E4AC1B2121D90
:104C00001180704770B5054686B0012144F204005A
:104C100000F04BFE4FF40070ADF8100003248DF847
:104C200012401820344E8DF8130004A9304600F0CD
:104C300054FC3015ADF8100004208DF8130004A9C1
:104C4000304600F04AFC25208DF814008DF8154000
:104C50008DF8164001208DF8170005A800F055F9D1
:104C60000020ADF80400ADF80600ADF80800ADF87E
:104C70000C000C201F4CADF80A0000956946204638
:104C800001F00AFC012240F22551204601F081FC8E
:104C90000121204601F073FC06B070BD70B5154CC3
:104CA00040F22551204601F02BFD00280ED0204671
:104CB00001F0BFFC114AC1B21088030406D44404B9
:104CC0004FF0000306D50A2901D0138070BD40F4CF
:104CD00000400DE00D2909D0C0F30D04084D401C23
:104CE00080B229551080C728EFD870BD40F48040AD
:104CF000108070BD003801400008014074000020A1
:104D0000EA0E00200948804709480047FEE7FEE711
:104D1000FEE7FEE7FEE7FEE7FEE7FEE7FEE7FEE76B
:104D200004480549054A064B70470000E5040008A1
:104D30003101000878D5002078DF002078D70020E6
:104D400078D7002003E011F8013B00F8013B521E28
:104D5000F9D2704701E000F8011B521EFBD27047E8
:104D600070B504466448654E002150F8240006EBF7
:104D7000840542002869FFF7EDFF5F4800211030ED
:104D800050F82420A868FFF7E5FF012031190876C4
:104D900070BD10B5584B594C002253F820301146C5
:104DA00004EB800005E0046934F8114004B1521CA2
:104DB000491C8B42F7D864204243B2FBF3F0C0B2E7
:104DC00010BD2DE9F0414D4E0546002470190F46E7
:104DD000007E10B93168284688474FF0FF327FB314
:104DE000454B083353F82510B7FBF1F0B7FBF1FC46
:104DF00001FB1C7101B1401C3F4951F82510491EAF
:104E00001ED406EB8506376937F811C0BCF1000FD8
:104E100005D00024844211D1002284B207E0641C32
:104E2000F8E7376901EB020C521C27F81C4082425C
:104E3000F7D353F825004843BDE8F081491EE3D578
:104E40001046F9E770B52D4A13181B7E9BB12A4B0B
:104E5000103353F820308B421AD9274B02EB8002D3
:104E6000083353F820301069B1FBF3F130F81140EA
:104E70000020034608E011688847012070BD1569CD
:104E80000E18401C25F81630A042F8DB002070BD3B
:104E9000022070BD002905D0184A02EB80029268FA
:104EA000891ACFE7704710B50446FFF78AFF411C07
:104EB00005D0124901EB84018968084410BD002027
:104EC00010BD2DE9F0418846174606461146FFF70A
:104ED00078FF0446401CAFD008483A4600EB8605F0
:104EE0004146A8682044FFF72DFF41463046FFF7B2
:104EF000D1FFA86820449FE7E8A202087C000020B8
:104F00002849084328490860704730B50F23C27804
:104F100001780125F2B1244A126801F1E02102F47E
:104F2000E062C2F5E062120AC2F10404D3404278A2
:104F3000A24084781C401443220181F800240078A8
:104F400000F01F018D404009800000F1E020C0F812
:104F5000005130BD01F01F0085404809800000F17C
:104F6000E020C0F8805130BD104A114001430E4886
:104F7000001F016070470C4A121D0029116801D002
:104F8000014300E08143116070474FF0E0210428A5
:104F9000086903D020F004000861704740F0040065
:104FA000FAE700000000FA050CED00E080FFFF1FAB
:104FB0008100A1F1C04140B143F2D20008606FF01E
:104FC00070404860C1F8040170474FF0204243F23E
:104FD000DB001060F3E710B5182340244FF02041A8
:104FE0004FF0FC32102805D041F8803F4C608A60B9
:104FF000CA6010BD0B664C668A66CA6610BD4FF06B
:105000002040182140F8A01F002141604FF0FC31E2
:105010008160C1600161704710B5D0E90112114390
:10502000D0E903231A4311434269114382691143B2
:10503000C2691143026A1143426A1143826A1143F1
:10504000C26A1143026B114302689200A2F1C0428E
:1050500011608168082907D101688900A1F1C04168
:105060000A6842F040020A60416BD1E9002342EA3B
:1050700003128B688C891B0243EA04431A430B8A90
:1050800042EA03520B7D896942EA03620A430168DE
:105090008900A1F1C0414A60C16AB1F5804F08D0D2
:1050A00000686FF070418000A0F1C040C0F80411AA
:1050B00010BD816BD1E9002342EA03128B680C8A90
:1050C0001B0243EA04531A430B7D896942EA0362D7
:1050D00000680A438000A0F1C040C0F8042110BD60
:1050E00030B5D0E901121143D0E903231A4311432B
:1050F000426941EA4221826941EA423141F00804B1
:10510000C169D1E9002342EA03220B89097B1B0410
:1051100043EA01610A43016AD1E9003543EA052304
:105120000D89097B2D0445EA01610B4301684FF0AD
:105130002040102904D040F8804F8260C36030BD09
:1051400004668266C36630BD10B5D0E9001241EA3C
:1051500042218268102343EA423211434FF0204239
:1051600042F8A01FC168D1E9003443EA04230C8946
:10517000097B240444EA01610B4393600169D1E98E
:10518000003443EA04230C89097B240444EA0161C6
:105190000B43D3604069D0E9001341EA032103893E
:1051A000007B1B0443EA00600143116110BD10B590
:1051B00000210222C0E900128160C16001614161E9
:1051C0008161D202C161C0E908125200C0E90A211E
:1051D0000163436B0F221A60436B5A60446BFF23D9
:1051E000A360446BE260446B2261446B6261446B78
:1051F000A161846B2260846B6260846BA360836BAB
:10520000DA60836B1A61836B5A61806B816110BDB8
:1052100010210160002141608160C1600161416134
:105220008161C269FC211160C2695160C2699160EB
:10523000C269D160026A1160026A5160026A9160BB
:10524000006AC16070470021016041608160C268EE
:10525000FC211160C2685160C2689160C268D1606F
:105260000269116002695160026991600269D1604E
:105270004269116042695160426991604069C16050
:1052800070478000A0F1C0400029016802D041F0C1
:10529000010101E0644A1140016070474FF0204273
:1052A00051B1102804D052F8800F40F004000AE0F9
:1052B000106E40F004000AE05B49C91E102804D0BB
:1052C00052F8800F084010607047106E084010665A
:1052D00070474FF02041002851F8A00F02D040F055
:1052E000040002E0504AD21E1040086070474FF0A0
:1052F000204251B1102804D052F8800F40F04000F5
:105300000AE0106E40F040000AE047493F3910289B
:1053100004D052F8800F084010607047106E0840AB
:10532000106670474FF02041102802D0D1F8940049
:105330007047486F704710B54FF480744FF02043AA
:1053400072B1102804D0A04205D153F8840F04E0B4
:10535000586E08430DE053F8A40F0843186010BDC1
:10536000102804D0A04206D153F8840F05E0586EEF
:105370008843586610BD53F8A40F8843EEE70346F0
:1053800000204FF02042102B08D0B3F5807F07D0CB
:10539000D2F8A4200A4200D001207047526EF9E7EB
:1053A000D2F88420F6E74FF02042102807D0B0F55D
:1053B000807F08D052F8A40F884310607047506E69
:1053C00088435066704752F8840FF5E70346002083
:1053D0004FF02042102B0CD0B3F5807F0BD0D2F8C9
:1053E000A4200A4202EAD10102D0002900D0012003
:1053F0007047526EF5E7D2F88420F2E74FF0204272
:10540000102808D0B0F5807F0AD052F8A40F20EA07
:10541000D10010607047506E20EAD100506670478E
:1054200052F8840FF3E70000FEFF0F008F4910B51C
:10543000884206D10121042000F049FA002104200D
:105440003BE08B49884206D10121082000F03FFA59
:105450000021082031E08749884206D1012110202F
:1054600000F035FA0021102027E08349884206D158
:105470000121202000F02BFA002120201DE07F498F
:10548000884206D10121402000F021FA002140206D
:1054900013E07B49884206D10121802000F017FAF1
:1054A0000021802009E0774988420AD18415012132
:1054B000204600F00CFA00212046BDE8104000F024
:1054C00006BA10BD10B50121084600F000FA00210F
:1054D000BDE81040012000F0FAB9F0B5CC78002208
:1054E00004F00F03E40601D58C7823430C784FF0C9
:1054F0000F0C14F0FF0F4FF0010E1BD005680E8843
:105500000EFA02F42640A64210D196000CFA06F7D5
:1055100025EA070703FA06F5CE783D43282E02D088
:10552000482E02D002E0446100E00461521C082AC7
:10553000E5D305600A88FF2A1CD94468002202F1DD
:1055400008060EFA06F50E882E40AE420ED19600E1
:105550000CFA06F7BC4303FA06F7CE783C43282E34
:1055600000D14561CE78482E00D10561521C082A31
:10557000E5D34460F0BD4FF6FF71018002218170D8
:105580000421C17070470246002092680A4200D090
:1055900001207047806880B2704702460020D268C0
:1055A0000A4200D001207047C06880B27047016194
:1055B0007047416170470AB10161704741617047AE
:1055C000C160704741F4803282618161826181698A
:1055D000806970472C4B10B51A684FF680742240D2
:1055E00042EA00100843186010BD2849C86170479E
:1055F000F0B5254C002801DAE36900E06368450D49
:105600002E0185B2C0F30157B540C0F30342032F0A
:1056100005D0C6020AD503269640B34307E023F01F
:105620007062636823F07063636002E0AB4343F031
:10563000706201B12A43002801DAE261F0BD6260C4
:10564000F0BD10B58A0721F003040F49120F214461
:105650000F238C6893409C438C608B68904003437D
:105660008B6010BD0949C1F8DC007047000801409B
:10567000000C0140001001400014014000180140DE
:10568000001C0140002001400000014000002042B9
:10569000A548016841F0010101604168A34A114039
:1056A00041600168A24A11400160016821F4802133
:1056B0000160416821F4FE0141604FF41F018160E7
:1056C000704799490A6822F480320A600A6822F415
:1056D00080220A60B0F5803F07D0B0F5802F03D15B
:1056E000086840F4A02008607047086840F48030E3
:1056F000F9E70346002059098B4A01290AD00229FB
:105700000AD0516A03F01F02012393400B4200D0DC
:10571000012070471168F5E7116AF3E718B500201A
:105720004FF4A06400903120FFF7E3FF0099491C7B
:105730000091A14201D00028F5D03120FFF7D9FF18
:10574000002800D0012018BD774A116821F0F80127
:1057500041EAC00010607047764908607047724B9C
:105760005A68084322F47C1210435860704771490C
:10577000086670476C4A516821F00301014351608B
:1057800070476948406800F00C007047664A5168ED
:1057900021F0F001014351607047634A516821F4E0
:1057A000E0610143516070475F4A516821F46051E4
:1057B00041EAC000506070475B4A0029517A01D02D
:1057C000014300E08143517270475A49C1F8D80043
:1057D0007047554A516821F4404101435160704778
:1057E0005149002281F8202081F82020012802D090
:1057F000042802D1052081F8200070474E49086036
:10580000704749490A6A02430A6270474A49443963
:105810000860704730B5444A5168484B11F00C019C
:1058200003D0042901D0082901D0036012E0516897
:10583000536801F470114FF0020413F4803F04EB3D
:10584000914102D053689B0301D53D4B00E03B4B97
:105850005943016051680F2303EA1111394B5C5C15
:105860000168E14041605468072505EA14241C5D85
:1058700021FA04F48460546805EAD4241B5DD940FD
:10588000C1605268032303EA92322E4B1B1F9A5CBD
:10589000B1FBF2F1016130BD234A0029516901D009
:1058A000014300E08143516170471F4A002991691B
:1058B00001D0014300E08143916170471A4A0029F9
:1058C000D16901D0014300E08143D1617047164A9C
:1058D0000029D16801D0014300E08143D1607047C5
:1058E000114A0029116901D0014300E0814311618F
:1058F000704711494039086070470E49C8647047C5
:105900000949C87170470848416A41F08071416295
:105910007047054A0146002092680A4200D00120E3
:105920007047014988727047001002400000FFF87C
:10593000FFFFF6FE000042428004424200127A005D
:1059400000093D009C000020F94910B5884202D1B1
:105950000121C41486E0B0F1804F09D0F549884296
:105960000DD101210220FFF7BBFF0021022064E0DE
:1059700001210846FFF7B4FF002101205DE0EE4958
:10598000884206D101210420FFF7AAFF002104204C
:1059900053E0EA49884206D101210820FFF7A0FF21
:1059A0000021082049E0E649884206D10121102063
:1059B000FFF796FF002110203FE0E249884206D120
:1059C00001212020FFF78CFF0021202035E0DE4957
:1059D000884202D10121441444E0DC49884202D1CA
:1059E0000121CC043EE0DA49884202D101210C05B4
:1059F00038E0D849884202D101214C0532E0D6492D
:105A0000884206D101214020FFF76AFF0021402093
:105A100013E0D249884206D101218020FFF760FFC0
:105A20000021802009E0CE4988420AD18415012155
:105A30002046FFF755FF00212046BDE81040FFF744
:105A40004FBFC849884202D101210C040AE0C6496F
:105A5000884202D101214C0404E0C44988420AD1A1
:105A600001218C042046FFF732FF2046BDE810409C
:105A70000021FFF72CBF10BD30B50288AC4CB24DF1
:105A8000A0420DD0A8420BD0B0F1804F08D0A94B56
:105A9000984205D0A84B984202D0A84B984203D117
:105AA00022F070034A881A43A54B984206D0A54BB2
:105AB000984203D022F44073CA881A4302808A882D
:105AC00082850A880285A0420AD0A84208D0A54A49
:105AD000904205D0A44A904202D0A44A904201D1FB
